{"abi":[{"type":"constructor","inputs":[],"stateMutability":"nonpayable"},{"type":"receive","stateMutability":"payable"},{"type":"function","name":"DEFAULT_ADMIN_ROLE","inputs":[],"outputs":[{"name":"","type":"bytes32","internalType":"bytes32"}],"stateMutability":"view"},{"type":"function","name":"UPGRADE_INTERFACE_VERSION","inputs":[],"outputs":[{"name":"","type":"string","internalType":"string"}],"stateMutability":"view"},{"type":"function","name":"getGovernance","inputs":[],"outputs":[{"name":"","type":"address","internalType":"address"}],"stateMutability":"view"},{"type":"function","name":"getRoleAdmin","inputs":[{"name":"role","type":"bytes32","internalType":"bytes32"}],"outputs":[{"name":"","type":"bytes32","internalType":"bytes32"}],"stateMutability":"view"},{"type":"function","name":"grantRole","inputs":[{"name":"role","type":"bytes32","internalType":"bytes32"},{"name":"account","type":"address","internalType":"address"}],"outputs":[],"stateMutability":"nonpayable"},{"type":"function","name":"hasRole","inputs":[{"name":"role","type":"bytes32","internalType":"bytes32"},{"name":"account","type":"address","internalType":"address"}],"outputs":[{"name":"","type":"bool","internalType":"bool"}],"stateMutability":"view"},{"type":"function","name":"initialize","inputs":[],"outputs":[],"stateMutability":"nonpayable"},{"type":"function","name":"proxiableUUID","inputs":[],"outputs":[{"name":"","type":"bytes32","internalType":"bytes32"}],"stateMutability":"view"},{"type":"function","name":"renounceRole","inputs":[{"name":"role","type":"bytes32","internalType":"bytes32"},{"name":"callerConfirmation","type":"address","internalType":"address"}],"outputs":[],"stateMutability":"nonpayable"},{"type":"function","name":"revokeEmergencyAdmin","inputs":[{"name":"revokedAddress","type":"address","internalType":"address"}],"outputs":[],"stateMutability":"nonpayable"},{"type":"function","name":"revokeRole","inputs":[{"name":"role","type":"bytes32","internalType":"bytes32"},{"name":"account","type":"address","internalType":"address"}],"outputs":[],"stateMutability":"nonpayable"},{"type":"function","name":"setEmergencyAdmin","inputs":[{"name":"newEmergencyAdmin","type":"address","internalType":"address"}],"outputs":[],"stateMutability":"nonpayable"},{"type":"function","name":"setGovernance","inputs":[{"name":"newGovernance","type":"address","internalType":"address"}],"outputs":[],"stateMutability":"nonpayable"},{"type":"function","name":"supportsInterface","inputs":[{"name":"interfaceId","type":"bytes4","internalType":"bytes4"}],"outputs":[{"name":"","type":"bool","internalType":"bool"}],"stateMutability":"view"},{"type":"function","name":"upgradeToAndCall","inputs":[{"name":"newImplementation","type":"address","internalType":"address"},{"name":"data","type":"bytes","internalType":"bytes"}],"outputs":[],"stateMutability":"payable"},{"type":"function","name":"withdraw","inputs":[{"name":"amount","type":"uint256","internalType":"uint256"},{"name":"token","type":"address","internalType":"address"}],"outputs":[],"stateMutability":"nonpayable"},{"type":"function","name":"withdraw","inputs":[{"name":"amount","type":"uint256","internalType":"uint256"}],"outputs":[],"stateMutability":"nonpayable"},{"type":"event","name":"Initialized","inputs":[{"name":"version","type":"uint64","indexed":false,"internalType":"uint64"}],"anonymous":false},{"type":"event","name":"RoleAdminChanged","inputs":[{"name":"role","type":"bytes32","indexed":true,"internalType":"bytes32"},{"name":"previousAdminRole","type":"bytes32","indexed":true,"internalType":"bytes32"},{"name":"newAdminRole","type":"bytes32","indexed":true,"internalType":"bytes32"}],"anonymous":false},{"type":"event","name":"RoleGranted","inputs":[{"name":"role","type":"bytes32","indexed":true,"internalType":"bytes32"},{"name":"account","type":"address","indexed":true,"internalType":"address"},{"name":"sender","type":"address","indexed":true,"internalType":"address"}],"anonymous":false},{"type":"event","name":"RoleRevoked","inputs":[{"name":"role","type":"bytes32","indexed":true,"internalType":"bytes32"},{"name":"account","type":"address","indexed":true,"internalType":"address"},{"name":"sender","type":"address","indexed":true,"internalType":"address"}],"anonymous":false},{"type":"event","name":"Upgraded","inputs":[{"name":"implementation","type":"address","indexed":true,"internalType":"address"}],"anonymous":false},{"type":"error","name":"AccessControlBadConfirmation","inputs":[]},{"type":"error","name":"AccessControlUnauthorizedAccount","inputs":[{"name":"account","type":"address","internalType":"address"},{"name":"neededRole","type":"bytes32","internalType":"bytes32"}]},{"type":"error","name":"AddressEmptyCode","inputs":[{"name":"target","type":"address","internalType":"address"}]},{"type":"error","name":"ERC1967InvalidImplementation","inputs":[{"name":"implementation","type":"address","internalType":"address"}]},{"type":"error","name":"ERC1967NonPayable","inputs":[]},{"type":"error","name":"FailedInnerCall","inputs":[]},{"type":"error","name":"InvalidInitialization","inputs":[]},{"type":"error","name":"NotInitializing","inputs":[]},{"type":"error","name":"UUPSUnauthorizedCallContext","inputs":[]},{"type":"error","name":"UUPSUnsupportedProxiableUUID","inputs":[{"name":"slot","type":"bytes32","internalType":"bytes32"}]}],"bytecode":{"object":"0x60a080604052346100cc57306080527ff0c57e16840df040f15088dc2f81fe391c3923bec73e23a9662efc9c229c6a009081549060ff8260401c166100bd57506001600160401b036002600160401b031982821601610078575b6040516112c490816100d28239608051818181610512015261060f0152f35b6001600160401b031990911681179091556040519081527fc7f505b2f371ae2175ee4913f4499e1f2633a7b5936321eed1cdaeb6115181d290602090a1388080610059565b63f92ee8a960e01b8152600490fd5b600080fdfe60406080815260048036101561001f575b5050361561001d57600080fd5b005b600091823560e01c8062f714ce14610aee57806301ffc9a714610a4d578063248a9ca314610a03578063289b3c0d146109af5780632e1a7d4d146109915780632f2ff15d1461096957806335da33941461093e57806336568abe146108d15780634c622006146108a65780634f1ef2861461058757806352d1902d146104e85780638129fc1c1461035957806391d14854146102e7578063a217fddf146102c8578063ab033ea914610236578063ad3cb1cc146101485763d547741f146100e65750610010565b34610144578060031936011261014457610140913561013b6001610108610b11565b938387527f02dd7bc7dec4dceedda775e58dd541e08a116c6c53815c0bd028192f7b626800602052862001543390610cff565b6110d4565b5080f35b8280fd5b5090346101445782600319360112610144578151908282019082821067ffffffffffffffff83111761020a57508252600581526020907f352e302e300000000000000000000000000000000000000000000000000000006020820152825193849260208452825192836020860152825b8481106101f457505050828201840152601f017fffffffffffffffffffffffffffffffffffffffffffffffffffffffffffffffe0168101030190f35b81810183015188820188015287955082016101b8565b8460416024927f4e487b7100000000000000000000000000000000000000000000000000000000835252fd5b83346102c55760206003193601126102c557610250610b39565b61025933610caf565b61026281610e3a565b5073ffffffffffffffffffffffffffffffffffffffff7fbe22a97ce56bf984cece6021e328584abbd5b3cd394ccbe3b6884d525c48c40091167fffffffffffffffffffffffff000000000000000000000000000000000000000082541617905580f35b80fd5b8382346102e357816003193601126102e35751908152602090f35b5080fd5b5090346101445781600319360112610144578160209360ff92610308610b11565b903582527f02dd7bc7dec4dceedda775e58dd541e08a116c6c53815c0bd028192f7b626800865273ffffffffffffffffffffffffffffffffffffffff83832091168252855220541690519015158152f35b5090346101445782600319360112610144577ff0c57e16840df040f15088dc2f81fe391c3923bec73e23a9662efc9c229c6a0090815460ff81851c16159167ffffffffffffffff8216801590816104e0575b60011490816104d6575b1590816104cd575b506104a657508160017fffffffffffffffffffffffffffffffffffffffffffffffff00000000000000008316178455610471575b506103fa611195565b610402611195565b61040a611195565b610412611195565b61041a578280f35b7fc7f505b2f371ae2175ee4913f4499e1f2633a7b5936321eed1cdaeb6115181d291817fffffffffffffffffffffffffffffffffffffffffffffff00ffffffffffffffff602093541690555160018152a138808280f35b7fffffffffffffffffffffffffffffffffffffffffffffff0000000000000000001668010000000000000001178255386103f1565b84517ff92ee8a9000000000000000000000000000000000000000000000000000000008152fd5b905015386103bd565b303b1591506103b5565b8491506103ab565b5082346102c557806003193601126102c5575073ffffffffffffffffffffffffffffffffffffffff7f000000000000000000000000000000000000000000000000000000000000000016300361056157602090517f360894a13ba1a3210667c828492db98dca3e2076cc3735a920a3ca505d382bbc8152f35b517fe07c8dba000000000000000000000000000000000000000000000000000000008152fd5b50806003193601126101445761059b610b39565b90602493843567ffffffffffffffff81116102e357366023820112156102e357808501356105c881610bcc565b946105d585519687610b5c565b81865260209182870193368a83830101116108a2578186928b86930187378801015273ffffffffffffffffffffffffffffffffffffffff807f000000000000000000000000000000000000000000000000000000000000000016803014908115610874575b5061084c5761064833610caf565b81169585517f52d1902d00000000000000000000000000000000000000000000000000000000815283818a818b5afa869181610819575b506106b45750505050505051917f4c9c8ce3000000000000000000000000000000000000000000000000000000008352820152fd5b9088888894938c7f360894a13ba1a3210667c828492db98dca3e2076cc3735a920a3ca505d382bbc918281036107ec5750853b156107bf575080547fffffffffffffffffffffffff000000000000000000000000000000000000000016821790558451889392917fbc7cd75a20ee27fd9adebab32041f755214dbc6bffa90cc0225b39da2e5c2d3b8580a28251156107885750506101409582915190845af4913d1561077e573d61077061076782610bcc565b92519283610b5c565b81528581943d92013e6111ee565b50606092506111ee565b95509550505050503461079a57505080f35b7fb398979f000000000000000000000000000000000000000000000000000000008152fd5b83838851917f4c9c8ce3000000000000000000000000000000000000000000000000000000008352820152fd5b84908851917faa1d49a4000000000000000000000000000000000000000000000000000000008352820152fd5b9091508481813d8311610845575b6108318183610b5c565b810103126108415751903861067f565b8680fd5b503d610827565b8786517fe07c8dba000000000000000000000000000000000000000000000000000000008152fd5b9050817f360894a13ba1a3210667c828492db98dca3e2076cc3735a920a3ca505d382bbc541614153861063a565b8580fd5b83346102c55760206003193601126102c5576101406108c3610b39565b6108cc33610c06565b610ffe565b508290346102e357806003193601126102e3576108ec610b11565b903373ffffffffffffffffffffffffffffffffffffffff83160361091657506101409192356110d4565b8390517f6697b232000000000000000000000000000000000000000000000000000000008152fd5b83346102c55760206003193601126102c55761014061095b610b39565b61096433610c06565b610d5d565b5034610144578060031936011261014457610140913561098c6001610108610b11565b610f39565b83346102c55760206003193601126102c5576109ac33610c06565b80f35b8382346102e357816003193601126102e35760209073ffffffffffffffffffffffffffffffffffffffff7fbe22a97ce56bf984cece6021e328584abbd5b3cd394ccbe3b6884d525c48c40054169051908152f35b50903461014457602060031936011261014457816020936001923581527f02dd7bc7dec4dceedda775e58dd541e08a116c6c53815c0bd028192f7b62680085522001549051908152f35b5090346101445760206003193601126101445735907fffffffff00000000000000000000000000000000000000000000000000000000821680920361014457602092507f7965db0b000000000000000000000000000000000000000000000000000000008214918215610ac4575b50519015158152f35b7f01ffc9a70000000000000000000000000000000000000000000000000000000014915038610abb565b8382346102e3576003193601126102c557610b07610b11565b506109ac33610c06565b6024359073ffffffffffffffffffffffffffffffffffffffff82168203610b3457565b600080fd5b6004359073ffffffffffffffffffffffffffffffffffffffff82168203610b3457565b90601f7fffffffffffffffffffffffffffffffffffffffffffffffffffffffffffffffe0910116810190811067ffffffffffffffff821117610b9d57604052565b7f4e487b7100000000000000000000000000000000000000000000000000000000600052604160045260246000fd5b67ffffffffffffffff8111610b9d57601f017fffffffffffffffffffffffffffffffffffffffffffffffffffffffffffffffe01660200190565b73ffffffffffffffffffffffffffffffffffffffff1660008181527ff2e0a8360026a616a5c33ed370a5497cc3baf8a817a474a098d5f8687be72a0f60205260409020547ff018c6c8c8da18060a4e6807987a0a03fba6c9fba4a5c9531151020efe3268149060ff1615610c78575050565b60449250604051917fe2517d3f00000000000000000000000000000000000000000000000000000000835260048301526024820152fd5b73ffffffffffffffffffffffffffffffffffffffff1660008181527fb7db2dd08fcb62d0c9e08c51941cae53c267786a0b75803fb7960902fc8ef97d602052604081205460ff1615610c78575050565b806000527f02dd7bc7dec4dceedda775e58dd541e08a116c6c53815c0bd028192f7b62680060205273ffffffffffffffffffffffffffffffffffffffff60406000209216918260005260205260ff6040600020541615610c78575050565b73ffffffffffffffffffffffffffffffffffffffff1660008181527fb7db2dd08fcb62d0c9e08c51941cae53c267786a0b75803fb7960902fc8ef97d60205260408120549091907f02dd7bc7dec4dceedda775e58dd541e08a116c6c53815c0bd028192f7b6268009060ff16610e3557828052602052604082208183526020526040822060017fffffffffffffffffffffffffffffffffffffffffffffffffffffffffffffff0082541617905533917f2f8788117e7eff1d82e926ec794901d17c78024a50270940304540a733656f0d8180a4600190565b505090565b73ffffffffffffffffffffffffffffffffffffffff1660008181527ff2e0a8360026a616a5c33ed370a5497cc3baf8a817a474a098d5f8687be72a0f60205260408120549091907ff018c6c8c8da18060a4e6807987a0a03fba6c9fba4a5c9531151020efe326814907f02dd7bc7dec4dceedda775e58dd541e08a116c6c53815c0bd028192f7b6268009060ff16610f3357818452602052604083208284526020526040832060017fffffffffffffffffffffffffffffffffffffffffffffffffffffffffffffff008254161790557f2f8788117e7eff1d82e926ec794901d17c78024a50270940304540a733656f0d339380a4600190565b50505090565b906000918083527f02dd7bc7dec4dceedda775e58dd541e08a116c6c53815c0bd028192f7b6268008060205273ffffffffffffffffffffffffffffffffffffffff6040852093169283855260205260ff60408520541615600014610f3357818452602052604083208284526020526040832060017fffffffffffffffffffffffffffffffffffffffffffffffffffffffffffffff008254161790557f2f8788117e7eff1d82e926ec794901d17c78024a50270940304540a733656f0d339380a4600190565b73ffffffffffffffffffffffffffffffffffffffff1660008181527fb7db2dd08fcb62d0c9e08c51941cae53c267786a0b75803fb7960902fc8ef97d60205260408120549091907f02dd7bc7dec4dceedda775e58dd541e08a116c6c53815c0bd028192f7b6268009060ff1615610e355782805260205260408220818352602052604082207fffffffffffffffffffffffffffffffffffffffffffffffffffffffffffffff00815416905533917ff6391f5c32d9c69d2a47ea670b442974b53935d1edc7fd64eb21e047a839171b8180a4600190565b906000918083527f02dd7bc7dec4dceedda775e58dd541e08a116c6c53815c0bd028192f7b6268008060205273ffffffffffffffffffffffffffffffffffffffff6040852093169283855260205260ff604085205416600014610f335781845260205260408320828452602052604083207fffffffffffffffffffffffffffffffffffffffffffffffffffffffffffffff0081541690557ff6391f5c32d9c69d2a47ea670b442974b53935d1edc7fd64eb21e047a839171b339380a4600190565b60ff7ff0c57e16840df040f15088dc2f81fe391c3923bec73e23a9662efc9c229c6a005460401c16156111c457565b60046040517fd7e6bcf8000000000000000000000000000000000000000000000000000000008152fd5b9061122d575080511561120357805190602001fd5b60046040517f1425ea42000000000000000000000000000000000000000000000000000000008152fd5b81511580611285575b61123e575090565b60249073ffffffffffffffffffffffffffffffffffffffff604051917f9996b315000000000000000000000000000000000000000000000000000000008352166004820152fd5b50803b1561123656fea26469706673582212203fac750e691e0834e004eec31ac26beb5c3f2cc833105448d8cbf8601ad8995e64736f6c63430008180033","linkReferences":{}},"methodIdentifiers":{"DEFAULT_ADMIN_ROLE()":"a217fddf","UPGRADE_INTERFACE_VERSION()":"ad3cb1cc","getGovernance()":"289b3c0d","getRoleAdmin(bytes32)":"248a9ca3","grantRole(bytes32,address)":"2f2ff15d","hasRole(bytes32,address)":"91d14854","initialize()":"8129fc1c","proxiableUUID()":"52d1902d","renounceRole(bytes32,address)":"36568abe","revokeEmergencyAdmin(address)":"4c622006","revokeRole(bytes32,address)":"d547741f","setEmergencyAdmin(address)":"35da3394","setGovernance(address)":"ab033ea9","supportsInterface(bytes4)":"01ffc9a7","upgradeToAndCall(address,bytes)":"4f1ef286","withdraw(uint256)":"2e1a7d4d","withdraw(uint256,address)":"00f714ce"},"id":8}