{"abi":[{"type":"function","name":"BPS_MAX","inputs":[],"outputs":[{"name":"","type":"uint16","internalType":"uint16"}],"stateMutability":"view"},{"type":"function","name":"SCALE_FACTOR","inputs":[],"outputs":[{"name":"","type":"uint8","internalType":"uint8"}],"stateMutability":"view"}],"bytecode":{"object":"0x608080604052346100195760d8908161001f823930815050f35b600080fdfe6080806040526004361015601257600080fd5b600090813560e01c9081633eb6e84614606a575063ce4b5bbe14603457600080fd5b807ffffffffffffffffffffffffffffffffffffffffffffffffffffffffffffffffc360112606757602060405160648152f35b80fd5b9050817ffffffffffffffffffffffffffffffffffffffffffffffffffffffffffffffffc360112609e578061271060209252f35b5080fdfea2646970667358221220a8195c8232934a4dd74b65ce81a766112232a2aad0bcc4b387e85d342751633564736f6c63430008180033","linkReferences":{}},"methodIdentifiers":{"BPS_MAX()":"3eb6e846","SCALE_FACTOR()":"ce4b5bbe"},"id":44}