{
    "contractName": "DigitalRightsManager",
    "abi": [
        {
            "inputs": [],
            "stateMutability": "nonpayable",
            "type": "constructor"
        },
        {
            "inputs": [
                {
                    "internalType": "address",
                    "name": "target",
                    "type": "address"
                }
            ],
            "name": "AddressEmptyCode",
            "type": "error"
        },
        {
            "inputs": [],
            "name": "AlreadyRegisteredHash",
            "type": "error"
        },
        {
            "inputs": [
                {
                    "internalType": "address",
                    "name": "implementation",
                    "type": "address"
                }
            ],
            "name": "ERC1967InvalidImplementation",
            "type": "error"
        },
        {
            "inputs": [],
            "name": "ERC1967NonPayable",
            "type": "error"
        },
        {
            "inputs": [],
            "name": "FailedInnerCall",
            "type": "error"
        },
        {
            "inputs": [],
            "name": "InvalidInactiveDistributor",
            "type": "error"
        },
        {
            "inputs": [],
            "name": "InvalidInitialization",
            "type": "error"
        },
        {
            "inputs": [],
            "name": "MissingOrNotRegisteredHash",
            "type": "error"
        },
        {
            "inputs": [],
            "name": "NotInitializing",
            "type": "error"
        },
        {
            "inputs": [
                {
                    "internalType": "address",
                    "name": "owner",
                    "type": "address"
                }
            ],
            "name": "OwnableInvalidOwner",
            "type": "error"
        },
        {
            "inputs": [
                {
                    "internalType": "address",
                    "name": "account",
                    "type": "address"
                }
            ],
            "name": "OwnableUnauthorizedAccount",
            "type": "error"
        },
        {
            "inputs": [],
            "name": "ResitrictedAccessToHolder",
            "type": "error"
        },
        {
            "inputs": [
                {
                    "internalType": "uint8",
                    "name": "bits",
                    "type": "uint8"
                },
                {
                    "internalType": "uint256",
                    "name": "value",
                    "type": "uint256"
                }
            ],
            "name": "SafeCastOverflowedUintDowncast",
            "type": "error"
        },
        {
            "inputs": [],
            "name": "UUPSUnauthorizedCallContext",
            "type": "error"
        },
        {
            "inputs": [
                {
                    "internalType": "bytes32",
                    "name": "slot",
                    "type": "bytes32"
                }
            ],
            "name": "UUPSUnsupportedProxiableUUID",
            "type": "error"
        },
        {
            "anonymous": false,
            "inputs": [
                {
                    "indexed": false,
                    "internalType": "uint64",
                    "name": "version",
                    "type": "uint64"
                }
            ],
            "name": "Initialized",
            "type": "event"
        },
        {
            "anonymous": false,
            "inputs": [
                {
                    "indexed": true,
                    "internalType": "address",
                    "name": "previousOwner",
                    "type": "address"
                },
                {
                    "indexed": true,
                    "internalType": "address",
                    "name": "newOwner",
                    "type": "address"
                }
            ],
            "name": "OwnershipTransferred",
            "type": "event"
        },
        {
            "anonymous": false,
            "inputs": [
                {
                    "indexed": false,
                    "internalType": "uint256",
                    "name": "hashCid",
                    "type": "uint256"
                },
                {
                    "indexed": true,
                    "internalType": "contract IDistributor",
                    "name": "distributor",
                    "type": "address"
                }
            ],
            "name": "RightsGranted",
            "type": "event"
        },
        {
            "anonymous": false,
            "inputs": [
                {
                    "indexed": true,
                    "internalType": "address",
                    "name": "implementation",
                    "type": "address"
                }
            ],
            "name": "Upgraded",
            "type": "event"
        },
        {
            "inputs": [],
            "name": "UPGRADE_INTERFACE_VERSION",
            "outputs": [
                {
                    "internalType": "string",
                    "name": "",
                    "type": "string"
                }
            ],
            "stateMutability": "view",
            "type": "function"
        },
        {
            "inputs": [
                {
                    "internalType": "uint256",
                    "name": "cidHash",
                    "type": "uint256"
                }
            ],
            "name": "getCustodial",
            "outputs": [
                {
                    "internalType": "contract IDistributor",
                    "name": "",
                    "type": "address"
                }
            ],
            "stateMutability": "view",
            "type": "function"
        },
        {
            "inputs": [
                {
                    "internalType": "contract IDistributor",
                    "name": "distributor",
                    "type": "address"
                },
                {
                    "internalType": "uint256",
                    "name": "cidHash",
                    "type": "uint256"
                }
            ],
            "name": "grantDistributionRights",
            "outputs": [],
            "stateMutability": "nonpayable",
            "type": "function"
        },
        {
            "inputs": [
                {
                    "internalType": "address",
                    "name": "watcher",
                    "type": "address"
                },
                {
                    "internalType": "uint256",
                    "name": "cidHash",
                    "type": "uint256"
                }
            ],
            "name": "hasContentAccess",
            "outputs": [
                {
                    "internalType": "bool",
                    "name": "",
                    "type": "bool"
                }
            ],
            "stateMutability": "view",
            "type": "function"
        },
        {
            "inputs": [
                {
                    "internalType": "contract IERC721",
                    "name": "_ownership",
                    "type": "address"
                },
                {
                    "internalType": "contract Syndication",
                    "name": "_syndication",
                    "type": "address"
                }
            ],
            "name": "initialize",
            "outputs": [],
            "stateMutability": "nonpayable",
            "type": "function"
        },
        {
            "inputs": [],
            "name": "owner",
            "outputs": [
                {
                    "internalType": "address",
                    "name": "",
                    "type": "address"
                }
            ],
            "stateMutability": "view",
            "type": "function"
        },
        {
            "inputs": [],
            "name": "proxiableUUID",
            "outputs": [
                {
                    "internalType": "bytes32",
                    "name": "",
                    "type": "bytes32"
                }
            ],
            "stateMutability": "view",
            "type": "function"
        },
        {
            "inputs": [],
            "name": "renounceOwnership",
            "outputs": [],
            "stateMutability": "nonpayable",
            "type": "function"
        },
        {
            "inputs": [
                {
                    "internalType": "address",
                    "name": "newOwner",
                    "type": "address"
                }
            ],
            "name": "transferOwnership",
            "outputs": [],
            "stateMutability": "nonpayable",
            "type": "function"
        },
        {
            "inputs": [
                {
                    "internalType": "address",
                    "name": "newImplementation",
                    "type": "address"
                },
                {
                    "internalType": "bytes",
                    "name": "data",
                    "type": "bytes"
                }
            ],
            "name": "upgradeToAndCall",
            "outputs": [],
            "stateMutability": "payable",
            "type": "function"
        }
    ],
    "bytecode": "60a060405230608052348015610013575f80fd5b5061001c610021565b6100d3565b7ff0c57e16840df040f15088dc2f81fe391c3923bec73e23a9662efc9c229c6a00805468010000000000000000900460ff16156100715760405163f92ee8a960e01b815260040160405180910390fd5b80546001600160401b03908116146100d05780546001600160401b0319166001600160401b0390811782556040519081527fc7f505b2f371ae2175ee4913f4499e1f2633a7b5936321eed1cdaeb6115181d29060200160405180910390a15b50565b608051610da86100f95f395f81816106580152818161068101526107c50152610da85ff3fe60806040526004361061008f575f3560e01c80638da5cb5b116100575780638da5cb5b146101215780638e5ae4b914610171578063ad3cb1cc14610190578063f2fde38b146101cd578063fe87480a146101ec575f80fd5b8063485cc955146100935780634f1ef286146100b457806352d1902d146100c7578063715018a6146100ee578063898f4ec414610102575b5f80fd5b34801561009e575f80fd5b506100b26100ad366004610b49565b61021b565b005b6100b26100c2366004610b94565b610362565b3480156100d2575f80fd5b506100db610381565b6040519081526020015b60405180910390f35b3480156100f9575f80fd5b506100b261039c565b34801561010d575f80fd5b506100b261011c366004610c5a565b6103af565b34801561012c575f80fd5b507f9016d09d72d40fdae2fd8ceac6b6234c7706214fd39c1cd1e609a0528c199300546001600160a01b03165b6040516001600160a01b0390911681526020016100e5565b34801561017c575f80fd5b5061015961018b366004610c84565b610567565b34801561019b575f80fd5b506101c0604051806040016040528060058152602001640352e302e360dc1b81525081565b6040516100e59190610c9b565b3480156101d8575f80fd5b506100b26101e7366004610cd0565b6105b1565b3480156101f7575f80fd5b5061020b610206366004610c5a565b6105f3565b60405190151581526020016100e5565b7ff0c57e16840df040f15088dc2f81fe391c3923bec73e23a9662efc9c229c6a008054600160401b810460ff16159067ffffffffffffffff165f811580156102605750825b90505f8267ffffffffffffffff16600114801561027c5750303b155b90508115801561028a575080155b156102a85760405163f92ee8a960e01b815260040160405180910390fd5b845467ffffffffffffffff1916600117855583156102d257845460ff60401b1916600160401b1785555b6102db33610634565b6102e3610645565b600380546001600160a01b03808a166001600160a01b0319928316179092556004805492891692909116919091179055831561035957845460ff60401b19168555604051600181527fc7f505b2f371ae2175ee4913f4499e1f2633a7b5936321eed1cdaeb6115181d29060200160405180910390a15b50505050505050565b61036a61064d565b610373826106f1565b61037d82826106f9565b5050565b5f61038a6107ba565b505f80516020610d5383398151915290565b6103a4610803565b6103ad5f61085e565b565b80336003546040516331a9108f60e11b8152600481018490526001600160a01b039283169290911690636352211e90602401602060405180830381865afa1580156103fc573d5f803e3d5ffd5b505050506040513d601f19601f820116820180604052508101906104209190610ceb565b6001600160a01b0316146104475760405163754a005160e01b815260040160405180910390fd5b5f828152602081905260409020548290156104755760405163ed3d08e760e01b815260040160405180910390fd5b60048054604051639f8a13d760e01b81526001600160a01b0380881693820193909352869290911690639f8a13d790602401602060405180830381865afa1580156104c2573d5f803e3d5ffd5b505050506040513d601f19601f820116820180604052508101906104e69190610d06565b6105035760405163fe2a0dd160e01b815260040160405180910390fd5b5f8481526001602090815260409182902080546001600160a01b0319166001600160a01b03891690811790915591518681527f2670220fe4453810baf117447774c4d6afe3d090b70f9a3812f8da8288584411910160405180910390a25050505050565b5f818152602081905260408120548290156105955760405163ed3d08e760e01b815260040160405180910390fd5b50505f908152600160205260409020546001600160a01b031690565b6105b9610803565b6001600160a01b0381166105e757604051631e4fbdf760e01b81525f60048201526024015b60405180910390fd5b6105f08161085e565b50565b5f6105fc6108ce565b6001600160a01b0384165f90815260026020908152604080832086845290915290205465ffffffffffff919091161015905092915050565b61063c6108dd565b6105f081610926565b6103ad6108dd565b306001600160a01b037f00000000000000000000000000000000000000000000000000000000000000001614806106d357507f00000000000000000000000000000000000000000000000000000000000000006001600160a01b03166106c75f80516020610d53833981519152546001600160a01b031690565b6001600160a01b031614155b156103ad5760405163703e46dd60e11b815260040160405180910390fd5b6105f0610803565b816001600160a01b03166352d1902d6040518163ffffffff1660e01b8152600401602060405180830381865afa925050508015610753575060408051601f3d908101601f1916820190925261075091810190610d25565b60015b61077b57604051634c9c8ce360e01b81526001600160a01b03831660048201526024016105de565b5f80516020610d5383398151915281146107ab57604051632a87526960e21b8152600481018290526024016105de565b6107b5838361092e565b505050565b306001600160a01b037f000000000000000000000000000000000000000000000000000000000000000016146103ad5760405163703e46dd60e11b815260040160405180910390fd5b336108357f9016d09d72d40fdae2fd8ceac6b6234c7706214fd39c1cd1e609a0528c199300546001600160a01b031690565b6001600160a01b0316146103ad5760405163118cdaa760e01b81523360048201526024016105de565b7f9016d09d72d40fdae2fd8ceac6b6234c7706214fd39c1cd1e609a0528c19930080546001600160a01b031981166001600160a01b03848116918217845560405192169182907f8be0079c531659141344cd1fd0a4f28419497f9722a3daafe3b4186f6b6457e0905f90a3505050565b5f6108d842610983565b905090565b7ff0c57e16840df040f15088dc2f81fe391c3923bec73e23a9662efc9c229c6a0054600160401b900460ff166103ad57604051631afcd79f60e31b815260040160405180910390fd5b6105b96108dd565b610937826109b9565b6040516001600160a01b038316907fbc7cd75a20ee27fd9adebab32041f755214dbc6bffa90cc0225b39da2e5c2d3b905f90a280511561097b576107b58282610a1c565b61037d610a8e565b5f65ffffffffffff8211156109b5576040516306dfcc6560e41b815260306004820152602481018390526044016105de565b5090565b806001600160a01b03163b5f036109ee57604051634c9c8ce360e01b81526001600160a01b03821660048201526024016105de565b5f80516020610d5383398151915280546001600160a01b0319166001600160a01b0392909216919091179055565b60605f80846001600160a01b031684604051610a389190610d3c565b5f60405180830381855af49150503d805f8114610a70576040519150601f19603f3d011682016040523d82523d5f602084013e610a75565b606091505b5091509150610a85858383610aad565b95945050505050565b34156103ad5760405163b398979f60e01b815260040160405180910390fd5b606082610ac257610abd82610b0c565b610b05565b8151158015610ad957506001600160a01b0384163b155b15610b0257604051639996b31560e01b81526001600160a01b03851660048201526024016105de565b50805b9392505050565b805115610b1c5780518082602001fd5b604051630a12f52160e11b815260040160405180910390fd5b6001600160a01b03811681146105f0575f80fd5b5f8060408385031215610b5a575f80fd5b8235610b6581610b35565b91506020830135610b7581610b35565b809150509250929050565b634e487b7160e01b5f52604160045260245ffd5b5f8060408385031215610ba5575f80fd5b8235610bb081610b35565b9150602083013567ffffffffffffffff811115610bcb575f80fd5b8301601f81018513610bdb575f80fd5b803567ffffffffffffffff811115610bf557610bf5610b80565b604051601f8201601f19908116603f0116810167ffffffffffffffff81118282101715610c2457610c24610b80565b604052818152828201602001871015610c3b575f80fd5b816020840160208301375f602083830101528093505050509250929050565b5f8060408385031215610c6b575f80fd5b8235610c7681610b35565b946020939093013593505050565b5f60208284031215610c94575f80fd5b5035919050565b602081525f82518060208401528060208501604085015e5f604082850101526040601f19601f83011684010191505092915050565b5f60208284031215610ce0575f80fd5b8135610b0581610b35565b5f60208284031215610cfb575f80fd5b8151610b0581610b35565b5f60208284031215610d16575f80fd5b81518015158114610b05575f80fd5b5f60208284031215610d35575f80fd5b5051919050565b5f82518060208501845e5f92019182525091905056fe360894a13ba1a3210667c828492db98dca3e2076cc3735a920a3ca505d382bbca2646970667358221220eb1b5a08c8d865ec2194314225d3ae857f5275da9ac336a497889322c429009164736f6c634300081a0033",
    "sourcePath": "/home/gmena/WebstormProjects/watchit-contracts/contracts/DigitalRightsManagement.sol",
    "compiler": {
        "name": "solc",
        "version": "0.8.26+commit.8a97fa7a"
    },
    "functionHashes": {
        "UPGRADE_INTERFACE_VERSION()": "ad3cb1cc",
        "getCustodial(uint256)": "8e5ae4b9",
        "grantDistributionRights(address,uint256)": "898f4ec4",
        "hasContentAccess(address,uint256)": "fe87480a",
        "initialize(address,address)": "485cc955",
        "owner()": "8da5cb5b",
        "proxiableUUID()": "52d1902d",
        "renounceOwnership()": "715018a6",
        "transferOwnership(address)": "f2fde38b",
        "upgradeToAndCall(address,bytes)": "4f1ef286"
    },
    "gasEstimates": {
        "creation": {
            "codeDepositCost": "699200",
            "executionCost": "infinite",
            "totalCost": "infinite"
        },
        "external": {
            "UPGRADE_INTERFACE_VERSION()": "infinite",
            "getCustodial(uint256)": "4706",
            "grantDistributionRights(address,uint256)": "infinite",
            "hasContentAccess(address,uint256)": "2858",
            "initialize(address,address)": "infinite",
            "owner()": "2319",
            "proxiableUUID()": "infinite",
            "renounceOwnership()": "infinite",
            "transferOwnership(address)": "infinite",
            "upgradeToAndCall(address,bytes)": "infinite"
        },
        "internal": {
            "_authorizeUpgrade(address)": "infinite"
        }
    }
}