{"abi":[{"type":"constructor","inputs":[],"stateMutability":"nonpayable"},{"type":"function","name":"DEFAULT_ADMIN_ROLE","inputs":[],"outputs":[{"name":"","type":"bytes32","internalType":"bytes32"}],"stateMutability":"view"},{"type":"function","name":"UPGRADE_INTERFACE_VERSION","inputs":[],"outputs":[{"name":"","type":"string","internalType":"string"}],"stateMutability":"view"},{"type":"function","name":"approve","inputs":[{"name":"contentId","type":"uint256","internalType":"uint256"}],"outputs":[],"stateMutability":"nonpayable"},{"type":"function","name":"count","inputs":[],"outputs":[{"name":"","type":"uint256","internalType":"uint256"}],"stateMutability":"view"},{"type":"function","name":"getGovernance","inputs":[],"outputs":[{"name":"","type":"address","internalType":"address"}],"stateMutability":"view"},{"type":"function","name":"getRoleAdmin","inputs":[{"name":"role","type":"bytes32","internalType":"bytes32"}],"outputs":[{"name":"","type":"bytes32","internalType":"bytes32"}],"stateMutability":"view"},{"type":"function","name":"grantRole","inputs":[{"name":"role","type":"bytes32","internalType":"bytes32"},{"name":"account","type":"address","internalType":"address"}],"outputs":[],"stateMutability":"nonpayable"},{"type":"function","name":"grantVerified","inputs":[{"name":"account","type":"address","internalType":"address"}],"outputs":[],"stateMutability":"nonpayable"},{"type":"function","name":"hasRole","inputs":[{"name":"role","type":"bytes32","internalType":"bytes32"},{"name":"account","type":"address","internalType":"address"}],"outputs":[{"name":"","type":"bool","internalType":"bool"}],"stateMutability":"view"},{"type":"function","name":"initialize","inputs":[],"outputs":[],"stateMutability":"nonpayable"},{"type":"function","name":"isActive","inputs":[{"name":"contentId","type":"uint256","internalType":"uint256"}],"outputs":[{"name":"","type":"bool","internalType":"bool"}],"stateMutability":"view"},{"type":"function","name":"isApproved","inputs":[{"name":"initiator","type":"address","internalType":"address"},{"name":"contentId","type":"uint256","internalType":"uint256"}],"outputs":[{"name":"","type":"bool","internalType":"bool"}],"stateMutability":"view"},{"type":"function","name":"proxiableUUID","inputs":[],"outputs":[{"name":"","type":"bytes32","internalType":"bytes32"}],"stateMutability":"view"},{"type":"function","name":"reject","inputs":[{"name":"contentId","type":"uint256","internalType":"uint256"}],"outputs":[],"stateMutability":"nonpayable"},{"type":"function","name":"renounceRole","inputs":[{"name":"role","type":"bytes32","internalType":"bytes32"},{"name":"callerConfirmation","type":"address","internalType":"address"}],"outputs":[],"stateMutability":"nonpayable"},{"type":"function","name":"revokeEmergencyAdmin","inputs":[{"name":"revokedAddress","type":"address","internalType":"address"}],"outputs":[],"stateMutability":"nonpayable"},{"type":"function","name":"revokeRole","inputs":[{"name":"role","type":"bytes32","internalType":"bytes32"},{"name":"account","type":"address","internalType":"address"}],"outputs":[],"stateMutability":"nonpayable"},{"type":"function","name":"revokeVerified","inputs":[{"name":"account","type":"address","internalType":"address"}],"outputs":[],"stateMutability":"nonpayable"},{"type":"function","name":"setEmergencyAdmin","inputs":[{"name":"newEmergencyAdmin","type":"address","internalType":"address"}],"outputs":[],"stateMutability":"nonpayable"},{"type":"function","name":"setGovernance","inputs":[{"name":"newGovernance","type":"address","internalType":"address"}],"outputs":[],"stateMutability":"nonpayable"},{"type":"function","name":"submissions","inputs":[{"name":"","type":"uint256","internalType":"uint256"}],"outputs":[{"name":"","type":"address","internalType":"address"}],"stateMutability":"view"},{"type":"function","name":"submit","inputs":[{"name":"contentId","type":"uint256","internalType":"uint256"},{"name":"initiator","type":"address","internalType":"address"},{"name":"params","type":"tuple","internalType":"struct T.ContentParams","components":[{"name":"trailer","type":"string","internalType":"string"},{"name":"geofencing","type":"string","internalType":"string"},{"name":"rating","type":"string","internalType":"string"},{"name":"language","type":"string","internalType":"string"},{"name":"license","type":"string","internalType":"string"},{"name":"contentWarnings","type":"string","internalType":"string"},{"name":"targetAudience","type":"string","internalType":"string"}]}],"outputs":[],"stateMutability":"nonpayable"},{"type":"function","name":"submit","inputs":[{"name":"contentId","type":"uint256","internalType":"uint256"},{"name":"initiator","type":"address","internalType":"address"}],"outputs":[],"stateMutability":"nonpayable"},{"type":"function","name":"submitWithSig","inputs":[{"name":"contentId","type":"uint256","internalType":"uint256"},{"name":"initiator","type":"address","internalType":"address"},{"name":"params","type":"tuple","internalType":"struct T.ContentParams","components":[{"name":"trailer","type":"string","internalType":"string"},{"name":"geofencing","type":"string","internalType":"string"},{"name":"rating","type":"string","internalType":"string"},{"name":"language","type":"string","internalType":"string"},{"name":"license","type":"string","internalType":"string"},{"name":"contentWarnings","type":"string","internalType":"string"},{"name":"targetAudience","type":"string","internalType":"string"}]},{"name":"signature","type":"tuple","internalType":"struct T.EIP712Signature","components":[{"name":"signer","type":"address","internalType":"address"},{"name":"v","type":"uint8","internalType":"uint8"},{"name":"r","type":"bytes32","internalType":"bytes32"},{"name":"s","type":"bytes32","internalType":"bytes32"},{"name":"deadline","type":"uint256","internalType":"uint256"}]}],"outputs":[],"stateMutability":"nonpayable"},{"type":"function","name":"supportsInterface","inputs":[{"name":"interfaceId","type":"bytes4","internalType":"bytes4"}],"outputs":[{"name":"","type":"bool","internalType":"bool"}],"stateMutability":"view"},{"type":"function","name":"upgradeToAndCall","inputs":[{"name":"newImplementation","type":"address","internalType":"address"},{"name":"data","type":"bytes","internalType":"bytes"}],"outputs":[],"stateMutability":"payable"},{"type":"event","name":"ContentApproved","inputs":[{"name":"contentId","type":"uint256","indexed":true,"internalType":"uint256"}],"anonymous":false},{"type":"event","name":"ContentRevoked","inputs":[{"name":"contentId","type":"uint256","indexed":true,"internalType":"uint256"}],"anonymous":false},{"type":"event","name":"ContentSubmitted","inputs":[{"name":"initiator","type":"address","indexed":false,"internalType":"address"},{"name":"contentId","type":"uint256","indexed":true,"internalType":"uint256"},{"name":"conditions","type":"tuple","indexed":false,"internalType":"struct T.ContentParams","components":[{"name":"trailer","type":"string","internalType":"string"},{"name":"geofencing","type":"string","internalType":"string"},{"name":"rating","type":"string","internalType":"string"},{"name":"language","type":"string","internalType":"string"},{"name":"license","type":"string","internalType":"string"},{"name":"contentWarnings","type":"string","internalType":"string"},{"name":"targetAudience","type":"string","internalType":"string"}]}],"anonymous":false},{"type":"event","name":"Initialized","inputs":[{"name":"version","type":"uint64","indexed":false,"internalType":"uint64"}],"anonymous":false},{"type":"event","name":"RoleAdminChanged","inputs":[{"name":"role","type":"bytes32","indexed":true,"internalType":"bytes32"},{"name":"previousAdminRole","type":"bytes32","indexed":true,"internalType":"bytes32"},{"name":"newAdminRole","type":"bytes32","indexed":true,"internalType":"bytes32"}],"anonymous":false},{"type":"event","name":"RoleGranted","inputs":[{"name":"role","type":"bytes32","indexed":true,"internalType":"bytes32"},{"name":"account","type":"address","indexed":true,"internalType":"address"},{"name":"sender","type":"address","indexed":true,"internalType":"address"}],"anonymous":false},{"type":"event","name":"RoleRevoked","inputs":[{"name":"role","type":"bytes32","indexed":true,"internalType":"bytes32"},{"name":"account","type":"address","indexed":true,"internalType":"address"},{"name":"sender","type":"address","indexed":true,"internalType":"address"}],"anonymous":false},{"type":"event","name":"Upgraded","inputs":[{"name":"implementation","type":"address","indexed":true,"internalType":"address"}],"anonymous":false},{"type":"error","name":"AccessControlBadConfirmation","inputs":[]},{"type":"error","name":"AccessControlUnauthorizedAccount","inputs":[{"name":"account","type":"address","internalType":"address"},{"name":"neededRole","type":"bytes32","internalType":"bytes32"}]},{"type":"error","name":"AddressEmptyCode","inputs":[{"name":"target","type":"address","internalType":"address"}]},{"type":"error","name":"AlreadyPendingApproval","inputs":[]},{"type":"error","name":"ERC1967InvalidImplementation","inputs":[{"name":"implementation","type":"address","internalType":"address"}]},{"type":"error","name":"ERC1967NonPayable","inputs":[]},{"type":"error","name":"FailedInnerCall","inputs":[]},{"type":"error","name":"InvalidInactiveState","inputs":[]},{"type":"error","name":"InvalidInitialization","inputs":[]},{"type":"error","name":"InvalidSubmissionInitiator","inputs":[]},{"type":"error","name":"NotInitializing","inputs":[]},{"type":"error","name":"NotWaitingApproval","inputs":[]},{"type":"error","name":"UUPSUnauthorizedCallContext","inputs":[]},{"type":"error","name":"UUPSUnsupportedProxiableUUID","inputs":[{"name":"slot","type":"bytes32","internalType":"bytes32"}]}],"bytecode":{"object":"0x60a080604052346100cc57306080527ff0c57e16840df040f15088dc2f81fe391c3923bec73e23a9662efc9c229c6a009081549060ff8260401c166100bd57506001600160401b036002600160401b031982821601610078575b604051611ded90816100d2823960805181818161092b0152610a2a0152f35b6001600160401b031990911681179091556040519081527fc7f505b2f371ae2175ee4913f4499e1f2633a7b5936321eed1cdaeb6115181d290602090a1388080610059565b63f92ee8a960e01b8152600490fd5b600080fdfe608060408181526004918236101561001657600080fd5b600092833560e01c91826301ffc9a71461105f5750816306661abd14611042578163248a9ca314610ff8578163289b3c0d14610fa45781632a16cca414610ed55781632f2ff15d14610eab57816335da339414610e8057816336568abe14610e14578163445763d614610d0f57816349d7052014610ce45781634c62200614610cb95781634f1ef286146109a057816352d1902d146109015781635391cdb3146107ed5781638129fc1c1461064c57816382afd23b1461062357816391d14854146105b15781639eca49f714610586578163a217fddf1461056b578163ab033ea9146104dc578163ad3cb1cc146103ee578163ad73349e146103b0578163b759f954146102d1578163b8adaa11146101c6578163d547741f14610165575063f532e86a1461014357600080fd5b346101615760031936011261015e5761015a611125565b5080f35b80fd5b5080fd5b919050346101c257806003193601126101c25761015a91356101bd600161018a611125565b938387527f02dd7bc7dec4dceedda775e58dd541e08a116c6c53815c0bd028192f7b626800602052862001543390611908565b611b33565b8280fd5b919050346101c25760206003193601126101c2578135916101e63361180f565b8284527f78a5d34d6f19765a8d11b74cebcafd0494288384b72923088bc4746147d1ae00908160205260ff8386205416818110156102a55760020361027e5750828452602052822060037fffffffffffffffffffffffffffffffffffffffffffffffffffffffffffffff008254161790557fe7255dddeea88342b8440d06ea44780f25358f0b3276b4fc31046a265f35ec798280a280f35b82517fd6579878000000000000000000000000000000000000000000000000000000008152fd5b6024866021847f4e487b7100000000000000000000000000000000000000000000000000000000835252fd5b919050346101c25760206003193601126101c2578135916102f13361180f565b8284527f78a5d34d6f19765a8d11b74cebcafd0494288384b72923088bc4746147d1ae00908160205260ff8386205416818110156102a5576001036103895750828452602052822060027fffffffffffffffffffffffffffffffffffffffffffffffffffffffffffffff008254161790557f0bdd97990a2a139e8c8eff9f47049ac9c6b2771fe5b1220c5e39cb0984c888558280a280f35b82517f6f53c246000000000000000000000000000000000000000000000000000000008152fd5b9050346101c25760206003193601126101c2578160209373ffffffffffffffffffffffffffffffffffffffff92358152600185522054169051908152f35b9050346101c257826003193601126101c2578151908282019082821067ffffffffffffffff8311176104b057508252600581526020907f352e302e300000000000000000000000000000000000000000000000000000006020820152825193849260208452825192836020860152825b84811061049a57505050828201840152601f017fffffffffffffffffffffffffffffffffffffffffffffffffffffffffffffffe0168101030190f35b818101830151888201880152879550820161045e565b8460416024927f4e487b7100000000000000000000000000000000000000000000000000000000835252fd5b833461015e57602060031936011261015e576104f66110fd565b6104ff336118b8565b61050881611651565b5073ffffffffffffffffffffffffffffffffffffffff7fbe22a97ce56bf984cece6021e328584abbd5b3cd394ccbe3b6884d525c48c40091167fffffffffffffffffffffffff000000000000000000000000000000000000000082541617905580f35b50503461016157816003193601126101615751908152602090f35b833461015e57602060031936011261015e5761015a6105a36110fd565b6105ac3361180f565b611a3c565b9050346101c257816003193601126101c2578160209360ff926105d2611125565b903582527f02dd7bc7dec4dceedda775e58dd541e08a116c6c53815c0bd028192f7b626800865273ffffffffffffffffffffffffffffffffffffffff83832091168252855220541690519015158152f35b82843461015e57602060031936011261015e575061064360209235611407565b90519015158152f35b9050346101c257826003193601126101c2577ff0c57e16840df040f15088dc2f81fe391c3923bec73e23a9662efc9c229c6a0090815460ff81851c16159167ffffffffffffffff8216801590816107e5575b60011490816107db575b1590816107d2575b506107ab57508160017fffffffffffffffffffffffffffffffffffffffffffffffff00000000000000008316178455610776575b506106ed611cbe565b6106f5611cbe565b6106fd611cbe565b610705611cbe565b61070d611cbe565b61071633611475565b5061071f578280f35b7fc7f505b2f371ae2175ee4913f4499e1f2633a7b5936321eed1cdaeb6115181d291817fffffffffffffffffffffffffffffffffffffffffffffff00ffffffffffffffff602093541690555160018152a138808280f35b7fffffffffffffffffffffffffffffffffffffffffffffff0000000000000000001668010000000000000001178255386106e4565b84517ff92ee8a9000000000000000000000000000000000000000000000000000000008152fd5b905015386106b0565b303b1591506106a8565b84915061069e565b9050346101c257600319906060823601126108fd5780359261080d611125565b906044359367ffffffffffffffff85116108f95760e09085360301126108f55773ffffffffffffffffffffffffffffffffffffffff821680156108cd57916108c7917f2285e8ee36e27ef307662e8a199d70947d1e7a5f87be925696b20b881d46744395949361087d89546111f2565b89558789526001602052818920907fffffffffffffffffffffffff00000000000000000000000000000000000000008254161790556108bb87611bf4565b519384930190836112dd565b0390a280f35b8382517f6cf8c817000000000000000000000000000000000000000000000000000000008152fd5b8580fd5b8680fd5b8380fd5b82843461015e578060031936011261015e575073ffffffffffffffffffffffffffffffffffffffff7f000000000000000000000000000000000000000000000000000000000000000016300361097a57602090517f360894a13ba1a3210667c828492db98dca3e2076cc3735a920a3ca505d382bbc8152f35b517fe07c8dba000000000000000000000000000000000000000000000000000000008152fd5b918091506003193601126101c2576109b66110fd565b90602493843567ffffffffffffffff8111610161573660238201121561016157808501356109e3816111b8565b946109f085519687611148565b81865260209182870193368a83830101116108f5578186928b86930187378801015273ffffffffffffffffffffffffffffffffffffffff807f000000000000000000000000000000000000000000000000000000000000000016803014908115610c8b575b50610c6357610a63336118b8565b81169585517f52d1902d00000000000000000000000000000000000000000000000000000000815283818a818b5afa869181610c34575b50610acf5750505050505051917f4c9c8ce3000000000000000000000000000000000000000000000000000000008352820152fd5b9088888894938c7f360894a13ba1a3210667c828492db98dca3e2076cc3735a920a3ca505d382bbc91828103610c075750853b15610bda575080547fffffffffffffffffffffffff000000000000000000000000000000000000000016821790558451889392917fbc7cd75a20ee27fd9adebab32041f755214dbc6bffa90cc0225b39da2e5c2d3b8580a2825115610ba357505061015a9582915190845af4913d15610b99573d610b8b610b82826111b8565b92519283611148565b81528581943d92013e611d17565b5060609250611d17565b955095505050505034610bb557505080f35b7fb398979f000000000000000000000000000000000000000000000000000000008152fd5b83838851917f4c9c8ce3000000000000000000000000000000000000000000000000000000008352820152fd5b84908851917faa1d49a4000000000000000000000000000000000000000000000000000000008352820152fd5b9091508481813d8311610c5c575b610c4c8183611148565b810103126108f957519038610a9a565b503d610c42565b8786517fe07c8dba000000000000000000000000000000000000000000000000000000008152fd5b9050817f360894a13ba1a3210667c828492db98dca3e2076cc3735a920a3ca505d382bbc5416141538610a55565b833461015e57602060031936011261015e5761015a610cd66110fd565b610cdf3361180f565b611966565b833461015e57602060031936011261015e5761015a610d016110fd565b610d0a3361180f565b611552565b9050346101c25760031990610100823601126108fd57803592610d30611125565b906044359367ffffffffffffffff85116108f95760e09085360301126108f55760a07fffffffffffffffffffffffffffffffffffffffffffffffffffffffffffffff9c3601126108f55773ffffffffffffffffffffffffffffffffffffffff821680156108cd57916108c7917f2285e8ee36e27ef307662e8a199d70947d1e7a5f87be925696b20b881d467443959493610dc988611bf4565b8789526001602052818920907fffffffffffffffffffffffff0000000000000000000000000000000000000000825416179055610e0688546111f2565b8855519384930190836112dd565b838334610161578060031936011261016157610e2e611125565b903373ffffffffffffffffffffffffffffffffffffffff831603610e58575061015a919235611b33565b8390517f6697b232000000000000000000000000000000000000000000000000000000008152fd5b833461015e57602060031936011261015e5761015a610e9d6110fd565b610ea63361180f565b611475565b919050346101c257806003193601126101c25761015a9135610ed0600161018a611125565b61174a565b50503461016157806003193601126101615790602091610ef36110fd565b60243592610f0084611407565b9381526001855260ff8373ffffffffffffffffffffffffffffffffffffffff8082852054169416927f4f72063d6dc4cf4bb4e008e0815997320f78a862b3e71fe66fa9ae685d1cd12f81527f02dd7bc7dec4dceedda775e58dd541e08a116c6c53815c0bd028192f7b626800885281812084825288522054169184610f9a575b50508215610f92575b50519015158152f35b915038610f89565b1492503880610f80565b50503461016157816003193601126101615760209073ffffffffffffffffffffffffffffffffffffffff7fbe22a97ce56bf984cece6021e328584abbd5b3cd394ccbe3b6884d525c48c40054169051908152f35b9050346101c25760206003193601126101c257816020936001923581527f02dd7bc7dec4dceedda775e58dd541e08a116c6c53815c0bd028192f7b62680085522001549051908152f35b505034610161578160031936011261016157602091549051908152f35b8491346101c25760206003193601126101c257357fffffffff0000000000000000000000000000000000000000000000000000000081168091036101c257602092507f7965db0b0000000000000000000000000000000000000000000000000000000081149081156110d3575b5015158152f35b7f01ffc9a700000000000000000000000000000000000000000000000000000000915014836110cc565b6004359073ffffffffffffffffffffffffffffffffffffffff8216820361112057565b600080fd5b6024359073ffffffffffffffffffffffffffffffffffffffff8216820361112057565b90601f7fffffffffffffffffffffffffffffffffffffffffffffffffffffffffffffffe0910116810190811067ffffffffffffffff82111761118957604052565b7f4e487b7100000000000000000000000000000000000000000000000000000000600052604160045260246000fd5b67ffffffffffffffff811161118957601f017fffffffffffffffffffffffffffffffffffffffffffffffffffffffffffffffe01660200190565b7fffffffffffffffffffffffffffffffffffffffffffffffffffffffffffffffff811461121f5760010190565b7f4e487b7100000000000000000000000000000000000000000000000000000000600052601160045260246000fd5b90357fffffffffffffffffffffffffffffffffffffffffffffffffffffffffffffffe18236030181121561112057016020813591019167ffffffffffffffff821161112057813603831361112057565b601f82602094937fffffffffffffffffffffffffffffffffffffffffffffffffffffffffffffffe0938186528686013760008582860101520116010190565b6101009073ffffffffffffffffffffffffffffffffffffffff611404949316815260406020820152611324611312848061124e565b60e0604085015261012084019161129e565b906113f56113ea6113cd6113b061139361137661134460208b018b61124e565b7fffffffffffffffffffffffffffffffffffffffffffffffffffffffffffffffc099918a8a84030160608b015261129e565b61138360408b018b61124e565b90898984030160808a015261129e565b6113a060608a018a61124e565b90888884030160a089015261129e565b6113bd608089018961124e565b90878784030160c088015261129e565b6113da60a088018861124e565b90868684030160e087015261129e565b9460c081019061124e565b9390928286030191015261129e565b90565b6000527f78a5d34d6f19765a8d11b74cebcafd0494288384b72923088bc4746147d1ae0060205260ff6040600020541660048110156114465760021490565b7f4e487b7100000000000000000000000000000000000000000000000000000000600052602160045260246000fd5b73ffffffffffffffffffffffffffffffffffffffff1660008181527fb7db2dd08fcb62d0c9e08c51941cae53c267786a0b75803fb7960902fc8ef97d60205260408120549091907f02dd7bc7dec4dceedda775e58dd541e08a116c6c53815c0bd028192f7b6268009060ff1661154d57828052602052604082208183526020526040822060017fffffffffffffffffffffffffffffffffffffffffffffffffffffffffffffff0082541617905533917f2f8788117e7eff1d82e926ec794901d17c78024a50270940304540a733656f0d8180a4600190565b505090565b73ffffffffffffffffffffffffffffffffffffffff1660008181527fb82fbe16d5343fb56a6fb953e9f78274b5423c68b2a2c0abc4d0a608fa45d12660205260408120549091907f4f72063d6dc4cf4bb4e008e0815997320f78a862b3e71fe66fa9ae685d1cd12f907f02dd7bc7dec4dceedda775e58dd541e08a116c6c53815c0bd028192f7b6268009060ff1661164b57818452602052604083208284526020526040832060017fffffffffffffffffffffffffffffffffffffffffffffffffffffffffffffff008254161790557f2f8788117e7eff1d82e926ec794901d17c78024a50270940304540a733656f0d339380a4600190565b50505090565b73ffffffffffffffffffffffffffffffffffffffff1660008181527ff2e0a8360026a616a5c33ed370a5497cc3baf8a817a474a098d5f8687be72a0f60205260408120549091907ff018c6c8c8da18060a4e6807987a0a03fba6c9fba4a5c9531151020efe326814907f02dd7bc7dec4dceedda775e58dd541e08a116c6c53815c0bd028192f7b6268009060ff1661164b57818452602052604083208284526020526040832060017fffffffffffffffffffffffffffffffffffffffffffffffffffffffffffffff008254161790557f2f8788117e7eff1d82e926ec794901d17c78024a50270940304540a733656f0d339380a4600190565b906000918083527f02dd7bc7dec4dceedda775e58dd541e08a116c6c53815c0bd028192f7b6268008060205273ffffffffffffffffffffffffffffffffffffffff6040852093169283855260205260ff6040852054161560001461164b57818452602052604083208284526020526040832060017fffffffffffffffffffffffffffffffffffffffffffffffffffffffffffffff008254161790557f2f8788117e7eff1d82e926ec794901d17c78024a50270940304540a733656f0d339380a4600190565b73ffffffffffffffffffffffffffffffffffffffff1660008181527ff2e0a8360026a616a5c33ed370a5497cc3baf8a817a474a098d5f8687be72a0f60205260409020547ff018c6c8c8da18060a4e6807987a0a03fba6c9fba4a5c9531151020efe3268149060ff1615611881575050565b60449250604051917fe2517d3f00000000000000000000000000000000000000000000000000000000835260048301526024820152fd5b73ffffffffffffffffffffffffffffffffffffffff1660008181527fb7db2dd08fcb62d0c9e08c51941cae53c267786a0b75803fb7960902fc8ef97d602052604081205460ff1615611881575050565b806000527f02dd7bc7dec4dceedda775e58dd541e08a116c6c53815c0bd028192f7b62680060205273ffffffffffffffffffffffffffffffffffffffff60406000209216918260005260205260ff6040600020541615611881575050565b73ffffffffffffffffffffffffffffffffffffffff1660008181527fb7db2dd08fcb62d0c9e08c51941cae53c267786a0b75803fb7960902fc8ef97d60205260408120549091907f02dd7bc7dec4dceedda775e58dd541e08a116c6c53815c0bd028192f7b6268009060ff161561154d5782805260205260408220818352602052604082207fffffffffffffffffffffffffffffffffffffffffffffffffffffffffffffff00815416905533917ff6391f5c32d9c69d2a47ea670b442974b53935d1edc7fd64eb21e047a839171b8180a4600190565b73ffffffffffffffffffffffffffffffffffffffff1660008181527fb82fbe16d5343fb56a6fb953e9f78274b5423c68b2a2c0abc4d0a608fa45d12660205260408120549091907f4f72063d6dc4cf4bb4e008e0815997320f78a862b3e71fe66fa9ae685d1cd12f907f02dd7bc7dec4dceedda775e58dd541e08a116c6c53815c0bd028192f7b6268009060ff161561164b5781845260205260408320828452602052604083207fffffffffffffffffffffffffffffffffffffffffffffffffffffffffffffff0081541690557ff6391f5c32d9c69d2a47ea670b442974b53935d1edc7fd64eb21e047a839171b339380a4600190565b906000918083527f02dd7bc7dec4dceedda775e58dd541e08a116c6c53815c0bd028192f7b6268008060205273ffffffffffffffffffffffffffffffffffffffff6040852093169283855260205260ff60408520541660001461164b5781845260205260408320828452602052604083207fffffffffffffffffffffffffffffffffffffffffffffffffffffffffffffff0081541690557ff6391f5c32d9c69d2a47ea670b442974b53935d1edc7fd64eb21e047a839171b339380a4600190565b60008181527f78a5d34d6f19765a8d11b74cebcafd0494288384b72923088bc4746147d1ae008060205260ff6040832054166004811015611c9157611c675760409282526020522060017fffffffffffffffffffffffffffffffffffffffffffffffffffffffffffffff00825416179055565b60046040517fc428a493000000000000000000000000000000000000000000000000000000008152fd5b6024837f4e487b710000000000000000000000000000000000000000000000000000000081526021600452fd5b60ff7ff0c57e16840df040f15088dc2f81fe391c3923bec73e23a9662efc9c229c6a005460401c1615611ced57565b60046040517fd7e6bcf8000000000000000000000000000000000000000000000000000000008152fd5b90611d565750805115611d2c57805190602001fd5b60046040517f1425ea42000000000000000000000000000000000000000000000000000000008152fd5b81511580611dae575b611d67575090565b60249073ffffffffffffffffffffffffffffffffffffffff604051917f9996b315000000000000000000000000000000000000000000000000000000008352166004820152fd5b50803b15611d5f56fea26469706673582212202fedc44d491c50868bf82561559ceefa0bab0669e080552f203d287c85c0c10264736f6c63430008180033","linkReferences":{}},"methodIdentifiers":{"DEFAULT_ADMIN_ROLE()":"a217fddf","UPGRADE_INTERFACE_VERSION()":"ad3cb1cc","approve(uint256)":"b759f954","count()":"06661abd","getGovernance()":"289b3c0d","getRoleAdmin(bytes32)":"248a9ca3","grantRole(bytes32,address)":"2f2ff15d","grantVerified(address)":"49d70520","hasRole(bytes32,address)":"91d14854","initialize()":"8129fc1c","isActive(uint256)":"82afd23b","isApproved(address,uint256)":"2a16cca4","proxiableUUID()":"52d1902d","reject(uint256)":"b8adaa11","renounceRole(bytes32,address)":"36568abe","revokeEmergencyAdmin(address)":"4c622006","revokeRole(bytes32,address)":"d547741f","revokeVerified(address)":"9eca49f7","setEmergencyAdmin(address)":"35da3394","setGovernance(address)":"ab033ea9","submissions(uint256)":"ad73349e","submit(uint256,address)":"f532e86a","submit(uint256,address,(string,string,string,string,string,string,string))":"5391cdb3","submitWithSig(uint256,address,(string,string,string,string,string,string,string),(address,uint8,bytes32,bytes32,uint256))":"445763d6","supportsInterface(bytes4)":"01ffc9a7","upgradeToAndCall(address,bytes)":"4f1ef286"},"id":3}