{"abi":[{"type":"constructor","inputs":[],"stateMutability":"nonpayable"},{"type":"function","name":"CLOCK_MODE","inputs":[],"outputs":[{"name":"","type":"string","internalType":"string"}],"stateMutability":"view"},{"type":"function","name":"DOMAIN_SEPARATOR","inputs":[],"outputs":[{"name":"","type":"bytes32","internalType":"bytes32"}],"stateMutability":"view"},{"type":"function","name":"allowance","inputs":[{"name":"owner","type":"address","internalType":"address"},{"name":"spender","type":"address","internalType":"address"}],"outputs":[{"name":"","type":"uint256","internalType":"uint256"}],"stateMutability":"view"},{"type":"function","name":"approve","inputs":[{"name":"spender","type":"address","internalType":"address"},{"name":"value","type":"uint256","internalType":"uint256"}],"outputs":[{"name":"","type":"bool","internalType":"bool"}],"stateMutability":"nonpayable"},{"type":"function","name":"balanceOf","inputs":[{"name":"account","type":"address","internalType":"address"}],"outputs":[{"name":"","type":"uint256","internalType":"uint256"}],"stateMutability":"view"},{"type":"function","name":"burn","inputs":[{"name":"value","type":"uint256","internalType":"uint256"}],"outputs":[],"stateMutability":"nonpayable"},{"type":"function","name":"burnFrom","inputs":[{"name":"account","type":"address","internalType":"address"},{"name":"value","type":"uint256","internalType":"uint256"}],"outputs":[],"stateMutability":"nonpayable"},{"type":"function","name":"checkpoints","inputs":[{"name":"account","type":"address","internalType":"address"},{"name":"pos","type":"uint32","internalType":"uint32"}],"outputs":[{"name":"","type":"tuple","internalType":"struct Checkpoints.Checkpoint208","components":[{"name":"_key","type":"uint48","internalType":"uint48"},{"name":"_value","type":"uint208","internalType":"uint208"}]}],"stateMutability":"view"},{"type":"function","name":"clock","inputs":[],"outputs":[{"name":"","type":"uint48","internalType":"uint48"}],"stateMutability":"view"},{"type":"function","name":"decimals","inputs":[],"outputs":[{"name":"","type":"uint8","internalType":"uint8"}],"stateMutability":"view"},{"type":"function","name":"delegate","inputs":[{"name":"delegatee","type":"address","internalType":"address"}],"outputs":[],"stateMutability":"nonpayable"},{"type":"function","name":"delegateBySig","inputs":[{"name":"delegatee","type":"address","internalType":"address"},{"name":"nonce","type":"uint256","internalType":"uint256"},{"name":"expiry","type":"uint256","internalType":"uint256"},{"name":"v","type":"uint8","internalType":"uint8"},{"name":"r","type":"bytes32","internalType":"bytes32"},{"name":"s","type":"bytes32","internalType":"bytes32"}],"outputs":[],"stateMutability":"nonpayable"},{"type":"function","name":"delegates","inputs":[{"name":"account","type":"address","internalType":"address"}],"outputs":[{"name":"","type":"address","internalType":"address"}],"stateMutability":"view"},{"type":"function","name":"eip712Domain","inputs":[],"outputs":[{"name":"fields","type":"bytes1","internalType":"bytes1"},{"name":"name","type":"string","internalType":"string"},{"name":"version","type":"string","internalType":"string"},{"name":"chainId","type":"uint256","internalType":"uint256"},{"name":"verifyingContract","type":"address","internalType":"address"},{"name":"salt","type":"bytes32","internalType":"bytes32"},{"name":"extensions","type":"uint256[]","internalType":"uint256[]"}],"stateMutability":"view"},{"type":"function","name":"getPastTotalSupply","inputs":[{"name":"timepoint","type":"uint256","internalType":"uint256"}],"outputs":[{"name":"","type":"uint256","internalType":"uint256"}],"stateMutability":"view"},{"type":"function","name":"getPastVotes","inputs":[{"name":"account","type":"address","internalType":"address"},{"name":"timepoint","type":"uint256","internalType":"uint256"}],"outputs":[{"name":"","type":"uint256","internalType":"uint256"}],"stateMutability":"view"},{"type":"function","name":"getVotes","inputs":[{"name":"account","type":"address","internalType":"address"}],"outputs":[{"name":"","type":"uint256","internalType":"uint256"}],"stateMutability":"view"},{"type":"function","name":"name","inputs":[],"outputs":[{"name":"","type":"string","internalType":"string"}],"stateMutability":"view"},{"type":"function","name":"nonces","inputs":[{"name":"owner","type":"address","internalType":"address"}],"outputs":[{"name":"","type":"uint256","internalType":"uint256"}],"stateMutability":"view"},{"type":"function","name":"numCheckpoints","inputs":[{"name":"account","type":"address","internalType":"address"}],"outputs":[{"name":"","type":"uint32","internalType":"uint32"}],"stateMutability":"view"},{"type":"function","name":"permit","inputs":[{"name":"owner","type":"address","internalType":"address"},{"name":"spender","type":"address","internalType":"address"},{"name":"value","type":"uint256","internalType":"uint256"},{"name":"deadline","type":"uint256","internalType":"uint256"},{"name":"v","type":"uint8","internalType":"uint8"},{"name":"r","type":"bytes32","internalType":"bytes32"},{"name":"s","type":"bytes32","internalType":"bytes32"}],"outputs":[],"stateMutability":"nonpayable"},{"type":"function","name":"symbol","inputs":[],"outputs":[{"name":"","type":"string","internalType":"string"}],"stateMutability":"view"},{"type":"function","name":"totalSupply","inputs":[],"outputs":[{"name":"","type":"uint256","internalType":"uint256"}],"stateMutability":"view"},{"type":"function","name":"transfer","inputs":[{"name":"to","type":"address","internalType":"address"},{"name":"value","type":"uint256","internalType":"uint256"}],"outputs":[{"name":"","type":"bool","internalType":"bool"}],"stateMutability":"nonpayable"},{"type":"function","name":"transferFrom","inputs":[{"name":"from","type":"address","internalType":"address"},{"name":"to","type":"address","internalType":"address"},{"name":"value","type":"uint256","internalType":"uint256"}],"outputs":[{"name":"","type":"bool","internalType":"bool"}],"stateMutability":"nonpayable"},{"type":"event","name":"Approval","inputs":[{"name":"owner","type":"address","indexed":true,"internalType":"address"},{"name":"spender","type":"address","indexed":true,"internalType":"address"},{"name":"value","type":"uint256","indexed":false,"internalType":"uint256"}],"anonymous":false},{"type":"event","name":"DelegateChanged","inputs":[{"name":"delegator","type":"address","indexed":true,"internalType":"address"},{"name":"fromDelegate","type":"address","indexed":true,"internalType":"address"},{"name":"toDelegate","type":"address","indexed":true,"internalType":"address"}],"anonymous":false},{"type":"event","name":"DelegateVotesChanged","inputs":[{"name":"delegate","type":"address","indexed":true,"internalType":"address"},{"name":"previousVotes","type":"uint256","indexed":false,"internalType":"uint256"},{"name":"newVotes","type":"uint256","indexed":false,"internalType":"uint256"}],"anonymous":false},{"type":"event","name":"EIP712DomainChanged","inputs":[],"anonymous":false},{"type":"event","name":"Transfer","inputs":[{"name":"from","type":"address","indexed":true,"internalType":"address"},{"name":"to","type":"address","indexed":true,"internalType":"address"},{"name":"value","type":"uint256","indexed":false,"internalType":"uint256"}],"anonymous":false},{"type":"error","name":"CheckpointUnorderedInsertion","inputs":[]},{"type":"error","name":"ECDSAInvalidSignature","inputs":[]},{"type":"error","name":"ECDSAInvalidSignatureLength","inputs":[{"name":"length","type":"uint256","internalType":"uint256"}]},{"type":"error","name":"ECDSAInvalidSignatureS","inputs":[{"name":"s","type":"bytes32","internalType":"bytes32"}]},{"type":"error","name":"ERC20ExceededSafeSupply","inputs":[{"name":"increasedSupply","type":"uint256","internalType":"uint256"},{"name":"cap","type":"uint256","internalType":"uint256"}]},{"type":"error","name":"ERC20InsufficientAllowance","inputs":[{"name":"spender","type":"address","internalType":"address"},{"name":"allowance","type":"uint256","internalType":"uint256"},{"name":"needed","type":"uint256","internalType":"uint256"}]},{"type":"error","name":"ERC20InsufficientBalance","inputs":[{"name":"sender","type":"address","internalType":"address"},{"name":"balance","type":"uint256","internalType":"uint256"},{"name":"needed","type":"uint256","internalType":"uint256"}]},{"type":"error","name":"ERC20InvalidApprover","inputs":[{"name":"approver","type":"address","internalType":"address"}]},{"type":"error","name":"ERC20InvalidReceiver","inputs":[{"name":"receiver","type":"address","internalType":"address"}]},{"type":"error","name":"ERC20InvalidSender","inputs":[{"name":"sender","type":"address","internalType":"address"}]},{"type":"error","name":"ERC20InvalidSpender","inputs":[{"name":"spender","type":"address","internalType":"address"}]},{"type":"error","name":"ERC2612ExpiredSignature","inputs":[{"name":"deadline","type":"uint256","internalType":"uint256"}]},{"type":"error","name":"ERC2612InvalidSigner","inputs":[{"name":"signer","type":"address","internalType":"address"},{"name":"owner","type":"address","internalType":"address"}]},{"type":"error","name":"ERC5805FutureLookup","inputs":[{"name":"timepoint","type":"uint256","internalType":"uint256"},{"name":"clock","type":"uint48","internalType":"uint48"}]},{"type":"error","name":"ERC6372InconsistentClock","inputs":[]},{"type":"error","name":"InvalidAccountNonce","inputs":[{"name":"account","type":"address","internalType":"address"},{"name":"currentNonce","type":"uint256","internalType":"uint256"}]},{"type":"error","name":"InvalidShortString","inputs":[]},{"type":"error","name":"SafeCastOverflowedUintDowncast","inputs":[{"name":"bits","type":"uint8","internalType":"uint8"},{"name":"value","type":"uint256","internalType":"uint256"}]},{"type":"error","name":"StringTooLong","inputs":[{"name":"str","type":"string","internalType":"string"}]},{"type":"error","name":"VotesExpiredSignature","inputs":[{"name":"expiry","type":"uint256","internalType":"uint256"}]}],"bytecode":{"object":"0x6101606040818152346200042057620000188262000425565b600782526020918281016615d85d18da1a5d60ca1b8082528351906200003e8262000425565b6007825285820152835194620000548662000425565b6003948587526257564360e81b82880152805192620000738462000425565b6001808552603160f81b84860190815282516001600160401b0399919391908a811162000320578154928484811c9416801562000415575b88851014620003ff578190601f94858111620003a9575b508890858311600114620003425760009262000336575b505060001982841b1c191690841b1781555b8a51918a8311620003205760049b8c548581811c9116801562000315575b898210146200030057828111620002b5575b50879184116001146200024a579383949184926000956200023e575b50501b92600019911b1c19161788555b620001528662000441565b94610120958652620001648562000605565b96610140978852519020938460e05251902096610100978089524660a0528251938401947f8b73c3c69bb8fe3d512ecc4cf759cc79239f7b179b0ffacaa9a75d522b39400f86528385015260608401524660808401523060a084015260a0835260c0830196838810908811176200022957508590525190206080523060c05261283a9384620007be85396080518461143c015260a051846114f7015260c0518461140d015260e0518461148b015251836114b1015251826107a9015251816107d30152f35b604190634e487b7160e01b6000525260246000fd5b01519350388062000137565b9190601f198416928d60005284896000209460005b8b898383106200029d575050501062000282575b50505050811b01885562000147565b01519060f884600019921b161c191690553880808062000273565b8686015189559097019694850194889350016200025f565b8d600052886000208380870160051c8201928b8810620002f6575b0160051c019086905b828110620002e95750506200011b565b60008155018690620002d9565b92508192620002d0565b60228e634e487b7160e01b6000525260246000fd5b90607f169062000109565b634e487b7160e01b600052604160045260246000fd5b015190503880620000d9565b90869350601f19831691856000528a6000209260005b8c82821062000392575050841162000379575b505050811b018155620000eb565b015160001983861b60f8161c191690553880806200036b565b8385015186558a9790950194938401930162000358565b90915083600052886000208580850160051c8201928b8610620003f5575b918891869594930160051c01915b828110620003e5575050620000c2565b60008155859450889101620003d5565b92508192620003c7565b634e487b7160e01b600052602260045260246000fd5b93607f1693620000ab565b600080fd5b604081019081106001600160401b038211176200032057604052565b80516020919082811015620004e0575090601f8251116200047f57808251920151908083106200047057501790565b82600019910360031b1b161790565b90604051809263305a27a960e01b82528060048301528251908160248401526000935b828510620004c6575050604492506000838284010152601f80199101168101030190fd5b8481018201518686016044015293810193859350620004a2565b6001600160401b03811162000320576005928354926001938481811c91168015620005fa575b83821014620003ff57601f8111620005c3575b5081601f84116001146200055957509282939183926000946200054d575b50501b916000199060031b1c191617905560ff90565b01519250388062000537565b919083601f1981168760005284600020946000905b88838310620005a857505050106200058e575b505050811b01905560ff90565b015160001960f88460031b161c1916905538808062000581565b8587015188559096019594850194879350908101906200056e565b8560005284601f846000209201871c820191601f8601881c015b828110620005ed57505062000519565b60008155018590620005dd565b90607f169062000506565b805160209081811015620006935750601f8251116200063257808251920151908083106200047057501790565b90604051809263305a27a960e01b82528060048301528251908160248401526000935b82851062000679575050604492506000838284010152601f80199101168101030190fd5b848101820151868601604401529381019385935062000655565b906001600160401b0382116200032057600654926001938481811c91168015620007b2575b83821014620003ff57601f811162000778575b5081601f84116001146200070c575092829391839260009462000700575b50501b916000199060031b1c19161760065560ff90565b015192503880620006e9565b919083601f198116600660005284600020946000905b888383106200075d575050501062000743575b505050811b0160065560ff90565b015160001960f88460031b161c1916905538808062000735565b85870151885590960195948501948793509081019062000722565b600660005284601f84600020920160051c820191601f860160051c015b828110620007a5575050620006cb565b6000815501859062000795565b90607f1690620006b856fe6080604052600436101561001257600080fd5b60003560e01c806306fdde03146101a7578063095ea7b3146101a257806318160ddd1461019d57806323b872dd14610198578063313ce567146101935780633644e5151461018e5780633a46b1a81461018957806342966c68146101845780634bf5d7e91461017f578063587cde1e1461017a5780635c19a95c146101755780636fcfff451461017057806370a082311461016b57806379cc6790146101665780637ecebe001461016157806384b0196e1461015c5780638e539e8c1461015757806391ddadf41461015257806395d89b411461014d5780639ab24eb014610148578063a9059cbb14610143578063c3cda5201461013e578063d505accf14610139578063dd62ed3e146101345763f1127ed81461012f57600080fd5b610e8e565b610e17565b610c46565b610b57565b610b11565b610aa7565b6109ff565b6109d3565b6108a5565b61078e565b610747565b610717565b6106d2565b610644565b610622565b6105da565b610530565b610511565b610436565b610413565b6103f7565b6103bf565b6103a1565b610370565b61021e565b919082519283825260005b8481106101f65750507fffffffffffffffffffffffffffffffffffffffffffffffffffffffffffffffe0601f8460006020809697860101520116010190565b6020818301810151848301820152016101b7565b90602061021b9281815201906101ac565b90565b34610325576000806003193601126103225760405190806003549061024282610f3f565b808552916020916001918281169081156102d7575060011461027f575b61027b8661026f81880382611036565b6040519182918261020a565b0390f35b9350600384527fc2575a0e9e593c00f959f8c92f12db2869c3395a3b0502d05e2516446f71f85b5b8385106102c45750505050810160200161026f8261027b3861025f565b80548686018401529382019381016102a7565b87965061027b9794506020935061026f9592507fffffffffffffffffffffffffffffffffffffffffffffffffffffffffffffff0091501682840152151560051b82010192933861025f565b80fd5b600080fd5b6004359073ffffffffffffffffffffffffffffffffffffffff8216820361032557565b6024359073ffffffffffffffffffffffffffffffffffffffff8216820361032557565b346103255760406003193601126103255761039661038c61032a565b6024359033611a40565b602060405160018152f35b34610325576000600319360112610325576020600254604051908152f35b34610325576060600319360112610325576103966103db61032a565b6103e361034d565b604435916103f283338361109f565b61124e565b3461032557600060031936011261032557602060405160128152f35b3461032557600060031936011261032557602061042e6113f6565b604051908152f35b346103255760406003193601126103255761044f61032a565b60243561045b4361151d565b65ffffffffffff81168210156104d15761027b79ffffffffffffffffffffffffffffffffffffffffffffffffffff6104c08473ffffffffffffffffffffffffffffffffffffffff871660005260096020526104ba60406000209161151d565b906115d2565b604051911681529081906020820190565b6040517fecd3f81e000000000000000000000000000000000000000000000000000000008152600481019290925265ffffffffffff166024820152604490fd5b346103255760206003193601126103255761052e600435336116b1565b005b346103255760006003193601126103255761054a4361151d565b65ffffffffffff8061055b4361151d565b169116036105b05761027b60405161057281610fc1565b601d81527f6d6f64653d626c6f636b6e756d6265722666726f6d3d64656661756c7400000060208201526040519182916020835260208301906101ac565b60046040517f6ff07140000000000000000000000000000000000000000000000000000000008152fd5b3461032557602060031936011261032557602073ffffffffffffffffffffffffffffffffffffffff8061060b61032a565b166000526008825260406000205416604051908152f35b346103255760206003193601126103255761052e61063e61032a565b336117f7565b346103255760206003193601126103255773ffffffffffffffffffffffffffffffffffffffff61067261032a565b16600052600960205260406000205463ffffffff9081811161069a5760209160405191168152f35b604490604051907f6dfcc650000000000000000000000000000000000000000000000000000000008252602060048301526024820152fd5b3461032557602060031936011261032557602061042e6106f061032a565b73ffffffffffffffffffffffffffffffffffffffff16600052600060205260406000205490565b346103255760406003193601126103255761052e61073361032a565b6024359061074282338361109f565b6116b1565b346103255760206003193601126103255773ffffffffffffffffffffffffffffffffffffffff61077561032a565b1660005260076020526020604060002054604051908152f35b346103255760008060031936011261032257610848906107cd7f0000000000000000000000000000000000000000000000000000000000000000611e63565b906107f77f0000000000000000000000000000000000000000000000000000000000000000611f9b565b906040519161080583610fe2565b8183526108566020916040519687967f0f00000000000000000000000000000000000000000000000000000000000000885260e0602089015260e08801906101ac565b9086820360408801526101ac565b904660608601523060808601528260a086015284820360c0860152602080855193848152019401925b82811061088e57505050500390f35b83518552869550938101939281019260010161087f565b34610325576020600319360112610325576004356108c24361151d565b9065ffffffffffff918281168210156104d157506108df9061151d565b600a54906000908260058111610965575b506108fb9350611c3f565b8061092a5750602060005b79ffffffffffffffffffffffffffffffffffffffffffffffffffff60405191168152f35b610935602091611597565b600a6000527fc65a7bb8d6351c1cf70c95a316cc6a92839c986682d98bc35f958f4883f9d2a8015460301c610906565b909261097082611aff565b82039182116109ce576108fb94600a60005280837fc65a7bb8d6351c1cf70c95a316cc6a92839c986682d98bc35f958f4883f9d2a8015416908516106000146109bc5750915b386108f0565b9291506109c8906115c4565b906109b6565b611568565b346103255760006003193601126103255760206109ef4361151d565b65ffffffffffff60405191168152f35b346103255760008060031936011261032257604051908060045490610a2382610f3f565b808552916020916001918281169081156102d75750600114610a4f5761027b8661026f81880382611036565b9350600484527f8a35acfbc15ff81a39ae7d344fd709f28e8600b4aa8c65c6b64bfe7fe36bd19b5b838510610a945750505050810160200161026f8261027b3861025f565b8054868601840152938201938101610a77565b346103255760206003193601126103255773ffffffffffffffffffffffffffffffffffffffff610ad561032a565b166000526009602052602079ffffffffffffffffffffffffffffffffffffffffffffffffffff610b086040600020611911565b16604051908152f35b3461032557604060031936011261032557610396610b2d61032a565b602435903361124e565b6064359060ff8216820361032557565b6084359060ff8216820361032557565b346103255760c060031936011261032557610b7061032a565b60443590602435610b7f610b37565b834211610c1557610c0961052e94610c10926040519060208201927fe48329057bfd03d55e49b547132e39cffd9c1820ad7b9d4c5307691425d15adf845273ffffffffffffffffffffffffffffffffffffffff88166040840152866060840152608083015260808252610bf182610ffe565b610c0460a435936084359351902061195b565b61199c565b91826119b4565b6117f7565b602484604051907f4683af0e0000000000000000000000000000000000000000000000000000000082526004820152fd5b346103255760e060031936011261032557610c5f61032a565b610c6761034d565b60443590606435610c76610b47565b814211610de65790610d2d610d6c92610d59610cbb8873ffffffffffffffffffffffffffffffffffffffff166000526007602052604060002080549060018201905590565b9360405193849160208301968a8a8d8a91959493909260a09360c08401977f6e71edae12b1b97f4d1f60370fef10105fa2faae0126114a169c64845d6126c9855273ffffffffffffffffffffffffffffffffffffffff8092166020860152166040840152606083015260808201520152565b037fffffffffffffffffffffffffffffffffffffffffffffffffffffffffffffffe08101845283611036565b610c0460c4359360a4359351902061195b565b73ffffffffffffffffffffffffffffffffffffffff80851690821603610d96575061052e92611a40565b6040517f4b800e4600000000000000000000000000000000000000000000000000000000815273ffffffffffffffffffffffffffffffffffffffff91821660048201529084166024820152604490fd5b602482604051907f627913020000000000000000000000000000000000000000000000000000000082526004820152fd5b34610325576040600319360112610325576020610e85610e3561032a565b73ffffffffffffffffffffffffffffffffffffffff610e5261034d565b91166000526001835260406000209073ffffffffffffffffffffffffffffffffffffffff16600052602052604060002090565b54604051908152f35b3461032557604060031936011261032557610ea761032a565b60243563ffffffff8116810361032557610f03610f099173ffffffffffffffffffffffffffffffffffffffff604094610ede611086565b50610ee7611086565b5016600052600960205283600020610efd611086565b50612208565b5061224f565b79ffffffffffffffffffffffffffffffffffffffffffffffffffff602083519265ffffffffffff81511684520151166020820152f35b90600182811c92168015610f88575b6020831014610f5957565b7f4e487b7100000000000000000000000000000000000000000000000000000000600052602260045260246000fd5b91607f1691610f4e565b7f4e487b7100000000000000000000000000000000000000000000000000000000600052604160045260246000fd5b6040810190811067ffffffffffffffff821117610fdd57604052565b610f92565b6020810190811067ffffffffffffffff821117610fdd57604052565b60a0810190811067ffffffffffffffff821117610fdd57604052565b60c0810190811067ffffffffffffffff821117610fdd57604052565b90601f7fffffffffffffffffffffffffffffffffffffffffffffffffffffffffffffffe0910116810190811067ffffffffffffffff821117610fdd57604052565b6040519061108482610fc1565b565b6040519061109382610fc1565b60006020838281520152565b919073ffffffffffffffffffffffffffffffffffffffff808416908160005260016020526110f18360406000209073ffffffffffffffffffffffffffffffffffffffff16600052602052604060002090565b54917fffffffffffffffffffffffffffffffffffffffffffffffffffffffffffffffff8303611123575b505050505050565b8483106111f957156111c8578216156111975761118b9261116691039373ffffffffffffffffffffffffffffffffffffffff166000526001602052604060002090565b9073ffffffffffffffffffffffffffffffffffffffff16600052602052604060002090565b5538808080808061111b565b60246040517f94280d6200000000000000000000000000000000000000000000000000000000815260006004820152fd5b60246040517fe602df0500000000000000000000000000000000000000000000000000000000815260006004820152fd5b6040517ffb8f41b200000000000000000000000000000000000000000000000000000000815273ffffffffffffffffffffffffffffffffffffffff851660048201526024810184905260448101869052606490fd5b92919073ffffffffffffffffffffffffffffffffffffffff938481169485156113c55782168015611394576112a38273ffffffffffffffffffffffffffffffffffffffff166000526000602052604060002090565b549584871061133f57846110849697036112dd8473ffffffffffffffffffffffffffffffffffffffff166000526000602052604060002090565b556113088473ffffffffffffffffffffffffffffffffffffffff166000526000602052604060002090565b8054860190556040518581527fddf252ad1be2c89b69c2b068fc378daa952ba7f163c4a11628f55a4df523b3ef90602090a3612372565b6040517fe450d38c00000000000000000000000000000000000000000000000000000000815273ffffffffffffffffffffffffffffffffffffffff841660048201526024810188905260448101869052606490fd5b60246040517fec442f0500000000000000000000000000000000000000000000000000000000815260006004820152fd5b60246040517f96c6fd1e00000000000000000000000000000000000000000000000000000000815260006004820152fd5b73ffffffffffffffffffffffffffffffffffffffff7f0000000000000000000000000000000000000000000000000000000000000000163014806114f4575b1561145e577f000000000000000000000000000000000000000000000000000000000000000090565b60405160208101907f8b73c3c69bb8fe3d512ecc4cf759cc79239f7b179b0ffacaa9a75d522b39400f82527f000000000000000000000000000000000000000000000000000000000000000060408201527f000000000000000000000000000000000000000000000000000000000000000060608201524660808201523060a082015260a081526114ee8161101a565b51902090565b507f00000000000000000000000000000000000000000000000000000000000000004614611435565b65ffffffffffff90818111611530571690565b604490604051907f6dfcc650000000000000000000000000000000000000000000000000000000008252603060048301526024820152fd5b7f4e487b7100000000000000000000000000000000000000000000000000000000600052601160045260246000fd5b907fffffffffffffffffffffffffffffffffffffffffffffffffffffffffffffffff82019182116109ce57565b90600182018092116109ce57565b908154906000918060058111611665575b50915b828110611615575050806115fb575050600090565b61160490611597565b906000526020600020015460301c90565b90918082169080831860011c82018092116109ce578460005265ffffffffffff80836020600020015416908516106000146116535750915b906115e6565b92915061165f906115c4565b9061164d565b9061166f82611aff565b82039182116109ce578460005265ffffffffffff80836020600020015416908416106000146116a057505b386115e3565b92506116ab906115c4565b9161169a565b919073ffffffffffffffffffffffffffffffffffffffff80841680156113c5576116fb8573ffffffffffffffffffffffffffffffffffffffff166000526000602052604060002090565b54948386106117a057906020929161173a856110849798039173ffffffffffffffffffffffffffffffffffffffff166000526000602052604060002090565b558360025403600255604051848152817fddf252ad1be2c89b69c2b068fc378daa952ba7f163c4a11628f55a4df523b3ef6000958693a361178261177d85612285565b61232d565b50508252600860205260408181842054169280805220541690611cba565b6040517fe450d38c00000000000000000000000000000000000000000000000000000000815273ffffffffffffffffffffffffffffffffffffffff9190911660048201526024810186905260448101849052606490fd5b611084916118a673ffffffffffffffffffffffffffffffffffffffff927fffffffffffffffffffffffff0000000000000000000000000000000000000000848216948560005260086020526040600020958654968288169788938816948591161790557f3134e8a2e6d97e929a7e54011ea5485d7d196dd5f0ba4d4ef95803e8e3fc257f600080a473ffffffffffffffffffffffffffffffffffffffff16600052600060205260406000205490565b91611cba565b600a54806118ba5750600090565b807fffffffffffffffffffffffffffffffffffffffffffffffffffffffffffffffff8101116109ce57600a6000527fc65a7bb8d6351c1cf70c95a316cc6a92839c986682d98bc35f958f4883f9d2a7015460301c90565b80548061191f575050600090565b7fffffffffffffffffffffffffffffffffffffffffffffffffffffffffffffffff9181838101116109ce57600052602060002001015460301c90565b6042906119666113f6565b90604051917f19010000000000000000000000000000000000000000000000000000000000008352600283015260228201522090565b9161021b93916119ab9361205b565b90929192612131565b906119e88273ffffffffffffffffffffffffffffffffffffffff166000526007602052604060002080549060018201905590565b8091036119f3575050565b6044925073ffffffffffffffffffffffffffffffffffffffff604051927f752d88c00000000000000000000000000000000000000000000000000000000084521660048301526024820152fd5b9073ffffffffffffffffffffffffffffffffffffffff918281169283156111c85782169384156111975780611abc7f8c5be1e5ebec7d5bd14f71427d1e84f3dd0314c0f7b2291e5b200ac8c7c3b9259461116660209573ffffffffffffffffffffffffffffffffffffffff166000526001602052604060002090565b55604051908152a3565b8115611ad0570490565b7f4e487b7100000000000000000000000000000000000000000000000000000000600052601260045260246000fd5b8015611c395780611bd2611bcb611bc1611bb7611bad611ba3611b99611b8f600161021b9a6000908b60801c80611c2d575b508060401c80611c20575b508060201c80611c13575b508060101c80611c06575b508060081c80611bf9575b508060041c80611bec575b508060021c80611bdf575b50821c611bd8575b811c1b611b88818b611ac6565b0160011c90565b611b88818a611ac6565b611b888189611ac6565b611b888188611ac6565b611b888187611ac6565b611b888186611ac6565b611b888185611ac6565b8092611ac6565b90612273565b8101611b7b565b6002915091019038611b73565b6004915091019038611b68565b6008915091019038611b5d565b6010915091019038611b52565b6020915091019038611b47565b6040915091019038611b3c565b91505060809038611b31565b50600090565b905b828110611c4d57505090565b90918082169080831860011c82018092116109ce57600a60005265ffffffffffff80837fc65a7bb8d6351c1cf70c95a316cc6a92839c986682d98bc35f958f4883f9d2a801541690851610600014611ca85750915b90611c41565b929150611cb4906115c4565b90611ca2565b919073ffffffffffffffffffffffffffffffffffffffff92838216938116908482141580611e5a575b611cef575b5050505050565b81611d98575b505082611d04575b8080611ce8565b7fdec2bacdd2f05b59de34da9b523dff8be42e5e38e818c82fdb0bae774387a72491611d5c611d56611d629373ffffffffffffffffffffffffffffffffffffffff166000526009602052604060002090565b91612285565b906122e4565b6040805179ffffffffffffffffffffffffffffffffffffffffffffffffffff9384168152919092166020820152a2388080611cfd565b611dc29073ffffffffffffffffffffffffffffffffffffffff166000526009602052604060002090565b611dcb84612285565b611dd44361151d565b79ffffffffffffffffffffffffffffffffffffffffffffffffffff918280611dfb86611911565b1691169003928284116109ce577fdec2bacdd2f05b59de34da9b523dff8be42e5e38e818c82fdb0bae774387a72493611e5092611e37926126fc565b6040805192851683529316602082015291829190820190565b0390a23880611cf5565b50831515611ce3565b60ff8114611eb95760ff811690601f8211611e8f5760405191611e8583610fc1565b8252602082015290565b60046040517fb3512b0c000000000000000000000000000000000000000000000000000000008152fd5b50604051600554816000611ecc83610f3f565b80835292602090600190818116908115611f585750600114611ef7575b505061021b92500382611036565b91509260056000527f036b6384b5eca791c62761152d0c79bb0604c104a5fb6f4eb0703f3154bb3db0936000925b828410611f40575061021b9450505081016020013880611ee9565b85548785018301529485019486945092810192611f25565b90506020935061021b9592507fffffffffffffffffffffffffffffffffffffffffffffffffffffffffffffff0091501682840152151560051b8201013880611ee9565b60ff8114611fbd5760ff811690601f8211611e8f5760405191611e8583610fc1565b50604051600654816000611fd083610f3f565b80835292602090600190818116908115611f585750600114611ffa57505061021b92500382611036565b91509260066000527ff652222313e28459528d920b65115c16c04f3efc82aaedc97be59f3f377c0d3f936000925b828410612043575061021b9450505081016020013880611ee9565b85548785018301529485019486945092810192612028565b91907f7fffffffffffffffffffffffffffffff5d576e7357a4501ddfe92f46681b20a084116120ec57926020929160ff608095604051948552168484015260408301526060820152600092839182805260015afa156120e057805173ffffffffffffffffffffffffffffffffffffffff8116156120d757918190565b50809160019190565b604051903d90823e3d90fd5b50505060009160039190565b6004111561210257565b7f4e487b7100000000000000000000000000000000000000000000000000000000600052602160045260246000fd5b61213a816120f8565b80612143575050565b61214c816120f8565b6001810361217e5760046040517ff645eedf000000000000000000000000000000000000000000000000000000008152fd5b612187816120f8565b600281036121c1576040517ffce698f700000000000000000000000000000000000000000000000000000000815260048101839052602490fd5b806121cd6003926120f8565b146121d55750565b6040517fd78bce0c0000000000000000000000000000000000000000000000000000000081526004810191909152602490fd5b80548210156122205760005260206000200190600090565b7f4e487b7100000000000000000000000000000000000000000000000000000000600052603260045260246000fd5b9060405161225c81610fc1565b915465ffffffffffff8116835260301c6020830152565b9080821015612280575090565b905090565b79ffffffffffffffffffffffffffffffffffffffffffffffffffff908181116122ac571690565b604490604051907f6dfcc65000000000000000000000000000000000000000000000000000000000825260d060048301526024820152fd5b906122ee4361151d565b79ffffffffffffffffffffffffffffffffffffffffffffffffffff91828061231586611911565b169116019182116109ce57612329926126fc565b9091565b6123364361151d565b9079ffffffffffffffffffffffffffffffffffffffffffffffffffff90818061235d6118ac565b16911690039081116109ce5761232991612553565b91909173ffffffffffffffffffffffffffffffffffffffff8091169081156123d7575b8061108494169182156123c4575b60005260086020528060406000205416916000526040600020541690611cba565b6123d061177d85612285565b50506123a3565b6123e083612285565b6123e94361151d565b9479ffffffffffffffffffffffffffffffffffffffffffffffffffff9182806124106118ac565b169116019182116109ce57612429839261108497612553565b5050945050612395565b600a549068010000000000000000821015610fdd576001820180600a5582101561222057600a60005280516020919091015160301b7fffffffffffffffffffffffffffffffffffffffffffffffffffff0000000000001665ffffffffffff91909116177fc65a7bb8d6351c1cf70c95a316cc6a92839c986682d98bc35f958f4883f9d2a890910155565b805468010000000000000000811015610fdd576124df91600182018155612208565b6125245781516020929092015160301b7fffffffffffffffffffffffffffffffffffffffffffffffffffff0000000000001665ffffffffffff92909216919091179055565b7f4e487b7100000000000000000000000000000000000000000000000000000000600052600060045260246000fd5b600a549192919081156126bf5761259e61259961256f84611597565b600a6000527fc65a7bb8d6351c1cf70c95a316cc6a92839c986682d98bc35f958f4883f9d2a80190565b61224f565b805165ffffffffffff83811694911684106126955785602093612646956125d96125ce865165ffffffffffff1690565b65ffffffffffff1690565b0361264a57506125ee61256f61262593611597565b9065ffffffffffff7fffffffffffffffffffffffffffffffffffffffffffffffffffff00000000000083549260301b169116179055565b015179ffffffffffffffffffffffffffffffffffffffffffffffffffff1690565b9190565b9050612690915061266a61265c611077565b65ffffffffffff9092168252565b79ffffffffffffffffffffffffffffffffffffffffffffffffffff871681850152612433565b612625565b60046040517f2520601d000000000000000000000000000000000000000000000000000000008152fd5b6126f691506126cf61265c611077565b79ffffffffffffffffffffffffffffffffffffffffffffffffffff84166020820152612433565b60009190565b8054929392919082156127cd5761272561259961271885611597565b8360005260206000200190565b90612736825165ffffffffffff1690565b65ffffffffffff84811691168110612695576126469460209488926127646125ce875165ffffffffffff1690565b0361278757506126259261277a6125ee92611597565b9060005260206000200190565b915050612690916127a7612799611077565b65ffffffffffff9093168352565b79ffffffffffffffffffffffffffffffffffffffffffffffffffff8816828601526124bd565b6126f692506127dd612799611077565b79ffffffffffffffffffffffffffffffffffffffffffffffffffff851660208301526124bd56fea2646970667358221220c7d7c71d00a4b9141b8fab266f394d9a9a0c9c8cb749ce553371efa29b5958ee64736f6c63430008180033","linkReferences":{}},"methodIdentifiers":{"CLOCK_MODE()":"4bf5d7e9","DOMAIN_SEPARATOR()":"3644e515","allowance(address,address)":"dd62ed3e","approve(address,uint256)":"095ea7b3","balanceOf(address)":"70a08231","burn(uint256)":"42966c68","burnFrom(address,uint256)":"79cc6790","checkpoints(address,uint32)":"f1127ed8","clock()":"91ddadf4","decimals()":"313ce567","delegate(address)":"5c19a95c","delegateBySig(address,uint256,uint256,uint8,bytes32,bytes32)":"c3cda520","delegates(address)":"587cde1e","eip712Domain()":"84b0196e","getPastTotalSupply(uint256)":"8e539e8c","getPastVotes(address,uint256)":"3a46b1a8","getVotes(address)":"9ab24eb0","name()":"06fdde03","nonces(address)":"7ecebe00","numCheckpoints(address)":"6fcfff45","permit(address,address,uint256,uint256,uint8,bytes32,bytes32)":"d505accf","symbol()":"95d89b41","totalSupply()":"18160ddd","transfer(address,uint256)":"a9059cbb","transferFrom(address,address,uint256)":"23b872dd"},"id":9}