{"abi":[{"type":"constructor","inputs":[],"stateMutability":"nonpayable"},{"type":"receive","stateMutability":"payable"},{"type":"function","name":"DEFAULT_ADMIN_ROLE","inputs":[],"outputs":[{"name":"","type":"bytes32","internalType":"bytes32"}],"stateMutability":"view"},{"type":"function","name":"UPGRADE_INTERFACE_VERSION","inputs":[],"outputs":[{"name":"","type":"string","internalType":"string"}],"stateMutability":"view"},{"type":"function","name":"approve","inputs":[{"name":"distributor","type":"address","internalType":"address"}],"outputs":[],"stateMutability":"nonpayable"},{"type":"function","name":"disburse","inputs":[{"name":"amount","type":"uint256","internalType":"uint256"},{"name":"token","type":"address","internalType":"address"}],"outputs":[],"stateMutability":"nonpayable"},{"type":"function","name":"disburse","inputs":[{"name":"amount","type":"uint256","internalType":"uint256"}],"outputs":[],"stateMutability":"nonpayable"},{"type":"function","name":"enrollmentsCount","inputs":[],"outputs":[{"name":"","type":"uint256","internalType":"uint256"}],"stateMutability":"view"},{"type":"function","name":"getFees","inputs":[{"name":"token","type":"address","internalType":"address"}],"outputs":[{"name":"","type":"uint256","internalType":"uint256"}],"stateMutability":"view"},{"type":"function","name":"getGovernance","inputs":[],"outputs":[{"name":"","type":"address","internalType":"address"}],"stateMutability":"view"},{"type":"function","name":"getLedgerEntry","inputs":[{"name":"account","type":"address","internalType":"address"},{"name":"token","type":"address","internalType":"address"}],"outputs":[{"name":"","type":"uint256","internalType":"uint256"}],"stateMutability":"view"},{"type":"function","name":"getRoleAdmin","inputs":[{"name":"role","type":"bytes32","internalType":"bytes32"}],"outputs":[{"name":"","type":"bytes32","internalType":"bytes32"}],"stateMutability":"view"},{"type":"function","name":"getTreasuryAddress","inputs":[],"outputs":[{"name":"","type":"address","internalType":"address"}],"stateMutability":"view"},{"type":"function","name":"grantRole","inputs":[{"name":"role","type":"bytes32","internalType":"bytes32"},{"name":"account","type":"address","internalType":"address"}],"outputs":[],"stateMutability":"nonpayable"},{"type":"function","name":"hasRole","inputs":[{"name":"role","type":"bytes32","internalType":"bytes32"},{"name":"account","type":"address","internalType":"address"}],"outputs":[{"name":"","type":"bool","internalType":"bool"}],"stateMutability":"view"},{"type":"function","name":"initialize","inputs":[{"name":"repository","type":"address","internalType":"address"},{"name":"initialFee","type":"uint256","internalType":"uint256"},{"name":"initialPenaltyRateBps","type":"uint256","internalType":"uint256"}],"outputs":[],"stateMutability":"nonpayable"},{"type":"function","name":"isActive","inputs":[{"name":"distributor","type":"address","internalType":"address"}],"outputs":[{"name":"","type":"bool","internalType":"bool"}],"stateMutability":"view"},{"type":"function","name":"isBlocked","inputs":[{"name":"distributor","type":"address","internalType":"address"}],"outputs":[{"name":"","type":"bool","internalType":"bool"}],"stateMutability":"view"},{"type":"function","name":"isWaiting","inputs":[{"name":"distributor","type":"address","internalType":"address"}],"outputs":[{"name":"","type":"bool","internalType":"bool"}],"stateMutability":"view"},{"type":"function","name":"penaltyRate","inputs":[],"outputs":[{"name":"","type":"uint256","internalType":"uint256"}],"stateMutability":"view"},{"type":"function","name":"proxiableUUID","inputs":[],"outputs":[{"name":"","type":"bytes32","internalType":"bytes32"}],"stateMutability":"view"},{"type":"function","name":"quit","inputs":[{"name":"distributor","type":"address","internalType":"address"}],"outputs":[],"stateMutability":"nonpayable"},{"type":"function","name":"register","inputs":[{"name":"distributor","type":"address","internalType":"address"}],"outputs":[],"stateMutability":"payable"},{"type":"function","name":"renounceRole","inputs":[{"name":"role","type":"bytes32","internalType":"bytes32"},{"name":"callerConfirmation","type":"address","internalType":"address"}],"outputs":[],"stateMutability":"nonpayable"},{"type":"function","name":"revoke","inputs":[{"name":"distributor","type":"address","internalType":"address"}],"outputs":[],"stateMutability":"nonpayable"},{"type":"function","name":"revokeEmergencyAdmin","inputs":[{"name":"revokedAddress","type":"address","internalType":"address"}],"outputs":[],"stateMutability":"nonpayable"},{"type":"function","name":"revokeRole","inputs":[{"name":"role","type":"bytes32","internalType":"bytes32"},{"name":"account","type":"address","internalType":"address"}],"outputs":[],"stateMutability":"nonpayable"},{"type":"function","name":"setEmergencyAdmin","inputs":[{"name":"newEmergencyAdmin","type":"address","internalType":"address"}],"outputs":[],"stateMutability":"nonpayable"},{"type":"function","name":"setFees","inputs":[{"name":"newTreasuryFee","type":"uint256","internalType":"uint256"},{"name":"token","type":"address","internalType":"address"}],"outputs":[],"stateMutability":"nonpayable"},{"type":"function","name":"setFees","inputs":[{"name":"newTreasuryFee","type":"uint256","internalType":"uint256"}],"outputs":[],"stateMutability":"nonpayable"},{"type":"function","name":"setGovernance","inputs":[{"name":"newGovernance","type":"address","internalType":"address"}],"outputs":[],"stateMutability":"nonpayable"},{"type":"function","name":"setPenaltyRate","inputs":[{"name":"newPenaltyRate","type":"uint256","internalType":"uint256"}],"outputs":[],"stateMutability":"nonpayable"},{"type":"function","name":"setTreasuryAddress","inputs":[{"name":"newTreasuryAddress","type":"address","internalType":"address"}],"outputs":[],"stateMutability":"nonpayable"},{"type":"function","name":"supportsInterface","inputs":[{"name":"interfaceId","type":"bytes4","internalType":"bytes4"}],"outputs":[{"name":"","type":"bool","internalType":"bool"}],"stateMutability":"view"},{"type":"function","name":"upgradeToAndCall","inputs":[{"name":"newImplementation","type":"address","internalType":"address"},{"name":"data","type":"bytes","internalType":"bytes"}],"outputs":[],"stateMutability":"payable"},{"type":"event","name":"Approved","inputs":[{"name":"distributor","type":"address","indexed":true,"internalType":"address"}],"anonymous":false},{"type":"event","name":"FeesDisbursed","inputs":[{"name":"treasury","type":"address","indexed":true,"internalType":"address"},{"name":"amount","type":"uint256","indexed":false,"internalType":"uint256"}],"anonymous":false},{"type":"event","name":"Initialized","inputs":[{"name":"version","type":"uint64","indexed":false,"internalType":"uint64"}],"anonymous":false},{"type":"event","name":"Registered","inputs":[{"name":"distributor","type":"address","indexed":true,"internalType":"address"}],"anonymous":false},{"type":"event","name":"Resigned","inputs":[{"name":"distributor","type":"address","indexed":true,"internalType":"address"}],"anonymous":false},{"type":"event","name":"Revoked","inputs":[{"name":"distributor","type":"address","indexed":true,"internalType":"address"}],"anonymous":false},{"type":"event","name":"RoleAdminChanged","inputs":[{"name":"role","type":"bytes32","indexed":true,"internalType":"bytes32"},{"name":"previousAdminRole","type":"bytes32","indexed":true,"internalType":"bytes32"},{"name":"newAdminRole","type":"bytes32","indexed":true,"internalType":"bytes32"}],"anonymous":false},{"type":"event","name":"RoleGranted","inputs":[{"name":"role","type":"bytes32","indexed":true,"internalType":"bytes32"},{"name":"account","type":"address","indexed":true,"internalType":"address"},{"name":"sender","type":"address","indexed":true,"internalType":"address"}],"anonymous":false},{"type":"event","name":"RoleRevoked","inputs":[{"name":"role","type":"bytes32","indexed":true,"internalType":"bytes32"},{"name":"account","type":"address","indexed":true,"internalType":"address"},{"name":"sender","type":"address","indexed":true,"internalType":"address"}],"anonymous":false},{"type":"event","name":"Upgraded","inputs":[{"name":"implementation","type":"address","indexed":true,"internalType":"address"}],"anonymous":false},{"type":"error","name":"AccessControlBadConfirmation","inputs":[]},{"type":"error","name":"AccessControlUnauthorizedAccount","inputs":[{"name":"account","type":"address","internalType":"address"},{"name":"neededRole","type":"bytes32","internalType":"bytes32"}]},{"type":"error","name":"AddressEmptyCode","inputs":[{"name":"target","type":"address","internalType":"address"}]},{"type":"error","name":"AlreadyPendingApproval","inputs":[]},{"type":"error","name":"ERC1967InvalidImplementation","inputs":[{"name":"implementation","type":"address","internalType":"address"}]},{"type":"error","name":"ERC1967NonPayable","inputs":[]},{"type":"error","name":"FailDuringEnrollment","inputs":[{"name":"reason","type":"string","internalType":"string"}]},{"type":"error","name":"FailDuringQuit","inputs":[{"name":"reason","type":"string","internalType":"string"}]},{"type":"error","name":"FailDuringTransfer","inputs":[{"name":"reason","type":"string","internalType":"string"}]},{"type":"error","name":"FailedInnerCall","inputs":[]},{"type":"error","name":"InvalidBasisPointRange","inputs":[]},{"type":"error","name":"InvalidDistributorContract","inputs":[]},{"type":"error","name":"InvalidInactiveState","inputs":[]},{"type":"error","name":"InvalidInitialization","inputs":[]},{"type":"error","name":"InvalidNominalRange","inputs":[]},{"type":"error","name":"InvalidPenaltyRate","inputs":[]},{"type":"error","name":"InvalidUnsupportedToken","inputs":[{"name":"token","type":"address","internalType":"address"}]},{"type":"error","name":"NotInitializing","inputs":[]},{"type":"error","name":"NotWaitingApproval","inputs":[]},{"type":"error","name":"ReentrancyGuardReentrantCall","inputs":[]},{"type":"error","name":"UUPSUnauthorizedCallContext","inputs":[]},{"type":"error","name":"UUPSUnsupportedProxiableUUID","inputs":[{"name":"slot","type":"bytes32","internalType":"bytes32"}]}],"bytecode":{"object":"0x60a080604052346100cc57306080527ff0c57e16840df040f15088dc2f81fe391c3923bec73e23a9662efc9c229c6a009081549060ff8260401c166100bd57506001600160401b036002600160401b031982821601610078575b604051612a1490816100d282396080518181816108e9015261184c0152f35b6001600160401b031990911681179091556040519081527fc7f505b2f371ae2175ee4913f4499e1f2633a7b5936321eed1cdaeb6115181d290602090a1388080610059565b63f92ee8a960e01b8152600490fd5b600080fdfe6080604052600436101561001b575b361561001957600080fd5b005b60003560e01c806301ffc9a7146102265780631c61f62b14610208578063248a9ca314610221578063289b3c0d1461021c5780632f2ff15d1461021757806335da33941461021257806336568abe1461020d5780633d162cdc146102085780633d18678e146102035780634420e486146101fe5780634c622006146101f95780634f1ef286146101f457806352d1902d146101ef5780635873d913146101ea5780636605bfda146101e557806374a8f103146101e05780637a1ac61e146101db5780638f132f87146101d657806391d14854146101d15780639af608c9146101cc5780639f8a13d7146101c7578063a1bab447146101c2578063a217fddf146101bd578063ab033ea9146101b8578063ad3cb1cc146101b3578063bd77ac2c146101ae578063ce458581146101a9578063d32b91dd146101a4578063d547741f1461019f578063d6b7494f1461019a578063daea85c514610195578063e0024604146101905763fbac39510361000e57611785565b611732565b61155a565b61153c565b6114d9565b6112a8565b611220565b611194565b6110e1565b61104d565b611031565b610f9b565b610f13565b610e42565b610dbf565b610d21565b610b26565b610a0b565b610981565b610963565b6108c1565b610845565b610730565b610564565b6104b1565b6102ea565b610441565b610413565b6103b0565b61035d565b61030f565b346102c75760206003193601126102c7576004357fffffffff0000000000000000000000000000000000000000000000000000000081168091036102c757807f7965db0b000000000000000000000000000000000000000000000000000000006020921490811561029d575b506040519015158152f35b7f01ffc9a70000000000000000000000000000000000000000000000000000000091501438610292565b600080fd5b73ffffffffffffffffffffffffffffffffffffffff8116036102c757565b346102c75760406003193601126102c7576103066024356102cc565b61001933611bf4565b346102c75760206003193601126102c7576004356000527f02dd7bc7dec4dceedda775e58dd541e08a116c6c53815c0bd028192f7b6268006020526020600160406000200154604051908152f35b346102c75760006003193601126102c757602073ffffffffffffffffffffffffffffffffffffffff7fbe22a97ce56bf984cece6021e328584abbd5b3cd394ccbe3b6884d525c48c4005416604051908152f35b346102c75760406003193601126102c7576100196024356004356103d3826102cc565b806000527f02dd7bc7dec4dceedda775e58dd541e08a116c6c53815c0bd028192f7b62680060205261040e6001604060002001543390611d54565b611ff4565b346102c75760206003193601126102c757610019600435610433816102cc565b61043c33611bf4565b611dac565b346102c75760406003193601126102c75760243561045e816102cc565b3373ffffffffffffffffffffffffffffffffffffffff8216036104875761001990600435612158565b60046040517f6697b232000000000000000000000000000000000000000000000000000000008152fd5b346102c75760206003193601126102c7576104cb33611bf4565b600080526004357fdbbcd40c0f349adfa39fc864f544e00dd2cfe8e80bd0e6edcd3f2b026dad531d557f87da7b105ee6d8640c69f620aa1ac0a4cea27ca8bc07f4213d3776b156a65a016020527f916459e1bd58192a19bc20bcfacf109074ce2fa449617b52fa523929b0ed858780547fffffffffffffffffffffffffffffffffffffffffffffffffffffffffffffff00166001179055005b60206003193601126102c75760043561057c816102cc565b61058581612253565b1561070657610592611b04565b34106106a75773ffffffffffffffffffffffffffffffffffffffff166040517fd5009584000000000000000000000000000000000000000000000000000000008152602081600481855afa80156106a25761064391600091610673575b50349073ffffffffffffffffffffffffffffffffffffffff166000527fcb711bda070b7bbcc2b711ef3993cc17677144f4419b29e303bef375c5f40f00602052604060002060008052602052604060002055565b61064c81612360565b7f2d3734a8e47ac8316e500ac231c90a6e1848ca2285f40d07eaa52005e4b3a0e9600080a2005b610695915060203d60201161069b575b61068d81836107ca565b81019061180d565b386105ef565b503d610683565b611825565b6040517fe404985c00000000000000000000000000000000000000000000000000000000815260206004820152601260248201527f496e76616c69642066656520616d6f756e7400000000000000000000000000006044820152606490fd5b60046040517f03da036e000000000000000000000000000000000000000000000000000000008152fd5b346102c75760206003193601126102c757610019600435610750816102cc565b61075933611bf4565b61204e565b7f4e487b7100000000000000000000000000000000000000000000000000000000600052604160045260246000fd5b6040810190811067ffffffffffffffff8211176107a957604052565b61075e565b6060810190811067ffffffffffffffff8211176107a957604052565b90601f7fffffffffffffffffffffffffffffffffffffffffffffffffffffffffffffffe0910116810190811067ffffffffffffffff8211176107a957604052565b67ffffffffffffffff81116107a957601f017fffffffffffffffffffffffffffffffffffffffffffffffffffffffffffffffe01660200190565b60406003193601126102c75760043561085d816102cc565b6024359067ffffffffffffffff82116102c757366023830112156102c75781600401359061088a8261080b565b9161089860405193846107ca565b80835236602482860101116102c757602081600092602461001997018387013784010152611831565b346102c75760006003193601126102c75773ffffffffffffffffffffffffffffffffffffffff7f00000000000000000000000000000000000000000000000000000000000000001630036109395760206040517f360894a13ba1a3210667c828492db98dca3e2076cc3735a920a3ca505d382bbc8152f35b60046040517fe07c8dba000000000000000000000000000000000000000000000000000000008152fd5b346102c75760006003193601126102c7576020600154604051908152f35b346102c75760206003193601126102c75760043561099e816102cc565b6109a733611bf4565b73ffffffffffffffffffffffffffffffffffffffff7fad118695963461d59b4e186bb251fe176897e2c57f3362e8dade6f9a4f8e740091167fffffffffffffffffffffffff0000000000000000000000000000000000000000825416179055600080f35b346102c75760206003193601126102c757600435610a28816102cc565b610a3133611bf4565b610a3a81612253565b156107065773ffffffffffffffffffffffffffffffffffffffff166000908082527f78a5d34d6f19765a8d11b74cebcafd0494288384b72923088bc4746147d1ae008060205260ff6040842054166004811015610b2157600203610af757818352602052610ad06040832060037fffffffffffffffffffffffffffffffffffffffffffffffffffffffffffffff00825416179055565b7fb6fa8b8bd5eab60f292eca876e3ef90722275b785309d84b1de113ce0b8c4e748280a280f35b60046040517fd6579878000000000000000000000000000000000000000000000000000000008152fd5b611ad5565b346102c75760606003193601126102c757600435610b43816102cc565b7ff0c57e16840df040f15088dc2f81fe391c3923bec73e23a9662efc9c229c6a00549067ffffffffffffffff60ff8360401c1615921680159081610d19575b6001149081610d0f575b159081610d06575b50610cdc57610bff9082610bed7ff0c57e16840df040f15088dc2f81fe391c3923bec73e23a9662efc9c229c6a0060017fffffffffffffffffffffffffffffffffffffffffffffffff0000000000000000825416179055565b610c80575b60443590602435906119d4565b610c0557005b610c517ff0c57e16840df040f15088dc2f81fe391c3923bec73e23a9662efc9c229c6a007fffffffffffffffffffffffffffffffffffffffffffffff00ffffffffffffffff8154169055565b604051600181527fc7f505b2f371ae2175ee4913f4499e1f2633a7b5936321eed1cdaeb6115181d290602090a1005b610cd77ff0c57e16840df040f15088dc2f81fe391c3923bec73e23a9662efc9c229c6a00680100000000000000007fffffffffffffffffffffffffffffffffffffffffffffff00ffffffffffffffff825416179055565b610bf2565b60046040517ff92ee8a9000000000000000000000000000000000000000000000000000000008152fd5b90501538610b94565b303b159150610b8c565b839150610b82565b346102c75760406003193601126102c7576020610db6600435610d43816102cc565b73ffffffffffffffffffffffffffffffffffffffff60243591610d65836102cc565b166000527fcb711bda070b7bbcc2b711ef3993cc17677144f4419b29e303bef375c5f40f00835260406000209073ffffffffffffffffffffffffffffffffffffffff16600052602052604060002090565b54604051908152f35b346102c75760406003193601126102c757602060ff610e36602435610de3816102cc565b6004356000527f02dd7bc7dec4dceedda775e58dd541e08a116c6c53815c0bd028192f7b626800845260406000209073ffffffffffffffffffffffffffffffffffffffff16600052602052604060002090565b54166040519015158152f35b346102c75760206003193601126102c75773ffffffffffffffffffffffffffffffffffffffff600435610e74816102cc565b16806000527f87da7b105ee6d8640c69f620aa1ac0a4cea27ca8bc07f4213d3776b156a65a0160205260ff6040600020541615610ee2576000527f87da7b105ee6d8640c69f620aa1ac0a4cea27ca8bc07f4213d3776b156a65a006020526020604060002054604051908152f35b602490604051907ffd0f4c130000000000000000000000000000000000000000000000000000000082526004820152fd5b346102c75760206003193601126102c757600435610f30816102cc565b610f3981612253565b156107065773ffffffffffffffffffffffffffffffffffffffff166000527f78a5d34d6f19765a8d11b74cebcafd0494288384b72923088bc4746147d1ae0060205260ff604060002054166004811015610b2157602090600260405191148152f35b346102c75760206003193601126102c757600435610fb833611bf4565b600181108015611026575b610ffc578015610fd257600055005b60046040517f98d95758000000000000000000000000000000000000000000000000000000008152fd5b60046040517f07c0803f000000000000000000000000000000000000000000000000000000008152fd5b506127108111610fc3565b346102c75760006003193601126102c757602060405160008152f35b346102c75760206003193601126102c75760043561106a816102cc565b61107333611cb6565b61107c81611ebe565b5073ffffffffffffffffffffffffffffffffffffffff7fbe22a97ce56bf984cece6021e328584abbd5b3cd394ccbe3b6884d525c48c40091167fffffffffffffffffffffffff0000000000000000000000000000000000000000825416179055600080f35b346102c75760006003193601126102c75760408051906111008261078d565b600582526020907f352e302e300000000000000000000000000000000000000000000000000000006020840152604051916020835283519182602085015260005b83811061118157846040817fffffffffffffffffffffffffffffffffffffffffffffffffffffffffffffffe0601f88600085828601015201168101030190f35b8581018301518582018301528201611141565b346102c75760206003193601126102c7576004356111b133611bf4565b7f877d4540b0e481fd8ee09fdeae4c313138853d42bf9ef5a4513dd58cf9abfeed602073ffffffffffffffffffffffffffffffffffffffff7fad118695963461d59b4e186bb251fe176897e2c57f3362e8dade6f9a4f8e7400541692611217818561255c565b604051908152a2005b346102c75760206003193601126102c75760043561123d816102cc565b61124681612253565b156107065773ffffffffffffffffffffffffffffffffffffffff166000527f78a5d34d6f19765a8d11b74cebcafd0494288384b72923088bc4746147d1ae0060205260ff604060002054166004811015610b2157602090600160405191148152f35b346102c75760206003193601126102c7576004356112c5816102cc565b7f9b779b17422d0df92223018b32b4d1fa46e071723d6817e2486d003becc55f0060028154146114af57600290556112fc81612253565b15610706576000903382527fcb711bda070b7bbcc2b711ef3993cc17677144f4419b29e303bef375c5f40f006020526113416040832060008052602052604060002090565b54801561142b5773ffffffffffffffffffffffffffffffffffffffff6113756113db9261136f86548261264e565b90611bb5565b926113ca3373ffffffffffffffffffffffffffffffffffffffff6000911681527fcb711bda070b7bbcc2b711ef3993cc17677144f4419b29e303bef375c5f40f00602052604081208180526020526040812055565b16916113d583612680565b3361255c565b7fa6674aa33cd1b7435474751667707bf05fde99e537d67043ec5f907782577d868280a261142860017f9b779b17422d0df92223018b32b4d1fa46e071723d6817e2486d003becc55f0055565b80f35b60846040517f330a423600000000000000000000000000000000000000000000000000000000815260206004820152602760248201527f496e76616c6964206469737472696275746f722f6d616e6167657220656e726f60448201527f6c6c6d656e742e000000000000000000000000000000000000000000000000006064820152fd5b60046040517f3ee5aeb5000000000000000000000000000000000000000000000000000000008152fd5b346102c75760406003193601126102c7576100196024356004356114fc826102cc565b806000527f02dd7bc7dec4dceedda775e58dd541e08a116c6c53815c0bd028192f7b6268006020526115376001604060002001543390611d54565b612158565b346102c75760006003193601126102c7576020600054604051908152f35b346102c7576020806003193601126102c757600435611578816102cc565b61158133611bf4565b61158a81612253565b156107065773ffffffffffffffffffffffffffffffffffffffff16906040517fd50095840000000000000000000000000000000000000000000000000000000081528181600481865afa80156106a25761163791600091611715575b5073ffffffffffffffffffffffffffffffffffffffff6000911681527fcb711bda070b7bbcc2b711ef3993cc17677144f4419b29e303bef375c5f40f00602052604081208180526020526040812055565b816000527f78a5d34d6f19765a8d11b74cebcafd0494288384b72923088bc4746147d1ae009081815260ff604060002054166004811015610b21576001036116eb5782600052526116b1604060002060027fffffffffffffffffffffffffffffffffffffffffffffffffffffffffffffff00825416179055565b6116c46116bf600154611bc7565b600155565b7f5d91bd0cecc45fef102af61de92c5462fadc884a5ce9d21c15e8a85198f2349e600080a2005b60046040517f6f53c246000000000000000000000000000000000000000000000000000000008152fd5b61172c9150833d851161069b5761068d81836107ca565b386115e6565b346102c75760006003193601126102c757602073ffffffffffffffffffffffffffffffffffffffff7fad118695963461d59b4e186bb251fe176897e2c57f3362e8dade6f9a4f8e74005416604051908152f35b346102c75760206003193601126102c7576004356117a2816102cc565b6117ab81612253565b156107065773ffffffffffffffffffffffffffffffffffffffff166000527f78a5d34d6f19765a8d11b74cebcafd0494288384b72923088bc4746147d1ae0060205260ff604060002054166004811015610b2157602090600360405191148152f35b908160209103126102c75751611822816102cc565b90565b6040513d6000823e3d90fd5b909173ffffffffffffffffffffffffffffffffffffffff92837f0000000000000000000000000000000000000000000000000000000000000000168030149081156119a6575b5061093957602060049461188a33611cb6565b604051958680927f52d1902d00000000000000000000000000000000000000000000000000000000825287165afa60009481611975575b5061190d576040517f4c9c8ce300000000000000000000000000000000000000000000000000000000815273ffffffffffffffffffffffffffffffffffffffff84166004820152602490fd5b90917f360894a13ba1a3210667c828492db98dca3e2076cc3735a920a3ca505d382bbc840361194357611941929350612785565b565b6040517faa1d49a400000000000000000000000000000000000000000000000000000000815260048101859052602490fd5b61199891955060203d60201161199f575b61199081836107ca565b810190612400565b93386118c1565b503d611986565b9050847f360894a13ba1a3210667c828492db98dca3e2076cc3735a920a3ca505d382bbc5416141538611877565b91600181108015611aca575b610ffc576119ec61289c565b6119f461289c565b6119fc61289c565b611a0461289c565b611a0c61289c565b611a1461289c565b611a1c61240f565b600055602060405180937fde981f1b0000000000000000000000000000000000000000000000000000000082528173ffffffffffffffffffffffffffffffffffffffff81611a7260048201906002602083019252565b0392165afa9081156106a257611a9992600092611aa5575b50611a9490612445565b6124eb565b611aa233611dac565b50565b611a94919250611ac39060203d60201161069b5761068d81836107ca565b9190611a8a565b5061271081116119e0565b7f4e487b7100000000000000000000000000000000000000000000000000000000600052602160045260246000fd5b60008080527f87da7b105ee6d8640c69f620aa1ac0a4cea27ca8bc07f4213d3776b156a65a016020527f916459e1bd58192a19bc20bcfacf109074ce2fa449617b52fa523929b0ed85875460ff1615610ee2578080604092527f87da7b105ee6d8640c69f620aa1ac0a4cea27ca8bc07f4213d3776b156a65a00602052205490565b7f4e487b7100000000000000000000000000000000000000000000000000000000600052601160045260246000fd5b91908203918211611bc257565b611b86565b7fffffffffffffffffffffffffffffffffffffffffffffffffffffffffffffffff8114611bc25760010190565b73ffffffffffffffffffffffffffffffffffffffff811660009081527ff2e0a8360026a616a5c33ed370a5497cc3baf8a817a474a098d5f8687be72a0f602052604090207ff018c6c8c8da18060a4e6807987a0a03fba6c9fba4a5c9531151020efe3268149060ff905b541615611c69575050565b6044925073ffffffffffffffffffffffffffffffffffffffff604051927fe2517d3f0000000000000000000000000000000000000000000000000000000084521660048301526024820152fd5b73ffffffffffffffffffffffffffffffffffffffff811660009081527fb7db2dd08fcb62d0c9e08c51941cae53c267786a0b75803fb7960902fc8ef97d602052604090205460ff1615611d065750565b60449073ffffffffffffffffffffffffffffffffffffffff604051917fe2517d3f00000000000000000000000000000000000000000000000000000000835216600482015260006024820152fd5b806000527f02dd7bc7dec4dceedda775e58dd541e08a116c6c53815c0bd028192f7b62680060205260ff611c5e8360406000209073ffffffffffffffffffffffffffffffffffffffff16600052602052604060002090565b73ffffffffffffffffffffffffffffffffffffffff811660009081527fb7db2dd08fcb62d0c9e08c51941cae53c267786a0b75803fb7960902fc8ef97d60205260408120547f02dd7bc7dec4dceedda775e58dd541e08a116c6c53815c0bd028192f7b6268009060ff16611eb857818052602052611e4d82604083209073ffffffffffffffffffffffffffffffffffffffff16600052602052604060002090565b60017fffffffffffffffffffffffffffffffffffffffffffffffffffffffffffffff0082541617905573ffffffffffffffffffffffffffffffffffffffff339216907f2f8788117e7eff1d82e926ec794901d17c78024a50270940304540a733656f0d8180a4600190565b50905090565b73ffffffffffffffffffffffffffffffffffffffff811660009081527ff2e0a8360026a616a5c33ed370a5497cc3baf8a817a474a098d5f8687be72a0f602052604081207ff018c6c8c8da18060a4e6807987a0a03fba6c9fba4a5c9531151020efe326814907f02dd7bc7dec4dceedda775e58dd541e08a116c6c53815c0bd028192f7b6268009060ff905b5416611fed57818352602052611f8383604084209073ffffffffffffffffffffffffffffffffffffffff16600052602052604060002090565b60017fffffffffffffffffffffffffffffffffffffffffffffffffffffffffffffff008254161790557f2f8788117e7eff1d82e926ec794901d17c78024a50270940304540a733656f0d73ffffffffffffffffffffffffffffffffffffffff3394169280a4600190565b5050905090565b6000908082527f02dd7bc7dec4dceedda775e58dd541e08a116c6c53815c0bd028192f7b6268008060205260ff611f4a85604086209073ffffffffffffffffffffffffffffffffffffffff16600052602052604060002090565b73ffffffffffffffffffffffffffffffffffffffff811660009081527fb7db2dd08fcb62d0c9e08c51941cae53c267786a0b75803fb7960902fc8ef97d60205260408120547f02dd7bc7dec4dceedda775e58dd541e08a116c6c53815c0bd028192f7b6268009060ff1615611eb8578180526020526120f082604083209073ffffffffffffffffffffffffffffffffffffffff16600052602052604060002090565b7fffffffffffffffffffffffffffffffffffffffffffffffffffffffffffffff00815416905573ffffffffffffffffffffffffffffffffffffffff339216907ff6391f5c32d9c69d2a47ea670b442974b53935d1edc7fd64eb21e047a839171b8180a4600190565b6000908082527f02dd7bc7dec4dceedda775e58dd541e08a116c6c53815c0bd028192f7b6268008060205260ff6121b285604086209073ffffffffffffffffffffffffffffffffffffffff16600052602052604060002090565b541615611fed578183526020526121ec83604084209073ffffffffffffffffffffffffffffffffffffffff16600052602052604060002090565b7fffffffffffffffffffffffffffffffffffffffffffffffffffffffffffffff0081541690557ff6391f5c32d9c69d2a47ea670b442974b53935d1edc7fd64eb21e047a839171b73ffffffffffffffffffffffffffffffffffffffff3394169280a4600190565b6040519060208083018160007f01ffc9a7000000000000000000000000000000000000000000000000000000009586845286602482015260248152612297816107ae565b51617530938685fa933d6000519086612355575b508561234b575b50846122cf575b505050816122c5575090565b61182291506126f6565b8394509060009183946040518581019283527fffffffff00000000000000000000000000000000000000000000000000000000602482015260248152612314816107ae565b5192fa60005190913d83612340575b505081612336575b5015903880806122b9565b905015153861232b565b101591503880612323565b15159450386122b2565b8411159550386122ab565b806000527f78a5d34d6f19765a8d11b74cebcafd0494288384b72923088bc4746147d1ae00908160205260ff604060002054166004811015610b21576123d657600052602052604060002060017fffffffffffffffffffffffffffffffffffffffffffffffffffffffffffffff00825416179055565b60046040517fc428a493000000000000000000000000000000000000000000000000000000008152fd5b908160209103126102c7575190565b61241761289c565b61241f61289c565b60017f9b779b17422d0df92223018b32b4d1fa46e071723d6817e2486d003becc55f0055565b61244d61289c565b61245561289c565b600080527fdbbcd40c0f349adfa39fc864f544e00dd2cfe8e80bd0e6edcd3f2b026dad531d557f87da7b105ee6d8640c69f620aa1ac0a4cea27ca8bc07f4213d3776b156a65a016020527f916459e1bd58192a19bc20bcfacf109074ce2fa449617b52fa523929b0ed858780547fffffffffffffffffffffffffffffffffffffffffffffffffffffffffffffff00166001179055565b6124f361289c565b6124fb61289c565b73ffffffffffffffffffffffffffffffffffffffff7fad118695963461d59b4e186bb251fe176897e2c57f3362e8dade6f9a4f8e740091167fffffffffffffffffffffffff0000000000000000000000000000000000000000825416179055565b8147106125f057600080809373ffffffffffffffffffffffffffffffffffffffff8294165af161258a6128f5565b501561259257565b60646040517f9cf1483d00000000000000000000000000000000000000000000000000000000815260206004820152600f60248201527f5472616e73666572206661696c656400000000000000000000000000000000006044820152fd5b60646040517f9cf1483d00000000000000000000000000000000000000000000000000000000815260206004820152601560248201527f496e73756666696369656e742062616c616e63652e00000000000000000000006044820152fd5b90811590818015612678575b61267357808302928304141715611bc257612710900490565b505090565b50801561265a565b806000527f78a5d34d6f19765a8d11b74cebcafd0494288384b72923088bc4746147d1ae00908160205260ff604060002054166004811015610b21576001036116eb5760005260205260406000207fffffffffffffffffffffffffffffffffffffffffffffffffffffffffffffff008154169055565b6000602091604051838101907f01ffc9a70000000000000000000000000000000000000000000000000000000082527f3a8b284600000000000000000000000000000000000000000000000000000000602482015260248152612758816107ae565b5191617530fa6000513d82612779575b5081612772575090565b9050151590565b60201115915038612768565b90813b156128555773ffffffffffffffffffffffffffffffffffffffff82167f360894a13ba1a3210667c828492db98dca3e2076cc3735a920a3ca505d382bbc817fffffffffffffffffffffffff00000000000000000000000000000000000000008254161790557fbc7cd75a20ee27fd9adebab32041f755214dbc6bffa90cc0225b39da2e5c2d3b600080a280511561282257611aa291612925565b50503461282b57565b60046040517fb398979f000000000000000000000000000000000000000000000000000000008152fd5b60248273ffffffffffffffffffffffffffffffffffffffff604051917f4c9c8ce3000000000000000000000000000000000000000000000000000000008352166004820152fd5b60ff7ff0c57e16840df040f15088dc2f81fe391c3923bec73e23a9662efc9c229c6a005460401c16156128cb57565b60046040517fd7e6bcf8000000000000000000000000000000000000000000000000000000008152fd5b3d15612920573d906129068261080b565b9161291460405193846107ca565b82523d6000602084013e565b606090565b60008061182293602081519101845af461293d6128f5565b919061297d575080511561295357805190602001fd5b60046040517f1425ea42000000000000000000000000000000000000000000000000000000008152fd5b815115806129d5575b61298e575090565b60249073ffffffffffffffffffffffffffffffffffffffff604051917f9996b315000000000000000000000000000000000000000000000000000000008352166004820152fd5b50803b1561298656fea26469706673582212202db5ec37b6518db1d0b2c06c371b947df3b5dd2727c325d01b4b1b6ac65e3b8e64736f6c63430008180033","linkReferences":{}},"methodIdentifiers":{"DEFAULT_ADMIN_ROLE()":"a217fddf","UPGRADE_INTERFACE_VERSION()":"ad3cb1cc","approve(address)":"daea85c5","disburse(uint256)":"bd77ac2c","disburse(uint256,address)":"1c61f62b","enrollmentsCount()":"5873d913","getFees(address)":"9af608c9","getGovernance()":"289b3c0d","getLedgerEntry(address,address)":"8f132f87","getRoleAdmin(bytes32)":"248a9ca3","getTreasuryAddress()":"e0024604","grantRole(bytes32,address)":"2f2ff15d","hasRole(bytes32,address)":"91d14854","initialize(address,uint256,uint256)":"7a1ac61e","isActive(address)":"9f8a13d7","isBlocked(address)":"fbac3951","isWaiting(address)":"ce458581","penaltyRate()":"d6b7494f","proxiableUUID()":"52d1902d","quit(address)":"d32b91dd","register(address)":"4420e486","renounceRole(bytes32,address)":"36568abe","revoke(address)":"74a8f103","revokeEmergencyAdmin(address)":"4c622006","revokeRole(bytes32,address)":"d547741f","setEmergencyAdmin(address)":"35da3394","setFees(uint256)":"3d18678e","setFees(uint256,address)":"3d162cdc","setGovernance(address)":"ab033ea9","setPenaltyRate(uint256)":"a1bab447","setTreasuryAddress(address)":"6605bfda","supportsInterface(bytes4)":"01ffc9a7","upgradeToAndCall(address,bytes)":"4f1ef286"},"id":6}