{"abi":[{"type":"constructor","inputs":[],"stateMutability":"nonpayable"},{"type":"receive","stateMutability":"payable"},{"type":"function","name":"DEFAULT_ADMIN_ROLE","inputs":[],"outputs":[{"name":"","type":"bytes32","internalType":"bytes32"}],"stateMutability":"view"},{"type":"function","name":"UPGRADE_INTERFACE_VERSION","inputs":[],"outputs":[{"name":"","type":"string","internalType":"string"}],"stateMutability":"view"},{"type":"function","name":"approve","inputs":[{"name":"distributor","type":"address","internalType":"address"}],"outputs":[],"stateMutability":"nonpayable"},{"type":"function","name":"enrollmentFees","inputs":[{"name":"","type":"address","internalType":"address"}],"outputs":[{"name":"","type":"uint256","internalType":"uint256"}],"stateMutability":"view"},{"type":"function","name":"enrollmentsCount","inputs":[],"outputs":[{"name":"","type":"uint256","internalType":"uint256"}],"stateMutability":"view"},{"type":"function","name":"getFees","inputs":[{"name":"token","type":"address","internalType":"address"}],"outputs":[{"name":"","type":"uint256","internalType":"uint256"}],"stateMutability":"view"},{"type":"function","name":"getGovernance","inputs":[],"outputs":[{"name":"","type":"address","internalType":"address"}],"stateMutability":"view"},{"type":"function","name":"getRoleAdmin","inputs":[{"name":"role","type":"bytes32","internalType":"bytes32"}],"outputs":[{"name":"","type":"bytes32","internalType":"bytes32"}],"stateMutability":"view"},{"type":"function","name":"getTreasuryAddress","inputs":[],"outputs":[{"name":"","type":"address","internalType":"address"}],"stateMutability":"view"},{"type":"function","name":"grantRole","inputs":[{"name":"role","type":"bytes32","internalType":"bytes32"},{"name":"account","type":"address","internalType":"address"}],"outputs":[],"stateMutability":"nonpayable"},{"type":"function","name":"hasRole","inputs":[{"name":"role","type":"bytes32","internalType":"bytes32"},{"name":"account","type":"address","internalType":"address"}],"outputs":[{"name":"","type":"bool","internalType":"bool"}],"stateMutability":"view"},{"type":"function","name":"initialize","inputs":[{"name":"repository","type":"address","internalType":"address"},{"name":"initialFee","type":"uint256","internalType":"uint256"},{"name":"initialPenaltyRateBps","type":"uint256","internalType":"uint256"}],"outputs":[],"stateMutability":"nonpayable"},{"type":"function","name":"isActive","inputs":[{"name":"distributor","type":"address","internalType":"address"}],"outputs":[{"name":"","type":"bool","internalType":"bool"}],"stateMutability":"view"},{"type":"function","name":"isBlocked","inputs":[{"name":"distributor","type":"address","internalType":"address"}],"outputs":[{"name":"","type":"bool","internalType":"bool"}],"stateMutability":"view"},{"type":"function","name":"isWaiting","inputs":[{"name":"distributor","type":"address","internalType":"address"}],"outputs":[{"name":"","type":"bool","internalType":"bool"}],"stateMutability":"view"},{"type":"function","name":"penaltyRate","inputs":[],"outputs":[{"name":"","type":"uint256","internalType":"uint256"}],"stateMutability":"view"},{"type":"function","name":"proxiableUUID","inputs":[],"outputs":[{"name":"","type":"bytes32","internalType":"bytes32"}],"stateMutability":"view"},{"type":"function","name":"quit","inputs":[{"name":"distributor","type":"address","internalType":"address"}],"outputs":[],"stateMutability":"nonpayable"},{"type":"function","name":"register","inputs":[{"name":"distributor","type":"address","internalType":"address"}],"outputs":[],"stateMutability":"payable"},{"type":"function","name":"renounceRole","inputs":[{"name":"role","type":"bytes32","internalType":"bytes32"},{"name":"callerConfirmation","type":"address","internalType":"address"}],"outputs":[],"stateMutability":"nonpayable"},{"type":"function","name":"revoke","inputs":[{"name":"distributor","type":"address","internalType":"address"}],"outputs":[],"stateMutability":"nonpayable"},{"type":"function","name":"revokeEmergencyAdmin","inputs":[{"name":"revokedAddress","type":"address","internalType":"address"}],"outputs":[],"stateMutability":"nonpayable"},{"type":"function","name":"revokeRole","inputs":[{"name":"role","type":"bytes32","internalType":"bytes32"},{"name":"account","type":"address","internalType":"address"}],"outputs":[],"stateMutability":"nonpayable"},{"type":"function","name":"setEmergencyAdmin","inputs":[{"name":"newEmergencyAdmin","type":"address","internalType":"address"}],"outputs":[],"stateMutability":"nonpayable"},{"type":"function","name":"setFees","inputs":[{"name":"newTreasuryFee","type":"uint256","internalType":"uint256"},{"name":"token","type":"address","internalType":"address"}],"outputs":[],"stateMutability":"nonpayable"},{"type":"function","name":"setFees","inputs":[{"name":"newTreasuryFee","type":"uint256","internalType":"uint256"}],"outputs":[],"stateMutability":"nonpayable"},{"type":"function","name":"setGovernance","inputs":[{"name":"newGovernance","type":"address","internalType":"address"}],"outputs":[],"stateMutability":"nonpayable"},{"type":"function","name":"setPenaltyRate","inputs":[{"name":"newPenaltyRate","type":"uint256","internalType":"uint256"}],"outputs":[],"stateMutability":"nonpayable"},{"type":"function","name":"setTreasuryAddress","inputs":[{"name":"newTreasuryAddress","type":"address","internalType":"address"}],"outputs":[],"stateMutability":"nonpayable"},{"type":"function","name":"supportsInterface","inputs":[{"name":"interfaceId","type":"bytes4","internalType":"bytes4"}],"outputs":[{"name":"","type":"bool","internalType":"bool"}],"stateMutability":"view"},{"type":"function","name":"upgradeToAndCall","inputs":[{"name":"newImplementation","type":"address","internalType":"address"},{"name":"data","type":"bytes","internalType":"bytes"}],"outputs":[],"stateMutability":"payable"},{"type":"function","name":"withdraw","inputs":[{"name":"amount","type":"uint256","internalType":"uint256"},{"name":"token","type":"address","internalType":"address"}],"outputs":[],"stateMutability":"nonpayable"},{"type":"function","name":"withdraw","inputs":[{"name":"amount","type":"uint256","internalType":"uint256"}],"outputs":[],"stateMutability":"nonpayable"},{"type":"event","name":"Approved","inputs":[{"name":"distributor","type":"address","indexed":true,"internalType":"address"}],"anonymous":false},{"type":"event","name":"FeesDisbursed","inputs":[{"name":"treasury","type":"address","indexed":true,"internalType":"address"},{"name":"amount","type":"uint256","indexed":false,"internalType":"uint256"}],"anonymous":false},{"type":"event","name":"Initialized","inputs":[{"name":"version","type":"uint64","indexed":false,"internalType":"uint64"}],"anonymous":false},{"type":"event","name":"Registered","inputs":[{"name":"distributor","type":"address","indexed":true,"internalType":"address"}],"anonymous":false},{"type":"event","name":"Resigned","inputs":[{"name":"distributor","type":"address","indexed":true,"internalType":"address"}],"anonymous":false},{"type":"event","name":"Revoked","inputs":[{"name":"distributor","type":"address","indexed":true,"internalType":"address"}],"anonymous":false},{"type":"event","name":"RoleAdminChanged","inputs":[{"name":"role","type":"bytes32","indexed":true,"internalType":"bytes32"},{"name":"previousAdminRole","type":"bytes32","indexed":true,"internalType":"bytes32"},{"name":"newAdminRole","type":"bytes32","indexed":true,"internalType":"bytes32"}],"anonymous":false},{"type":"event","name":"RoleGranted","inputs":[{"name":"role","type":"bytes32","indexed":true,"internalType":"bytes32"},{"name":"account","type":"address","indexed":true,"internalType":"address"},{"name":"sender","type":"address","indexed":true,"internalType":"address"}],"anonymous":false},{"type":"event","name":"RoleRevoked","inputs":[{"name":"role","type":"bytes32","indexed":true,"internalType":"bytes32"},{"name":"account","type":"address","indexed":true,"internalType":"address"},{"name":"sender","type":"address","indexed":true,"internalType":"address"}],"anonymous":false},{"type":"event","name":"Upgraded","inputs":[{"name":"implementation","type":"address","indexed":true,"internalType":"address"}],"anonymous":false},{"type":"error","name":"AccessControlBadConfirmation","inputs":[]},{"type":"error","name":"AccessControlUnauthorizedAccount","inputs":[{"name":"account","type":"address","internalType":"address"},{"name":"neededRole","type":"bytes32","internalType":"bytes32"}]},{"type":"error","name":"AddressEmptyCode","inputs":[{"name":"target","type":"address","internalType":"address"}]},{"type":"error","name":"AlreadyPendingApproval","inputs":[]},{"type":"error","name":"ERC1967InvalidImplementation","inputs":[{"name":"implementation","type":"address","internalType":"address"}]},{"type":"error","name":"ERC1967NonPayable","inputs":[]},{"type":"error","name":"FailDuringEnrollment","inputs":[{"name":"reason","type":"string","internalType":"string"}]},{"type":"error","name":"FailDuringQuit","inputs":[{"name":"reason","type":"string","internalType":"string"}]},{"type":"error","name":"FailDuringTransfer","inputs":[{"name":"reason","type":"string","internalType":"string"}]},{"type":"error","name":"FailedInnerCall","inputs":[]},{"type":"error","name":"InvalidBasisPointRange","inputs":[]},{"type":"error","name":"InvalidDistributorContract","inputs":[]},{"type":"error","name":"InvalidInactiveState","inputs":[]},{"type":"error","name":"InvalidInitialization","inputs":[]},{"type":"error","name":"InvalidNominalRange","inputs":[]},{"type":"error","name":"InvalidPenaltyRate","inputs":[]},{"type":"error","name":"InvalidUnsupportedToken","inputs":[{"name":"token","type":"address","internalType":"address"}]},{"type":"error","name":"NotInitializing","inputs":[]},{"type":"error","name":"NotWaitingApproval","inputs":[]},{"type":"error","name":"ReentrancyGuardReentrantCall","inputs":[]},{"type":"error","name":"UUPSUnauthorizedCallContext","inputs":[]},{"type":"error","name":"UUPSUnsupportedProxiableUUID","inputs":[{"name":"slot","type":"bytes32","internalType":"bytes32"}]}],"bytecode":{"object":"0x60a080604052346100cc57306080527ff0c57e16840df040f15088dc2f81fe391c3923bec73e23a9662efc9c229c6a009081549060ff8260401c166100bd57506001600160401b036002600160401b031982821601610078575b60405161296390816100d28239608051818181610978015261171a0152f35b6001600160401b031990911681179091556040519081527fc7f505b2f371ae2175ee4913f4499e1f2633a7b5936321eed1cdaeb6115181d290602090a1388080610059565b63f92ee8a960e01b8152600490fd5b600080fdfe6080604052600436101561001b575b361561001957600080fd5b005b60003560e01c8062f714ce1461022a57806301ffc9a714610225578063248a9ca314610220578063289b3c0d1461021b5780632e1a7d4d146102165780632f2ff15d1461021157806335da33941461020c57806336568abe146102075780633d162cdc146102025780633d18678e146101fd5780634420e486146101f85780634c622006146101f35780634f1ef286146101ee57806352d1902d146101e9578063575d3c28146101e45780635873d913146101df5780636605bfda146101da57806374a8f103146101d55780637a1ac61e146101d057806391d14854146101cb5780639af608c9146101c65780639f8a13d7146101c1578063a1bab447146101bc578063a217fddf146101b7578063ab033ea9146101b2578063ad3cb1cc146101ad578063ce458581146101a8578063d32b91dd146101a3578063d547741f1461019e578063d6b7494f14610199578063daea85c514610194578063e00246041461018f5763fbac39510361000e57611653565b611600565b611502565b6114e4565b611481565b611258565b6111d0565b61111d565b611089565b61106d565b610fd7565b610f4f565b610e7e565b610dfb565b610c00565b610ae5565b610a5b565b610a3d565b6109f2565b610950565b6108d4565b6107bf565b61061e565b61056b565b610546565b6104d6565b6104a8565b610445565b6103b9565b610366565b610318565b610277565b610252565b73ffffffffffffffffffffffffffffffffffffffff81160361024d57565b600080fd5b3461024d57604060031936011261024d5761026e60243561022f565b61001933611aba565b3461024d57602060031936011261024d576004357fffffffff00000000000000000000000000000000000000000000000000000000811680910361024d57807f7965db0b00000000000000000000000000000000000000000000000000000000602092149081156102ee575b506040519015158152f35b7f01ffc9a700000000000000000000000000000000000000000000000000000000915014386102e3565b3461024d57602060031936011261024d576004356000527f02dd7bc7dec4dceedda775e58dd541e08a116c6c53815c0bd028192f7b6268006020526020600160406000200154604051908152f35b3461024d57600060031936011261024d57602073ffffffffffffffffffffffffffffffffffffffff7fbe22a97ce56bf984cece6021e328584abbd5b3cd394ccbe3b6884d525c48c4005416604051908152f35b3461024d57602060031936011261024d576004356103d633611b58565b7f877d4540b0e481fd8ee09fdeae4c313138853d42bf9ef5a4513dd58cf9abfeed602073ffffffffffffffffffffffffffffffffffffffff7fad118695963461d59b4e186bb251fe176897e2c57f3362e8dade6f9a4f8e740054169261043c8185611c72565b604051908152a2005b3461024d57604060031936011261024d576100196024356004356104688261022f565b806000527f02dd7bc7dec4dceedda775e58dd541e08a116c6c53815c0bd028192f7b6268006020526104a36001604060002001543390611c1a565b611fac565b3461024d57602060031936011261024d576100196004356104c88161022f565b6104d133611b58565b611d64565b3461024d57604060031936011261024d576024356104f38161022f565b3373ffffffffffffffffffffffffffffffffffffffff82160361051c5761001990600435612110565b60046040517f6697b232000000000000000000000000000000000000000000000000000000008152fd5b3461024d57604060031936011261024d5761056260243561022f565b61001933611b58565b3461024d57602060031936011261024d5761058533611b58565b600080526004357fdbbcd40c0f349adfa39fc864f544e00dd2cfe8e80bd0e6edcd3f2b026dad531d557f87da7b105ee6d8640c69f620aa1ac0a4cea27ca8bc07f4213d3776b156a65a016020527f916459e1bd58192a19bc20bcfacf109074ce2fa449617b52fa523929b0ed858780547fffffffffffffffffffffffffffffffffffffffffffffffffffffffffffffff00166001179055005b602060031936011261024d576004356106368161022f565b61063f8161220b565b156107955761064c6119ca565b34106107365773ffffffffffffffffffffffffffffffffffffffff166040517fd5009584000000000000000000000000000000000000000000000000000000008152602081600481855afa8015610731576106d291600091610702575b50349073ffffffffffffffffffffffffffffffffffffffff166000526002602052604060002055565b6106db81612318565b7f2d3734a8e47ac8316e500ac231c90a6e1848ca2285f40d07eaa52005e4b3a0e9600080a2005b610724915060203d60201161072a575b61071c8183610859565b8101906116db565b386106a9565b503d610712565b6116f3565b6040517fe404985c00000000000000000000000000000000000000000000000000000000815260206004820152601260248201527f496e76616c69642066656520616d6f756e7400000000000000000000000000006044820152606490fd5b60046040517f03da036e000000000000000000000000000000000000000000000000000000008152fd5b3461024d57602060031936011261024d576100196004356107df8161022f565b6107e833611b58565b612006565b7f4e487b7100000000000000000000000000000000000000000000000000000000600052604160045260246000fd5b6040810190811067ffffffffffffffff82111761083857604052565b6107ed565b6060810190811067ffffffffffffffff82111761083857604052565b90601f7fffffffffffffffffffffffffffffffffffffffffffffffffffffffffffffffe0910116810190811067ffffffffffffffff82111761083857604052565b67ffffffffffffffff811161083857601f017fffffffffffffffffffffffffffffffffffffffffffffffffffffffffffffffe01660200190565b604060031936011261024d576004356108ec8161022f565b6024359067ffffffffffffffff821161024d573660238301121561024d578160040135906109198261089a565b916109276040519384610859565b808352366024828601011161024d576020816000926024610019970183870137840101526116ff565b3461024d57600060031936011261024d5773ffffffffffffffffffffffffffffffffffffffff7f00000000000000000000000000000000000000000000000000000000000000001630036109c85760206040517f360894a13ba1a3210667c828492db98dca3e2076cc3735a920a3ca505d382bbc8152f35b60046040517fe07c8dba000000000000000000000000000000000000000000000000000000008152fd5b3461024d57602060031936011261024d5773ffffffffffffffffffffffffffffffffffffffff600435610a248161022f565b1660005260026020526020604060002054604051908152f35b3461024d57600060031936011261024d576020600154604051908152f35b3461024d57602060031936011261024d57600435610a788161022f565b610a8133611b58565b73ffffffffffffffffffffffffffffffffffffffff7fad118695963461d59b4e186bb251fe176897e2c57f3362e8dade6f9a4f8e740091167fffffffffffffffffffffffff0000000000000000000000000000000000000000825416179055600080f35b3461024d57602060031936011261024d57600435610b028161022f565b610b0b33611b58565b610b148161220b565b156107955773ffffffffffffffffffffffffffffffffffffffff166000908082527f78a5d34d6f19765a8d11b74cebcafd0494288384b72923088bc4746147d1ae008060205260ff6040842054166004811015610bfb57600203610bd157818352602052610baa6040832060037fffffffffffffffffffffffffffffffffffffffffffffffffffffffffffffff00825416179055565b7fb6fa8b8bd5eab60f292eca876e3ef90722275b785309d84b1de113ce0b8c4e748280a280f35b60046040517fd6579878000000000000000000000000000000000000000000000000000000008152fd5b61199b565b3461024d57606060031936011261024d57600435610c1d8161022f565b7ff0c57e16840df040f15088dc2f81fe391c3923bec73e23a9662efc9c229c6a00549067ffffffffffffffff60ff8360401c1615921680159081610df3575b6001149081610de9575b159081610de0575b50610db657610cd99082610cc77ff0c57e16840df040f15088dc2f81fe391c3923bec73e23a9662efc9c229c6a0060017fffffffffffffffffffffffffffffffffffffffffffffffff0000000000000000825416179055565b610d5a575b60443590602435906118a2565b610cdf57005b610d2b7ff0c57e16840df040f15088dc2f81fe391c3923bec73e23a9662efc9c229c6a007fffffffffffffffffffffffffffffffffffffffffffffff00ffffffffffffffff8154169055565b604051600181527fc7f505b2f371ae2175ee4913f4499e1f2633a7b5936321eed1cdaeb6115181d290602090a1005b610db17ff0c57e16840df040f15088dc2f81fe391c3923bec73e23a9662efc9c229c6a00680100000000000000007fffffffffffffffffffffffffffffffffffffffffffffff00ffffffffffffffff825416179055565b610ccc565b60046040517ff92ee8a9000000000000000000000000000000000000000000000000000000008152fd5b90501538610c6e565b303b159150610c66565b839150610c5c565b3461024d57604060031936011261024d57602060ff610e72602435610e1f8161022f565b6004356000527f02dd7bc7dec4dceedda775e58dd541e08a116c6c53815c0bd028192f7b626800845260406000209073ffffffffffffffffffffffffffffffffffffffff16600052602052604060002090565b54166040519015158152f35b3461024d57602060031936011261024d5773ffffffffffffffffffffffffffffffffffffffff600435610eb08161022f565b16806000527f87da7b105ee6d8640c69f620aa1ac0a4cea27ca8bc07f4213d3776b156a65a0160205260ff6040600020541615610f1e576000527f87da7b105ee6d8640c69f620aa1ac0a4cea27ca8bc07f4213d3776b156a65a006020526020604060002054604051908152f35b602490604051907ffd0f4c130000000000000000000000000000000000000000000000000000000082526004820152fd5b3461024d57602060031936011261024d57600435610f6c8161022f565b610f758161220b565b156107955773ffffffffffffffffffffffffffffffffffffffff166000527f78a5d34d6f19765a8d11b74cebcafd0494288384b72923088bc4746147d1ae0060205260ff604060002054166004811015610bfb57602090600260405191148152f35b3461024d57602060031936011261024d57600435610ff433611b58565b600181108015611062575b61103857801561100e57600055005b60046040517f98d95758000000000000000000000000000000000000000000000000000000008152fd5b60046040517f07c0803f000000000000000000000000000000000000000000000000000000008152fd5b506127108111610fff565b3461024d57600060031936011261024d57602060405160008152f35b3461024d57602060031936011261024d576004356110a68161022f565b6110af33611aba565b6110b881611e76565b5073ffffffffffffffffffffffffffffffffffffffff7fbe22a97ce56bf984cece6021e328584abbd5b3cd394ccbe3b6884d525c48c40091167fffffffffffffffffffffffff0000000000000000000000000000000000000000825416179055600080f35b3461024d57600060031936011261024d57604080519061113c8261081c565b600582526020907f352e302e300000000000000000000000000000000000000000000000000000006020840152604051916020835283519182602085015260005b8381106111bd57846040817fffffffffffffffffffffffffffffffffffffffffffffffffffffffffffffffe0601f88600085828601015201168101030190f35b858101830151858201830152820161117d565b3461024d57602060031936011261024d576004356111ed8161022f565b6111f68161220b565b156107955773ffffffffffffffffffffffffffffffffffffffff166000527f78a5d34d6f19765a8d11b74cebcafd0494288384b72923088bc4746147d1ae0060205260ff604060002054166004811015610bfb57602090600160405191148152f35b3461024d57602060031936011261024d576004356112758161022f565b7f9b779b17422d0df92223018b32b4d1fa46e071723d6817e2486d003becc55f00600281541461145757600290556112ac8161220b565b156107955773ffffffffffffffffffffffffffffffffffffffff166040517fd5009584000000000000000000000000000000000000000000000000000000008152602081600481855afa90811561073157600091611438575b506113308173ffffffffffffffffffffffffffffffffffffffff166000526002602052604060002090565b549081156113d95761135161138b9261134b60005482612514565b90611a7b565b9061137d8173ffffffffffffffffffffffffffffffffffffffff16600052600260205260006040812055565b6113868461252c565b611c72565b7fa6674aa33cd1b7435474751667707bf05fde99e537d67043ec5f907782577d86600080a261001960017f9b779b17422d0df92223018b32b4d1fa46e071723d6817e2486d003becc55f0055565b6040517f330a423600000000000000000000000000000000000000000000000000000000815260206004820152601f60248201527f496e76616c6964206469737472696275746f7220656e726f6c6c6d656e742e006044820152606490fd5b611451915060203d60201161072a5761071c8183610859565b38611305565b60046040517f3ee5aeb5000000000000000000000000000000000000000000000000000000008152fd5b3461024d57604060031936011261024d576100196024356004356114a48261022f565b806000527f02dd7bc7dec4dceedda775e58dd541e08a116c6c53815c0bd028192f7b6268006020526114df6001604060002001543390611c1a565b612110565b3461024d57600060031936011261024d576020600054604051908152f35b3461024d57602060031936011261024d5760043561151f8161022f565b61152833611b58565b6115318161220b565b156107955773ffffffffffffffffffffffffffffffffffffffff809116906040517fd5009584000000000000000000000000000000000000000000000000000000008152602081600481865afa908115610731576000916115e1575b50166000526002602052600060408120556115a7816125cc565b6115ba6115b5600154611a8d565b600155565b7f5d91bd0cecc45fef102af61de92c5462fadc884a5ce9d21c15e8a85198f2349e600080a2005b6115fa915060203d60201161072a5761071c8183610859565b3861158d565b3461024d57600060031936011261024d57602073ffffffffffffffffffffffffffffffffffffffff7fad118695963461d59b4e186bb251fe176897e2c57f3362e8dade6f9a4f8e74005416604051908152f35b3461024d57602060031936011261024d576004356116708161022f565b6116798161220b565b156107955773ffffffffffffffffffffffffffffffffffffffff166000527f78a5d34d6f19765a8d11b74cebcafd0494288384b72923088bc4746147d1ae0060205260ff604060002054166004811015610bfb57602090600360405191148152f35b9081602091031261024d57516116f08161022f565b90565b6040513d6000823e3d90fd5b909173ffffffffffffffffffffffffffffffffffffffff92837f000000000000000000000000000000000000000000000000000000000000000016803014908115611874575b506109c857602060049461175833611aba565b604051958680927f52d1902d00000000000000000000000000000000000000000000000000000000825287165afa60009481611843575b506117db576040517f4c9c8ce300000000000000000000000000000000000000000000000000000000815273ffffffffffffffffffffffffffffffffffffffff84166004820152602490fd5b90917f360894a13ba1a3210667c828492db98dca3e2076cc3735a920a3ca505d382bbc84036118115761180f929350612704565b565b6040517faa1d49a400000000000000000000000000000000000000000000000000000000815260048101859052602490fd5b61186691955060203d60201161186d575b61185e8183610859565b8101906123b8565b933861178f565b503d611854565b9050847f360894a13ba1a3210667c828492db98dca3e2076cc3735a920a3ca505d382bbc5416141538611745565b91600181108015611990575b611038576118ba61281b565b6118c261281b565b6118ca61281b565b6118d261281b565b6118da61281b565b6118e26123c7565b600055602060405180937fde981f1b0000000000000000000000000000000000000000000000000000000082528173ffffffffffffffffffffffffffffffffffffffff8161193860048201906002602083019252565b0392165afa9081156107315761195f9260009261196b575b5061195a906123fd565b6124a3565b61196833611d64565b50565b61195a9192506119899060203d60201161072a5761071c8183610859565b9190611950565b5061271081116118ae565b7f4e487b7100000000000000000000000000000000000000000000000000000000600052602160045260246000fd5b60008080527f87da7b105ee6d8640c69f620aa1ac0a4cea27ca8bc07f4213d3776b156a65a016020527f916459e1bd58192a19bc20bcfacf109074ce2fa449617b52fa523929b0ed85875460ff1615610f1e578080604092527f87da7b105ee6d8640c69f620aa1ac0a4cea27ca8bc07f4213d3776b156a65a00602052205490565b7f4e487b7100000000000000000000000000000000000000000000000000000000600052601160045260246000fd5b91908203918211611a8857565b611a4c565b7fffffffffffffffffffffffffffffffffffffffffffffffffffffffffffffffff8114611a885760010190565b73ffffffffffffffffffffffffffffffffffffffff811660009081527fb7db2dd08fcb62d0c9e08c51941cae53c267786a0b75803fb7960902fc8ef97d602052604090205460ff1615611b0a5750565b60449073ffffffffffffffffffffffffffffffffffffffff604051917fe2517d3f00000000000000000000000000000000000000000000000000000000835216600482015260006024820152fd5b73ffffffffffffffffffffffffffffffffffffffff811660009081527ff2e0a8360026a616a5c33ed370a5497cc3baf8a817a474a098d5f8687be72a0f602052604090207ff018c6c8c8da18060a4e6807987a0a03fba6c9fba4a5c9531151020efe3268149060ff905b541615611bcd575050565b6044925073ffffffffffffffffffffffffffffffffffffffff604051927fe2517d3f0000000000000000000000000000000000000000000000000000000084521660048301526024820152fd5b806000527f02dd7bc7dec4dceedda775e58dd541e08a116c6c53815c0bd028192f7b62680060205260ff611bc28360406000209073ffffffffffffffffffffffffffffffffffffffff16600052602052604060002090565b814710611d0657600080809373ffffffffffffffffffffffffffffffffffffffff8294165af1611ca0612645565b5015611ca857565b60646040517f9cf1483d00000000000000000000000000000000000000000000000000000000815260206004820152600f60248201527f5472616e73666572206661696c656400000000000000000000000000000000006044820152fd5b60646040517f9cf1483d00000000000000000000000000000000000000000000000000000000815260206004820152601460248201527f496e73756666696369656e742062616c616e63650000000000000000000000006044820152fd5b73ffffffffffffffffffffffffffffffffffffffff811660009081527fb7db2dd08fcb62d0c9e08c51941cae53c267786a0b75803fb7960902fc8ef97d60205260408120547f02dd7bc7dec4dceedda775e58dd541e08a116c6c53815c0bd028192f7b6268009060ff16611e7057818052602052611e0582604083209073ffffffffffffffffffffffffffffffffffffffff16600052602052604060002090565b60017fffffffffffffffffffffffffffffffffffffffffffffffffffffffffffffff0082541617905573ffffffffffffffffffffffffffffffffffffffff339216907f2f8788117e7eff1d82e926ec794901d17c78024a50270940304540a733656f0d8180a4600190565b50905090565b73ffffffffffffffffffffffffffffffffffffffff811660009081527ff2e0a8360026a616a5c33ed370a5497cc3baf8a817a474a098d5f8687be72a0f602052604081207ff018c6c8c8da18060a4e6807987a0a03fba6c9fba4a5c9531151020efe326814907f02dd7bc7dec4dceedda775e58dd541e08a116c6c53815c0bd028192f7b6268009060ff905b5416611fa557818352602052611f3b83604084209073ffffffffffffffffffffffffffffffffffffffff16600052602052604060002090565b60017fffffffffffffffffffffffffffffffffffffffffffffffffffffffffffffff008254161790557f2f8788117e7eff1d82e926ec794901d17c78024a50270940304540a733656f0d73ffffffffffffffffffffffffffffffffffffffff3394169280a4600190565b5050905090565b6000908082527f02dd7bc7dec4dceedda775e58dd541e08a116c6c53815c0bd028192f7b6268008060205260ff611f0285604086209073ffffffffffffffffffffffffffffffffffffffff16600052602052604060002090565b73ffffffffffffffffffffffffffffffffffffffff811660009081527fb7db2dd08fcb62d0c9e08c51941cae53c267786a0b75803fb7960902fc8ef97d60205260408120547f02dd7bc7dec4dceedda775e58dd541e08a116c6c53815c0bd028192f7b6268009060ff1615611e70578180526020526120a882604083209073ffffffffffffffffffffffffffffffffffffffff16600052602052604060002090565b7fffffffffffffffffffffffffffffffffffffffffffffffffffffffffffffff00815416905573ffffffffffffffffffffffffffffffffffffffff339216907ff6391f5c32d9c69d2a47ea670b442974b53935d1edc7fd64eb21e047a839171b8180a4600190565b6000908082527f02dd7bc7dec4dceedda775e58dd541e08a116c6c53815c0bd028192f7b6268008060205260ff61216a85604086209073ffffffffffffffffffffffffffffffffffffffff16600052602052604060002090565b541615611fa5578183526020526121a483604084209073ffffffffffffffffffffffffffffffffffffffff16600052602052604060002090565b7fffffffffffffffffffffffffffffffffffffffffffffffffffffffffffffff0081541690557ff6391f5c32d9c69d2a47ea670b442974b53935d1edc7fd64eb21e047a839171b73ffffffffffffffffffffffffffffffffffffffff3394169280a4600190565b6040519060208083018160007f01ffc9a700000000000000000000000000000000000000000000000000000000958684528660248201526024815261224f8161083d565b51617530938685fa933d600051908661230d575b5085612303575b5084612287575b5050508161227d575090565b6116f09150612675565b8394509060009183946040518581019283527fffffffff000000000000000000000000000000000000000000000000000000006024820152602481526122cc8161083d565b5192fa60005190913d836122f8575b5050816122ee575b501590388080612271565b90501515386122e3565b1015915038806122db565b151594503861226a565b841115955038612263565b806000527f78a5d34d6f19765a8d11b74cebcafd0494288384b72923088bc4746147d1ae00908160205260ff604060002054166004811015610bfb5761238e57600052602052604060002060017fffffffffffffffffffffffffffffffffffffffffffffffffffffffffffffff00825416179055565b60046040517fc428a493000000000000000000000000000000000000000000000000000000008152fd5b9081602091031261024d575190565b6123cf61281b565b6123d761281b565b60017f9b779b17422d0df92223018b32b4d1fa46e071723d6817e2486d003becc55f0055565b61240561281b565b61240d61281b565b600080527fdbbcd40c0f349adfa39fc864f544e00dd2cfe8e80bd0e6edcd3f2b026dad531d557f87da7b105ee6d8640c69f620aa1ac0a4cea27ca8bc07f4213d3776b156a65a016020527f916459e1bd58192a19bc20bcfacf109074ce2fa449617b52fa523929b0ed858780547fffffffffffffffffffffffffffffffffffffffffffffffffffffffffffffff00166001179055565b6124ab61281b565b6124b361281b565b73ffffffffffffffffffffffffffffffffffffffff7fad118695963461d59b4e186bb251fe176897e2c57f3362e8dade6f9a4f8e740091167fffffffffffffffffffffffff0000000000000000000000000000000000000000825416179055565b818102918183041490151715611a8857612710900490565b806000527f78a5d34d6f19765a8d11b74cebcafd0494288384b72923088bc4746147d1ae00908160205260ff604060002054166004811015610bfb576001036125a25760005260205260406000207fffffffffffffffffffffffffffffffffffffffffffffffffffffffffffffff008154169055565b60046040517f6f53c246000000000000000000000000000000000000000000000000000000008152fd5b806000527f78a5d34d6f19765a8d11b74cebcafd0494288384b72923088bc4746147d1ae00908160205260ff604060002054166004811015610bfb576001036125a257600052602052604060002060027fffffffffffffffffffffffffffffffffffffffffffffffffffffffffffffff00825416179055565b3d15612670573d906126568261089a565b916126646040519384610859565b82523d6000602084013e565b606090565b6000602091604051838101907f01ffc9a70000000000000000000000000000000000000000000000000000000082527f27d9e1cd000000000000000000000000000000000000000000000000000000006024820152602481526126d78161083d565b5191617530fa6000513d826126f8575b50816126f1575090565b9050151590565b602011159150386126e7565b90813b156127d45773ffffffffffffffffffffffffffffffffffffffff82167f360894a13ba1a3210667c828492db98dca3e2076cc3735a920a3ca505d382bbc817fffffffffffffffffffffffff00000000000000000000000000000000000000008254161790557fbc7cd75a20ee27fd9adebab32041f755214dbc6bffa90cc0225b39da2e5c2d3b600080a28051156127a15761196891612874565b5050346127aa57565b60046040517fb398979f000000000000000000000000000000000000000000000000000000008152fd5b60248273ffffffffffffffffffffffffffffffffffffffff604051917f4c9c8ce3000000000000000000000000000000000000000000000000000000008352166004820152fd5b60ff7ff0c57e16840df040f15088dc2f81fe391c3923bec73e23a9662efc9c229c6a005460401c161561284a57565b60046040517fd7e6bcf8000000000000000000000000000000000000000000000000000000008152fd5b6000806116f093602081519101845af461288c612645565b91906128cc57508051156128a257805190602001fd5b60046040517f1425ea42000000000000000000000000000000000000000000000000000000008152fd5b81511580612924575b6128dd575090565b60249073ffffffffffffffffffffffffffffffffffffffff604051917f9996b315000000000000000000000000000000000000000000000000000000008352166004820152fd5b50803b156128d556fea26469706673582212207149317e6b4c09c3238a29b799cb786b450c564ddad07d0d217191661f95f44564736f6c63430008180033","linkReferences":{}},"methodIdentifiers":{"DEFAULT_ADMIN_ROLE()":"a217fddf","UPGRADE_INTERFACE_VERSION()":"ad3cb1cc","approve(address)":"daea85c5","enrollmentFees(address)":"575d3c28","enrollmentsCount()":"5873d913","getFees(address)":"9af608c9","getGovernance()":"289b3c0d","getRoleAdmin(bytes32)":"248a9ca3","getTreasuryAddress()":"e0024604","grantRole(bytes32,address)":"2f2ff15d","hasRole(bytes32,address)":"91d14854","initialize(address,uint256,uint256)":"7a1ac61e","isActive(address)":"9f8a13d7","isBlocked(address)":"fbac3951","isWaiting(address)":"ce458581","penaltyRate()":"d6b7494f","proxiableUUID()":"52d1902d","quit(address)":"d32b91dd","register(address)":"4420e486","renounceRole(bytes32,address)":"36568abe","revoke(address)":"74a8f103","revokeEmergencyAdmin(address)":"4c622006","revokeRole(bytes32,address)":"d547741f","setEmergencyAdmin(address)":"35da3394","setFees(uint256)":"3d18678e","setFees(uint256,address)":"3d162cdc","setGovernance(address)":"ab033ea9","setPenaltyRate(uint256)":"a1bab447","setTreasuryAddress(address)":"6605bfda","supportsInterface(bytes4)":"01ffc9a7","upgradeToAndCall(address,bytes)":"4f1ef286","withdraw(uint256)":"2e1a7d4d","withdraw(uint256,address)":"00f714ce"},"id":2}