{"abi":[{"type":"constructor","inputs":[],"stateMutability":"nonpayable"},{"type":"receive","stateMutability":"payable"},{"type":"function","name":"DEFAULT_ADMIN_ROLE","inputs":[],"outputs":[{"name":"","type":"bytes32","internalType":"bytes32"}],"stateMutability":"view"},{"type":"function","name":"UPGRADE_INTERFACE_VERSION","inputs":[],"outputs":[{"name":"","type":"string","internalType":"string"}],"stateMutability":"view"},{"type":"function","name":"approve","inputs":[{"name":"to","type":"address","internalType":"address"},{"name":"tokenId","type":"uint256","internalType":"uint256"}],"outputs":[],"stateMutability":"nonpayable"},{"type":"function","name":"balanceOf","inputs":[{"name":"owner","type":"address","internalType":"address"}],"outputs":[{"name":"","type":"uint256","internalType":"uint256"}],"stateMutability":"view"},{"type":"function","name":"getApproved","inputs":[{"name":"tokenId","type":"uint256","internalType":"uint256"}],"outputs":[{"name":"","type":"address","internalType":"address"}],"stateMutability":"view"},{"type":"function","name":"getCustodial","inputs":[{"name":"contentId","type":"uint256","internalType":"uint256"}],"outputs":[{"name":"","type":"address","internalType":"address"}],"stateMutability":"view"},{"type":"function","name":"getFees","inputs":[{"name":"token","type":"address","internalType":"address"}],"outputs":[{"name":"","type":"uint256","internalType":"uint256"}],"stateMutability":"view"},{"type":"function","name":"getGovernance","inputs":[],"outputs":[{"name":"","type":"address","internalType":"address"}],"stateMutability":"view"},{"type":"function","name":"getRoleAdmin","inputs":[{"name":"role","type":"bytes32","internalType":"bytes32"}],"outputs":[{"name":"","type":"bytes32","internalType":"bytes32"}],"stateMutability":"view"},{"type":"function","name":"getSecuredContent","inputs":[{"name":"contentId","type":"uint256","internalType":"uint256"}],"outputs":[{"name":"","type":"bytes","internalType":"bytes"}],"stateMutability":"view"},{"type":"function","name":"getTreasuryAddress","inputs":[],"outputs":[{"name":"","type":"address","internalType":"address"}],"stateMutability":"view"},{"type":"function","name":"grantAccess","inputs":[{"name":"account","type":"address","internalType":"address"},{"name":"contentId","type":"uint256","internalType":"uint256"},{"name":"condition","type":"tuple","internalType":"struct T.AccessCondition","components":[{"name":"witnessAddress","type":"address","internalType":"address"},{"name":"witnessSelector","type":"bytes4","internalType":"bytes4"},{"name":"txCurrency","type":"address","internalType":"address"},{"name":"txAmount","type":"uint256","internalType":"uint256"}]}],"outputs":[],"stateMutability":"nonpayable"},{"type":"function","name":"grantCustodial","inputs":[{"name":"contentId","type":"uint256","internalType":"uint256"},{"name":"distributor","type":"address","internalType":"address"},{"name":"encryptedContent","type":"bytes","internalType":"bytes"}],"outputs":[],"stateMutability":"nonpayable"},{"type":"function","name":"grantRole","inputs":[{"name":"role","type":"bytes32","internalType":"bytes32"},{"name":"account","type":"address","internalType":"address"}],"outputs":[],"stateMutability":"nonpayable"},{"type":"function","name":"hasRole","inputs":[{"name":"role","type":"bytes32","internalType":"bytes32"},{"name":"account","type":"address","internalType":"address"}],"outputs":[{"name":"","type":"bool","internalType":"bool"}],"stateMutability":"view"},{"type":"function","name":"initialize","inputs":[{"name":"repository","type":"address","internalType":"address"},{"name":"initialFee","type":"uint256","internalType":"uint256"}],"outputs":[],"stateMutability":"nonpayable"},{"type":"function","name":"isAccessGranted","inputs":[{"name":"account","type":"address","internalType":"address"},{"name":"contentId","type":"uint256","internalType":"uint256"}],"outputs":[{"name":"","type":"bool","internalType":"bool"}],"stateMutability":"nonpayable"},{"type":"function","name":"isApprovedForAll","inputs":[{"name":"owner","type":"address","internalType":"address"},{"name":"operator","type":"address","internalType":"address"}],"outputs":[{"name":"","type":"bool","internalType":"bool"}],"stateMutability":"view"},{"type":"function","name":"isCurrencySupported","inputs":[{"name":"currency","type":"address","internalType":"address"}],"outputs":[{"name":"","type":"bool","internalType":"bool"}],"stateMutability":"view"},{"type":"function","name":"isEligibleForDistribution","inputs":[{"name":"contentId","type":"uint256","internalType":"uint256"}],"outputs":[{"name":"","type":"bool","internalType":"bool"}],"stateMutability":"nonpayable"},{"type":"function","name":"mint","inputs":[{"name":"to","type":"address","internalType":"address"},{"name":"contentId","type":"uint256","internalType":"uint256"}],"outputs":[],"stateMutability":"nonpayable"},{"type":"function","name":"name","inputs":[],"outputs":[{"name":"","type":"string","internalType":"string"}],"stateMutability":"view"},{"type":"function","name":"ownerOf","inputs":[{"name":"tokenId","type":"uint256","internalType":"uint256"}],"outputs":[{"name":"","type":"address","internalType":"address"}],"stateMutability":"view"},{"type":"function","name":"proxiableUUID","inputs":[],"outputs":[{"name":"","type":"bytes32","internalType":"bytes32"}],"stateMutability":"view"},{"type":"function","name":"renounceRole","inputs":[{"name":"role","type":"bytes32","internalType":"bytes32"},{"name":"callerConfirmation","type":"address","internalType":"address"}],"outputs":[],"stateMutability":"nonpayable"},{"type":"function","name":"revokeEmergencyAdmin","inputs":[{"name":"revokedAddress","type":"address","internalType":"address"}],"outputs":[],"stateMutability":"nonpayable"},{"type":"function","name":"revokeRole","inputs":[{"name":"role","type":"bytes32","internalType":"bytes32"},{"name":"account","type":"address","internalType":"address"}],"outputs":[],"stateMutability":"nonpayable"},{"type":"function","name":"royaltyInfo","inputs":[{"name":"tokenId","type":"uint256","internalType":"uint256"},{"name":"salePrice","type":"uint256","internalType":"uint256"}],"outputs":[{"name":"","type":"address","internalType":"address"},{"name":"","type":"uint256","internalType":"uint256"}],"stateMutability":"view"},{"type":"function","name":"safeTransferFrom","inputs":[{"name":"from","type":"address","internalType":"address"},{"name":"to","type":"address","internalType":"address"},{"name":"tokenId","type":"uint256","internalType":"uint256"}],"outputs":[],"stateMutability":"nonpayable"},{"type":"function","name":"safeTransferFrom","inputs":[{"name":"from","type":"address","internalType":"address"},{"name":"to","type":"address","internalType":"address"},{"name":"tokenId","type":"uint256","internalType":"uint256"},{"name":"data","type":"bytes","internalType":"bytes"}],"outputs":[],"stateMutability":"nonpayable"},{"type":"function","name":"setApprovalForAll","inputs":[{"name":"operator","type":"address","internalType":"address"},{"name":"approved","type":"bool","internalType":"bool"}],"outputs":[],"stateMutability":"nonpayable"},{"type":"function","name":"setEmergencyAdmin","inputs":[{"name":"newEmergencyAdmin","type":"address","internalType":"address"}],"outputs":[],"stateMutability":"nonpayable"},{"type":"function","name":"setFees","inputs":[{"name":"newTreasuryFee","type":"uint256","internalType":"uint256"},{"name":"token","type":"address","internalType":"address"}],"outputs":[],"stateMutability":"nonpayable"},{"type":"function","name":"setFees","inputs":[{"name":"newTreasuryFee","type":"uint256","internalType":"uint256"}],"outputs":[],"stateMutability":"nonpayable"},{"type":"function","name":"setGovernance","inputs":[{"name":"newGovernance","type":"address","internalType":"address"}],"outputs":[],"stateMutability":"nonpayable"},{"type":"function","name":"setTreasuryAddress","inputs":[{"name":"newTreasuryAddress","type":"address","internalType":"address"}],"outputs":[],"stateMutability":"nonpayable"},{"type":"function","name":"supportedCurrencies","inputs":[],"outputs":[{"name":"","type":"address[]","internalType":"address[]"}],"stateMutability":"view"},{"type":"function","name":"supportsInterface","inputs":[{"name":"interfaceId","type":"bytes4","internalType":"bytes4"}],"outputs":[{"name":"","type":"bool","internalType":"bool"}],"stateMutability":"view"},{"type":"function","name":"symbol","inputs":[],"outputs":[{"name":"","type":"string","internalType":"string"}],"stateMutability":"view"},{"type":"function","name":"tokenByIndex","inputs":[{"name":"index","type":"uint256","internalType":"uint256"}],"outputs":[{"name":"","type":"uint256","internalType":"uint256"}],"stateMutability":"view"},{"type":"function","name":"tokenOfOwnerByIndex","inputs":[{"name":"owner","type":"address","internalType":"address"},{"name":"index","type":"uint256","internalType":"uint256"}],"outputs":[{"name":"","type":"uint256","internalType":"uint256"}],"stateMutability":"view"},{"type":"function","name":"tokenURI","inputs":[{"name":"tokenId","type":"uint256","internalType":"uint256"}],"outputs":[{"name":"","type":"string","internalType":"string"}],"stateMutability":"view"},{"type":"function","name":"totalSupply","inputs":[],"outputs":[{"name":"","type":"uint256","internalType":"uint256"}],"stateMutability":"view"},{"type":"function","name":"transferFrom","inputs":[{"name":"from","type":"address","internalType":"address"},{"name":"to","type":"address","internalType":"address"},{"name":"tokenId","type":"uint256","internalType":"uint256"}],"outputs":[],"stateMutability":"nonpayable"},{"type":"function","name":"upgradeToAndCall","inputs":[{"name":"newImplementation","type":"address","internalType":"address"},{"name":"data","type":"bytes","internalType":"bytes"}],"outputs":[],"stateMutability":"payable"},{"type":"function","name":"withdraw","inputs":[{"name":"amount","type":"uint256","internalType":"uint256"},{"name":"token","type":"address","internalType":"address"}],"outputs":[],"stateMutability":"nonpayable"},{"type":"function","name":"withdraw","inputs":[{"name":"amount","type":"uint256","internalType":"uint256"}],"outputs":[],"stateMutability":"nonpayable"},{"type":"event","name":"Approval","inputs":[{"name":"owner","type":"address","indexed":true,"internalType":"address"},{"name":"approved","type":"address","indexed":true,"internalType":"address"},{"name":"tokenId","type":"uint256","indexed":true,"internalType":"uint256"}],"anonymous":false},{"type":"event","name":"ApprovalForAll","inputs":[{"name":"owner","type":"address","indexed":true,"internalType":"address"},{"name":"operator","type":"address","indexed":true,"internalType":"address"},{"name":"approved","type":"bool","indexed":false,"internalType":"bool"}],"anonymous":false},{"type":"event","name":"GrantedAccess","inputs":[{"name":"account","type":"address","indexed":false,"internalType":"address"},{"name":"contentId","type":"uint256","indexed":false,"internalType":"uint256"}],"anonymous":false},{"type":"event","name":"GrantedCustodial","inputs":[{"name":"distributor","type":"address","indexed":false,"internalType":"address"},{"name":"contentId","type":"uint256","indexed":false,"internalType":"uint256"}],"anonymous":false},{"type":"event","name":"Initialized","inputs":[{"name":"version","type":"uint64","indexed":false,"internalType":"uint64"}],"anonymous":false},{"type":"event","name":"RegisteredContent","inputs":[{"name":"contentId","type":"uint256","indexed":false,"internalType":"uint256"}],"anonymous":false},{"type":"event","name":"RevokedContent","inputs":[{"name":"contentId","type":"uint256","indexed":false,"internalType":"uint256"}],"anonymous":false},{"type":"event","name":"RightsGranted","inputs":[{"name":"contentId","type":"uint256","indexed":false,"internalType":"uint256"},{"name":"distributor","type":"address","indexed":true,"internalType":"address"}],"anonymous":false},{"type":"event","name":"RoleAdminChanged","inputs":[{"name":"role","type":"bytes32","indexed":true,"internalType":"bytes32"},{"name":"previousAdminRole","type":"bytes32","indexed":true,"internalType":"bytes32"},{"name":"newAdminRole","type":"bytes32","indexed":true,"internalType":"bytes32"}],"anonymous":false},{"type":"event","name":"RoleGranted","inputs":[{"name":"role","type":"bytes32","indexed":true,"internalType":"bytes32"},{"name":"account","type":"address","indexed":true,"internalType":"address"},{"name":"sender","type":"address","indexed":true,"internalType":"address"}],"anonymous":false},{"type":"event","name":"RoleRevoked","inputs":[{"name":"role","type":"bytes32","indexed":true,"internalType":"bytes32"},{"name":"account","type":"address","indexed":true,"internalType":"address"},{"name":"sender","type":"address","indexed":true,"internalType":"address"}],"anonymous":false},{"type":"event","name":"Transfer","inputs":[{"name":"from","type":"address","indexed":true,"internalType":"address"},{"name":"to","type":"address","indexed":true,"internalType":"address"},{"name":"tokenId","type":"uint256","indexed":true,"internalType":"uint256"}],"anonymous":false},{"type":"event","name":"Upgraded","inputs":[{"name":"implementation","type":"address","indexed":true,"internalType":"address"}],"anonymous":false},{"type":"error","name":"AccessControlBadConfirmation","inputs":[]},{"type":"error","name":"AccessControlUnauthorizedAccount","inputs":[{"name":"account","type":"address","internalType":"address"},{"name":"neededRole","type":"bytes32","internalType":"bytes32"}]},{"type":"error","name":"AddressEmptyCode","inputs":[{"name":"target","type":"address","internalType":"address"}]},{"type":"error","name":"AddressInsufficientBalance","inputs":[{"name":"account","type":"address","internalType":"address"}]},{"type":"error","name":"ERC1967InvalidImplementation","inputs":[{"name":"implementation","type":"address","internalType":"address"}]},{"type":"error","name":"ERC1967NonPayable","inputs":[]},{"type":"error","name":"ERC2981InvalidDefaultRoyalty","inputs":[{"name":"numerator","type":"uint256","internalType":"uint256"},{"name":"denominator","type":"uint256","internalType":"uint256"}]},{"type":"error","name":"ERC2981InvalidDefaultRoyaltyReceiver","inputs":[{"name":"receiver","type":"address","internalType":"address"}]},{"type":"error","name":"ERC2981InvalidTokenRoyalty","inputs":[{"name":"tokenId","type":"uint256","internalType":"uint256"},{"name":"numerator","type":"uint256","internalType":"uint256"},{"name":"denominator","type":"uint256","internalType":"uint256"}]},{"type":"error","name":"ERC2981InvalidTokenRoyaltyReceiver","inputs":[{"name":"tokenId","type":"uint256","internalType":"uint256"},{"name":"receiver","type":"address","internalType":"address"}]},{"type":"error","name":"ERC721EnumerableForbiddenBatchMint","inputs":[]},{"type":"error","name":"ERC721IncorrectOwner","inputs":[{"name":"sender","type":"address","internalType":"address"},{"name":"tokenId","type":"uint256","internalType":"uint256"},{"name":"owner","type":"address","internalType":"address"}]},{"type":"error","name":"ERC721InsufficientApproval","inputs":[{"name":"operator","type":"address","internalType":"address"},{"name":"tokenId","type":"uint256","internalType":"uint256"}]},{"type":"error","name":"ERC721InvalidApprover","inputs":[{"name":"approver","type":"address","internalType":"address"}]},{"type":"error","name":"ERC721InvalidOperator","inputs":[{"name":"operator","type":"address","internalType":"address"}]},{"type":"error","name":"ERC721InvalidOwner","inputs":[{"name":"owner","type":"address","internalType":"address"}]},{"type":"error","name":"ERC721InvalidReceiver","inputs":[{"name":"receiver","type":"address","internalType":"address"}]},{"type":"error","name":"ERC721InvalidSender","inputs":[{"name":"sender","type":"address","internalType":"address"}]},{"type":"error","name":"ERC721NonexistentToken","inputs":[{"name":"tokenId","type":"uint256","internalType":"uint256"}]},{"type":"error","name":"ERC721OutOfBoundsIndex","inputs":[{"name":"owner","type":"address","internalType":"address"},{"name":"index","type":"uint256","internalType":"uint256"}]},{"type":"error","name":"FailDuringTransfer","inputs":[{"name":"reason","type":"string","internalType":"string"}]},{"type":"error","name":"FailedInnerCall","inputs":[]},{"type":"error","name":"InvalidAccessControlValidation","inputs":[{"name":"contractAddress","type":"address","internalType":"address"}]},{"type":"error","name":"InvalidBasisPointRange","inputs":[]},{"type":"error","name":"InvalidInactiveDistributor","inputs":[]},{"type":"error","name":"InvalidInitialization","inputs":[]},{"type":"error","name":"InvalidNominalRange","inputs":[]},{"type":"error","name":"InvalidNotAllowedContent","inputs":[]},{"type":"error","name":"InvalidNotApprovedContent","inputs":[]},{"type":"error","name":"InvalidUnknownContent","inputs":[]},{"type":"error","name":"InvalidUnsupportedCurrency","inputs":[{"name":"currency","type":"address","internalType":"address"}]},{"type":"error","name":"InvalidUnsupportedToken","inputs":[{"name":"token","type":"address","internalType":"address"}]},{"type":"error","name":"InvalidWitnessContract","inputs":[]},{"type":"error","name":"NotInitializing","inputs":[]},{"type":"error","name":"ReentrancyGuardReentrantCall","inputs":[]},{"type":"error","name":"RestrictedAccessToHolder","inputs":[]},{"type":"error","name":"SafeERC20FailedOperation","inputs":[{"name":"token","type":"address","internalType":"address"}]},{"type":"error","name":"UUPSUnauthorizedCallContext","inputs":[]},{"type":"error","name":"UUPSUnsupportedProxiableUUID","inputs":[{"name":"slot","type":"bytes32","internalType":"bytes32"}]}],"bytecode":{"object":"0x60a08060405234620000d157306080527ff0c57e16840df040f15088dc2f81fe391c3923bec73e23a9662efc9c229c6a009081549060ff8260401c16620000c257506001600160401b036002600160401b0319828216016200007c575b604051614e069081620000d782396080518181816114da015261171f0152f35b6001600160401b031990911681179091556040519081527fc7f505b2f371ae2175ee4913f4499e1f2633a7b5936321eed1cdaeb6115181d290602090a13880806200005c565b63f92ee8a960e01b8152600490fd5b600080fdfe6080604052600436101561001b575b361561001957600080fd5b005b60003560e01c8062f714ce1461030a57806301ffc9a71461030557806306fdde0314610300578063081812fc146102fb578063095ea7b3146102f657806311e09d32146102f157806318160ddd146102ec57806323b872dd146102e7578063248a9ca3146102e2578063289b3c0d146102dd5780632a55205a146102d85780632c58824c146102d35780632e1a7d4d146102ce5780632f2ff15d146102c95780632f745c59146102c457806334534e2e146102bf57806335da3394146102ba57806336568abe146102b55780633d162cdc146102b05780633d18678e146102ab57806340c10f19146102a657806342842e0e146102a15780634c6220061461029c5780634f1ef286146102975780634f6ccce71461029257806352d1902d1461028d5780636352211e146102885780636605bfda1461028357806370a082311461027e57806370dfaeca146102795780638e5ae4b91461027457806391d148541461026f57806395d89b411461026a5780639af608c914610265578063a163310714610260578063a217fddf1461025b578063a22cb46514610256578063ab033ea914610251578063ad3cb1cc1461024c578063b88d4fde14610247578063c87b56dd14610242578063cd6dc6871461023d578063d455dda914610238578063d547741f14610233578063e00246041461022e578063e985e9c5146102295763ed40f7220361000e57612613565b6125a7565b612561565b6124fe565b6122e1565b6120e6565b612093565b61203c565b611fde565b611f57565b611e4f565b611e29565b611b3d565b611a61565b61199b565b611925565b6118d1565b611874565b611845565b6117c8565b611799565b611704565b611676565b611496565b6112f7565b6112cf565b6111ea565b611110565b610ffe565b610f9b565b610f6d565b610f45565b610e84565b610e21565b610d59565b610c73565b610ba4565b610b5e565b610b10565b610af9565b610a90565b61097b565b6107fb565b61079d565b610679565b61048f565b610325565b6001600160a01b0381160361032057565b600080fd5b34610320576040600319360112610320576024356004356103458261030f565b61034e33613508565b6001600160a01b0360246020827fad118695963461d59b4e186bb251fe176897e2c57f3362e8dade6f9a4f8e7400541692604051928380927f70a0823100000000000000000000000000000000000000000000000000000000825230600483015288165afa8015610460578391600091610431575b50106103d2576100199261448e565b6040517f9cf1483d00000000000000000000000000000000000000000000000000000000815260206004820152601460248201527f496e73756666696369656e742062616c616e63650000000000000000000000006044820152606490fd5b610453915060203d602011610459575b61044b81836113c9565b810190612def565b386103c3565b503d610441565b612dfe565b7fffffffff0000000000000000000000000000000000000000000000000000000081160361032057565b346103205760206003193601126103205761050f7fffffffff000000000000000000000000000000000000000000000000000000006004356104d081610465565b167f780e9d63000000000000000000000000000000000000000000000000000000008114908115610513575b5060405190151581529081906020820190565b0390f35b7f80ac58cd000000000000000000000000000000000000000000000000000000008114915081156105dd575b811561054d575b50386104fc565b7f2a55205a00000000000000000000000000000000000000000000000000000000811491508115610580575b5038610546565b7f7965db0b000000000000000000000000000000000000000000000000000000008114915081156105b3575b5038610579565b7f01ffc9a700000000000000000000000000000000000000000000000000000000915014386105ac565b7f5b5e139f000000000000000000000000000000000000000000000000000000008114915061053f565b919082519283825260005b8481106106515750507fffffffffffffffffffffffffffffffffffffffffffffffffffffffffffffffe0601f8460006020809697860101520116010190565b602081830181015184830182015201610612565b906020610676928181520190610607565b90565b346103205760008060031936011261079a5760405190807f80bb2b638cc20bc4d0a60d66940f3ab4a00c1d7b313497ca82fb0b4ab007930080546106bc81612678565b8086529260209260019280841690811561074c57506001146106f5575b61050f876106e9818903826113c9565b60405191829182610665565b815293507f37c58c799b6609234b945e882912ee9ad34948a1dfaa20a97485e1a7752bbf815b838510610739575050505081016020016106e98261050f38806106d9565b805486860184015293820193810161071b565b905087965061050f979450602093506106e99592507fffffffffffffffffffffffffffffffffffffffffffffffffffffffffffffff0091501682840152151560051b820101929338806106d9565b80fd5b34610320576020600319360112610320576004356107ba8161367f565b506000527f80bb2b638cc20bc4d0a60d66940f3ab4a00c1d7b313497ca82fb0b4ab007930460205260206001600160a01b0360406000205416604051908152f35b34610320576040600319360112610320576004356108188161030f565b602435906108258261367f565b33151580610968575b80610905575b6108d55782610019936108a2926001600160a01b0380861691167f8c5be1e5ebec7d5bd14f71427d1e84f3dd0314c0f7b2291e5b200ac8c7c3b925600080a46000527f80bb2b638cc20bc4d0a60d66940f3ab4a00c1d7b313497ca82fb0b4ab0079304602052604060002090565b906001600160a01b03167fffffffffffffffffffffffff0000000000000000000000000000000000000000825416179055565b60246040517fa9fbf51f000000000000000000000000000000000000000000000000000000008152336004820152fd5b5060ff61096033610948846001600160a01b03166000527f80bb2b638cc20bc4d0a60d66940f3ab4a00c1d7b313497ca82fb0b4ab0079305602052604060002090565b906001600160a01b0316600052602052604060002090565b541615610834565b50336001600160a01b038216141561082e565b34610320576020806003193601126103205760009060043582527f9c5345ebbec2d6cecdb38d9956fa842e9d714f43866d36c54fbb441829f0b000815260408220604051838194908354906109cf82612678565b9485855260019287600182169182600014610a4d575050600114610a11575b5050506109fd925003836113c9565b61050f604051928284938452830190610607565b869350819291528282205b858310610a355750506109fd93508201013880806109ee565b80548389018501528794508693909201918101610a1c565b92509450506109fd9592507fffffffffffffffffffffffffffffffffffffffffffffffffffffffffffffff0091501682840152151560051b8201013880806109ee565b346103205760006003193601126103205760207f645e039705490088daad89bae25049a34f4a9072d398537b1ab2425f24cbed0254604051908152f35b600319606091011261032057600435610ae58161030f565b90602435610af28161030f565b9060443590565b3461032057610019610b0a36610acd565b916126cb565b34610320576020600319360112610320576004356000527f02dd7bc7dec4dceedda775e58dd541e08a116c6c53815c0bd028192f7b6268006020526020600160406000200154604051908152f35b346103205760006003193601126103205760206001600160a01b037fbe22a97ce56bf984cece6021e328584abbd5b3cd394ccbe3b6884d525c48c4005416604051908152f35b34610320576040600319360112610320576004356000527fdaedc9ab023613a7caf35e703657e986ccfad7e3eb0af93a2853f8d65dd86b01602052604060002060405190610bf182611354565b54906001600160a01b03908183169283825260a01c60208201529115610c63575b610c3b610c336bffffffffffffffffffffffff602085015116602435612982565b612710900490565b91511661050f60405192839283602090939291936001600160a01b0360408201951681520152565b9050610c6d61290e565b90610c12565b346103205760008060031936011261079a5760405180917feef4c6e07c8c48aa12ec4689202072497f770ef14b71c2b38f8bc57ade760c01908154808452602080940190819383527ff7cca01d1363b6dac67dc0202bc6deff8b8b913c55e00992833183b066b61e2290835b818110610d3c5750505084610cf59103856113c9565b60405193838594850191818652518092526040850193925b828110610d1c57505050500390f35b83516001600160a01b031685528695509381019392810192600101610d0d565b82546001600160a01b031684529286019260019283019201610cdf565b3461032057602060031936011261032057600435610d7633613508565b6001600160a01b037fad118695963461d59b4e186bb251fe176897e2c57f3362e8dade6f9a4f8e740054168147106103d25760008080809481945af1610dba613fe8565b5015610dc35780f35b60646040517f9cf1483d00000000000000000000000000000000000000000000000000000000815260206004820152600f60248201527f5472616e73666572206661696c656400000000000000000000000000000000006044820152fd5b3461032057604060031936011261032057610019602435600435610e448261030f565b806000527f02dd7bc7dec4dceedda775e58dd541e08a116c6c53815c0bd028192f7b626800602052610e7f6001604060002001543390613634565b6138ec565b3461032057604060031936011261032057600435610ea18161030f565b60243590610eae81612ce5565b821015610f01576001600160a01b03166000527f645e039705490088daad89bae25049a34f4a9072d398537b1ab2425f24cbed006020526040600020906000526020526020604060002054604051908152f35b6040517fa57d13dc0000000000000000000000000000000000000000000000000000000081526001600160a01b039190911660048201526024810191909152604490fd5b34610320576020600319360112610320576020610f6360043561299a565b6040519015158152f35b3461032057602060031936011261032057610019600435610f8d8161030f565b610f9633613508565b6136f2565b3461032057604060031936011261032057602435610fb88161030f565b336001600160a01b03821603610fd45761001990600435613af7565b60046040517f6697b232000000000000000000000000000000000000000000000000000000008152fd5b346103205760406003193601126103205760043560243561101e8161030f565b61102733613508565b600182108015611105575b6110db57610019916001600160a01b0382166000527f87da7b105ee6d8640c69f620aa1ac0a4cea27ca8bc07f4213d3776b156a65a006020526040600020556110ad816001600160a01b03166000527f87da7b105ee6d8640c69f620aa1ac0a4cea27ca8bc07f4213d3776b156a65a01602052604060002090565b60017fffffffffffffffffffffffffffffffffffffffffffffffffffffffffffffff00825416179055613c69565b60046040517f07c0803f000000000000000000000000000000000000000000000000000000008152fd5b506127108211611032565b346103205760206003193601126103205760043561112d33613508565b6001811080156111df575b6110db5760008080527fdbbcd40c0f349adfa39fc864f544e00dd2cfe8e80bd0e6edcd3f2b026dad531d919091557f87da7b105ee6d8640c69f620aa1ac0a4cea27ca8bc07f4213d3776b156a65a016020527f916459e1bd58192a19bc20bcfacf109074ce2fa449617b52fa523929b0ed858780547fffffffffffffffffffffffffffffffffffffffffffffffffffffffffffffff001660011790556111dc613bcb565b80f35b506127108111611138565b34610320576040600319360112610320576004356112078161030f565b6002546040517f2a16cca40000000000000000000000000000000000000000000000000000000081526001600160a01b038381166004830152602480359083018190529260209183916044918391165afa908115610460576000916112a0575b501561127657610019916129ed565b60046040517f50747ffb000000000000000000000000000000000000000000000000000000008152fd5b6112c2915060203d6020116112c8575b6112ba81836113c9565b810190613939565b38611267565b503d6112b0565b34610320576100196112e036610acd565b90604051926112ee84611375565b60008452612e17565b34610320576020600319360112610320576100196004356113178161030f565b61132033613508565b613a14565b7f4e487b7100000000000000000000000000000000000000000000000000000000600052604160045260246000fd5b6040810190811067ffffffffffffffff82111761137057604052565b611325565b6020810190811067ffffffffffffffff82111761137057604052565b60a0810190811067ffffffffffffffff82111761137057604052565b6060810190811067ffffffffffffffff82111761137057604052565b90601f7fffffffffffffffffffffffffffffffffffffffffffffffffffffffffffffffe0910116810190811067ffffffffffffffff82111761137057604052565b67ffffffffffffffff811161137057601f017fffffffffffffffffffffffffffffffffffffffffffffffffffffffffffffffe01660200190565b9291926114508261140a565b9161145e60405193846113c9565b829481845281830111610320578281602093846000960137010152565b9080601f830112156103205781602061067693359101611444565b60406003193601126103205760048035906114b08261030f565b60243567ffffffffffffffff8111610320576114cf903690830161147b565b6001600160a01b03807f000000000000000000000000000000000000000000000000000000000000000016803014908115611648575b5061161f579060208392611518336135b0565b604051938480927f52d1902d00000000000000000000000000000000000000000000000000000000825288165afa600092816115fe575b506115965750506040517f4c9c8ce30000000000000000000000000000000000000000000000000000000081526001600160a01b0390921690820190815281906020010390fd5b83837f360894a13ba1a3210667c828492db98dca3e2076cc3735a920a3ca505d382bbc84036115c957610019838361455c565b6040517faa1d49a400000000000000000000000000000000000000000000000000000000815290810184815281906020010390fd5b61161891935060203d6020116104595761044b81836113c9565b913861154f565b826040517fe07c8dba000000000000000000000000000000000000000000000000000000008152fd5b9050817f360894a13ba1a3210667c828492db98dca3e2076cc3735a920a3ca505d382bbc5416141538611505565b34610320576020600319360112610320576004357f645e039705490088daad89bae25049a34f4a9072d398537b1ab2425f24cbed02548110156116cc576116be602091612c36565b90546040519160031b1c8152f35b604490604051907fa57d13dc000000000000000000000000000000000000000000000000000000008252600060048301526024820152fd5b34610320576000600319360112610320576001600160a01b037f000000000000000000000000000000000000000000000000000000000000000016300361176f5760206040517f360894a13ba1a3210667c828492db98dca3e2076cc3735a920a3ca505d382bbc8152f35b60046040517fe07c8dba000000000000000000000000000000000000000000000000000000008152fd5b346103205760206003193601126103205760206117b760043561367f565b6001600160a01b0360405191168152f35b34610320576020600319360112610320576004356117e58161030f565b6117ee33613508565b6001600160a01b037fad118695963461d59b4e186bb251fe176897e2c57f3362e8dade6f9a4f8e740091167fffffffffffffffffffffffff0000000000000000000000000000000000000000825416179055600080f35b3461032057602060031936011261032057602061186c6004356118678161030f565b612ce5565b604051908152f35b34610320576020600319360112610320576020610f636004356118968161030f565b6001600160a01b03166000527feef4c6e07c8c48aa12ec4689202072497f770ef14b71c2b38f8bc57ade760c00602052604060002054151590565b34610320576020600319360112610320576004356000527f19de352aacf5eb23e556c4ae8a1f47118f3051b029159b7e1b8f4f1672aaf60060205260206001600160a01b0360406000205416604051908152f35b3461032057604060031936011261032057602060ff61198f6024356119498161030f565b6004356000527f02dd7bc7dec4dceedda775e58dd541e08a116c6c53815c0bd028192f7b62680084526040600020906001600160a01b0316600052602052604060002090565b54166040519015158152f35b346103205760008060031936011261079a5760405190807f80bb2b638cc20bc4d0a60d66940f3ab4a00c1d7b313497ca82fb0b4ab007930180546119de81612678565b8086529260209260019280841690811561074c5750600114611a0a5761050f876106e9818903826113c9565b815293507ff4bad0a69248f59680a4f2b3000328cec71a413447c96781cfe5996daa8c456e5b838510611a4e575050505081016020016106e98261050f38806106d9565b8054868601840152938201938101611a30565b3461032057602060031936011261032057600435611a7e8161030f565b60ff611abc826001600160a01b03166000527f87da7b105ee6d8640c69f620aa1ac0a4cea27ca8bc07f4213d3776b156a65a01602052604060002090565b541615611b03576001600160a01b03166000527f87da7b105ee6d8640c69f620aa1ac0a4cea27ca8bc07f4213d3776b156a65a006020526020604060002054604051908152f35b6024906001600160a01b03604051917ffd0f4c13000000000000000000000000000000000000000000000000000000008352166004820152fd5b346103205760c060031936011261032057600435611b5a8161030f565b60243560807fffffffffffffffffffffffffffffffffffffffffffffffffffffffffffffffbc360112610320576001600160a01b039182611b9a8361367f565b1615611dff57611ba98261367f565b831633141580611dc6575b611d9c57611bc8611bc48361299a565b1590565b611d7257611bd58261367f565b611c18611c0b846000527f19de352aacf5eb23e556c4ae8a1f47118f3051b029159b7e1b8f4f1672aaf600602052604060002090565b546001600160a01b031690565b93611c7c6020611c2e611c29612de3565b612d65565b92611c37612de3565b9060405180809581947f9af608c9000000000000000000000000000000000000000000000000000000008352600483019190916001600160a01b036020820193169052565b03918a165afa958615610460577f62a9dca5d6f332c00e3e4b20fc5cd48c6d048189908a57d766d85c2583e55f2696611d1f94611d0f93600092611d4d575b50611d0090611cf1611cea610c33611ce3611cdc610c3360a4359b8c612982565b809a612e0a565b9586612982565b8094612e0a565b611cf9612de3565b9189613d41565b611d08612de3565b9186613d41565b611d17612de3565b903084613d41565b611d298282613e27565b604080516001600160a01b039092168252602082019290925290819081015b0390a1005b611d00919250611d6b9060203d6020116104595761044b81836113c9565b9190611cbb565b60046040517f3696b62e000000000000000000000000000000000000000000000000000000008152fd5b60046040517fff90016f000000000000000000000000000000000000000000000000000000008152fd5b503360009081527f81c645c586cc97ef24bf664ec63b1c7f011ac6f124e394ab927688afa337c430602052604090205460ff1615611bb4565b60046040517f6dfc3d19000000000000000000000000000000000000000000000000000000008152fd5b3461032057600060031936011261032057602060405160008152f35b8015150361032057565b3461032057604060031936011261032057600435611e6c8161030f565b602435611e7881611e45565b6001600160a01b038216918215611f2657611ec990610948336001600160a01b03166000527f80bb2b638cc20bc4d0a60d66940f3ab4a00c1d7b313497ca82fb0b4ab0079305602052604060002090565b901515907fffffffffffffffffffffffffffffffffffffffffffffffffffffffffffffff0081541660ff83161790556040519081527f17307eab39ab6107e8899845ad3d59bd9653f200f220920489ca2b5937696c3160203392a3005b602483604051907f5b08ba180000000000000000000000000000000000000000000000000000000082526004820152fd5b3461032057602060031936011261032057600435611f748161030f565b611f7d336135b0565b611f86816137dd565b506001600160a01b037fbe22a97ce56bf984cece6021e328584abbd5b3cd394ccbe3b6884d525c48c40091167fffffffffffffffffffffffff0000000000000000000000000000000000000000825416179055600080f35b346103205760006003193601126103205761050f604051611ffe81611354565b600581527f352e302e300000000000000000000000000000000000000000000000000000006020820152604051918291602083526020830190610607565b34610320576080600319360112610320576004356120598161030f565b6024356120658161030f565b6064359167ffffffffffffffff83116103205761208961001993369060040161147b565b9160443591612e17565b34610320576020600319360112610320576120af60043561367f565b5060006040516120be81611375565b5261050f6040516120ce81611375565b60008152604051918291602083526020830190610607565b34610320576040600319360112610320576004356121038161030f565b7ff0c57e16840df040f15088dc2f81fe391c3923bec73e23a9662efc9c229c6a00549067ffffffffffffffff60ff8360401c16159216801590816122d9575b60011490816122cf575b1590816122c6575b5061229c576121bb90826121ad7ff0c57e16840df040f15088dc2f81fe391c3923bec73e23a9662efc9c229c6a0060017fffffffffffffffffffffffffffffffffffffffffffffffff0000000000000000825416179055565b612240575b60243590612f80565b6121c157005b61220d7ff0c57e16840df040f15088dc2f81fe391c3923bec73e23a9662efc9c229c6a007fffffffffffffffffffffffffffffffffffffffffffffff00ffffffffffffffff8154169055565b604051600181527fc7f505b2f371ae2175ee4913f4499e1f2633a7b5936321eed1cdaeb6115181d2908060208101611d48565b6122977ff0c57e16840df040f15088dc2f81fe391c3923bec73e23a9662efc9c229c6a00680100000000000000007fffffffffffffffffffffffffffffffffffffffffffffff00ffffffffffffffff825416179055565b6121b2565b60046040517ff92ee8a9000000000000000000000000000000000000000000000000000000008152fd5b90501538612154565b303b15915061214c565b839150612142565b346103205760408060031936011261032057600435906123008261030f565b602435907f9b779b17422d0df92223018b32b4d1fa46e071723d6817e2486d003becc55f0060028154146124d557600290556001600160a01b036123438361367f565b16156124ac57612352826139c0565b9182612397575b61050f838361238760017f9b779b17422d0df92223018b32b4d1fa46e071723d6817e2486d003becc55f0055565b5190151581529081906020820190565b60009192508082918252816020526123cc6123c786868520906001600160a01b0316600052602052604060002090565b6142d8565b946123de86516001600160a01b031690565b9161244061240f60208901517fffffffff000000000000000000000000000000000000000000000000000000001690565b8751602081019182526001600160a01b039490941660248501526044808501939093529183529091906064826113c9565b51915afa9161244d613fe8565b9215612471575061246a8260208061050f95518301019101613939565b9038612359565b5190517f13cbb7480000000000000000000000000000000000000000000000000000000081526001600160a01b039091166004820152602490fd5b600490517f6dfc3d19000000000000000000000000000000000000000000000000000000008152fd5b600482517f3ee5aeb5000000000000000000000000000000000000000000000000000000008152fd5b34610320576040600319360112610320576100196024356004356125218261030f565b806000527f02dd7bc7dec4dceedda775e58dd541e08a116c6c53815c0bd028192f7b62680060205261255c6001604060002001543390613634565b613af7565b346103205760006003193601126103205760206001600160a01b037fad118695963461d59b4e186bb251fe176897e2c57f3362e8dade6f9a4f8e74005416604051908152f35b3461032057604060031936011261032057602060ff61198f6004356125cb8161030f565b610948602435916125db8361030f565b6001600160a01b03166000527f80bb2b638cc20bc4d0a60d66940f3ab4a00c1d7b313497ca82fb0b4ab0079305602052604060002090565b34610320576060600319360112610320576024356126308161030f565b6044359067ffffffffffffffff908183116103205736602384011215610320578260040135918211610320573660248385010111610320576024610019930190600435613205565b90600182811c921680156126c1575b602083101461269257565b7f4e487b7100000000000000000000000000000000000000000000000000000000600052602260045260246000fd5b91607f1691612687565b6001600160a01b03908183169283156128dd5784612715611c0b826000527f80bb2b638cc20bc4d0a60d66940f3ab4a00c1d7b313497ca82fb0b4ab0079302602052604060002090565b94336128cd575b848616958615801561285d575b612765856001600160a01b03166000527f80bb2b638cc20bc4d0a60d66940f3ab4a00c1d7b313497ca82fb0b4ab0079303602052604060002090565b600181540190556127a3856108a2866000527f80bb2b638cc20bc4d0a60d66940f3ab4a00c1d7b313497ca82fb0b4ab0079302602052604060002090565b8383897fddf252ad1be2c89b69c2b068fc378daa952ba7f163c4a11628f55a4df523b3ef600080a41561283d57506127da82614965565b850361282d575b505016918282036127f157505050565b60649350604051927f64283d7b000000000000000000000000000000000000000000000000000000008452600484015260248301526044820152fd5b61283691614a0c565b38846127e1565b8282880361284d575b50506127da565b61285691614830565b3882612846565b61286684614501565b6128a2826001600160a01b03166000527f80bb2b638cc20bc4d0a60d66940f3ab4a00c1d7b313497ca82fb0b4ab0079303602052604060002090565b7fffffffffffffffffffffffffffffffffffffffffffffffffffffffffffffffff8154019055612729565b6128d8823388614bff565b61271c565b60246040517f64a0ae9200000000000000000000000000000000000000000000000000000000815260006004820152fd5b6040519061291b82611354565b7fdaedc9ab023613a7caf35e703657e986ccfad7e3eb0af93a2853f8d65dd86b00546001600160a01b038116835260a01c6020830152565b7f4e487b7100000000000000000000000000000000000000000000000000000000600052601160045260246000fd5b8181029291811591840414171561299557565b612953565b806000527f19de352aacf5eb23e556c4ae8a1f47118f3051b029159b7e1b8f4f1672aaf6006020526129d96001600160a01b036040600020541661394e565b90816129e3575090565b61067691506139c0565b6001600160a01b039081811680156128dd578390612a37611c0b836000527f80bb2b638cc20bc4d0a60d66940f3ab4a00c1d7b313497ca82fb0b4ab0079302602052604060002090565b93841680159485159586612b97575b612a82866001600160a01b03166000527f80bb2b638cc20bc4d0a60d66940f3ab4a00c1d7b313497ca82fb0b4ab0079303602052604060002090565b60018154019055612ac0866108a2876000527f80bb2b638cc20bc4d0a60d66940f3ab4a00c1d7b313497ca82fb0b4ab0079302602052604060002090565b8484847fddf252ad1be2c89b69c2b068fc378daa952ba7f163c4a11628f55a4df523b3ef600080a415612b775750612af783614965565b03612b67575b5050612b36576040519081527fd276c29a2806f51d468256182f58ee92e85a773c869cde8e86c79e2c44b5ef4d9080602081015b0390a1565b60246040517f73c6ac6e00000000000000000000000000000000000000000000000000000000815260006004820152fd5b612b7091614a0c565b3882612afd565b83838303612b87575b5050612af7565b612b9091614830565b3883612b80565b612ba085614501565b612bdc826001600160a01b03166000527f80bb2b638cc20bc4d0a60d66940f3ab4a00c1d7b313497ca82fb0b4ab0079303602052604060002090565b7fffffffffffffffffffffffffffffffffffffffffffffffffffffffffffffffff8154019055612a46565b7f4e487b7100000000000000000000000000000000000000000000000000000000600052603260045260246000fd5b7f645e039705490088daad89bae25049a34f4a9072d398537b1ab2425f24cbed028054821015612c8b576000527fa42f15e5d656f8155fd7419d740a6073999f19cd6e061449ce4a257150545bf20190600090565b612c07565b7feef4c6e07c8c48aa12ec4689202072497f770ef14b71c2b38f8bc57ade760c018054821015612c8b576000527ff7cca01d1363b6dac67dc0202bc6deff8b8b913c55e00992833183b066b61e220190600090565b6001600160a01b03811615612d3457612d30906001600160a01b03166000527f80bb2b638cc20bc4d0a60d66940f3ab4a00c1d7b313497ca82fb0b4ab0079303602052604060002090565b5490565b60246040517f89c62b6400000000000000000000000000000000000000000000000000000000815260006004820152fd5b60ff612da3826001600160a01b03166000527f87da7b105ee6d8640c69f620aa1ac0a4cea27ca8bc07f4213d3776b156a65a01602052604060002090565b541615611b03576001600160a01b03166000527f87da7b105ee6d8640c69f620aa1ac0a4cea27ca8bc07f4213d3776b156a65a0060205260406000205490565b6084356106768161030f565b90816020910312610320575190565b6040513d6000823e3d90fd5b9190820391821161299557565b91929092612e268185856126cb565b833b612e33575b50505050565b612e719160209160405193849283927f150b7a0200000000000000000000000000000000000000000000000000000000978885523360048601613fb9565b038160006001600160a01b0388165af160009181612f4f575b50612ee25782612e98613fe8565b8051919082612edb576040517f64a0ae920000000000000000000000000000000000000000000000000000000081526001600160a01b0383166004820152602490fd5b9050602001fd5b7fffffffff000000000000000000000000000000000000000000000000000000001603612f13575038808080612e2d565b6040517f64a0ae920000000000000000000000000000000000000000000000000000000081526001600160a01b03919091166004820152602490fd5b612f7291925060203d602011612f79575b612f6a81836113c9565b810190613fa4565b9038612e8a565b503d612f60565b600182108015613173575b6110db576001600160a01b0390612fa0614018565b612fb9612fab61317e565b612fb36131b7565b90614030565b612fc1614659565b612fc9614659565b612fd1614659565b612fda336136f2565b5016604051917fde981f1b0000000000000000000000000000000000000000000000000000000080845260209384818061301c60048201906001602083019252565b0381875afa80156104605761306891600091613156575b506001600160a01b03167fffffffffffffffffffffffff00000000000000000000000000000000000000006001541617600155565b60405181815260036004820152908482602481875afa9182156104605785926130c891600091613139575b506001600160a01b03167fffffffffffffffffffffffff00000000000000000000000000000000000000006002541617600255565b6040519081526002600482015292839060249082905afa9182156104605761310293600093613104575b50506130fd906141ce565b614274565b565b6130fd929350908161312a92903d10613132575b61312281836113c9565b8101906131f0565b9190386130f2565b503d613118565b6131509150843d86116131325761312281836113c9565b38613093565b61316d9150863d88116131325761312281836113c9565b38613033565b506127108211612f8b565b6040519061318b82611354565b600782527f57617463686974000000000000000000000000000000000000000000000000006020830152565b604051906131c482611354565b600382527f574f5400000000000000000000000000000000000000000000000000000000006020830152565b9081602091031261032057516106768161030f565b919392936132128261394e565b156134de576001600160a01b03908161322a8561367f565b1615611dff576132398461367f565b8216331415806134a5575b611d9c576132e7906000968588526020937f19de352aacf5eb23e556c4ae8a1f47118f3051b029159b7e1b8f4f1672aaf60085526132b38660408b20906001600160a01b03167fffffffffffffffffffffffff0000000000000000000000000000000000000000825416179055565b7f2670220fe4453810baf117447774c4d6afe3d090b70f9a3812f8da82885844118560405192898452881692a23691611444565b8386527f9c5345ebbec2d6cecdb38d9956fa842e9d714f43866d36c54fbb441829f0b0008252604086209181519167ffffffffffffffff831161137057613338836133328654612678565b86614454565b81601f84116001146133d857509180916133a7937f296b1e4682f370100e81f6d0fada47c204f807ab266313373b96227e3e14d4e59899926133cd575b50507fffffffffffffffffffffffffffffffffffffffffffffffffffffffffffffffff8260011b9260031b1c19161790565b90555b604080516001600160a01b03909216825260208201929092529081908101612b31565b015190503880613375565b7fffffffffffffffffffffffffffffffffffffffffffffffffffffffffffffffe0849994169061340d86600052602060002090565b94905b82821061348d5750509160019391897f296b1e4682f370100e81f6d0fada47c204f807ab266313373b96227e3e14d4e5999a9410613456575b505050811b0190556133aa565b01517fffffffffffffffffffffffffffffffffffffffffffffffffffffffffffffffff60f88460031b161c19169055388080613449565b80600186978294978701518155019601940190613410565b503360009081527f81c645c586cc97ef24bf664ec63b1c7f011ac6f124e394ab927688afa337c430602052604090205460ff1615613244565b60046040517ffe2a0dd1000000000000000000000000000000000000000000000000000000008152fd5b6001600160a01b03811660009081527ff2e0a8360026a616a5c33ed370a5497cc3baf8a817a474a098d5f8687be72a0f602052604090207ff018c6c8c8da18060a4e6807987a0a03fba6c9fba4a5c9531151020efe3268149060ff905b541615613570575050565b604492506001600160a01b03604051927fe2517d3f0000000000000000000000000000000000000000000000000000000084521660048301526024820152fd5b6001600160a01b03811660009081527fb7db2dd08fcb62d0c9e08c51941cae53c267786a0b75803fb7960902fc8ef97d602052604090205460ff16156135f35750565b6044906001600160a01b03604051917fe2517d3f00000000000000000000000000000000000000000000000000000000835216600482015260006024820152fd5b806000527f02dd7bc7dec4dceedda775e58dd541e08a116c6c53815c0bd028192f7b62680060205260ff613565836040600020906001600160a01b0316600052602052604060002090565b806000527f80bb2b638cc20bc4d0a60d66940f3ab4a00c1d7b313497ca82fb0b4ab00793026020526001600160a01b03604060002054169081156136c1575090565b602490604051907f7e2732890000000000000000000000000000000000000000000000000000000082526004820152fd5b6001600160a01b03811660009081527fb7db2dd08fcb62d0c9e08c51941cae53c267786a0b75803fb7960902fc8ef97d60205260408120547f02dd7bc7dec4dceedda775e58dd541e08a116c6c53815c0bd028192f7b6268009060ff166137d7578180526020526137798260408320906001600160a01b0316600052602052604060002090565b60017fffffffffffffffffffffffffffffffffffffffffffffffffffffffffffffff008254161790556001600160a01b03339216907f2f8788117e7eff1d82e926ec794901d17c78024a50270940304540a733656f0d8180a4600190565b50905090565b6001600160a01b03811660009081527ff2e0a8360026a616a5c33ed370a5497cc3baf8a817a474a098d5f8687be72a0f602052604081207ff018c6c8c8da18060a4e6807987a0a03fba6c9fba4a5c9531151020efe326814907f02dd7bc7dec4dceedda775e58dd541e08a116c6c53815c0bd028192f7b6268009060ff905b54166138e5578183526020526138888360408420906001600160a01b0316600052602052604060002090565b60017fffffffffffffffffffffffffffffffffffffffffffffffffffffffffffffff008254161790557f2f8788117e7eff1d82e926ec794901d17c78024a50270940304540a733656f0d6001600160a01b033394169280a4600190565b5050905090565b6000908082527f02dd7bc7dec4dceedda775e58dd541e08a116c6c53815c0bd028192f7b6268008060205260ff61385c8560408620906001600160a01b0316600052602052604060002090565b90816020910312610320575161067681611e45565b60206001600160a01b036024816001541693600060405195869485937f9f8a13d70000000000000000000000000000000000000000000000000000000085521660048401525af1908115610460576000916139a7575090565b610676915060203d6020116112c8576112ba81836113c9565b60206001600160a01b0360025416916024604051809481937f82afd23b00000000000000000000000000000000000000000000000000000000835260048301525afa908115610460576000916139a7575090565b6001600160a01b03811660009081527fb7db2dd08fcb62d0c9e08c51941cae53c267786a0b75803fb7960902fc8ef97d60205260408120547f02dd7bc7dec4dceedda775e58dd541e08a116c6c53815c0bd028192f7b6268009060ff16156137d757818052602052613a9c8260408320906001600160a01b0316600052602052604060002090565b7fffffffffffffffffffffffffffffffffffffffffffffffffffffffffffffff0081541690556001600160a01b03339216907ff6391f5c32d9c69d2a47ea670b442974b53935d1edc7fd64eb21e047a839171b8180a4600190565b6000908082527f02dd7bc7dec4dceedda775e58dd541e08a116c6c53815c0bd028192f7b6268008060205260ff613b448560408620906001600160a01b0316600052602052604060002090565b5416156138e557818352602052613b718360408420906001600160a01b0316600052602052604060002090565b7fffffffffffffffffffffffffffffffffffffffffffffffffffffffffffffff0081541690557ff6391f5c32d9c69d2a47ea670b442974b53935d1edc7fd64eb21e047a839171b6001600160a01b033394169280a4600190565b60008080527feef4c6e07c8c48aa12ec4689202072497f770ef14b71c2b38f8bc57ade760c0090816020526040812054613c65577feef4c6e07c8c48aa12ec4689202072497f770ef14b71c2b38f8bc57ade760c01908154916801000000000000000083101561137057613c46836001604095018355612c90565b6001600160a01b0382549160031b1b1916905554928180526020522055565b5050565b613ca8816001600160a01b03166000527feef4c6e07c8c48aa12ec4689202072497f770ef14b71c2b38f8bc57ade760c00602052604060002054151590565b613d3e577feef4c6e07c8c48aa12ec4689202072497f770ef14b71c2b38f8bc57ade760c0180546801000000000000000081101561137057806001613cef92018355612c90565b926001600160a01b038091169382549060031b9185831b921b191617905554906000527feef4c6e07c8c48aa12ec4689202072497f770ef14b71c2b38f8bc57ade760c00602052604060002055565b50565b600091908291613db7946001600160a01b0380971696604051928160208501957f23b872dd000000000000000000000000000000000000000000000000000000008752166024850152166044830152606482015260648152613da281611391565b519082865af1613db0613fe8565b9083614d3d565b8051908115159182613e09575b5050613dcd5750565b6040517f5274afe70000000000000000000000000000000000000000000000000000000081526001600160a01b03919091166004820152602490fd5b613e20925090602080611bc4938301019101613939565b3880613dc4565b60443591613e348361030f565b613e3d83614acc565b80613f94575b80613f85575b15613f5b57613eb991613e7b9160005260006020526040600020906001600160a01b0316600052602052604060002090565b91613e858161030f565b82906001600160a01b03167fffffffffffffffffffffffff0000000000000000000000000000000000000000825416179055565b606435613ec581610465565b7fffffffffffffffff00000000ffffffffffffffffffffffffffffffffffffffff77ffffffff000000000000000000000000000000000000000083549260401c169116178155613f51608435613f1a8161030f565b60018301906001600160a01b03167fffffffffffffffffffffffff0000000000000000000000000000000000000000825416179055565b600260a435910155565b60046040517fbee392b3000000000000000000000000000000000000000000000000000000008152fd5b50613f8f83614b9d565b613e49565b50613f9e83614b3b565b15613e43565b90816020910312610320575161067681610465565b909261067694936080936001600160a01b03809216845216602083015260408201528160608201520190610607565b3d15614013573d90613ff98261140a565b9161400760405193846113c9565b82523d6000602084013e565b606090565b614020614659565b614028614659565b613102614659565b919061403a614659565b614042614659565b825167ffffffffffffffff8111611370577f80bb2b638cc20bc4d0a60d66940f3ab4a00c1d7b313497ca82fb0b4ab007930090614088816140838454612678565b61435f565b602080601f83116001146140e2575090806140db9261310296976000926133cd5750507fffffffffffffffffffffffffffffffffffffffffffffffffffffffffffffffff8260011b9260031b1c19161790565b90556146b2565b907fffffffffffffffffffffffffffffffffffffffffffffffffffffffffffffffe08316966141527f80bb2b638cc20bc4d0a60d66940f3ab4a00c1d7b313497ca82fb0b4ab00793006000527f37c58c799b6609234b945e882912ee9ad34948a1dfaa20a97485e1a7752bbf8190565b926000905b8982106141b65750509083929160019461310298991061417f575b505050811b0190556146b2565b01517fffffffffffffffffffffffffffffffffffffffffffffffffffffffffffffffff60f88460031b161c19169055388080614172565b80600185968294968601518155019501930190614157565b6141d6614659565b6141de614659565b600080527fdbbcd40c0f349adfa39fc864f544e00dd2cfe8e80bd0e6edcd3f2b026dad531d557f87da7b105ee6d8640c69f620aa1ac0a4cea27ca8bc07f4213d3776b156a65a016020527f916459e1bd58192a19bc20bcfacf109074ce2fa449617b52fa523929b0ed858780547fffffffffffffffffffffffffffffffffffffffffffffffffffffffffffffff00166001179055565b61427c614659565b614284614659565b6001600160a01b037fad118695963461d59b4e186bb251fe176897e2c57f3362e8dade6f9a4f8e740091167fffffffffffffffffffffffff0000000000000000000000000000000000000000825416179055565b906040516080810181811067ffffffffffffffff8211176113705760405260606002829480547fffffffff000000000000000000000000000000000000000000000000000000006001600160a01b0391828116875260401b16602086015260018201541660408501520154910152565b818110614353575050565b60008155600101614348565b90601f821161436c575050565b613102917f80bb2b638cc20bc4d0a60d66940f3ab4a00c1d7b313497ca82fb0b4ab00793006000527f37c58c799b6609234b945e882912ee9ad34948a1dfaa20a97485e1a7752bbf81906020601f840160051c830193106143d5575b601f0160051c0190614348565b90915081906143c8565b90601f82116143ec575050565b613102917f80bb2b638cc20bc4d0a60d66940f3ab4a00c1d7b313497ca82fb0b4ab00793016000527ff4bad0a69248f59680a4f2b3000328cec71a413447c96781cfe5996daa8c456e906020601f840160051c830193106143d557601f0160051c0190614348565b9190601f811161446357505050565b613102926000526020600020906020601f840160051c830193106143d557601f0160051c0190614348565b6040517fa9059cbb0000000000000000000000000000000000000000000000000000000081526001600160a01b039283166004820152602481019390935260209183916044918391600091165af18015610460576144e95750565b613d3e9060203d6020116112c8576112ba81836113c9565b614534906000527f80bb2b638cc20bc4d0a60d66940f3ab4a00c1d7b313497ca82fb0b4ab0079304602052604060002090565b7fffffffffffffffffffffffff00000000000000000000000000000000000000008154169055565b90813b1561461f576001600160a01b0382167f360894a13ba1a3210667c828492db98dca3e2076cc3735a920a3ca505d382bbc817fffffffffffffffffffffffff00000000000000000000000000000000000000008254161790557fbc7cd75a20ee27fd9adebab32041f755214dbc6bffa90cc0225b39da2e5c2d3b600080a28051156145ec57613d3e91614aae565b5050346145f557565b60046040517fb398979f000000000000000000000000000000000000000000000000000000008152fd5b6024826001600160a01b03604051917f4c9c8ce3000000000000000000000000000000000000000000000000000000008352166004820152fd5b60ff7ff0c57e16840df040f15088dc2f81fe391c3923bec73e23a9662efc9c229c6a005460401c161561468857565b60046040517fd7e6bcf8000000000000000000000000000000000000000000000000000000008152fd5b90815167ffffffffffffffff8111611370577f80bb2b638cc20bc4d0a60d66940f3ab4a00c1d7b313497ca82fb0b4ab0079301906146f9816146f48454612678565b6143df565b602080601f831160011461474d575081906147499394956000926133cd5750507fffffffffffffffffffffffffffffffffffffffffffffffffffffffffffffffff8260011b9260031b1c19161790565b9055565b907fffffffffffffffffffffffffffffffffffffffffffffffffffffffffffffffe08316956147bd7f80bb2b638cc20bc4d0a60d66940f3ab4a00c1d7b313497ca82fb0b4ab00793016000527ff4bad0a69248f59680a4f2b3000328cec71a413447c96781cfe5996daa8c456e90565b926000905b888210614818575050836001959697106147e1575b505050811b019055565b01517fffffffffffffffffffffffffffffffffffffffffffffffffffffffffffffffff60f88460031b161c191690553880806147d7565b806001859682949686015181550195019301906147c2565b9061483a82612ce5565b6000928284526001600160a01b036020917f645e039705490088daad89bae25049a34f4a9072d398537b1ab2425f24cbed018352856148b1604096878320548781036148e4575b506000527f645e039705490088daad89bae25049a34f4a9072d398537b1ab2425f24cbed01602052604060002090565b551684527f645e039705490088daad89bae25049a34f4a9072d398537b1ab2425f24cbed00815282842091845252812055565b61495e8686168086527f645e039705490088daad89bae25049a34f4a9072d398537b1ab2425f24cbed00808a528b87208b88528a528b87205491875289528a86208387528952808b8720556000527f645e039705490088daad89bae25049a34f4a9072d398537b1ab2425f24cbed01602052604060002090565b5538614881565b7f645e039705490088daad89bae25049a34f4a9072d398537b1ab2425f24cbed028054826000527f645e039705490088daad89bae25049a34f4a9072d398537b1ab2425f24cbed036020528060406000205568010000000000000000811015611370576149d791600182019055612c36565b7fffffffffffffffffffffffffffffffffffffffffffffffffffffffffffffffff829392549160031b92831b921b1916179055565b90614a1682612ce5565b917fffffffffffffffffffffffffffffffffffffffffffffffffffffffffffffffff8301928311612995576040916001600160a01b036000921682527f645e039705490088daad89bae25049a34f4a9072d398537b1ab2425f24cbed00602052828220848352602052808383205581527f645e039705490088daad89bae25049a34f4a9072d398537b1ab2425f24cbed016020522055565b60008061067693602081519101845af4614ac6613fe8565b91614d3d565b6000602091604051838101907f01ffc9a700000000000000000000000000000000000000000000000000000000808352602482015260248152614b0e816113ad565b5191617530fa6000513d82614b2f575b5081614b28575090565b9050151590565b60201115915038614b1e565b6000602091604051838101907f01ffc9a70000000000000000000000000000000000000000000000000000000082527fffffffff00000000000000000000000000000000000000000000000000000000602482015260248152614b0e816113ad565b6000602091604051838101907f01ffc9a70000000000000000000000000000000000000000000000000000000082527f095ea7b300000000000000000000000000000000000000000000000000000000602482015260248152614b0e816113ad565b6001600160a01b03908183168015159081614c9c575b5015614c215750505050565b16614c58576040517f7e27328900000000000000000000000000000000000000000000000000000000815260048101839052602490fd5b6040517f177e802f0000000000000000000000000000000000000000000000000000000081526001600160a01b039190911660048201526024810191909152604490fd5b828416811491508115614cf1575b8115614cb8575b5038614c15565b9050846000527f80bb2b638cc20bc4d0a60d66940f3ab4a00c1d7b313497ca82fb0b4ab007930460205282604060002054161438614cb1565b905060ff614d3585610948856001600160a01b03166000527f80bb2b638cc20bc4d0a60d66940f3ab4a00c1d7b313497ca82fb0b4ab0079305602052604060002090565b541690614caa565b90614d7c5750805115614d5257805190602001fd5b60046040517f1425ea42000000000000000000000000000000000000000000000000000000008152fd5b81511580614dc7575b614d8d575090565b6024906001600160a01b03604051917f9996b315000000000000000000000000000000000000000000000000000000008352166004820152fd5b50803b15614d8556fea2646970667358221220e1e94dc2087be0fe26cd2d34eeb03a95d5bf07a650e09c2fc3aaed8b64ea411d64736f6c63430008180033","linkReferences":{}},"methodIdentifiers":{"DEFAULT_ADMIN_ROLE()":"a217fddf","UPGRADE_INTERFACE_VERSION()":"ad3cb1cc","approve(address,uint256)":"095ea7b3","balanceOf(address)":"70a08231","getApproved(uint256)":"081812fc","getCustodial(uint256)":"8e5ae4b9","getFees(address)":"9af608c9","getGovernance()":"289b3c0d","getRoleAdmin(bytes32)":"248a9ca3","getSecuredContent(uint256)":"11e09d32","getTreasuryAddress()":"e0024604","grantAccess(address,uint256,(address,bytes4,address,uint256))":"a1633107","grantCustodial(uint256,address,bytes)":"ed40f722","grantRole(bytes32,address)":"2f2ff15d","hasRole(bytes32,address)":"91d14854","initialize(address,uint256)":"cd6dc687","isAccessGranted(address,uint256)":"d455dda9","isApprovedForAll(address,address)":"e985e9c5","isCurrencySupported(address)":"70dfaeca","isEligibleForDistribution(uint256)":"34534e2e","mint(address,uint256)":"40c10f19","name()":"06fdde03","ownerOf(uint256)":"6352211e","proxiableUUID()":"52d1902d","renounceRole(bytes32,address)":"36568abe","revokeEmergencyAdmin(address)":"4c622006","revokeRole(bytes32,address)":"d547741f","royaltyInfo(uint256,uint256)":"2a55205a","safeTransferFrom(address,address,uint256)":"42842e0e","safeTransferFrom(address,address,uint256,bytes)":"b88d4fde","setApprovalForAll(address,bool)":"a22cb465","setEmergencyAdmin(address)":"35da3394","setFees(uint256)":"3d18678e","setFees(uint256,address)":"3d162cdc","setGovernance(address)":"ab033ea9","setTreasuryAddress(address)":"6605bfda","supportedCurrencies()":"2c58824c","supportsInterface(bytes4)":"01ffc9a7","symbol()":"95d89b41","tokenByIndex(uint256)":"4f6ccce7","tokenOfOwnerByIndex(address,uint256)":"2f745c59","tokenURI(uint256)":"c87b56dd","totalSupply()":"18160ddd","transferFrom(address,address,uint256)":"23b872dd","upgradeToAndCall(address,bytes)":"4f1ef286","withdraw(uint256)":"2e1a7d4d","withdraw(uint256,address)":"00f714ce"},"id":0}