{"abi":[{"type":"constructor","inputs":[],"stateMutability":"nonpayable"},{"type":"receive","stateMutability":"payable"},{"type":"function","name":"DEFAULT_ADMIN_ROLE","inputs":[],"outputs":[{"name":"","type":"bytes32","internalType":"bytes32"}],"stateMutability":"view"},{"type":"function","name":"UPGRADE_INTERFACE_VERSION","inputs":[],"outputs":[{"name":"","type":"string","internalType":"string"}],"stateMutability":"view"},{"type":"function","name":"approve","inputs":[{"name":"to","type":"address","internalType":"address"},{"name":"tokenId","type":"uint256","internalType":"uint256"}],"outputs":[],"stateMutability":"nonpayable"},{"type":"function","name":"balanceOf","inputs":[{"name":"owner","type":"address","internalType":"address"}],"outputs":[{"name":"","type":"uint256","internalType":"uint256"}],"stateMutability":"view"},{"type":"function","name":"disburse","inputs":[{"name":"amount","type":"uint256","internalType":"uint256"},{"name":"token","type":"address","internalType":"address"}],"outputs":[],"stateMutability":"nonpayable"},{"type":"function","name":"disburse","inputs":[{"name":"amount","type":"uint256","internalType":"uint256"}],"outputs":[],"stateMutability":"nonpayable"},{"type":"function","name":"getApproved","inputs":[{"name":"tokenId","type":"uint256","internalType":"uint256"}],"outputs":[{"name":"","type":"address","internalType":"address"}],"stateMutability":"view"},{"type":"function","name":"getCustodial","inputs":[{"name":"contentId","type":"uint256","internalType":"uint256"}],"outputs":[{"name":"","type":"address","internalType":"address"}],"stateMutability":"view"},{"type":"function","name":"getFees","inputs":[{"name":"token","type":"address","internalType":"address"}],"outputs":[{"name":"","type":"uint256","internalType":"uint256"}],"stateMutability":"view"},{"type":"function","name":"getGovernance","inputs":[],"outputs":[{"name":"","type":"address","internalType":"address"}],"stateMutability":"view"},{"type":"function","name":"getLedgerEntry","inputs":[{"name":"account","type":"address","internalType":"address"},{"name":"token","type":"address","internalType":"address"}],"outputs":[{"name":"","type":"uint256","internalType":"uint256"}],"stateMutability":"view"},{"type":"function","name":"getRoleAdmin","inputs":[{"name":"role","type":"bytes32","internalType":"bytes32"}],"outputs":[{"name":"","type":"bytes32","internalType":"bytes32"}],"stateMutability":"view"},{"type":"function","name":"getSecuredContent","inputs":[{"name":"contentId","type":"uint256","internalType":"uint256"}],"outputs":[{"name":"","type":"bytes","internalType":"bytes"}],"stateMutability":"view"},{"type":"function","name":"getTreasuryAddress","inputs":[],"outputs":[{"name":"","type":"address","internalType":"address"}],"stateMutability":"view"},{"type":"function","name":"grantAccess","inputs":[{"name":"account","type":"address","internalType":"address"},{"name":"contentId","type":"uint256","internalType":"uint256"}],"outputs":[],"stateMutability":"payable"},{"type":"function","name":"grantCustodial","inputs":[{"name":"contentId","type":"uint256","internalType":"uint256"},{"name":"distributor","type":"address","internalType":"address"},{"name":"encryptedContent","type":"bytes","internalType":"bytes"}],"outputs":[],"stateMutability":"nonpayable"},{"type":"function","name":"grantRights","inputs":[{"name":"validator","type":"address","internalType":"address"},{"name":"contentId","type":"uint256","internalType":"uint256"}],"outputs":[],"stateMutability":"nonpayable"},{"type":"function","name":"grantRole","inputs":[{"name":"role","type":"bytes32","internalType":"bytes32"},{"name":"account","type":"address","internalType":"address"}],"outputs":[],"stateMutability":"nonpayable"},{"type":"function","name":"hasRole","inputs":[{"name":"role","type":"bytes32","internalType":"bytes32"},{"name":"account","type":"address","internalType":"address"}],"outputs":[{"name":"","type":"bool","internalType":"bool"}],"stateMutability":"view"},{"type":"function","name":"initialize","inputs":[{"name":"repository","type":"address","internalType":"address"},{"name":"initialFee","type":"uint256","internalType":"uint256"}],"outputs":[],"stateMutability":"nonpayable"},{"type":"function","name":"isAccessGranted","inputs":[{"name":"account","type":"address","internalType":"address"},{"name":"contentId","type":"uint256","internalType":"uint256"}],"outputs":[{"name":"","type":"bool","internalType":"bool"}],"stateMutability":"nonpayable"},{"type":"function","name":"isApprovedForAll","inputs":[{"name":"owner","type":"address","internalType":"address"},{"name":"operator","type":"address","internalType":"address"}],"outputs":[{"name":"","type":"bool","internalType":"bool"}],"stateMutability":"view"},{"type":"function","name":"isCurrencySupported","inputs":[{"name":"currency","type":"address","internalType":"address"}],"outputs":[{"name":"","type":"bool","internalType":"bool"}],"stateMutability":"view"},{"type":"function","name":"isEligibleForDistribution","inputs":[{"name":"contentId","type":"uint256","internalType":"uint256"}],"outputs":[{"name":"","type":"bool","internalType":"bool"}],"stateMutability":"nonpayable"},{"type":"function","name":"mint","inputs":[{"name":"to","type":"address","internalType":"address"},{"name":"contentId","type":"uint256","internalType":"uint256"}],"outputs":[],"stateMutability":"nonpayable"},{"type":"function","name":"name","inputs":[],"outputs":[{"name":"","type":"string","internalType":"string"}],"stateMutability":"view"},{"type":"function","name":"ownerOf","inputs":[{"name":"tokenId","type":"uint256","internalType":"uint256"}],"outputs":[{"name":"","type":"address","internalType":"address"}],"stateMutability":"view"},{"type":"function","name":"proxiableUUID","inputs":[],"outputs":[{"name":"","type":"bytes32","internalType":"bytes32"}],"stateMutability":"view"},{"type":"function","name":"renounceRole","inputs":[{"name":"role","type":"bytes32","internalType":"bytes32"},{"name":"callerConfirmation","type":"address","internalType":"address"}],"outputs":[],"stateMutability":"nonpayable"},{"type":"function","name":"revokeEmergencyAdmin","inputs":[{"name":"revokedAddress","type":"address","internalType":"address"}],"outputs":[],"stateMutability":"nonpayable"},{"type":"function","name":"revokeRights","inputs":[{"name":"validator","type":"address","internalType":"address"},{"name":"contentId","type":"uint256","internalType":"uint256"}],"outputs":[],"stateMutability":"nonpayable"},{"type":"function","name":"revokeRole","inputs":[{"name":"role","type":"bytes32","internalType":"bytes32"},{"name":"account","type":"address","internalType":"address"}],"outputs":[],"stateMutability":"nonpayable"},{"type":"function","name":"royaltyInfo","inputs":[{"name":"tokenId","type":"uint256","internalType":"uint256"},{"name":"salePrice","type":"uint256","internalType":"uint256"}],"outputs":[{"name":"","type":"address","internalType":"address"},{"name":"","type":"uint256","internalType":"uint256"}],"stateMutability":"view"},{"type":"function","name":"safeTransferFrom","inputs":[{"name":"from","type":"address","internalType":"address"},{"name":"to","type":"address","internalType":"address"},{"name":"tokenId","type":"uint256","internalType":"uint256"}],"outputs":[],"stateMutability":"nonpayable"},{"type":"function","name":"safeTransferFrom","inputs":[{"name":"from","type":"address","internalType":"address"},{"name":"to","type":"address","internalType":"address"},{"name":"tokenId","type":"uint256","internalType":"uint256"},{"name":"data","type":"bytes","internalType":"bytes"}],"outputs":[],"stateMutability":"nonpayable"},{"type":"function","name":"setApprovalForAll","inputs":[{"name":"operator","type":"address","internalType":"address"},{"name":"approved","type":"bool","internalType":"bool"}],"outputs":[],"stateMutability":"nonpayable"},{"type":"function","name":"setEmergencyAdmin","inputs":[{"name":"newEmergencyAdmin","type":"address","internalType":"address"}],"outputs":[],"stateMutability":"nonpayable"},{"type":"function","name":"setFees","inputs":[{"name":"newTreasuryFee","type":"uint256","internalType":"uint256"},{"name":"token","type":"address","internalType":"address"}],"outputs":[],"stateMutability":"nonpayable"},{"type":"function","name":"setFees","inputs":[{"name":"newTreasuryFee","type":"uint256","internalType":"uint256"}],"outputs":[],"stateMutability":"nonpayable"},{"type":"function","name":"setGovernance","inputs":[{"name":"newGovernance","type":"address","internalType":"address"}],"outputs":[],"stateMutability":"nonpayable"},{"type":"function","name":"setTreasuryAddress","inputs":[{"name":"newTreasuryAddress","type":"address","internalType":"address"}],"outputs":[],"stateMutability":"nonpayable"},{"type":"function","name":"supportedCurrencies","inputs":[],"outputs":[{"name":"","type":"address[]","internalType":"address[]"}],"stateMutability":"view"},{"type":"function","name":"supportsInterface","inputs":[{"name":"interfaceId","type":"bytes4","internalType":"bytes4"}],"outputs":[{"name":"","type":"bool","internalType":"bool"}],"stateMutability":"view"},{"type":"function","name":"symbol","inputs":[],"outputs":[{"name":"","type":"string","internalType":"string"}],"stateMutability":"view"},{"type":"function","name":"tokenByIndex","inputs":[{"name":"index","type":"uint256","internalType":"uint256"}],"outputs":[{"name":"","type":"uint256","internalType":"uint256"}],"stateMutability":"view"},{"type":"function","name":"tokenOfOwnerByIndex","inputs":[{"name":"owner","type":"address","internalType":"address"},{"name":"index","type":"uint256","internalType":"uint256"}],"outputs":[{"name":"","type":"uint256","internalType":"uint256"}],"stateMutability":"view"},{"type":"function","name":"tokenURI","inputs":[{"name":"tokenId","type":"uint256","internalType":"uint256"}],"outputs":[{"name":"","type":"string","internalType":"string"}],"stateMutability":"view"},{"type":"function","name":"totalSupply","inputs":[],"outputs":[{"name":"","type":"uint256","internalType":"uint256"}],"stateMutability":"view"},{"type":"function","name":"transferFrom","inputs":[{"name":"from","type":"address","internalType":"address"},{"name":"to","type":"address","internalType":"address"},{"name":"tokenId","type":"uint256","internalType":"uint256"}],"outputs":[],"stateMutability":"nonpayable"},{"type":"function","name":"upgradeToAndCall","inputs":[{"name":"newImplementation","type":"address","internalType":"address"},{"name":"data","type":"bytes","internalType":"bytes"}],"outputs":[],"stateMutability":"payable"},{"type":"function","name":"withdraw","inputs":[{"name":"recipient","type":"address","internalType":"address"},{"name":"amount","type":"uint256","internalType":"uint256"},{"name":"token","type":"address","internalType":"address"}],"outputs":[],"stateMutability":"nonpayable"},{"type":"event","name":"Approval","inputs":[{"name":"owner","type":"address","indexed":true,"internalType":"address"},{"name":"approved","type":"address","indexed":true,"internalType":"address"},{"name":"tokenId","type":"uint256","indexed":true,"internalType":"uint256"}],"anonymous":false},{"type":"event","name":"ApprovalForAll","inputs":[{"name":"owner","type":"address","indexed":true,"internalType":"address"},{"name":"operator","type":"address","indexed":true,"internalType":"address"},{"name":"approved","type":"bool","indexed":false,"internalType":"bool"}],"anonymous":false},{"type":"event","name":"FeesDisbursed","inputs":[{"name":"treasury","type":"address","indexed":true,"internalType":"address"},{"name":"amount","type":"uint256","indexed":false,"internalType":"uint256"},{"name":"token","type":"address","indexed":false,"internalType":"address"}],"anonymous":false},{"type":"event","name":"GrantedAccess","inputs":[{"name":"account","type":"address","indexed":false,"internalType":"address"},{"name":"contentId","type":"uint256","indexed":false,"internalType":"uint256"}],"anonymous":false},{"type":"event","name":"GrantedCustodial","inputs":[{"name":"prevCustody","type":"address","indexed":true,"internalType":"address"},{"name":"newCustody","type":"address","indexed":true,"internalType":"address"},{"name":"contentId","type":"uint256","indexed":false,"internalType":"uint256"}],"anonymous":false},{"type":"event","name":"Initialized","inputs":[{"name":"version","type":"uint64","indexed":false,"internalType":"uint64"}],"anonymous":false},{"type":"event","name":"RegisteredContent","inputs":[{"name":"contentId","type":"uint256","indexed":false,"internalType":"uint256"}],"anonymous":false},{"type":"event","name":"RightsDelegated","inputs":[{"name":"validator","type":"address","indexed":true,"internalType":"address"},{"name":"contentId","type":"uint256","indexed":false,"internalType":"uint256"}],"anonymous":false},{"type":"event","name":"RightsRevoked","inputs":[{"name":"validator","type":"address","indexed":true,"internalType":"address"},{"name":"contentId","type":"uint256","indexed":false,"internalType":"uint256"}],"anonymous":false},{"type":"event","name":"RoleAdminChanged","inputs":[{"name":"role","type":"bytes32","indexed":true,"internalType":"bytes32"},{"name":"previousAdminRole","type":"bytes32","indexed":true,"internalType":"bytes32"},{"name":"newAdminRole","type":"bytes32","indexed":true,"internalType":"bytes32"}],"anonymous":false},{"type":"event","name":"RoleGranted","inputs":[{"name":"role","type":"bytes32","indexed":true,"internalType":"bytes32"},{"name":"account","type":"address","indexed":true,"internalType":"address"},{"name":"sender","type":"address","indexed":true,"internalType":"address"}],"anonymous":false},{"type":"event","name":"RoleRevoked","inputs":[{"name":"role","type":"bytes32","indexed":true,"internalType":"bytes32"},{"name":"account","type":"address","indexed":true,"internalType":"address"},{"name":"sender","type":"address","indexed":true,"internalType":"address"}],"anonymous":false},{"type":"event","name":"Transfer","inputs":[{"name":"from","type":"address","indexed":true,"internalType":"address"},{"name":"to","type":"address","indexed":true,"internalType":"address"},{"name":"tokenId","type":"uint256","indexed":true,"internalType":"uint256"}],"anonymous":false},{"type":"event","name":"Upgraded","inputs":[{"name":"implementation","type":"address","indexed":true,"internalType":"address"}],"anonymous":false},{"type":"error","name":"AccessControlBadConfirmation","inputs":[]},{"type":"error","name":"AccessControlUnauthorizedAccount","inputs":[{"name":"account","type":"address","internalType":"address"},{"name":"neededRole","type":"bytes32","internalType":"bytes32"}]},{"type":"error","name":"AddressEmptyCode","inputs":[{"name":"target","type":"address","internalType":"address"}]},{"type":"error","name":"AddressInsufficientBalance","inputs":[{"name":"account","type":"address","internalType":"address"}]},{"type":"error","name":"ERC1967InvalidImplementation","inputs":[{"name":"implementation","type":"address","internalType":"address"}]},{"type":"error","name":"ERC1967NonPayable","inputs":[]},{"type":"error","name":"ERC2981InvalidDefaultRoyalty","inputs":[{"name":"numerator","type":"uint256","internalType":"uint256"},{"name":"denominator","type":"uint256","internalType":"uint256"}]},{"type":"error","name":"ERC2981InvalidDefaultRoyaltyReceiver","inputs":[{"name":"receiver","type":"address","internalType":"address"}]},{"type":"error","name":"ERC2981InvalidTokenRoyalty","inputs":[{"name":"tokenId","type":"uint256","internalType":"uint256"},{"name":"numerator","type":"uint256","internalType":"uint256"},{"name":"denominator","type":"uint256","internalType":"uint256"}]},{"type":"error","name":"ERC2981InvalidTokenRoyaltyReceiver","inputs":[{"name":"tokenId","type":"uint256","internalType":"uint256"},{"name":"receiver","type":"address","internalType":"address"}]},{"type":"error","name":"ERC721EnumerableForbiddenBatchMint","inputs":[]},{"type":"error","name":"ERC721IncorrectOwner","inputs":[{"name":"sender","type":"address","internalType":"address"},{"name":"tokenId","type":"uint256","internalType":"uint256"},{"name":"owner","type":"address","internalType":"address"}]},{"type":"error","name":"ERC721InsufficientApproval","inputs":[{"name":"operator","type":"address","internalType":"address"},{"name":"tokenId","type":"uint256","internalType":"uint256"}]},{"type":"error","name":"ERC721InvalidApprover","inputs":[{"name":"approver","type":"address","internalType":"address"}]},{"type":"error","name":"ERC721InvalidOperator","inputs":[{"name":"operator","type":"address","internalType":"address"}]},{"type":"error","name":"ERC721InvalidOwner","inputs":[{"name":"owner","type":"address","internalType":"address"}]},{"type":"error","name":"ERC721InvalidReceiver","inputs":[{"name":"receiver","type":"address","internalType":"address"}]},{"type":"error","name":"ERC721InvalidSender","inputs":[{"name":"sender","type":"address","internalType":"address"}]},{"type":"error","name":"ERC721NonexistentToken","inputs":[{"name":"tokenId","type":"uint256","internalType":"uint256"}]},{"type":"error","name":"ERC721OutOfBoundsIndex","inputs":[{"name":"owner","type":"address","internalType":"address"},{"name":"index","type":"uint256","internalType":"uint256"}]},{"type":"error","name":"FailDuringTransfer","inputs":[{"name":"reason","type":"string","internalType":"string"}]},{"type":"error","name":"FailedInnerCall","inputs":[]},{"type":"error","name":"InvalidBasisPointRange","inputs":[]},{"type":"error","name":"InvalidInactiveDistributor","inputs":[]},{"type":"error","name":"InvalidInitialization","inputs":[]},{"type":"error","name":"InvalidNominalRange","inputs":[]},{"type":"error","name":"InvalidNotAllowedContent","inputs":[]},{"type":"error","name":"InvalidNotApprovedContent","inputs":[]},{"type":"error","name":"InvalidNotRightsDelegated","inputs":[{"name":"grantee","type":"address","internalType":"address"},{"name":"contentId","type":"uint256","internalType":"uint256"}]},{"type":"error","name":"InvalidStrategyContract","inputs":[{"name":"strategy","type":"address","internalType":"address"}]},{"type":"error","name":"InvalidUnknownContent","inputs":[]},{"type":"error","name":"InvalidUnsupportedCurrency","inputs":[{"name":"currency","type":"address","internalType":"address"}]},{"type":"error","name":"InvalidUnsupportedToken","inputs":[{"name":"token","type":"address","internalType":"address"}]},{"type":"error","name":"NoDeal","inputs":[{"name":"reason","type":"string","internalType":"string"}]},{"type":"error","name":"NoFundsToWithdraw","inputs":[{"name":"","type":"address","internalType":"address"}]},{"type":"error","name":"NotInitializing","inputs":[]},{"type":"error","name":"ReentrancyGuardReentrantCall","inputs":[]},{"type":"error","name":"RestrictedAccessToHolder","inputs":[]},{"type":"error","name":"SafeERC20FailedOperation","inputs":[{"name":"token","type":"address","internalType":"address"}]},{"type":"error","name":"UUPSUnauthorizedCallContext","inputs":[]},{"type":"error","name":"UUPSUnsupportedProxiableUUID","inputs":[{"name":"slot","type":"bytes32","internalType":"bytes32"}]}],"bytecode":{"object":"0x60a08060405234620000d157306080527ff0c57e16840df040f15088dc2f81fe391c3923bec73e23a9662efc9c229c6a009081549060ff8260401c16620000c257506001600160401b036002600160401b0319828216016200007c575b60405161560b9081620000d7823960805181818161134001526115950152f35b6001600160401b031990911681179091556040519081527fc7f505b2f371ae2175ee4913f4499e1f2633a7b5936321eed1cdaeb6115181d290602090a13880806200005c565b63f92ee8a960e01b8152600490fd5b600080fdfe6080604052600436101561001b575b361561001957600080fd5b005b60003560e01c806301ffc9a71461034b57806306fdde0314610346578063081812fc14610341578063095ea7b31461033c57806311e09d321461033757806318160ddd146103325780631c61f62b1461032d57806323b872dd14610328578063248a9ca314610323578063289b3c0d1461031e5780632a55205a146103195780632c58824c146103145780632f2ff15d1461030f5780632f745c591461030a57806334534e2e1461030557806335da33941461030057806336568abe146102fb5780633d162cdc146102f65780633d18678e146102f157806340c10f19146102ec57806342842e0e146102e75780634c622006146102e25780634f1ef286146102dd5780634f6ccce7146102d857806352d1902d146102d35780636352211e146102ce5780636605bfda146102c957806369328dec146102c457806370a08231146102bf57806370dfaeca146102ba578063869eaf1a146102b55780638e5ae4b9146102b05780638f132f87146102ab57806391d14854146102a657806395d89b41146102a15780639af608c91461029c5780639df89256146102975780639fcfd40714610292578063a217fddf1461028d578063a22cb46514610288578063ab033ea914610283578063ad3cb1cc1461027e578063b88d4fde14610279578063bd77ac2c14610274578063c87b56dd1461026f578063cd6dc6871461026a578063d455dda914610265578063d547741f14610260578063e00246041461025b578063e985e9c5146102565763ed40f7220361000e57612945565b6128f3565b6128ad565b61284a565b61278c565b612595565b612542565b6123e9565b612392565b612334565b6122ad565b6121c3565b61219d565b61206d565b611c27565b611c00565b611b3a565b611ac4565b611a6b565b6119f2565b611865565b611808565b6117d9565b6116bb565b61163e565b61160f565b61157a565b6114ec565b6112fc565b61115d565b611135565b61104b565b610f8f565b610e9b565b610e38565b610e0a565b610de2565b610d1d565b610cba565b610bd4565b610b05565b610abf565b610a71565b610a5a565b610992565b610955565b61085e565b6106de565b61066f565b610569565b61037f565b7fffffffff0000000000000000000000000000000000000000000000000000000081160361037a57565b600080fd5b3461037a57602060031936011261037a576103ff7fffffffff000000000000000000000000000000000000000000000000000000006004356103c081610350565b167f2a55205a000000000000000000000000000000000000000000000000000000008114908115610403575b5060405190151581529081906020820190565b0390f35b7f780e9d6300000000000000000000000000000000000000000000000000000000811491508115610436575b50386103ec565b7f80ac58cd000000000000000000000000000000000000000000000000000000008114915081156104cd575b8115610470575b503861042f565b7f7965db0b000000000000000000000000000000000000000000000000000000008114915081156104a3575b5038610469565b7f01ffc9a7000000000000000000000000000000000000000000000000000000009150143861049c565b7f5b5e139f0000000000000000000000000000000000000000000000000000000081149150610462565b919082519283825260005b8481106105415750507fffffffffffffffffffffffffffffffffffffffffffffffffffffffffffffffe0601f8460006020809697860101520116010190565b602081830181015184830182015201610502565b9060206105669281815201906104f7565b90565b3461037a5760008060031936011261066c5760405190807f80bb2b638cc20bc4d0a60d66940f3ab4a00c1d7b313497ca82fb0b4ab007930080546105ac816129aa565b8086529260209260019280841690811561063c57506001146105e5575b6103ff876105d98189038261122f565b60405191829182610555565b815293507f37c58c799b6609234b945e882912ee9ad34948a1dfaa20a97485e1a7752bbf815b838510610629575050505081016020016105d9826103ff38806105c9565b805486860184015293820193810161060b565b90508796506103ff979450602093506105d995925060ff1991501682840152151560051b820101929338806105c9565b80fd5b3461037a57602060031936011261037a5760043561068c8161394a565b506000527f80bb2b638cc20bc4d0a60d66940f3ab4a00c1d7b313497ca82fb0b4ab007930460205260206001600160a01b0360406000205416604051908152f35b6001600160a01b0381160361037a57565b3461037a57604060031936011261037a576004356106fb816106cd565b602435906107088261394a565b3315158061084b575b806107e8575b6107b8578261001993610785926001600160a01b0380861691167f8c5be1e5ebec7d5bd14f71427d1e84f3dd0314c0f7b2291e5b200ac8c7c3b925600080a46000527f80bb2b638cc20bc4d0a60d66940f3ab4a00c1d7b313497ca82fb0b4ab0079304602052604060002090565b906001600160a01b03167fffffffffffffffffffffffff0000000000000000000000000000000000000000825416179055565b60246040517fa9fbf51f000000000000000000000000000000000000000000000000000000008152336004820152fd5b5060ff6108433361082b846001600160a01b03166000527f80bb2b638cc20bc4d0a60d66940f3ab4a00c1d7b313497ca82fb0b4ab0079305602052604060002090565b906001600160a01b0316600052602052604060002090565b541615610717565b50336001600160a01b0382161415610711565b3461037a5760208060031936011261037a5760009060043582527f9c5345ebbec2d6cecdb38d9956fa842e9d714f43866d36c54fbb441829f0b000815260408220604051838194908354906108b2826129aa565b94858552600192876001821691826000146109305750506001146108f4575b5050506108e09250038361122f565b6103ff6040519282849384528301906104f7565b869350819291528282205b8583106109185750506108e093508201013880806108d1565b805483890185015287945086939092019181016108ff565b92509450506108e095925060ff1991501682840152151560051b8201013880806108d1565b3461037a57600060031936011261037a5760207f645e039705490088daad89bae25049a34f4a9072d398537b1ab2425f24cbed0254604051908152f35b3461037a57604060031936011261037a576004357faacdfb17e73979730dd4f099403209fa37d2a4486c1bcddfad753c3fc6c430df6024356109d3816106cd565b6109dc336139bd565b6001600160a01b037fad118695963461d59b4e186bb251fe176897e2c57f3362e8dade6f9a4f8e7400541692610a13828286613b34565b604080519182526001600160a01b03929092166020820152a2005b600319606091011261037a57600435610a46816106cd565b90602435610a53816106cd565b9060443590565b3461037a57610019610a6b36610a2e565b916129fd565b3461037a57602060031936011261037a576004356000527f02dd7bc7dec4dceedda775e58dd541e08a116c6c53815c0bd028192f7b6268006020526020600160406000200154604051908152f35b3461037a57600060031936011261037a5760206001600160a01b037fbe22a97ce56bf984cece6021e328584abbd5b3cd394ccbe3b6884d525c48c4005416604051908152f35b3461037a57604060031936011261037a576004356000527fdaedc9ab023613a7caf35e703657e986ccfad7e3eb0af93a2853f8d65dd86b01602052604060002060405190610b52826111ba565b54906001600160a01b03908183169283825260a01c60208201529115610bc4575b610b9c610b946bffffffffffffffffffffffff602085015116602435612cb4565b612710900490565b9151166103ff60405192839283602090939291936001600160a01b0360408201951681520152565b9050610bce612c40565b90610b73565b3461037a5760008060031936011261066c5760405180917feef4c6e07c8c48aa12ec4689202072497f770ef14b71c2b38f8bc57ade760c01908154808452602080940190819383527ff7cca01d1363b6dac67dc0202bc6deff8b8b913c55e00992833183b066b61e2290835b818110610c9d5750505084610c5691038561122f565b60405193838594850191818652518092526040850193925b828110610c7d57505050500390f35b83516001600160a01b031685528695509381019392810192600101610c6e565b82546001600160a01b031684529286019260019283019201610c40565b3461037a57604060031936011261037a57610019602435600435610cdd826106cd565b806000527f02dd7bc7dec4dceedda775e58dd541e08a116c6c53815c0bd028192f7b626800602052610d186001604060002001543390613ae9565b613d7a565b3461037a57604060031936011261037a57600435610d3a816106cd565b60243590610d478161300d565b821015610d9a576001600160a01b03166000527f645e039705490088daad89bae25049a34f4a9072d398537b1ab2425f24cbed006020526040600020906000526020526020604060002054604051908152f35b6040517fa57d13dc0000000000000000000000000000000000000000000000000000000081526001600160a01b039190911660048201526024810191909152604490fd5b0390fd5b3461037a57602060031936011261037a576020610e00600435612cc7565b6040519015158152f35b3461037a57602060031936011261037a57610019600435610e2a816106cd565b610e33336139bd565b613bbc565b3461037a57604060031936011261037a57602435610e55816106cd565b336001600160a01b03821603610e715761001990600435613f67565b60046040517f6697b232000000000000000000000000000000000000000000000000000000008152fd5b3461037a57604060031936011261037a57600435602435610ebb816106cd565b610ec4336139bd565b600182108015610f84575b610f5a57610019916001600160a01b0382166000527f87da7b105ee6d8640c69f620aa1ac0a4cea27ca8bc07f4213d3776b156a65a00602052604060002055610f4a816001600160a01b03166000527f87da7b105ee6d8640c69f620aa1ac0a4cea27ca8bc07f4213d3776b156a65a01602052604060002090565b600160ff198254161790556140bb565b60046040517f07c0803f000000000000000000000000000000000000000000000000000000008152fd5b506127108211610ecf565b3461037a57602060031936011261037a57600435610fac336139bd565b600181108015611040575b610f5a5760008080527fdbbcd40c0f349adfa39fc864f544e00dd2cfe8e80bd0e6edcd3f2b026dad531d919091557f87da7b105ee6d8640c69f620aa1ac0a4cea27ca8bc07f4213d3776b156a65a016020527f916459e1bd58192a19bc20bcfacf109074ce2fa449617b52fa523929b0ed8587805460ff1916600117905561103d61401d565b80f35b506127108111610fb7565b3461037a57604060031936011261037a57600435611068816106cd565b6001546040517f2a16cca40000000000000000000000000000000000000000000000000000000081526001600160a01b038381166004830152602480359083018190529260209183916044918391165afa90811561113057600091611101575b50156110d75761001991612d1a565b60046040517f50747ffb000000000000000000000000000000000000000000000000000000008152fd5b611123915060203d602011611129575b61111b818361122f565b810190613dc7565b386110c8565b503d611111565b613238565b3461037a5761001961114636610a2e565b9060405192611154846111db565b60008452613282565b3461037a57602060031936011261037a5761001960043561117d816106cd565b611186336139bd565b613ea2565b7f4e487b7100000000000000000000000000000000000000000000000000000000600052604160045260246000fd5b6040810190811067ffffffffffffffff8211176111d657604052565b61118b565b6020810190811067ffffffffffffffff8211176111d657604052565b6060810190811067ffffffffffffffff8211176111d657604052565b60a0810190811067ffffffffffffffff8211176111d657604052565b90601f7fffffffffffffffffffffffffffffffffffffffffffffffffffffffffffffffe0910116810190811067ffffffffffffffff8211176111d657604052565b67ffffffffffffffff81116111d657601f017fffffffffffffffffffffffffffffffffffffffffffffffffffffffffffffffe01660200190565b9291926112b682611270565b916112c4604051938461122f565b82948184528183011161037a578281602093846000960137010152565b9080601f8301121561037a57816020610566933591016112aa565b604060031936011261037a576004803590611316826106cd565b60243567ffffffffffffffff811161037a5761133590369083016112e1565b6001600160a01b03807f0000000000000000000000000000000000000000000000000000000000000000168030149081156114be575b5061149557906020839261137e33613a65565b604051938480927f52d1902d00000000000000000000000000000000000000000000000000000000825288165afa60009281611464575b506113fc5750506040517f4c9c8ce30000000000000000000000000000000000000000000000000000000081526001600160a01b0390921690820190815281906020010390fd5b83837f360894a13ba1a3210667c828492db98dca3e2076cc3735a920a3ca505d382bbc840361142f576100198383614cfb565b6040517faa1d49a400000000000000000000000000000000000000000000000000000000815290810184815281906020010390fd5b61148791935060203d60201161148e575b61147f818361122f565b810190613244565b91386113b5565b503d611475565b826040517fe07c8dba000000000000000000000000000000000000000000000000000000008152fd5b9050817f360894a13ba1a3210667c828492db98dca3e2076cc3735a920a3ca505d382bbc541614153861136b565b3461037a57602060031936011261037a576004357f645e039705490088daad89bae25049a34f4a9072d398537b1ab2425f24cbed025481101561154257611534602091612f5e565b90546040519160031b1c8152f35b604490604051907fa57d13dc000000000000000000000000000000000000000000000000000000008252600060048301526024820152fd5b3461037a57600060031936011261037a576001600160a01b037f00000000000000000000000000000000000000000000000000000000000000001630036115e55760206040517f360894a13ba1a3210667c828492db98dca3e2076cc3735a920a3ca505d382bbc8152f35b60046040517fe07c8dba000000000000000000000000000000000000000000000000000000008152fd5b3461037a57602060031936011261037a57602061162d60043561394a565b6001600160a01b0360405191168152f35b3461037a57602060031936011261037a5760043561165b816106cd565b611664336139bd565b6001600160a01b037fad118695963461d59b4e186bb251fe176897e2c57f3362e8dade6f9a4f8e740091167fffffffffffffffffffffffff0000000000000000000000000000000000000000825416179055600080f35b3461037a57606060031936011261037a576004356116d8816106cd565b6024356044356116e7816106cd565b816117288261082b866001600160a01b03166000527fcb711bda070b7bbcc2b711ef3993cc17677144f4419b29e303bef375c5f40f00602052604060002090565b541061179f576001600160a01b0383611746838561178b9697613b34565b166000527fcb711bda070b7bbcc2b711ef3993cc17677144f4419b29e303bef375c5f40f006020526040600020906001600160a01b0316600052602052604060002090565b805491820391821161179a5755005b612c85565b6024836001600160a01b03604051917faee94862000000000000000000000000000000000000000000000000000000008352166004820152fd5b3461037a57602060031936011261037a5760206118006004356117fb816106cd565b61300d565b604051908152f35b3461037a57602060031936011261037a576020610e0060043561182a816106cd565b6001600160a01b03166000527feef4c6e07c8c48aa12ec4689202072497f770ef14b71c2b38f8bc57ade760c00602052604060002054151590565b3461037a5760408060031936011261037a57600435611883816106cd565b602435906118908261394a565b6001600160a01b03919082163314158061197f575b611956576118b281614190565b15611925577f9d188cfd59839167d8653e8be45a3efe525ecdef295c180f649b7b96109fd8459160209116926000948486527f8de86c03e9c907c4cfd46ee06d6593a7fc5fdfb6903523c8213ef37d380b3b0083528086208287528352808620600160ff1982541617905551908152a280f35b6024918451917fbd555576000000000000000000000000000000000000000000000000000000008352166004820152fd5b600484517fff90016f000000000000000000000000000000000000000000000000000000008152fd5b507f9634689da3e320d3851bdfd82b5581ce1042c9b202afe8c26d4e6d92dfaf0cde6000527f02dd7bc7dec4dceedda775e58dd541e08a116c6c53815c0bd028192f7b62680060205260ff6119ea3386600020906001600160a01b0316600052602052604060002090565b5416156118a5565b3461037a57602060031936011261037a576004356000527f19de352aacf5eb23e556c4ae8a1f47118f3051b029159b7e1b8f4f1672aaf60060205260206001600160a01b0360406000205416604051908152f35b600319604091011261037a57600435611a5e816106cd565b90602435610566816106cd565b3461037a576020611abb61082b611a8136611a46565b91906001600160a01b03166000527fcb711bda070b7bbcc2b711ef3993cc17677144f4419b29e303bef375c5f40f00602052604060002090565b54604051908152f35b3461037a57604060031936011261037a57602060ff611b2e602435611ae8816106cd565b6004356000527f02dd7bc7dec4dceedda775e58dd541e08a116c6c53815c0bd028192f7b62680084526040600020906001600160a01b0316600052602052604060002090565b54166040519015158152f35b3461037a5760008060031936011261066c5760405190807f80bb2b638cc20bc4d0a60d66940f3ab4a00c1d7b313497ca82fb0b4ab00793018054611b7d816129aa565b8086529260209260019280841690811561063c5750600114611ba9576103ff876105d98189038261122f565b815293507ff4bad0a69248f59680a4f2b3000328cec71a413447c96781cfe5996daa8c456e5b838510611bed575050505081016020016105d9826103ff38806105c9565b8054868601840152938201938101611bcf565b3461037a57602060031936011261037a576020611800600435611c22816106cd565b61308d565b60408060031936011261037a5760048035611c41816106cd565b60243590611c4d61429d565b6001600160a01b0380611c5f8461394a565b1615612045576000943386526020947f8de86c03e9c907c4cfd46ee06d6593a7fc5fdfb6903523c8213ef37d380b3b008652818720858852865260ff82882054161561200857611cb5611cb186612cc7565b1590565b611fe157611d0b611cff611cf2876000527f19de352aacf5eb23e556c4ae8a1f47118f3051b029159b7e1b8f4f1672aaf600602052604060002090565b546001600160a01b031690565b6001600160a01b031690565b8251907f7be7e96e000000000000000000000000000000000000000000000000000000008252888280611d578a8a888401602090939291936001600160a01b0360408201951681520152565b038183335af1918215611130578992611fbd575b50815191611d8f611d878a85015194516001600160a01b031690565b8094336142f7565b95611da2611d9c8561308d565b88614455565b86517fd4ceb4180000000000000000000000000000000000000000000000000000000081528681018981526001600160a01b03871660208201529290941697918b908590819060400103818b5afa938415611130578c94611f9a575b5083611e0991613253565b90808211611f34578a611e21611e2a94938793613260565b92015191614494565b9488611e358961394a565b918651958680927fd50095840000000000000000000000000000000000000000000000000000000082525afa80156111305783611ed597611eaa967f62a9dca5d6f332c00e3e4b20fc5cd48c6d048189908a57d766d85c2583e55f269c8e94611f01575b5050611ea5929361465b565b61465b565b611eb53385856146bd565b5192839283602090939291936001600160a01b0360408201951681520152565b0390a161103d60017f9b779b17422d0df92223018b32b4d1fa46e071723d6817e2486d003becc55f0055565b611ea594509081611f2692903d10611f2d575b611f1e818361122f565b81019061326d565b9238611e99565b503d611f14565b610dde8688519182917fa1cc3d71000000000000000000000000000000000000000000000000000000008352820160609060208152601660208201527f54686520666565732061726520746f6f20686967682e0000000000000000000060408201520190565b611e09919450611fb6908c8d3d1061148e5761147f818361122f565b9390611dfe565b611fda9192503d808b833e611fd2818361122f565b810190613176565b9038611d6b565b90517f3696b62e000000000000000000000000000000000000000000000000000000008152fd5b90517fea7042e200000000000000000000000000000000000000000000000000000000815233918101918252602082018590529081906040010390fd5b8385517f6dfc3d19000000000000000000000000000000000000000000000000000000008152fd5b3461037a5760408060031936011261037a5760043561208b816106cd565b602435906120988261394a565b6001600160a01b03919082163314158061212a575b611956576120ba81614190565b15611925577f34c4ad1d6d10f859d122bac2f306e4d822d31b35673227d46fce27ec0e9690979160209116926000948486527f8de86c03e9c907c4cfd46ee06d6593a7fc5fdfb6903523c8213ef37d380b3b008352808620828752835280862060ff19815416905551908152a280f35b507f9634689da3e320d3851bdfd82b5581ce1042c9b202afe8c26d4e6d92dfaf0cde6000527f02dd7bc7dec4dceedda775e58dd541e08a116c6c53815c0bd028192f7b62680060205260ff6121953386600020906001600160a01b0316600052602052604060002090565b5416156120ad565b3461037a57600060031936011261037a57602060405160008152f35b8015150361037a57565b3461037a57604060031936011261037a576004356121e0816106cd565b6024356121ec816121b9565b6001600160a01b03821691821561227c5761223d9061082b336001600160a01b03166000527f80bb2b638cc20bc4d0a60d66940f3ab4a00c1d7b313497ca82fb0b4ab0079305602052604060002090565b9015159060ff1981541660ff83161790556040519081527f17307eab39ab6107e8899845ad3d59bd9653f200f220920489ca2b5937696c3160203392a3005b602483604051907f5b08ba180000000000000000000000000000000000000000000000000000000082526004820152fd5b3461037a57602060031936011261037a576004356122ca816106cd565b6122d333613a65565b6122dc81613c89565b506001600160a01b037fbe22a97ce56bf984cece6021e328584abbd5b3cd394ccbe3b6884d525c48c40091167fffffffffffffffffffffffff0000000000000000000000000000000000000000825416179055600080f35b3461037a57600060031936011261037a576103ff604051612354816111ba565b600581527f352e302e3000000000000000000000000000000000000000000000000000000060208201526040519182916020835260208301906104f7565b3461037a57608060031936011261037a576004356123af816106cd565b6024356123bb816106cd565b6064359167ffffffffffffffff831161037a576123df6100199336906004016112e1565b9160443591613282565b3461037a57602060031936011261037a57600435612406336139bd565b6001600160a01b037fad118695963461d59b4e186bb251fe176897e2c57f3362e8dade6f9a4f8e740054168147106124e3576000918280808084865af161244b61474e565b50156124855760408051918252600060208301527faacdfb17e73979730dd4f099403209fa37d2a4486c1bcddfad753c3fc6c430df91a280f35b60646040517f9cf1483d00000000000000000000000000000000000000000000000000000000815260206004820152600f60248201527f5472616e73666572206661696c656400000000000000000000000000000000006044820152fd5b6040517f9cf1483d00000000000000000000000000000000000000000000000000000000815260206004820152601560248201527f496e73756666696369656e742062616c616e63652e00000000000000000000006044820152606490fd5b3461037a57602060031936011261037a5761255e60043561394a565b50600060405161256d816111db565b526103ff60405161257d816111db565b600081526040519182916020835260208301906104f7565b3461037a57604060031936011261037a576004356125b2816106cd565b7ff0c57e16840df040f15088dc2f81fe391c3923bec73e23a9662efc9c229c6a00549067ffffffffffffffff60ff8360401c1615921680159081612784575b600114908161277a575b159081612771575b506127475761266a908261265c7ff0c57e16840df040f15088dc2f81fe391c3923bec73e23a9662efc9c229c6a0060017fffffffffffffffffffffffffffffffffffffffffffffffff0000000000000000825416179055565b6126eb575b602435906133eb565b61267057005b6126bc7ff0c57e16840df040f15088dc2f81fe391c3923bec73e23a9662efc9c229c6a007fffffffffffffffffffffffffffffffffffffffffffffff00ffffffffffffffff8154169055565b604051600181527fc7f505b2f371ae2175ee4913f4499e1f2633a7b5936321eed1cdaeb6115181d290602090a1005b6127427ff0c57e16840df040f15088dc2f81fe391c3923bec73e23a9662efc9c229c6a00680100000000000000007fffffffffffffffffffffffffffffffffffffffffffffff00ffffffffffffffff825416179055565b612661565b60046040517ff92ee8a9000000000000000000000000000000000000000000000000000000008152fd5b90501538612603565b303b1591506125fb565b8391506125f1565b3461037a57604060031936011261037a576004356127a9816106cd565b602435906127b561429d565b6001600160a01b036127c68361394a565b161561282057816127d8602093613e4e565b918261280f575b505060017f9b779b17422d0df92223018b32b4d1fa46e071723d6817e2486d003becc55f00556040519015158152f35b6128199250614a20565b38806127df565b60046040517f6dfc3d19000000000000000000000000000000000000000000000000000000008152fd5b3461037a57604060031936011261037a5761001960243560043561286d826106cd565b806000527f02dd7bc7dec4dceedda775e58dd541e08a116c6c53815c0bd028192f7b6268006020526128a86001604060002001543390613ae9565b613f67565b3461037a57600060031936011261037a5760206001600160a01b037fad118695963461d59b4e186bb251fe176897e2c57f3362e8dade6f9a4f8e74005416604051908152f35b3461037a57602060ff611b2e61082b61290b36611a46565b91906001600160a01b03166000527f80bb2b638cc20bc4d0a60d66940f3ab4a00c1d7b313497ca82fb0b4ab0079305602052604060002090565b3461037a57606060031936011261037a57602435612962816106cd565b6044359067ffffffffffffffff9081831161037a573660238401121561037a57826004013591821161037a57366024838501011161037a576024610019930190600435613653565b90600182811c921680156129f3575b60208310146129c457565b7f4e487b7100000000000000000000000000000000000000000000000000000000600052602260045260246000fd5b91607f16916129b9565b6001600160a01b0390818316928315612c0f5784612a47611cf2826000527f80bb2b638cc20bc4d0a60d66940f3ab4a00c1d7b313497ca82fb0b4ab0079302602052604060002090565b9433612bff575b8486169586158015612b8f575b612a97856001600160a01b03166000527f80bb2b638cc20bc4d0a60d66940f3ab4a00c1d7b313497ca82fb0b4ab0079303602052604060002090565b60018154019055612ad585610785866000527f80bb2b638cc20bc4d0a60d66940f3ab4a00c1d7b313497ca82fb0b4ab0079302602052604060002090565b8383897fddf252ad1be2c89b69c2b068fc378daa952ba7f163c4a11628f55a4df523b3ef600080a415612b6f5750612b0c8261529d565b8503612b5f575b50501691828203612b2357505050565b60649350604051927f64283d7b000000000000000000000000000000000000000000000000000000008452600484015260248301526044820152fd5b612b6891615344565b3884612b13565b82828803612b7f575b5050612b0c565b612b8891615168565b3882612b78565b612b9884614c23565b612bd4826001600160a01b03166000527f80bb2b638cc20bc4d0a60d66940f3ab4a00c1d7b313497ca82fb0b4ab0079303602052604060002090565b7fffffffffffffffffffffffffffffffffffffffffffffffffffffffffffffffff8154019055612a5b565b612c0a823388615404565b612a4e565b60246040517f64a0ae9200000000000000000000000000000000000000000000000000000000815260006004820152fd5b60405190612c4d826111ba565b7fdaedc9ab023613a7caf35e703657e986ccfad7e3eb0af93a2853f8d65dd86b00546001600160a01b038116835260a01c6020830152565b7f4e487b7100000000000000000000000000000000000000000000000000000000600052601160045260246000fd5b8181029291811591840414171561179a57565b806000527f19de352aacf5eb23e556c4ae8a1f47118f3051b029159b7e1b8f4f1672aaf600602052612d066001600160a01b0360406000205416613ddc565b9081612d10575090565b6105669150613e4e565b6001600160a01b03908181168015612c0f578390612d64611cf2836000527f80bb2b638cc20bc4d0a60d66940f3ab4a00c1d7b313497ca82fb0b4ab0079302602052604060002090565b93841680159485159586612ebf575b612daf866001600160a01b03166000527f80bb2b638cc20bc4d0a60d66940f3ab4a00c1d7b313497ca82fb0b4ab0079303602052604060002090565b60018154019055612ded86610785876000527f80bb2b638cc20bc4d0a60d66940f3ab4a00c1d7b313497ca82fb0b4ab0079302602052604060002090565b8484847fddf252ad1be2c89b69c2b068fc378daa952ba7f163c4a11628f55a4df523b3ef600080a415612e9f5750612e248361529d565b03612e8f575b5050612e5e576040519081527fd276c29a2806f51d468256182f58ee92e85a773c869cde8e86c79e2c44b5ef4d90602090a1565b60246040517f73c6ac6e00000000000000000000000000000000000000000000000000000000815260006004820152fd5b612e9891615344565b3882612e2a565b83838303612eaf575b5050612e24565b612eb891615168565b3883612ea8565b612ec885614c23565b612f04826001600160a01b03166000527f80bb2b638cc20bc4d0a60d66940f3ab4a00c1d7b313497ca82fb0b4ab0079303602052604060002090565b7fffffffffffffffffffffffffffffffffffffffffffffffffffffffffffffffff8154019055612d73565b7f4e487b7100000000000000000000000000000000000000000000000000000000600052603260045260246000fd5b7f645e039705490088daad89bae25049a34f4a9072d398537b1ab2425f24cbed028054821015612fb3576000527fa42f15e5d656f8155fd7419d740a6073999f19cd6e061449ce4a257150545bf20190600090565b612f2f565b7feef4c6e07c8c48aa12ec4689202072497f770ef14b71c2b38f8bc57ade760c018054821015612fb3576000527ff7cca01d1363b6dac67dc0202bc6deff8b8b913c55e00992833183b066b61e220190600090565b6001600160a01b0381161561305c57613058906001600160a01b03166000527f80bb2b638cc20bc4d0a60d66940f3ab4a00c1d7b313497ca82fb0b4ab0079303602052604060002090565b5490565b60246040517f89c62b6400000000000000000000000000000000000000000000000000000000815260006004820152fd5b60ff6130cb826001600160a01b03166000527f87da7b105ee6d8640c69f620aa1ac0a4cea27ca8bc07f4213d3776b156a65a01602052604060002090565b54161561310b576001600160a01b03166000527f87da7b105ee6d8640c69f620aa1ac0a4cea27ca8bc07f4213d3776b156a65a0060205260406000205490565b6024906001600160a01b03604051917ffd0f4c13000000000000000000000000000000000000000000000000000000008352166004820152fd5b919082604091031261037a5760405161315d816111ba565b6020808294805161316d816106cd565b84520151910152565b906020808383031261037a57825167ffffffffffffffff9384821161037a57019260608484031261037a57604090604051946131b1866111ba565b6131bb8582613145565b865260408101519082821161037a57019084601f8301121561037a5781519081116111d657604051946131f3858360051b018761122f565b818652848087019260061b8401019281841161037a578501915b858484106132215750505050505082015290565b859161322d8486613145565b81520192019161320d565b6040513d6000823e3d90fd5b9081602091031261037a575190565b9190820180921161179a57565b9190820391821161179a57565b9081602091031261037a5751610566816106cd565b919290926132918185856129fd565b833b61329e575b50505050565b6132dc9160209160405193849283927f150b7a020000000000000000000000000000000000000000000000000000000097888552336004860161471f565b038160006001600160a01b0388165af1600091816133ba575b5061334d578261330361474e565b8051919082613346576040517f64a0ae920000000000000000000000000000000000000000000000000000000081526001600160a01b0383166004820152602490fd5b9050602001fd5b7fffffffff00000000000000000000000000000000000000000000000000000000160361337e575038808080613298565b6040517f64a0ae920000000000000000000000000000000000000000000000000000000081526001600160a01b03919091166004820152602490fd5b6133dd91925060203d6020116133e4575b6133d5818361122f565b81019061470a565b90386132f5565b503d6133cb565b6001821080156135d6575b610f5a576001600160a01b039061340b614f91565b61341361477e565b61342c61341e6135e1565b61342661361a565b90614796565b613434614f91565b61343c614f91565b613444614f91565b61344d33613bbc565b5016604051917fde981f1b0000000000000000000000000000000000000000000000000000000080845260209384818061348f60048201906001602083019252565b0381875afa8015611130576134db916000916135b9575b506001600160a01b03167fffffffffffffffffffffffff00000000000000000000000000000000000000006000541617600055565b60405181815260036004820152908482602481875afa91821561113057859261353b9160009161359c575b506001600160a01b03167fffffffffffffffffffffffff00000000000000000000000000000000000000006001541617600155565b6040519081526002600482015292839060249082905afa9182156111305761357593600093613577575b505061357090614934565b6149bc565b565b613570929350908161359492903d10611f2d57611f1e818361122f565b919038613565565b6135b39150843d8611611f2d57611f1e818361122f565b38613506565b6135d09150863d8811611f2d57611f1e818361122f565b386134a6565b5061271082116133f6565b604051906135ee826111ba565b600782527f57617463686974000000000000000000000000000000000000000000000000006020830152565b60405190613627826111ba565b600382527f574f5400000000000000000000000000000000000000000000000000000000006020830152565b92919061365f81613ddc565b15613920576001600160a01b0390816136778661394a565b1615612820576136868561394a565b8216331415806138e7575b6138bd5760009285845261370d6020917f19de352aacf5eb23e556c4ae8a1f47118f3051b029159b7e1b8f4f1672aaf600602052604086209661370685878a541699906001600160a01b03167fffffffffffffffffffffffff0000000000000000000000000000000000000000825416179055565b36916112aa565b8685527f9c5345ebbec2d6cecdb38d9956fa842e9d714f43866d36c54fbb441829f0b000602052604085209181519167ffffffffffffffff83116111d65761375f8361375986546129aa565b86614be9565b602091601f84116001146137eb57509180916137cf937ffddf17b07be2a1ede5b3a12c5d2f11d88d0ed0e7aacbdd0e34cf0634d93883b498926137e0575b50507fffffffffffffffffffffffffffffffffffffffffffffffffffffffffffffffff8260011b9260031b1c19161790565b90555b6040519485521692602090a3565b01519050388061379d565b7fffffffffffffffffffffffffffffffffffffffffffffffffffffffffffffffe0849596979894169061382387600052602060002090565b94905b8282106138a55750509160019391857ffddf17b07be2a1ede5b3a12c5d2f11d88d0ed0e7aacbdd0e34cf0634d93883b499989796941061386e575b505050811b0190556137d2565b01517fffffffffffffffffffffffffffffffffffffffffffffffffffffffffffffffff60f88460031b161c19169055388080613861565b80600186978294978701518155019601940190613826565b60046040517fff90016f000000000000000000000000000000000000000000000000000000008152fd5b503360009081527f81c645c586cc97ef24bf664ec63b1c7f011ac6f124e394ab927688afa337c430602052604090205460ff1615613691565b60046040517ffe2a0dd1000000000000000000000000000000000000000000000000000000008152fd5b806000527f80bb2b638cc20bc4d0a60d66940f3ab4a00c1d7b313497ca82fb0b4ab00793026020526001600160a01b036040600020541690811561398c575090565b602490604051907f7e2732890000000000000000000000000000000000000000000000000000000082526004820152fd5b6001600160a01b03811660009081527ff2e0a8360026a616a5c33ed370a5497cc3baf8a817a474a098d5f8687be72a0f602052604090207ff018c6c8c8da18060a4e6807987a0a03fba6c9fba4a5c9531151020efe3268149060ff905b541615613a25575050565b604492506001600160a01b03604051927fe2517d3f0000000000000000000000000000000000000000000000000000000084521660048301526024820152fd5b6001600160a01b03811660009081527fb7db2dd08fcb62d0c9e08c51941cae53c267786a0b75803fb7960902fc8ef97d602052604090205460ff1615613aa85750565b6044906001600160a01b03604051917fe2517d3f00000000000000000000000000000000000000000000000000000000835216600482015260006024820152fd5b806000527f02dd7bc7dec4dceedda775e58dd541e08a116c6c53815c0bd028192f7b62680060205260ff613a1a836040600020906001600160a01b0316600052602052604060002090565b9080613b408430614c7e565b106124e3576040517fa9059cbb0000000000000000000000000000000000000000000000000000000081526001600160a01b03928316600482015260248101919091529160209183916044918391600091165af1801561113057613ba15750565b613bb99060203d6020116111295761111b818361122f565b50565b6001600160a01b03811660009081527fb7db2dd08fcb62d0c9e08c51941cae53c267786a0b75803fb7960902fc8ef97d60205260408120547f02dd7bc7dec4dceedda775e58dd541e08a116c6c53815c0bd028192f7b6268009060ff16613c8357818052602052613c438260408320906001600160a01b0316600052602052604060002090565b600160ff198254161790556001600160a01b03339216907f2f8788117e7eff1d82e926ec794901d17c78024a50270940304540a733656f0d8180a4600190565b50905090565b6001600160a01b03811660009081527ff2e0a8360026a616a5c33ed370a5497cc3baf8a817a474a098d5f8687be72a0f602052604081207ff018c6c8c8da18060a4e6807987a0a03fba6c9fba4a5c9531151020efe326814907f02dd7bc7dec4dceedda775e58dd541e08a116c6c53815c0bd028192f7b6268009060ff905b5416613d7357818352602052613d348360408420906001600160a01b0316600052602052604060002090565b600160ff198254161790557f2f8788117e7eff1d82e926ec794901d17c78024a50270940304540a733656f0d6001600160a01b033394169280a4600190565b5050905090565b6000908082527f02dd7bc7dec4dceedda775e58dd541e08a116c6c53815c0bd028192f7b6268008060205260ff613d088560408620906001600160a01b0316600052602052604060002090565b9081602091031261037a5751610566816121b9565b60206001600160a01b036024816000541693600060405195869485937f9f8a13d70000000000000000000000000000000000000000000000000000000085521660048401525af190811561113057600091613e35575090565b610566915060203d6020116111295761111b818361122f565b60206001600160a01b0360015416916024604051809481937f82afd23b00000000000000000000000000000000000000000000000000000000835260048301525afa90811561113057600091613e35575090565b6001600160a01b03811660009081527fb7db2dd08fcb62d0c9e08c51941cae53c267786a0b75803fb7960902fc8ef97d60205260408120547f02dd7bc7dec4dceedda775e58dd541e08a116c6c53815c0bd028192f7b6268009060ff1615613c8357818052602052613f2a8260408320906001600160a01b0316600052602052604060002090565b60ff1981541690556001600160a01b03339216907ff6391f5c32d9c69d2a47ea670b442974b53935d1edc7fd64eb21e047a839171b8180a4600190565b6000908082527f02dd7bc7dec4dceedda775e58dd541e08a116c6c53815c0bd028192f7b6268008060205260ff613fb48560408620906001600160a01b0316600052602052604060002090565b541615613d7357818352602052613fe18360408420906001600160a01b0316600052602052604060002090565b60ff1981541690557ff6391f5c32d9c69d2a47ea670b442974b53935d1edc7fd64eb21e047a839171b6001600160a01b033394169280a4600190565b60008080527feef4c6e07c8c48aa12ec4689202072497f770ef14b71c2b38f8bc57ade760c00908160205260408120546140b7577feef4c6e07c8c48aa12ec4689202072497f770ef14b71c2b38f8bc57ade760c0190815491680100000000000000008310156111d657614098836001604095018355612fb8565b6001600160a01b0382549160031b1b1916905554928180526020522055565b5050565b6140fa816001600160a01b03166000527feef4c6e07c8c48aa12ec4689202072497f770ef14b71c2b38f8bc57ade760c00602052604060002054151590565b613bb9577feef4c6e07c8c48aa12ec4689202072497f770ef14b71c2b38f8bc57ade760c018054680100000000000000008110156111d65780600161414192018355612fb8565b926001600160a01b038091169382549060031b9185831b921b191617905554906000527feef4c6e07c8c48aa12ec4689202072497f770ef14b71c2b38f8bc57ade760c00602052604060002055565b6040519060208083018160007f01ffc9a70000000000000000000000000000000000000000000000000000000095868452866024820152602481526141d4816111f7565b51617530938685fa933d6000519086614292575b5085614288575b508461420c575b50505081614202575090565b6105669150614df8565b8394509060009183946040518581019283527fffffffff00000000000000000000000000000000000000000000000000000000602482015260248152614251816111f7565b5192fa60005190913d8361427d575b505081614273575b5015903880806141f6565b9050151538614268565b101591503880614260565b15159450386141ef565b8411159550386141e8565b7f9b779b17422d0df92223018b32b4d1fa46e071723d6817e2486d003becc55f0060028154146142cd5760029055565b60046040517f3ee5aeb5000000000000000000000000000000000000000000000000000000008152fd5b9190916001600160a01b038092169182156143ea57604051907fdd62ed3e00000000000000000000000000000000000000000000000000000000825282166004820152306024820152602081604481865afa908115611130576000916143cb575b50831161436c576105669183913091614e87565b6040517f9cf1483d00000000000000000000000000000000000000000000000000000000815260206004820152601260248201527f496e76616c696420616c6c6f77616e63652e00000000000000000000000000006044820152606490fd5b6143e4915060203d60201161148e5761147f818361122f565b38614358565b5050503481116143f75790565b60646040517f9cf1483d00000000000000000000000000000000000000000000000000000000815260206004820152601f60248201527f496e76616c6964207472616e73616374696f6e20616d6f756e742073656e74006044820152fd5b9081158015614478575b614474576144709061271092612cb4565b0490565b5090565b50801561445f565b8051821015612fb35760209160051b010190565b91909181518015614654576064106145cf576000929183805b825160ff9182841691821015614532576144e76144d960206144cf8589614480565b5101519387614480565b51516001600160a01b031690565b90821561452657916145136145199260019461450e8b614507868d614f6d565b809461465b565b613253565b98613253565b920116935b9390946144ad565b9793969250505061451e565b955050505050916127101061454a5761056691613260565b6040517fa1cc3d7100000000000000000000000000000000000000000000000000000000815260206004820152602760248201527f496e76616c69642073706c6974206261736520706f696e74732064697374726960448201527f627574696f6e2e000000000000000000000000000000000000000000000000006064820152608490fd5b6040517fa1cc3d7100000000000000000000000000000000000000000000000000000000815260206004820152602d60248201527f496e76616c696420616c6c6f636174696f6e732e2043616e6e6f74206265206d60448201527f6f7265207468616e203130302e000000000000000000000000000000000000006064820152608490fd5b5091505090565b916001600160a01b036146ae9293166000527fcb711bda070b7bbcc2b711ef3993cc17677144f4419b29e303bef375c5f40f006020526040600020906001600160a01b0316600052602052604060002090565b805491820180921161179a5755565b6107859061357593926000527fcd95b85482a9213e30949ccc9c44037e29b901ca879098f5c64dd501b45d92006020526040600020906001600160a01b0316600052602052604060002090565b9081602091031261037a575161056681610350565b909261056694936080936001600160a01b038092168452166020830152604082015281606082015201906104f7565b3d15614779573d9061475f82611270565b9161476d604051938461122f565b82523d6000602084013e565b606090565b614786614f91565b61478e614f91565b613575614f91565b91906147a0614f91565b6147a8614f91565b825167ffffffffffffffff81116111d6577f80bb2b638cc20bc4d0a60d66940f3ab4a00c1d7b313497ca82fb0b4ab0079300906147ee816147e984546129aa565b614af4565b602080601f8311600114614848575090806148419261357596976000926137e05750507fffffffffffffffffffffffffffffffffffffffffffffffffffffffffffffffff8260011b9260031b1c19161790565b9055614fea565b907fffffffffffffffffffffffffffffffffffffffffffffffffffffffffffffffe08316966148b87f80bb2b638cc20bc4d0a60d66940f3ab4a00c1d7b313497ca82fb0b4ab00793006000527f37c58c799b6609234b945e882912ee9ad34948a1dfaa20a97485e1a7752bbf8190565b926000905b89821061491c575050908392916001946135759899106148e5575b505050811b019055614fea565b01517fffffffffffffffffffffffffffffffffffffffffffffffffffffffffffffffff60f88460031b161c191690553880806148d8565b806001859682949686015181550195019301906148bd565b61493c614f91565b614944614f91565b600080527fdbbcd40c0f349adfa39fc864f544e00dd2cfe8e80bd0e6edcd3f2b026dad531d557f87da7b105ee6d8640c69f620aa1ac0a4cea27ca8bc07f4213d3776b156a65a016020527f916459e1bd58192a19bc20bcfacf109074ce2fa449617b52fa523929b0ed8587805460ff19166001179055565b6149c4614f91565b6149cc614f91565b6001600160a01b037fad118695963461d59b4e186bb251fe176897e2c57f3362e8dade6f9a4f8e740091167fffffffffffffffffffffffff0000000000000000000000000000000000000000825416179055565b816000527fcd95b85482a9213e30949ccc9c44037e29b901ca879098f5c64dd501b45d92006020526001600160a01b03614a71826040600020906001600160a01b0316600052602052604060002090565b5416918215614ad5576040517ff581fb680000000000000000000000000000000000000000000000000000000081526001600160a01b03929092166004830152602482015290602090829060449082905afa90811561113057600091613e35575090565b505050600090565b818110614ae8575050565b60008155600101614add565b90601f8211614b01575050565b613575917f80bb2b638cc20bc4d0a60d66940f3ab4a00c1d7b313497ca82fb0b4ab00793006000527f37c58c799b6609234b945e882912ee9ad34948a1dfaa20a97485e1a7752bbf81906020601f840160051c83019310614b6a575b601f0160051c0190614add565b9091508190614b5d565b90601f8211614b81575050565b613575917f80bb2b638cc20bc4d0a60d66940f3ab4a00c1d7b313497ca82fb0b4ab00793016000527ff4bad0a69248f59680a4f2b3000328cec71a413447c96781cfe5996daa8c456e906020601f840160051c83019310614b6a57601f0160051c0190614add565b9190601f8111614bf857505050565b613575926000526020600020906020601f840160051c83019310614b6a57601f0160051c0190614add565b614c56906000527f80bb2b638cc20bc4d0a60d66940f3ab4a00c1d7b313497ca82fb0b4ab0079304602052604060002090565b7fffffffffffffffffffffffff00000000000000000000000000000000000000008154169055565b906001600160a01b03809116908115614cf55760246020929360405194859384927f70a082310000000000000000000000000000000000000000000000000000000084521660048301525afa90811561113057600091614cdc575090565b610566915060203d60201161148e5761147f818361122f565b50503190565b90813b15614dbe576001600160a01b0382167f360894a13ba1a3210667c828492db98dca3e2076cc3735a920a3ca505d382bbc817fffffffffffffffffffffffff00000000000000000000000000000000000000008254161790557fbc7cd75a20ee27fd9adebab32041f755214dbc6bffa90cc0225b39da2e5c2d3b600080a2805115614d8b57613bb9916153e6565b505034614d9457565b60046040517fb398979f000000000000000000000000000000000000000000000000000000008152fd5b6024826001600160a01b03604051917f4c9c8ce3000000000000000000000000000000000000000000000000000000008352166004820152fd5b6000602091604051838101907f01ffc9a70000000000000000000000000000000000000000000000000000000082527f8e66120600000000000000000000000000000000000000000000000000000000602482015260248152614e5a816111f7565b5191617530fa6000513d82614e7b575b5081614e74575090565b9050151590565b60201115915038614e6a565b600091614efd9383926040519660208801937f23b872dd0000000000000000000000000000000000000000000000000000000085526001600160a01b03938480921660248b0152166044890152606488015260648752614ee687611213565b1694519082865af1614ef661474e565b9083615542565b8051908115159182614f4f575b5050614f135750565b6040517f5274afe70000000000000000000000000000000000000000000000000000000081526001600160a01b03919091166004820152602490fd5b614f66925090602080611cb1938301019101613dc7565b3880614f0a565b90600181108015614f86575b610f5a5761056691614455565b506127108111614f79565b60ff7ff0c57e16840df040f15088dc2f81fe391c3923bec73e23a9662efc9c229c6a005460401c1615614fc057565b60046040517fd7e6bcf8000000000000000000000000000000000000000000000000000000008152fd5b90815167ffffffffffffffff81116111d6577f80bb2b638cc20bc4d0a60d66940f3ab4a00c1d7b313497ca82fb0b4ab0079301906150318161502c84546129aa565b614b74565b602080601f8311600114615085575081906150819394956000926137e05750507fffffffffffffffffffffffffffffffffffffffffffffffffffffffffffffffff8260011b9260031b1c19161790565b9055565b907fffffffffffffffffffffffffffffffffffffffffffffffffffffffffffffffe08316956150f57f80bb2b638cc20bc4d0a60d66940f3ab4a00c1d7b313497ca82fb0b4ab00793016000527ff4bad0a69248f59680a4f2b3000328cec71a413447c96781cfe5996daa8c456e90565b926000905b88821061515057505083600195969710615119575b505050811b019055565b01517fffffffffffffffffffffffffffffffffffffffffffffffffffffffffffffffff60f88460031b161c1916905538808061510f565b806001859682949686015181550195019301906150fa565b906151728261300d565b6000928284526001600160a01b036020917f645e039705490088daad89bae25049a34f4a9072d398537b1ab2425f24cbed018352856151e96040968783205487810361521c575b506000527f645e039705490088daad89bae25049a34f4a9072d398537b1ab2425f24cbed01602052604060002090565b551684527f645e039705490088daad89bae25049a34f4a9072d398537b1ab2425f24cbed00815282842091845252812055565b6152968686168086527f645e039705490088daad89bae25049a34f4a9072d398537b1ab2425f24cbed00808a528b87208b88528a528b87205491875289528a86208387528952808b8720556000527f645e039705490088daad89bae25049a34f4a9072d398537b1ab2425f24cbed01602052604060002090565b55386151b9565b7f645e039705490088daad89bae25049a34f4a9072d398537b1ab2425f24cbed028054826000527f645e039705490088daad89bae25049a34f4a9072d398537b1ab2425f24cbed0360205280604060002055680100000000000000008110156111d65761530f91600182019055612f5e565b7fffffffffffffffffffffffffffffffffffffffffffffffffffffffffffffffff829392549160031b92831b921b1916179055565b9061534e8261300d565b917fffffffffffffffffffffffffffffffffffffffffffffffffffffffffffffffff830192831161179a576040916001600160a01b036000921682527f645e039705490088daad89bae25049a34f4a9072d398537b1ab2425f24cbed00602052828220848352602052808383205581527f645e039705490088daad89bae25049a34f4a9072d398537b1ab2425f24cbed016020522055565b60008061056693602081519101845af46153fe61474e565b91615542565b6001600160a01b039081831680151590816154a1575b50156154265750505050565b1661545d576040517f7e27328900000000000000000000000000000000000000000000000000000000815260048101839052602490fd5b6040517f177e802f0000000000000000000000000000000000000000000000000000000081526001600160a01b039190911660048201526024810191909152604490fd5b8284168114915081156154f6575b81156154bd575b503861541a565b9050846000527f80bb2b638cc20bc4d0a60d66940f3ab4a00c1d7b313497ca82fb0b4ab0079304602052826040600020541614386154b6565b905060ff61553a8561082b856001600160a01b03166000527f80bb2b638cc20bc4d0a60d66940f3ab4a00c1d7b313497ca82fb0b4ab0079305602052604060002090565b5416906154af565b90615581575080511561555757805190602001fd5b60046040517f1425ea42000000000000000000000000000000000000000000000000000000008152fd5b815115806155cc575b615592575090565b6024906001600160a01b03604051917f9996b315000000000000000000000000000000000000000000000000000000008352166004820152fd5b50803b1561558a56fea264697066735822122062eb101b1c18a4ac38a67025e7cfa766d749ddd68df952c581c5ce3088b8e99464736f6c63430008180033","linkReferences":{}},"methodIdentifiers":{"DEFAULT_ADMIN_ROLE()":"a217fddf","UPGRADE_INTERFACE_VERSION()":"ad3cb1cc","approve(address,uint256)":"095ea7b3","balanceOf(address)":"70a08231","disburse(uint256)":"bd77ac2c","disburse(uint256,address)":"1c61f62b","getApproved(uint256)":"081812fc","getCustodial(uint256)":"8e5ae4b9","getFees(address)":"9af608c9","getGovernance()":"289b3c0d","getLedgerEntry(address,address)":"8f132f87","getRoleAdmin(bytes32)":"248a9ca3","getSecuredContent(uint256)":"11e09d32","getTreasuryAddress()":"e0024604","grantAccess(address,uint256)":"9df89256","grantCustodial(uint256,address,bytes)":"ed40f722","grantRights(address,uint256)":"869eaf1a","grantRole(bytes32,address)":"2f2ff15d","hasRole(bytes32,address)":"91d14854","initialize(address,uint256)":"cd6dc687","isAccessGranted(address,uint256)":"d455dda9","isApprovedForAll(address,address)":"e985e9c5","isCurrencySupported(address)":"70dfaeca","isEligibleForDistribution(uint256)":"34534e2e","mint(address,uint256)":"40c10f19","name()":"06fdde03","ownerOf(uint256)":"6352211e","proxiableUUID()":"52d1902d","renounceRole(bytes32,address)":"36568abe","revokeEmergencyAdmin(address)":"4c622006","revokeRights(address,uint256)":"9fcfd407","revokeRole(bytes32,address)":"d547741f","royaltyInfo(uint256,uint256)":"2a55205a","safeTransferFrom(address,address,uint256)":"42842e0e","safeTransferFrom(address,address,uint256,bytes)":"b88d4fde","setApprovalForAll(address,bool)":"a22cb465","setEmergencyAdmin(address)":"35da3394","setFees(uint256)":"3d18678e","setFees(uint256,address)":"3d162cdc","setGovernance(address)":"ab033ea9","setTreasuryAddress(address)":"6605bfda","supportedCurrencies()":"2c58824c","supportsInterface(bytes4)":"01ffc9a7","symbol()":"95d89b41","tokenByIndex(uint256)":"4f6ccce7","tokenOfOwnerByIndex(address,uint256)":"2f745c59","tokenURI(uint256)":"c87b56dd","totalSupply()":"18160ddd","transferFrom(address,address,uint256)":"23b872dd","upgradeToAndCall(address,bytes)":"4f1ef286","withdraw(address,uint256,address)":"69328dec"},"id":3}