{"abi":[{"type":"constructor","inputs":[],"stateMutability":"nonpayable"},{"type":"receive","stateMutability":"payable"},{"type":"function","name":"DEFAULT_ADMIN_ROLE","inputs":[],"outputs":[{"name":"","type":"bytes32","internalType":"bytes32"}],"stateMutability":"view"},{"type":"function","name":"UPGRADE_INTERFACE_VERSION","inputs":[],"outputs":[{"name":"","type":"string","internalType":"string"}],"stateMutability":"view"},{"type":"function","name":"approve","inputs":[{"name":"to","type":"address","internalType":"address"},{"name":"tokenId","type":"uint256","internalType":"uint256"}],"outputs":[],"stateMutability":"nonpayable"},{"type":"function","name":"balanceOf","inputs":[{"name":"owner","type":"address","internalType":"address"}],"outputs":[{"name":"","type":"uint256","internalType":"uint256"}],"stateMutability":"view"},{"type":"function","name":"delegateRights","inputs":[{"name":"validator","type":"address","internalType":"address"},{"name":"contentId","type":"uint256","internalType":"uint256"}],"outputs":[],"stateMutability":"nonpayable"},{"type":"function","name":"disburse","inputs":[{"name":"amount","type":"uint256","internalType":"uint256"},{"name":"currency","type":"address","internalType":"address"}],"outputs":[],"stateMutability":"nonpayable"},{"type":"function","name":"disburse","inputs":[{"name":"amount","type":"uint256","internalType":"uint256"}],"outputs":[],"stateMutability":"nonpayable"},{"type":"function","name":"getApproved","inputs":[{"name":"tokenId","type":"uint256","internalType":"uint256"}],"outputs":[{"name":"","type":"address","internalType":"address"}],"stateMutability":"view"},{"type":"function","name":"getCustodial","inputs":[{"name":"contentId","type":"uint256","internalType":"uint256"}],"outputs":[{"name":"","type":"address","internalType":"address"}],"stateMutability":"view"},{"type":"function","name":"getFees","inputs":[{"name":"currency","type":"address","internalType":"address"}],"outputs":[{"name":"","type":"uint256","internalType":"uint256"}],"stateMutability":"view"},{"type":"function","name":"getGovernance","inputs":[],"outputs":[{"name":"","type":"address","internalType":"address"}],"stateMutability":"view"},{"type":"function","name":"getLedgerEntry","inputs":[{"name":"account","type":"address","internalType":"address"},{"name":"currency","type":"address","internalType":"address"}],"outputs":[{"name":"","type":"uint256","internalType":"uint256"}],"stateMutability":"view"},{"type":"function","name":"getRoleAdmin","inputs":[{"name":"role","type":"bytes32","internalType":"bytes32"}],"outputs":[{"name":"","type":"bytes32","internalType":"bytes32"}],"stateMutability":"view"},{"type":"function","name":"getSecuredContent","inputs":[{"name":"contentId","type":"uint256","internalType":"uint256"}],"outputs":[{"name":"","type":"bytes","internalType":"bytes"}],"stateMutability":"view"},{"type":"function","name":"getTreasuryAddress","inputs":[],"outputs":[{"name":"","type":"address","internalType":"address"}],"stateMutability":"view"},{"type":"function","name":"grantAccess","inputs":[{"name":"contentId","type":"uint256","internalType":"uint256"},{"name":"accounts","type":"address[]","internalType":"address[]"},{"name":"alloc","type":"tuple","internalType":"struct T.Allocation","components":[{"name":"t9n","type":"tuple","internalType":"struct T.Transaction","components":[{"name":"currency","type":"address","internalType":"address"},{"name":"amount","type":"uint256","internalType":"uint256"}]},{"name":"s4s","type":"tuple[]","internalType":"struct T.Splits[]","components":[{"name":"target","type":"address","internalType":"address"},{"name":"bps","type":"uint256","internalType":"uint256"}]}]}],"outputs":[],"stateMutability":"payable"},{"type":"function","name":"grantCustodial","inputs":[{"name":"contentId","type":"uint256","internalType":"uint256"},{"name":"distributor","type":"address","internalType":"address"},{"name":"encryptedContent","type":"bytes","internalType":"bytes"}],"outputs":[],"stateMutability":"nonpayable"},{"type":"function","name":"grantRole","inputs":[{"name":"role","type":"bytes32","internalType":"bytes32"},{"name":"account","type":"address","internalType":"address"}],"outputs":[],"stateMutability":"nonpayable"},{"type":"function","name":"hasRole","inputs":[{"name":"role","type":"bytes32","internalType":"bytes32"},{"name":"account","type":"address","internalType":"address"}],"outputs":[{"name":"","type":"bool","internalType":"bool"}],"stateMutability":"view"},{"type":"function","name":"initialize","inputs":[{"name":"repository","type":"address","internalType":"address"},{"name":"initialFee","type":"uint256","internalType":"uint256"}],"outputs":[],"stateMutability":"nonpayable"},{"type":"function","name":"isAccessGranted","inputs":[{"name":"account","type":"address","internalType":"address"},{"name":"contentId","type":"uint256","internalType":"uint256"}],"outputs":[{"name":"","type":"bool","internalType":"bool"}],"stateMutability":"nonpayable"},{"type":"function","name":"isApprovedForAll","inputs":[{"name":"owner","type":"address","internalType":"address"},{"name":"operator","type":"address","internalType":"address"}],"outputs":[{"name":"","type":"bool","internalType":"bool"}],"stateMutability":"view"},{"type":"function","name":"isCurrencySupported","inputs":[{"name":"currency","type":"address","internalType":"address"}],"outputs":[{"name":"","type":"bool","internalType":"bool"}],"stateMutability":"view"},{"type":"function","name":"isEligibleForDistribution","inputs":[{"name":"contentId","type":"uint256","internalType":"uint256"}],"outputs":[{"name":"","type":"bool","internalType":"bool"}],"stateMutability":"nonpayable"},{"type":"function","name":"mint","inputs":[{"name":"to","type":"address","internalType":"address"},{"name":"contentId","type":"uint256","internalType":"uint256"}],"outputs":[],"stateMutability":"nonpayable"},{"type":"function","name":"name","inputs":[],"outputs":[{"name":"","type":"string","internalType":"string"}],"stateMutability":"view"},{"type":"function","name":"ownerOf","inputs":[{"name":"tokenId","type":"uint256","internalType":"uint256"}],"outputs":[{"name":"","type":"address","internalType":"address"}],"stateMutability":"view"},{"type":"function","name":"proxiableUUID","inputs":[],"outputs":[{"name":"","type":"bytes32","internalType":"bytes32"}],"stateMutability":"view"},{"type":"function","name":"renounceRole","inputs":[{"name":"role","type":"bytes32","internalType":"bytes32"},{"name":"callerConfirmation","type":"address","internalType":"address"}],"outputs":[],"stateMutability":"nonpayable"},{"type":"function","name":"revokeEmergencyAdmin","inputs":[{"name":"revokedAddress","type":"address","internalType":"address"}],"outputs":[],"stateMutability":"nonpayable"},{"type":"function","name":"revokeRights","inputs":[{"name":"validator","type":"address","internalType":"address"},{"name":"contentId","type":"uint256","internalType":"uint256"}],"outputs":[],"stateMutability":"nonpayable"},{"type":"function","name":"revokeRole","inputs":[{"name":"role","type":"bytes32","internalType":"bytes32"},{"name":"account","type":"address","internalType":"address"}],"outputs":[],"stateMutability":"nonpayable"},{"type":"function","name":"royaltyInfo","inputs":[{"name":"tokenId","type":"uint256","internalType":"uint256"},{"name":"salePrice","type":"uint256","internalType":"uint256"}],"outputs":[{"name":"","type":"address","internalType":"address"},{"name":"","type":"uint256","internalType":"uint256"}],"stateMutability":"view"},{"type":"function","name":"safeTransferFrom","inputs":[{"name":"from","type":"address","internalType":"address"},{"name":"to","type":"address","internalType":"address"},{"name":"tokenId","type":"uint256","internalType":"uint256"}],"outputs":[],"stateMutability":"nonpayable"},{"type":"function","name":"safeTransferFrom","inputs":[{"name":"from","type":"address","internalType":"address"},{"name":"to","type":"address","internalType":"address"},{"name":"tokenId","type":"uint256","internalType":"uint256"},{"name":"data","type":"bytes","internalType":"bytes"}],"outputs":[],"stateMutability":"nonpayable"},{"type":"function","name":"setApprovalForAll","inputs":[{"name":"operator","type":"address","internalType":"address"},{"name":"approved","type":"bool","internalType":"bool"}],"outputs":[],"stateMutability":"nonpayable"},{"type":"function","name":"setEmergencyAdmin","inputs":[{"name":"newEmergencyAdmin","type":"address","internalType":"address"}],"outputs":[],"stateMutability":"nonpayable"},{"type":"function","name":"setFees","inputs":[{"name":"newTreasuryFee","type":"uint256","internalType":"uint256"},{"name":"currency","type":"address","internalType":"address"}],"outputs":[],"stateMutability":"nonpayable"},{"type":"function","name":"setFees","inputs":[{"name":"newTreasuryFee","type":"uint256","internalType":"uint256"}],"outputs":[],"stateMutability":"nonpayable"},{"type":"function","name":"setGovernance","inputs":[{"name":"newGovernance","type":"address","internalType":"address"}],"outputs":[],"stateMutability":"nonpayable"},{"type":"function","name":"setTreasuryAddress","inputs":[{"name":"newTreasuryAddress","type":"address","internalType":"address"}],"outputs":[],"stateMutability":"nonpayable"},{"type":"function","name":"supportedCurrencies","inputs":[],"outputs":[{"name":"","type":"address[]","internalType":"address[]"}],"stateMutability":"view"},{"type":"function","name":"supportsInterface","inputs":[{"name":"interfaceId","type":"bytes4","internalType":"bytes4"}],"outputs":[{"name":"","type":"bool","internalType":"bool"}],"stateMutability":"view"},{"type":"function","name":"symbol","inputs":[],"outputs":[{"name":"","type":"string","internalType":"string"}],"stateMutability":"view"},{"type":"function","name":"tokenByIndex","inputs":[{"name":"index","type":"uint256","internalType":"uint256"}],"outputs":[{"name":"","type":"uint256","internalType":"uint256"}],"stateMutability":"view"},{"type":"function","name":"tokenOfOwnerByIndex","inputs":[{"name":"owner","type":"address","internalType":"address"},{"name":"index","type":"uint256","internalType":"uint256"}],"outputs":[{"name":"","type":"uint256","internalType":"uint256"}],"stateMutability":"view"},{"type":"function","name":"tokenURI","inputs":[{"name":"tokenId","type":"uint256","internalType":"uint256"}],"outputs":[{"name":"","type":"string","internalType":"string"}],"stateMutability":"view"},{"type":"function","name":"totalSupply","inputs":[],"outputs":[{"name":"","type":"uint256","internalType":"uint256"}],"stateMutability":"view"},{"type":"function","name":"transferFrom","inputs":[{"name":"from","type":"address","internalType":"address"},{"name":"to","type":"address","internalType":"address"},{"name":"tokenId","type":"uint256","internalType":"uint256"}],"outputs":[],"stateMutability":"nonpayable"},{"type":"function","name":"upgradeToAndCall","inputs":[{"name":"newImplementation","type":"address","internalType":"address"},{"name":"data","type":"bytes","internalType":"bytes"}],"outputs":[],"stateMutability":"payable"},{"type":"function","name":"withdraw","inputs":[{"name":"recipient","type":"address","internalType":"address"},{"name":"amount","type":"uint256","internalType":"uint256"},{"name":"currency","type":"address","internalType":"address"}],"outputs":[],"stateMutability":"nonpayable"},{"type":"event","name":"Approval","inputs":[{"name":"owner","type":"address","indexed":true,"internalType":"address"},{"name":"approved","type":"address","indexed":true,"internalType":"address"},{"name":"tokenId","type":"uint256","indexed":true,"internalType":"uint256"}],"anonymous":false},{"type":"event","name":"ApprovalForAll","inputs":[{"name":"owner","type":"address","indexed":true,"internalType":"address"},{"name":"operator","type":"address","indexed":true,"internalType":"address"},{"name":"approved","type":"bool","indexed":false,"internalType":"bool"}],"anonymous":false},{"type":"event","name":"FeesDisbursed","inputs":[{"name":"treasury","type":"address","indexed":true,"internalType":"address"},{"name":"amount","type":"uint256","indexed":false,"internalType":"uint256"},{"name":"currency","type":"address","indexed":false,"internalType":"address"}],"anonymous":false},{"type":"event","name":"GrantedAccess","inputs":[{"name":"account","type":"address","indexed":false,"internalType":"address"},{"name":"contentId","type":"uint256","indexed":false,"internalType":"uint256"}],"anonymous":false},{"type":"event","name":"GrantedCustodial","inputs":[{"name":"prevCustody","type":"address","indexed":true,"internalType":"address"},{"name":"newCustody","type":"address","indexed":true,"internalType":"address"},{"name":"contentId","type":"uint256","indexed":false,"internalType":"uint256"}],"anonymous":false},{"type":"event","name":"Initialized","inputs":[{"name":"version","type":"uint64","indexed":false,"internalType":"uint64"}],"anonymous":false},{"type":"event","name":"RegisteredContent","inputs":[{"name":"contentId","type":"uint256","indexed":false,"internalType":"uint256"}],"anonymous":false},{"type":"event","name":"RightsDelegated","inputs":[{"name":"validator","type":"address","indexed":true,"internalType":"address"},{"name":"contentId","type":"uint256","indexed":false,"internalType":"uint256"}],"anonymous":false},{"type":"event","name":"RightsRevoked","inputs":[{"name":"validator","type":"address","indexed":true,"internalType":"address"},{"name":"contentId","type":"uint256","indexed":false,"internalType":"uint256"}],"anonymous":false},{"type":"event","name":"RoleAdminChanged","inputs":[{"name":"role","type":"bytes32","indexed":true,"internalType":"bytes32"},{"name":"previousAdminRole","type":"bytes32","indexed":true,"internalType":"bytes32"},{"name":"newAdminRole","type":"bytes32","indexed":true,"internalType":"bytes32"}],"anonymous":false},{"type":"event","name":"RoleGranted","inputs":[{"name":"role","type":"bytes32","indexed":true,"internalType":"bytes32"},{"name":"account","type":"address","indexed":true,"internalType":"address"},{"name":"sender","type":"address","indexed":true,"internalType":"address"}],"anonymous":false},{"type":"event","name":"RoleRevoked","inputs":[{"name":"role","type":"bytes32","indexed":true,"internalType":"bytes32"},{"name":"account","type":"address","indexed":true,"internalType":"address"},{"name":"sender","type":"address","indexed":true,"internalType":"address"}],"anonymous":false},{"type":"event","name":"Transfer","inputs":[{"name":"from","type":"address","indexed":true,"internalType":"address"},{"name":"to","type":"address","indexed":true,"internalType":"address"},{"name":"tokenId","type":"uint256","indexed":true,"internalType":"uint256"}],"anonymous":false},{"type":"event","name":"Upgraded","inputs":[{"name":"implementation","type":"address","indexed":true,"internalType":"address"}],"anonymous":false},{"type":"error","name":"AccessControlBadConfirmation","inputs":[]},{"type":"error","name":"AccessControlUnauthorizedAccount","inputs":[{"name":"account","type":"address","internalType":"address"},{"name":"neededRole","type":"bytes32","internalType":"bytes32"}]},{"type":"error","name":"AddressEmptyCode","inputs":[{"name":"target","type":"address","internalType":"address"}]},{"type":"error","name":"AddressInsufficientBalance","inputs":[{"name":"account","type":"address","internalType":"address"}]},{"type":"error","name":"ERC1967InvalidImplementation","inputs":[{"name":"implementation","type":"address","internalType":"address"}]},{"type":"error","name":"ERC1967NonPayable","inputs":[]},{"type":"error","name":"ERC2981InvalidDefaultRoyalty","inputs":[{"name":"numerator","type":"uint256","internalType":"uint256"},{"name":"denominator","type":"uint256","internalType":"uint256"}]},{"type":"error","name":"ERC2981InvalidDefaultRoyaltyReceiver","inputs":[{"name":"receiver","type":"address","internalType":"address"}]},{"type":"error","name":"ERC2981InvalidTokenRoyalty","inputs":[{"name":"tokenId","type":"uint256","internalType":"uint256"},{"name":"numerator","type":"uint256","internalType":"uint256"},{"name":"denominator","type":"uint256","internalType":"uint256"}]},{"type":"error","name":"ERC2981InvalidTokenRoyaltyReceiver","inputs":[{"name":"tokenId","type":"uint256","internalType":"uint256"},{"name":"receiver","type":"address","internalType":"address"}]},{"type":"error","name":"ERC721EnumerableForbiddenBatchMint","inputs":[]},{"type":"error","name":"ERC721IncorrectOwner","inputs":[{"name":"sender","type":"address","internalType":"address"},{"name":"tokenId","type":"uint256","internalType":"uint256"},{"name":"owner","type":"address","internalType":"address"}]},{"type":"error","name":"ERC721InsufficientApproval","inputs":[{"name":"operator","type":"address","internalType":"address"},{"name":"tokenId","type":"uint256","internalType":"uint256"}]},{"type":"error","name":"ERC721InvalidApprover","inputs":[{"name":"approver","type":"address","internalType":"address"}]},{"type":"error","name":"ERC721InvalidOperator","inputs":[{"name":"operator","type":"address","internalType":"address"}]},{"type":"error","name":"ERC721InvalidOwner","inputs":[{"name":"owner","type":"address","internalType":"address"}]},{"type":"error","name":"ERC721InvalidReceiver","inputs":[{"name":"receiver","type":"address","internalType":"address"}]},{"type":"error","name":"ERC721InvalidSender","inputs":[{"name":"sender","type":"address","internalType":"address"}]},{"type":"error","name":"ERC721NonexistentToken","inputs":[{"name":"tokenId","type":"uint256","internalType":"uint256"}]},{"type":"error","name":"ERC721OutOfBoundsIndex","inputs":[{"name":"owner","type":"address","internalType":"address"},{"name":"index","type":"uint256","internalType":"uint256"}]},{"type":"error","name":"FailDuringTransfer","inputs":[{"name":"reason","type":"string","internalType":"string"}]},{"type":"error","name":"FailedInnerCall","inputs":[]},{"type":"error","name":"InvalidAlreadyRegisteredContent","inputs":[]},{"type":"error","name":"InvalidBasisPointRange","inputs":[]},{"type":"error","name":"InvalidCurrency","inputs":[{"name":"currency","type":"address","internalType":"address"}]},{"type":"error","name":"InvalidInactiveDistributor","inputs":[]},{"type":"error","name":"InvalidInitialization","inputs":[]},{"type":"error","name":"InvalidNominalRange","inputs":[]},{"type":"error","name":"InvalidNotAllowedContent","inputs":[]},{"type":"error","name":"InvalidNotApprovedContent","inputs":[]},{"type":"error","name":"InvalidNotRightsDelegated","inputs":[{"name":"grantee","type":"address","internalType":"address"},{"name":"contentId","type":"uint256","internalType":"uint256"}]},{"type":"error","name":"InvalidStrategyContract","inputs":[{"name":"strategy","type":"address","internalType":"address"}]},{"type":"error","name":"InvalidUnknownContent","inputs":[]},{"type":"error","name":"InvalidUnsupportedCurrency","inputs":[{"name":"currency","type":"address","internalType":"address"}]},{"type":"error","name":"NoDeal","inputs":[{"name":"reason","type":"string","internalType":"string"}]},{"type":"error","name":"NoFundsToWithdraw","inputs":[{"name":"","type":"address","internalType":"address"}]},{"type":"error","name":"NotInitializing","inputs":[]},{"type":"error","name":"ReentrancyGuardReentrantCall","inputs":[]},{"type":"error","name":"RestrictedAccessToHolder","inputs":[]},{"type":"error","name":"SafeERC20FailedOperation","inputs":[{"name":"token","type":"address","internalType":"address"}]},{"type":"error","name":"UUPSUnauthorizedCallContext","inputs":[]},{"type":"error","name":"UUPSUnsupportedProxiableUUID","inputs":[{"name":"slot","type":"bytes32","internalType":"bytes32"}]}],"bytecode":{"object":"0x60a08060405234620000d157306080527ff0c57e16840df040f15088dc2f81fe391c3923bec73e23a9662efc9c229c6a009081549060ff8260401c16620000c257506001600160401b036002600160401b0319828216016200007c575b6040516157389081620000d7823960805181818161155901526117ae0152f35b6001600160401b031990911681179091556040519081527fc7f505b2f371ae2175ee4913f4499e1f2633a7b5936321eed1cdaeb6115181d290602090a13880806200005c565b63f92ee8a960e01b8152600490fd5b600080fdfe6080604052600436101561001b575b361561001957600080fd5b005b60003560e01c80625de3ac1461034a57806301ffc9a71461034557806306fdde0314610340578063081812fc1461033b578063095ea7b31461033657806311e09d321461033157806318160ddd1461032c57806319741bf8146103275780631c61f62b1461032257806323b872dd1461031d578063248a9ca314610318578063289b3c0d146103135780632a55205a1461030e5780632c58824c146103095780632f2ff15d146103045780632f745c59146102ff57806334534e2e146102fa57806335da3394146102f557806336568abe146102f05780633d162cdc146102eb5780633d18678e146102e657806340c10f19146102e157806342842e0e146102dc5780634c622006146102d75780634f1ef286146102d25780634f6ccce7146102cd57806352d1902d146102c85780636352211e146102c35780636605bfda146102be57806369328dec146102b957806370a08231146102b457806370dfaeca146102af5780638e5ae4b9146102aa5780638f132f87146102a557806391d14854146102a057806395d89b411461029b5780639af608c9146102965780639fcfd40714610291578063a217fddf1461028c578063a22cb46514610287578063ab033ea914610282578063ad3cb1cc1461027d578063b88d4fde14610278578063bd77ac2c14610273578063c87b56dd1461026e578063cd6dc68714610269578063d455dda914610264578063d547741f1461025f578063e00246041461025a578063e985e9c5146102555763ed40f7220361000e576125a8565b612556565b612510565b6124ad565b6123ef565b6121f8565b6121a5565b61204c565b611ff5565b611f97565b611f10565b611e26565b611e00565b611cd0565b611ca9565b611be3565b611b6d565b611b14565b611a9b565b611a3e565b611a0f565b6118d4565b611857565b611828565b611793565b611705565b611515565b611376565b61134e565b611264565b6111b9565b6110f2565b61108f565b611061565b611039565b610f78565b610f15565b610e2f565b610d60565b610d1a565b610ccc565b610cb5565b610b98565b610a0b565b6109ce565b6108d7565b610757565b6106e8565b6105e2565b6103f8565b610362565b9081606091031261035d5790565b600080fd5b606060031936011261035d5767ffffffffffffffff60243581811161035d573660238201121561035d57806004013582811161035d573660248260051b8401011161035d5760443592831161035d5760246103c461001994369060040161034f565b920160043561260d565b7fffffffff0000000000000000000000000000000000000000000000000000000081160361035d57565b3461035d57602060031936011261035d576104787fffffffff00000000000000000000000000000000000000000000000000000000600435610439816103ce565b167f2a55205a00000000000000000000000000000000000000000000000000000000811490811561047c575b5060405190151581529081906020820190565b0390f35b7f780e9d63000000000000000000000000000000000000000000000000000000008114915081156104af575b5038610465565b7f80ac58cd00000000000000000000000000000000000000000000000000000000811491508115610546575b81156104e9575b50386104a8565b7f7965db0b0000000000000000000000000000000000000000000000000000000081149150811561051c575b50386104e2565b7f01ffc9a70000000000000000000000000000000000000000000000000000000091501438610515565b7f5b5e139f00000000000000000000000000000000000000000000000000000000811491506104db565b919082519283825260005b8481106105ba5750507fffffffffffffffffffffffffffffffffffffffffffffffffffffffffffffffe0601f8460006020809697860101520116010190565b60208183018101518483018201520161057b565b9060206105df928181520190610570565b90565b3461035d576000806003193601126106e55760405190807f80bb2b638cc20bc4d0a60d66940f3ab4a00c1d7b313497ca82fb0b4ab0079300805461062581612b09565b808652926020926001928084169081156106b5575060011461065e575b6104788761065281890382611448565b604051918291826105ce565b815293507f37c58c799b6609234b945e882912ee9ad34948a1dfaa20a97485e1a7752bbf815b8385106106a257505050508101602001610652826104783880610642565b8054868601840152938201938101610684565b90508796506104789794506020935061065295925060ff1991501682840152151560051b82010192933880610642565b80fd5b3461035d57602060031936011261035d5760043561070581613e21565b506000527f80bb2b638cc20bc4d0a60d66940f3ab4a00c1d7b313497ca82fb0b4ab007930460205260206001600160a01b0360406000205416604051908152f35b6001600160a01b0381160361035d57565b3461035d57604060031936011261035d5760043561077481610746565b6024359061078182613e21565b331515806108c4575b80610861575b6108315782610019936107fe926001600160a01b0380861691167f8c5be1e5ebec7d5bd14f71427d1e84f3dd0314c0f7b2291e5b200ac8c7c3b925600080a46000527f80bb2b638cc20bc4d0a60d66940f3ab4a00c1d7b313497ca82fb0b4ab0079304602052604060002090565b906001600160a01b03167fffffffffffffffffffffffff0000000000000000000000000000000000000000825416179055565b60246040517fa9fbf51f000000000000000000000000000000000000000000000000000000008152336004820152fd5b5060ff6108bc336108a4846001600160a01b03166000527f80bb2b638cc20bc4d0a60d66940f3ab4a00c1d7b313497ca82fb0b4ab0079305602052604060002090565b906001600160a01b0316600052602052604060002090565b541615610790565b50336001600160a01b038216141561078a565b3461035d5760208060031936011261035d5760009060043582527f9c5345ebbec2d6cecdb38d9956fa842e9d714f43866d36c54fbb441829f0b0008152604082206040518381949083549061092b82612b09565b94858552600192876001821691826000146109a957505060011461096d575b50505061095992500383611448565b610478604051928284938452830190610570565b869350819291528282205b858310610991575050610959935082010138808061094a565b80548389018501528794508693909201918101610978565b925094505061095995925060ff1991501682840152151560051b82010138808061094a565b3461035d57600060031936011261035d5760207f645e039705490088daad89bae25049a34f4a9072d398537b1ab2425f24cbed0254604051908152f35b3461035d5760408060031936011261035d57600435610a2981610746565b60243590610a3682613e21565b6001600160a01b039190821633141580610b25575b610afc57610a5881613e94565b15610acb577f9d188cfd59839167d8653e8be45a3efe525ecdef295c180f649b7b96109fd8459160209116926000948486527f8de86c03e9c907c4cfd46ee06d6593a7fc5fdfb6903523c8213ef37d380b3b0083528086208287528352808620600160ff1982541617905551908152a280f35b6024918451917fbd555576000000000000000000000000000000000000000000000000000000008352166004820152fd5b600484517fff90016f000000000000000000000000000000000000000000000000000000008152fd5b507f9634689da3e320d3851bdfd82b5581ce1042c9b202afe8c26d4e6d92dfaf0cde6000527f02dd7bc7dec4dceedda775e58dd541e08a116c6c53815c0bd028192f7b62680060205260ff610b903386600020906001600160a01b0316600052602052604060002090565b541615610a4b565b3461035d57604060031936011261035d57602435600435610bb882610746565b610bc133613fdf565b6001600160a01b03918281169283151580610c79575b610c4857907faacdfb17e73979730dd4f099403209fa37d2a4486c1bcddfad753c3fc6c430df917fad118695963461d59b4e186bb251fe176897e2c57f3362e8dade6f9a4f8e7400541692610c2d828286614156565b604080519182526001600160a01b03929092166020820152a2005b602484604051907feae435bd0000000000000000000000000000000000000000000000000000000082526004820152fd5b50610c8382613f50565b15610bd7565b600319606091011261035d57600435610ca181610746565b90602435610cae81610746565b9060443590565b3461035d57610019610cc636610c89565b91612b5c565b3461035d57602060031936011261035d576004356000527f02dd7bc7dec4dceedda775e58dd541e08a116c6c53815c0bd028192f7b6268006020526020600160406000200154604051908152f35b3461035d57600060031936011261035d5760206001600160a01b037fbe22a97ce56bf984cece6021e328584abbd5b3cd394ccbe3b6884d525c48c4005416604051908152f35b3461035d57604060031936011261035d576004356000527fdaedc9ab023613a7caf35e703657e986ccfad7e3eb0af93a2853f8d65dd86b01602052604060002060405190610dad826113d3565b54906001600160a01b03908183169283825260a01c60208201529115610e1f575b610df7610def6bffffffffffffffffffffffff602085015116602435612de4565b612710900490565b91511661047860405192839283602090939291936001600160a01b0360408201951681520152565b9050610e29612d9f565b90610dce565b3461035d576000806003193601126106e55760405180917f56b3138e9d26d4b1bbb7eb44261bf9a02d56af8c0799b6892290ca1ba7b2e701908154808452602080940190819383527f2c26ac34bdc0b134daa17d5a775f5fb701dc79b188a2651fe2a368e2f195db6d90835b818110610ef85750505084610eb1910385611448565b60405193838594850191818652518092526040850193925b828110610ed857505050500390f35b83516001600160a01b031685528695509381019392810192600101610ec9565b82546001600160a01b031684529286019260019283019201610e9b565b3461035d57604060031936011261035d57610019602435600435610f3882610746565b806000527f02dd7bc7dec4dceedda775e58dd541e08a116c6c53815c0bd028192f7b626800602052610f73600160406000200154339061410b565b61439c565b3461035d57604060031936011261035d57600435610f9581610746565b60243590610fa28161313d565b821015610ff5576001600160a01b03166000527f645e039705490088daad89bae25049a34f4a9072d398537b1ab2425f24cbed006020526040600020906000526020526020604060002054604051908152f35b6040517fa57d13dc0000000000000000000000000000000000000000000000000000000081526001600160a01b039190911660048201526024810191909152604490fd5b3461035d57602060031936011261035d576020611057600435612df7565b6040519015158152f35b3461035d57602060031936011261035d5761001960043561108181610746565b61108a33613fdf565b6141de565b3461035d57604060031936011261035d576024356110ac81610746565b336001600160a01b038216036110c85761001990600435614589565b60046040517f6697b232000000000000000000000000000000000000000000000000000000008152fd5b3461035d57604060031936011261035d5760043560243561111281610746565b61111b33613fdf565b6001600160a01b038116801515806111a9575b6111785750612710821161114e57611149816100199361463f565b61475e565b60046040517f07c0803f000000000000000000000000000000000000000000000000000000008152fd5b602490604051907feae435bd0000000000000000000000000000000000000000000000000000000082526004820152fd5b506111b382613f50565b1561112e565b3461035d57602060031936011261035d576004356111d633613fdf565b612710811161114e5760008080527f2347f6e3e071d2c1531975e1fe894e6482b7b17e6e7c833ebff80a46ce05861a919091557f5575547e2bbff3f801051e8dc7ed5ba1cab8b335003bad8f456347ac015ff6016020527f23d865eec4993fd938a54a9019ab8616711837d31a2fe3fa6e376decde2262f8805460ff191660011790556112616146c0565b80f35b3461035d57604060031936011261035d5760043561128181610746565b6001546040517f2a16cca40000000000000000000000000000000000000000000000000000000081526001600160a01b038381166004830152602480359083018190529260209183916044918391165afa9081156113495760009161131a575b50156112f05761001991612e4a565b60046040517f50747ffb000000000000000000000000000000000000000000000000000000008152fd5b61133c915060203d602011611342575b6113348183611448565b8101906143e9565b386112e1565b503d61132a565b61295f565b3461035d5761001961135f36610c89565b906040519261136d846113f4565b60008452613275565b3461035d57602060031936011261035d5761001960043561139681610746565b61139f33613fdf565b6144c4565b7f4e487b7100000000000000000000000000000000000000000000000000000000600052604160045260246000fd5b6040810190811067ffffffffffffffff8211176113ef57604052565b6113a4565b6020810190811067ffffffffffffffff8211176113ef57604052565b60a0810190811067ffffffffffffffff8211176113ef57604052565b6060810190811067ffffffffffffffff8211176113ef57604052565b90601f7fffffffffffffffffffffffffffffffffffffffffffffffffffffffffffffffe0910116810190811067ffffffffffffffff8211176113ef57604052565b67ffffffffffffffff81116113ef57601f017fffffffffffffffffffffffffffffffffffffffffffffffffffffffffffffffe01660200190565b9291926114cf82611489565b916114dd6040519384611448565b82948184528183011161035d578281602093846000960137010152565b9080601f8301121561035d578160206105df933591016114c3565b604060031936011261035d57600480359061152f82610746565b60243567ffffffffffffffff811161035d5761154e90369083016114fa565b6001600160a01b03807f0000000000000000000000000000000000000000000000000000000000000000168030149081156116d7575b506116ae57906020839261159733614087565b604051938480927f52d1902d00000000000000000000000000000000000000000000000000000000825288165afa6000928161167d575b506116155750506040517f4c9c8ce30000000000000000000000000000000000000000000000000000000081526001600160a01b0390921690820190815281906020010390fd5b83837f360894a13ba1a3210667c828492db98dca3e2076cc3735a920a3ca505d382bbc8403611648576100198383614fc1565b6040517faa1d49a400000000000000000000000000000000000000000000000000000000815290810184815281906020010390fd5b6116a091935060203d6020116116a7575b6116988183611448565b810190612950565b91386115ce565b503d61168e565b826040517fe07c8dba000000000000000000000000000000000000000000000000000000008152fd5b9050817f360894a13ba1a3210667c828492db98dca3e2076cc3735a920a3ca505d382bbc5416141538611584565b3461035d57602060031936011261035d576004357f645e039705490088daad89bae25049a34f4a9072d398537b1ab2425f24cbed025481101561175b5761174d60209161308e565b90546040519160031b1c8152f35b604490604051907fa57d13dc000000000000000000000000000000000000000000000000000000008252600060048301526024820152fd5b3461035d57600060031936011261035d576001600160a01b037f00000000000000000000000000000000000000000000000000000000000000001630036117fe5760206040517f360894a13ba1a3210667c828492db98dca3e2076cc3735a920a3ca505d382bbc8152f35b60046040517fe07c8dba000000000000000000000000000000000000000000000000000000008152fd5b3461035d57602060031936011261035d576020611846600435613e21565b6001600160a01b0360405191168152f35b3461035d57602060031936011261035d5760043561187481610746565b61187d33613fdf565b6001600160a01b037fad118695963461d59b4e186bb251fe176897e2c57f3362e8dade6f9a4f8e740091167fffffffffffffffffffffffff0000000000000000000000000000000000000000825416179055600080f35b3461035d57606060031936011261035d576004356118f181610746565b602435906044359061190282610746565b6001600160a01b0390818316801515806119ff575b61117857508361195d846108a4846001600160a01b03166000527fcb711bda070b7bbcc2b711ef3993cc17677144f4419b29e303bef375c5f40f00602052604060002090565b54106119cd57908161197484866119b99695614156565b166000527fcb711bda070b7bbcc2b711ef3993cc17677144f4419b29e303bef375c5f40f006020526040600020906001600160a01b0316600052602052604060002090565b80549182039182116119c85755005b61296b565b602491604051917faee94862000000000000000000000000000000000000000000000000000000008352166004820152fd5b50611a0984613f50565b15611917565b3461035d57602060031936011261035d576020611a36600435611a3181610746565b61313d565b604051908152f35b3461035d57602060031936011261035d576020611057600435611a6081610746565b6001600160a01b03166000527f56b3138e9d26d4b1bbb7eb44261bf9a02d56af8c0799b6892290ca1ba7b2e700602052604060002054151590565b3461035d57602060031936011261035d576004356000527f19de352aacf5eb23e556c4ae8a1f47118f3051b029159b7e1b8f4f1672aaf60060205260206001600160a01b0360406000205416604051908152f35b600319604091011261035d57600435611b0781610746565b906024356105df81610746565b3461035d576020611b646108a4611b2a36611aef565b91906001600160a01b03166000527fcb711bda070b7bbcc2b711ef3993cc17677144f4419b29e303bef375c5f40f00602052604060002090565b54604051908152f35b3461035d57604060031936011261035d57602060ff611bd7602435611b9181610746565b6004356000527f02dd7bc7dec4dceedda775e58dd541e08a116c6c53815c0bd028192f7b62680084526040600020906001600160a01b0316600052602052604060002090565b54166040519015158152f35b3461035d576000806003193601126106e55760405190807f80bb2b638cc20bc4d0a60d66940f3ab4a00c1d7b313497ca82fb0b4ab00793018054611c2681612b09565b808652926020926001928084169081156106b55750600114611c52576104788761065281890382611448565b815293507ff4bad0a69248f59680a4f2b3000328cec71a413447c96781cfe5996daa8c456e5b838510611c9657505050508101602001610652826104783880610642565b8054868601840152938201938101611c78565b3461035d57602060031936011261035d576020611a36600435611ccb81610746565b6131bd565b3461035d5760408060031936011261035d57600435611cee81610746565b60243590611cfb82613e21565b6001600160a01b039190821633141580611d8d575b610afc57611d1d81613e94565b15610acb577f34c4ad1d6d10f859d122bac2f306e4d822d31b35673227d46fce27ec0e9690979160209116926000948486527f8de86c03e9c907c4cfd46ee06d6593a7fc5fdfb6903523c8213ef37d380b3b008352808620828752835280862060ff19815416905551908152a280f35b507f9634689da3e320d3851bdfd82b5581ce1042c9b202afe8c26d4e6d92dfaf0cde6000527f02dd7bc7dec4dceedda775e58dd541e08a116c6c53815c0bd028192f7b62680060205260ff611df83386600020906001600160a01b0316600052602052604060002090565b541615611d10565b3461035d57600060031936011261035d57602060405160008152f35b8015150361035d57565b3461035d57604060031936011261035d57600435611e4381610746565b602435611e4f81611e1c565b6001600160a01b038216918215611edf57611ea0906108a4336001600160a01b03166000527f80bb2b638cc20bc4d0a60d66940f3ab4a00c1d7b313497ca82fb0b4ab0079305602052604060002090565b9015159060ff1981541660ff83161790556040519081527f17307eab39ab6107e8899845ad3d59bd9653f200f220920489ca2b5937696c3160203392a3005b602483604051907f5b08ba180000000000000000000000000000000000000000000000000000000082526004820152fd5b3461035d57602060031936011261035d57600435611f2d81610746565b611f3633614087565b611f3f816142ab565b506001600160a01b037fbe22a97ce56bf984cece6021e328584abbd5b3cd394ccbe3b6884d525c48c40091167fffffffffffffffffffffffff0000000000000000000000000000000000000000825416179055600080f35b3461035d57600060031936011261035d57610478604051611fb7816113d3565b600581527f352e302e300000000000000000000000000000000000000000000000000000006020820152604051918291602083526020830190610570565b3461035d57608060031936011261035d5760043561201281610746565b60243561201e81610746565b6064359167ffffffffffffffff831161035d576120426100199336906004016114fa565b9160443591613275565b3461035d57602060031936011261035d5760043561206933613fdf565b6001600160a01b037fad118695963461d59b4e186bb251fe176897e2c57f3362e8dade6f9a4f8e74005416814710612146576000918280808084865af16120ae614877565b50156120e85760408051918252600060208301527faacdfb17e73979730dd4f099403209fa37d2a4486c1bcddfad753c3fc6c430df91a280f35b60646040517f9cf1483d00000000000000000000000000000000000000000000000000000000815260206004820152600f60248201527f5472616e73666572206661696c656400000000000000000000000000000000006044820152fd5b6040517f9cf1483d00000000000000000000000000000000000000000000000000000000815260206004820152601560248201527f496e73756666696369656e742062616c616e63652e00000000000000000000006044820152606490fd5b3461035d57602060031936011261035d576121c1600435613e21565b5060006040516121d0816113f4565b526104786040516121e0816113f4565b60008152604051918291602083526020830190610570565b3461035d57604060031936011261035d5760043561221581610746565b7ff0c57e16840df040f15088dc2f81fe391c3923bec73e23a9662efc9c229c6a00549067ffffffffffffffff60ff8360401c16159216801590816123e7575b60011490816123dd575b1590816123d4575b506123aa576122cd90826122bf7ff0c57e16840df040f15088dc2f81fe391c3923bec73e23a9662efc9c229c6a0060017fffffffffffffffffffffffffffffffffffffffffffffffff0000000000000000825416179055565b61234e575b602435906133de565b6122d357005b61231f7ff0c57e16840df040f15088dc2f81fe391c3923bec73e23a9662efc9c229c6a007fffffffffffffffffffffffffffffffffffffffffffffff00ffffffffffffffff8154169055565b604051600181527fc7f505b2f371ae2175ee4913f4499e1f2633a7b5936321eed1cdaeb6115181d290602090a1005b6123a57ff0c57e16840df040f15088dc2f81fe391c3923bec73e23a9662efc9c229c6a00680100000000000000007fffffffffffffffffffffffffffffffffffffffffffffff00ffffffffffffffff825416179055565b6122c4565b60046040517ff92ee8a9000000000000000000000000000000000000000000000000000000008152fd5b90501538612266565b303b15915061225e565b839150612254565b3461035d57604060031936011261035d5760043561240c81610746565b6024359061241861392a565b6001600160a01b0361242983613e21565b1615612483578161243b602093614470565b9182612472575b505060017f9b779b17422d0df92223018b32b4d1fa46e071723d6817e2486d003becc55f00556040519015158152f35b61247c9250614b49565b3880612442565b60046040517f6dfc3d19000000000000000000000000000000000000000000000000000000008152fd5b3461035d57604060031936011261035d576100196024356004356124d082610746565b806000527f02dd7bc7dec4dceedda775e58dd541e08a116c6c53815c0bd028192f7b62680060205261250b600160406000200154339061410b565b614589565b3461035d57600060031936011261035d5760206001600160a01b037fad118695963461d59b4e186bb251fe176897e2c57f3362e8dade6f9a4f8e74005416604051908152f35b3461035d57602060ff611bd76108a461256e36611aef565b91906001600160a01b03166000527f80bb2b638cc20bc4d0a60d66940f3ab4a00c1d7b313497ca82fb0b4ab0079305602052604060002090565b3461035d57606060031936011261035d576024356125c581610746565b6044359067ffffffffffffffff9081831161035d573660238401121561035d57826004013591821161035d57366024838501011161035d576024610019930190600435613633565b90939261261861392a565b6001600160a01b03948561262b84613e21565b16156124835760003381526020927f8de86c03e9c907c4cfd46ee06d6593a7fc5fdfb6903523c8213ef37d380b3b0084526040808320868452855260ff8184205416156129105761268261267e87612df7565b1590565b6128e7576126d86126cc6126bf886000527f19de352aacf5eb23e556c4ae8a1f47118f3051b029159b7e1b8f4f1672aaf600602052604060002090565b546001600160a01b031690565b6001600160a01b031690565b906126e283612946565b926126f1848883013533613984565b9a6127046126fe866131bd565b8d613ae2565b83517fd4ceb418000000000000000000000000000000000000000000000000000000008152600481018e90526001600160a01b0387166024820152949091169b9088858e81806044810103915afa9485156113495787956128c4575b508461276b9161299a565b9080821161286657856127a960049d9e94826127a361279c6127928f9a986127b7986129a7565b93888101906129b4565b3691612a20565b91613b21565b6127b28c613e21565b613ce8565b51998a80927fd50095840000000000000000000000000000000000000000000000000000000082525afa80156113495761280e98612809966128009592612839575b5050613ce8565b33933691612ab1565b613d4a565b61283760017f9b779b17422d0df92223018b32b4d1fa46e071723d6817e2486d003becc55f0055565b565b6128589250803d1061285f575b6128508183611448565b810190612a9c565b38806127f9565b503d612846565b83517fa1cc3d7100000000000000000000000000000000000000000000000000000000815260206004820152601660248201527f54686520666565732061726520746f6f20686967682e000000000000000000006044820152606490fd5b61276b9195506128e0908a3d8c116116a7576116988183611448565b9490612760565b600490517f3696b62e000000000000000000000000000000000000000000000000000000008152fd5b517fea7042e200000000000000000000000000000000000000000000000000000000815233600482015260248101869052604490fd5b356105df81610746565b9081602091031261035d575190565b6040513d6000823e3d90fd5b7f4e487b7100000000000000000000000000000000000000000000000000000000600052601160045260246000fd5b919082018092116119c857565b919082039182116119c857565b9035907fffffffffffffffffffffffffffffffffffffffffffffffffffffffffffffffe18136030182121561035d570180359067ffffffffffffffff821161035d57602001918160061b3603831361035d57565b67ffffffffffffffff81116113ef5760051b60200190565b929192612a2c82612a08565b604092612a3c6040519283611448565b819581835260208093019160061b84019381851161035d57915b848310612a6557505050505050565b858383031261035d578386918251612a7c816113d3565b8535612a8781610746565b81528286013583820152815201920191612a56565b9081602091031261035d57516105df81610746565b9291612abc82612a08565b91612aca6040519384611448565b829481845260208094019160051b810192831161035d57905b828210612af05750505050565b8380918335612afe81610746565b815201910190612ae3565b90600182811c92168015612b52575b6020831014612b2357565b7f4e487b7100000000000000000000000000000000000000000000000000000000600052602260045260246000fd5b91607f1691612b18565b6001600160a01b0390818316928315612d6e5784612ba66126bf826000527f80bb2b638cc20bc4d0a60d66940f3ab4a00c1d7b313497ca82fb0b4ab0079302602052604060002090565b9433612d5e575b8486169586158015612cee575b612bf6856001600160a01b03166000527f80bb2b638cc20bc4d0a60d66940f3ab4a00c1d7b313497ca82fb0b4ab0079303602052604060002090565b60018154019055612c34856107fe866000527f80bb2b638cc20bc4d0a60d66940f3ab4a00c1d7b313497ca82fb0b4ab0079302602052604060002090565b8383897fddf252ad1be2c89b69c2b068fc378daa952ba7f163c4a11628f55a4df523b3ef600080a415612cce5750612c6b826153ca565b8503612cbe575b50501691828203612c8257505050565b60649350604051927f64283d7b000000000000000000000000000000000000000000000000000000008452600484015260248301526044820152fd5b612cc791615471565b3884612c72565b82828803612cde575b5050612c6b565b612ce791615295565b3882612cd7565b612cf784614e45565b612d33826001600160a01b03166000527f80bb2b638cc20bc4d0a60d66940f3ab4a00c1d7b313497ca82fb0b4ab0079303602052604060002090565b7fffffffffffffffffffffffffffffffffffffffffffffffffffffffffffffffff8154019055612bba565b612d69823388615531565b612bad565b60246040517f64a0ae9200000000000000000000000000000000000000000000000000000000815260006004820152fd5b60405190612dac826113d3565b7fdaedc9ab023613a7caf35e703657e986ccfad7e3eb0af93a2853f8d65dd86b00546001600160a01b038116835260a01c6020830152565b818102929181159184041417156119c857565b806000527f19de352aacf5eb23e556c4ae8a1f47118f3051b029159b7e1b8f4f1672aaf600602052612e366001600160a01b03604060002054166143fe565b9081612e40575090565b6105df9150614470565b6001600160a01b03908181168015612d6e578390612e946126bf836000527f80bb2b638cc20bc4d0a60d66940f3ab4a00c1d7b313497ca82fb0b4ab0079302602052604060002090565b93841680159485159586612fef575b612edf866001600160a01b03166000527f80bb2b638cc20bc4d0a60d66940f3ab4a00c1d7b313497ca82fb0b4ab0079303602052604060002090565b60018154019055612f1d866107fe876000527f80bb2b638cc20bc4d0a60d66940f3ab4a00c1d7b313497ca82fb0b4ab0079302602052604060002090565b8484847fddf252ad1be2c89b69c2b068fc378daa952ba7f163c4a11628f55a4df523b3ef600080a415612fcf5750612f54836153ca565b03612fbf575b5050612f8e576040519081527fd276c29a2806f51d468256182f58ee92e85a773c869cde8e86c79e2c44b5ef4d90602090a1565b60246040517f73c6ac6e00000000000000000000000000000000000000000000000000000000815260006004820152fd5b612fc891615471565b3882612f5a565b83838303612fdf575b5050612f54565b612fe891615295565b3883612fd8565b612ff885614e45565b613034826001600160a01b03166000527f80bb2b638cc20bc4d0a60d66940f3ab4a00c1d7b313497ca82fb0b4ab0079303602052604060002090565b7fffffffffffffffffffffffffffffffffffffffffffffffffffffffffffffffff8154019055612ea3565b7f4e487b7100000000000000000000000000000000000000000000000000000000600052603260045260246000fd5b7f645e039705490088daad89bae25049a34f4a9072d398537b1ab2425f24cbed0280548210156130e3576000527fa42f15e5d656f8155fd7419d740a6073999f19cd6e061449ce4a257150545bf20190600090565b61305f565b7f56b3138e9d26d4b1bbb7eb44261bf9a02d56af8c0799b6892290ca1ba7b2e70180548210156130e3576000527f2c26ac34bdc0b134daa17d5a775f5fb701dc79b188a2651fe2a368e2f195db6d0190600090565b6001600160a01b0381161561318c57613188906001600160a01b03166000527f80bb2b638cc20bc4d0a60d66940f3ab4a00c1d7b313497ca82fb0b4ab0079303602052604060002090565b5490565b60246040517f89c62b6400000000000000000000000000000000000000000000000000000000815260006004820152fd5b60ff6131fb826001600160a01b03166000527f5575547e2bbff3f801051e8dc7ed5ba1cab8b335003bad8f456347ac015ff601602052604060002090565b54161561323b576001600160a01b03166000527f5575547e2bbff3f801051e8dc7ed5ba1cab8b335003bad8f456347ac015ff60060205260406000205490565b6024906001600160a01b03604051917ff2789bbb000000000000000000000000000000000000000000000000000000008352166004820152fd5b91929092613284818585612b5c565b833b613291575b50505050565b6132cf9160209160405193849283927f150b7a0200000000000000000000000000000000000000000000000000000000978885523360048601614848565b038160006001600160a01b0388165af1600091816133ad575b5061334057826132f6614877565b8051919082613339576040517f64a0ae920000000000000000000000000000000000000000000000000000000081526001600160a01b0383166004820152602490fd5b9050602001fd5b7fffffffff00000000000000000000000000000000000000000000000000000000160361337157503880808061328b565b6040517f64a0ae920000000000000000000000000000000000000000000000000000000081526001600160a01b03919091166004820152602490fd5b6133d091925060203d6020116133d7575b6133c88183611448565b810190614833565b90386132e8565b503d6133be565b612710821161114e576001600160a01b03906133f86150be565b6134006148a7565b61341961340b6135c1565b6134136135fa565b906148bf565b6134216150be565b6134296150be565b6134316150be565b61343a336141de565b5016604051917fde981f1b0000000000000000000000000000000000000000000000000000000080845260209384818061347c60048201906001602083019252565b0381875afa8015611349576134c8916000916135a4575b506001600160a01b03167fffffffffffffffffffffffff00000000000000000000000000000000000000006000541617600055565b60405181815260036004820152908482602481875afa91821561134957859261352891600091613587575b506001600160a01b03167fffffffffffffffffffffffff00000000000000000000000000000000000000006001541617600155565b6040519081526002600482015292839060249082905afa9182156113495761283793600093613562575b505061355d90614a5d565b614ae5565b61355d929350908161357f92903d1061285f576128508183611448565b919038613552565b61359e9150843d861161285f576128508183611448565b386134f3565b6135bb9150863d881161285f576128508183611448565b38613493565b604051906135ce826113d3565b600782527f57617463686974000000000000000000000000000000000000000000000000006020830152565b60405190613607826113d3565b600382527f574f5400000000000000000000000000000000000000000000000000000000006020830152565b92919061363f816143fe565b15613900576001600160a01b03908161365786613e21565b16156124835761366685613e21565b8216331415806138c7575b61389d576000928584526136ed6020917f19de352aacf5eb23e556c4ae8a1f47118f3051b029159b7e1b8f4f1672aaf60060205260408620966136e685878a541699906001600160a01b03167fffffffffffffffffffffffff0000000000000000000000000000000000000000825416179055565b36916114c3565b8685527f9c5345ebbec2d6cecdb38d9956fa842e9d714f43866d36c54fbb441829f0b000602052604085209181519167ffffffffffffffff83116113ef5761373f836137398654612b09565b86614d12565b602091601f84116001146137cb57509180916137af937ffddf17b07be2a1ede5b3a12c5d2f11d88d0ed0e7aacbdd0e34cf0634d93883b498926137c0575b50507fffffffffffffffffffffffffffffffffffffffffffffffffffffffffffffffff8260011b9260031b1c19161790565b90555b6040519485521692602090a3565b01519050388061377d565b7fffffffffffffffffffffffffffffffffffffffffffffffffffffffffffffffe0849596979894169061380387600052602060002090565b94905b8282106138855750509160019391857ffddf17b07be2a1ede5b3a12c5d2f11d88d0ed0e7aacbdd0e34cf0634d93883b499989796941061384e575b505050811b0190556137b2565b01517fffffffffffffffffffffffffffffffffffffffffffffffffffffffffffffffff60f88460031b161c19169055388080613841565b80600186978294978701518155019601940190613806565b60046040517fff90016f000000000000000000000000000000000000000000000000000000008152fd5b503360009081527f81c645c586cc97ef24bf664ec63b1c7f011ac6f124e394ab927688afa337c430602052604090205460ff1615613671565b60046040517ffe2a0dd1000000000000000000000000000000000000000000000000000000008152fd5b7f9b779b17422d0df92223018b32b4d1fa46e071723d6817e2486d003becc55f00600281541461395a5760029055565b60046040517f3ee5aeb5000000000000000000000000000000000000000000000000000000008152fd5b9190916001600160a01b03809216918215613a7757604051907fdd62ed3e00000000000000000000000000000000000000000000000000000000825282166004820152306024820152602081604481865afa90811561134957600091613a58575b5083116139f9576105df9183913091614d4c565b6040517f9cf1483d00000000000000000000000000000000000000000000000000000000815260206004820152601260248201527f496e76616c696420616c6c6f77616e63652e00000000000000000000000000006044820152606490fd5b613a71915060203d6020116116a7576116988183611448565b386139e5565b505050348111613a845790565b60646040517f9cf1483d00000000000000000000000000000000000000000000000000000000815260206004820152601f60248201527f496e76616c6964207472616e73616374696f6e20616d6f756e742073656e74006044820152fd5b9081158015613b05575b613b0157613afd9061271092612de4565b0490565b5090565b508015613aec565b80518210156130e35760209160051b010190565b929082518015613ce157606410613c5c57600080805b85519060ff80821692831015613bbc576001613b73613b656020613b5b878d613b0d565b510151958b613b0d565b51516001600160a01b031690565b92011693888315613bb15791613ba191613b9c88613b9587613ba79897614e32565b8094613ce8565b61299a565b9261299a565b935b939091613b37565b509295915050613ba9565b5050509092949350612710915011613bd7576105df916129a7565b6040517fa1cc3d7100000000000000000000000000000000000000000000000000000000815260206004820152602360248201527f496e76616c69642073706c6974206261736520706f696e7473206f766572666c60448201527f6f772e00000000000000000000000000000000000000000000000000000000006064820152608490fd5b6040517fa1cc3d7100000000000000000000000000000000000000000000000000000000815260206004820152603360248201527f496e76616c69642073706c697420616c6c6f636174696f6e732e2043616e6e6f60448201527f74206265206d6f7265207468616e203130302e000000000000000000000000006064820152608490fd5b5090915050565b916001600160a01b03613d3b9293166000527fcb711bda070b7bbcc2b711ef3993cc17677144f4419b29e303bef375c5f40f006020526040600020906001600160a01b0316600052602052604060002090565b80549182018092116119c85755565b80519260009160005b858110613d6257505050505050565b6001907f62a9dca5d6f332c00e3e4b20fc5cd48c6d048189908a57d766d85c2583e55f268686613e186001600160a01b03613deb896107fe83613da58a8d613b0d565b51168787527fcd95b85482a9213e30949ccc9c44037e29b901ca879098f5c64dd501b45d92006020526040809720906001600160a01b0316600052602052604060002090565b613df58689613b0d565b5116915192839283602090939291936001600160a01b0360408201951681520152565b0390a101613d53565b806000527f80bb2b638cc20bc4d0a60d66940f3ab4a00c1d7b313497ca82fb0b4ab00793026020526001600160a01b0360406000205416908115613e63575090565b602490604051907f7e2732890000000000000000000000000000000000000000000000000000000082526004820152fd5b613e9d81614ea0565b9081613f3e575b81613ead575090565b60209150600090604051838101907f01ffc9a70000000000000000000000000000000000000000000000000000000082527f744c334e00000000000000000000000000000000000000000000000000000000602482015260248152613f118161142c565b5191617530fa6000513d82613f32575b5081613f2b575090565b9050151590565b60201115915038613f21565b9050613f4981614ee2565b1590613ea4565b613f5981614ea0565b9081613fcd575b81613f69575090565b60209150600090604051838101907f01ffc9a70000000000000000000000000000000000000000000000000000000082527f36372b0700000000000000000000000000000000000000000000000000000000602482015260248152613f118161142c565b9050613fd881614ee2565b1590613f60565b6001600160a01b03811660009081527ff2e0a8360026a616a5c33ed370a5497cc3baf8a817a474a098d5f8687be72a0f602052604090207ff018c6c8c8da18060a4e6807987a0a03fba6c9fba4a5c9531151020efe3268149060ff905b541615614047575050565b604492506001600160a01b03604051927fe2517d3f0000000000000000000000000000000000000000000000000000000084521660048301526024820152fd5b6001600160a01b03811660009081527fb7db2dd08fcb62d0c9e08c51941cae53c267786a0b75803fb7960902fc8ef97d602052604090205460ff16156140ca5750565b6044906001600160a01b03604051917fe2517d3f00000000000000000000000000000000000000000000000000000000835216600482015260006024820152fd5b806000527f02dd7bc7dec4dceedda775e58dd541e08a116c6c53815c0bd028192f7b62680060205260ff61403c836040600020906001600160a01b0316600052602052604060002090565b90806141628430614f44565b10612146576040517fa9059cbb0000000000000000000000000000000000000000000000000000000081526001600160a01b03928316600482015260248101919091529160209183916044918391600091165af18015611349576141c35750565b6141db9060203d602011611342576113348183611448565b50565b6001600160a01b03811660009081527fb7db2dd08fcb62d0c9e08c51941cae53c267786a0b75803fb7960902fc8ef97d60205260408120547f02dd7bc7dec4dceedda775e58dd541e08a116c6c53815c0bd028192f7b6268009060ff166142a5578180526020526142658260408320906001600160a01b0316600052602052604060002090565b600160ff198254161790556001600160a01b03339216907f2f8788117e7eff1d82e926ec794901d17c78024a50270940304540a733656f0d8180a4600190565b50905090565b6001600160a01b03811660009081527ff2e0a8360026a616a5c33ed370a5497cc3baf8a817a474a098d5f8687be72a0f602052604081207ff018c6c8c8da18060a4e6807987a0a03fba6c9fba4a5c9531151020efe326814907f02dd7bc7dec4dceedda775e58dd541e08a116c6c53815c0bd028192f7b6268009060ff905b5416614395578183526020526143568360408420906001600160a01b0316600052602052604060002090565b600160ff198254161790557f2f8788117e7eff1d82e926ec794901d17c78024a50270940304540a733656f0d6001600160a01b033394169280a4600190565b5050905090565b6000908082527f02dd7bc7dec4dceedda775e58dd541e08a116c6c53815c0bd028192f7b6268008060205260ff61432a8560408620906001600160a01b0316600052602052604060002090565b9081602091031261035d57516105df81611e1c565b60206001600160a01b036024816000541693600060405195869485937f9f8a13d70000000000000000000000000000000000000000000000000000000085521660048401525af190811561134957600091614457575090565b6105df915060203d602011611342576113348183611448565b60206001600160a01b0360015416916024604051809481937f82afd23b00000000000000000000000000000000000000000000000000000000835260048301525afa90811561134957600091614457575090565b6001600160a01b03811660009081527fb7db2dd08fcb62d0c9e08c51941cae53c267786a0b75803fb7960902fc8ef97d60205260408120547f02dd7bc7dec4dceedda775e58dd541e08a116c6c53815c0bd028192f7b6268009060ff16156142a55781805260205261454c8260408320906001600160a01b0316600052602052604060002090565b60ff1981541690556001600160a01b03339216907ff6391f5c32d9c69d2a47ea670b442974b53935d1edc7fd64eb21e047a839171b8180a4600190565b6000908082527f02dd7bc7dec4dceedda775e58dd541e08a116c6c53815c0bd028192f7b6268008060205260ff6145d68560408620906001600160a01b0316600052602052604060002090565b541615614395578183526020526146038360408420906001600160a01b0316600052602052604060002090565b60ff1981541690557ff6391f5c32d9c69d2a47ea670b442974b53935d1edc7fd64eb21e047a839171b6001600160a01b033394169280a4600190565b906146b3916001600160a01b0382166000527f5575547e2bbff3f801051e8dc7ed5ba1cab8b335003bad8f456347ac015ff6006020526040600020556001600160a01b03166000527f5575547e2bbff3f801051e8dc7ed5ba1cab8b335003bad8f456347ac015ff601602052604060002090565b600160ff19825416179055565b60008080527f56b3138e9d26d4b1bbb7eb44261bf9a02d56af8c0799b6892290ca1ba7b2e7009081602052604081205461475a577f56b3138e9d26d4b1bbb7eb44261bf9a02d56af8c0799b6892290ca1ba7b2e70190815491680100000000000000008310156113ef5761473b8360016040950183556130e8565b6001600160a01b0382549160031b1b1916905554928180526020522055565b5050565b61479d816001600160a01b03166000527f56b3138e9d26d4b1bbb7eb44261bf9a02d56af8c0799b6892290ca1ba7b2e700602052604060002054151590565b6141db577f56b3138e9d26d4b1bbb7eb44261bf9a02d56af8c0799b6892290ca1ba7b2e7018054680100000000000000008110156113ef578060016147e4920183556130e8565b926001600160a01b038091169382549060031b9185831b921b191617905554906000527f56b3138e9d26d4b1bbb7eb44261bf9a02d56af8c0799b6892290ca1ba7b2e700602052604060002055565b9081602091031261035d57516105df816103ce565b90926105df94936080936001600160a01b03809216845216602083015260408201528160608201520190610570565b3d156148a2573d9061488882611489565b916148966040519384611448565b82523d6000602084013e565b606090565b6148af6150be565b6148b76150be565b6128376150be565b91906148c96150be565b6148d16150be565b825167ffffffffffffffff81116113ef577f80bb2b638cc20bc4d0a60d66940f3ab4a00c1d7b313497ca82fb0b4ab007930090614917816149128454612b09565b614c1d565b602080601f83116001146149715750908061496a9261283796976000926137c05750507fffffffffffffffffffffffffffffffffffffffffffffffffffffffffffffffff8260011b9260031b1c19161790565b9055615117565b907fffffffffffffffffffffffffffffffffffffffffffffffffffffffffffffffe08316966149e17f80bb2b638cc20bc4d0a60d66940f3ab4a00c1d7b313497ca82fb0b4ab00793006000527f37c58c799b6609234b945e882912ee9ad34948a1dfaa20a97485e1a7752bbf8190565b926000905b898210614a4557505090839291600194612837989910614a0e575b505050811b019055615117565b01517fffffffffffffffffffffffffffffffffffffffffffffffffffffffffffffffff60f88460031b161c19169055388080614a01565b806001859682949686015181550195019301906149e6565b614a656150be565b614a6d6150be565b600080527f2347f6e3e071d2c1531975e1fe894e6482b7b17e6e7c833ebff80a46ce05861a557f5575547e2bbff3f801051e8dc7ed5ba1cab8b335003bad8f456347ac015ff6016020527f23d865eec4993fd938a54a9019ab8616711837d31a2fe3fa6e376decde2262f8805460ff19166001179055565b614aed6150be565b614af56150be565b6001600160a01b037fad118695963461d59b4e186bb251fe176897e2c57f3362e8dade6f9a4f8e740091167fffffffffffffffffffffffff0000000000000000000000000000000000000000825416179055565b816000527fcd95b85482a9213e30949ccc9c44037e29b901ca879098f5c64dd501b45d92006020526001600160a01b03614b9a826040600020906001600160a01b0316600052602052604060002090565b5416918215614bfe576040517f744c334e0000000000000000000000000000000000000000000000000000000081526001600160a01b03929092166004830152602482015290602090829060449082905afa90811561134957600091614457575090565b505050600090565b818110614c11575050565b60008155600101614c06565b90601f8211614c2a575050565b612837917f80bb2b638cc20bc4d0a60d66940f3ab4a00c1d7b313497ca82fb0b4ab00793006000527f37c58c799b6609234b945e882912ee9ad34948a1dfaa20a97485e1a7752bbf81906020601f840160051c83019310614c93575b601f0160051c0190614c06565b9091508190614c86565b90601f8211614caa575050565b612837917f80bb2b638cc20bc4d0a60d66940f3ab4a00c1d7b313497ca82fb0b4ab00793016000527ff4bad0a69248f59680a4f2b3000328cec71a413447c96781cfe5996daa8c456e906020601f840160051c83019310614c9357601f0160051c0190614c06565b9190601f8111614d2157505050565b612837926000526020600020906020601f840160051c83019310614c9357601f0160051c0190614c06565b600091614dc29383926040519660208801937f23b872dd0000000000000000000000000000000000000000000000000000000085526001600160a01b03938480921660248b0152166044890152606488015260648752614dab87611410565b1694519082865af1614dbb614877565b908361566f565b8051908115159182614e14575b5050614dd85750565b6040517f5274afe70000000000000000000000000000000000000000000000000000000081526001600160a01b03919091166004820152602490fd5b614e2b92509060208061267e9383010191016143e9565b3880614dcf565b90612710811161114e576105df91613ae2565b614e78906000527f80bb2b638cc20bc4d0a60d66940f3ab4a00c1d7b313497ca82fb0b4ab0079304602052604060002090565b7fffffffffffffffffffffffff00000000000000000000000000000000000000008154169055565b6000602091604051838101907f01ffc9a700000000000000000000000000000000000000000000000000000000808352602482015260248152613f118161142c565b6000602091604051838101907f01ffc9a70000000000000000000000000000000000000000000000000000000082527fffffffff00000000000000000000000000000000000000000000000000000000602482015260248152613f118161142c565b906001600160a01b03809116908115614fbb5760246020929360405194859384927f70a082310000000000000000000000000000000000000000000000000000000084521660048301525afa90811561134957600091614fa2575090565b6105df915060203d6020116116a7576116988183611448565b50503190565b90813b15615084576001600160a01b0382167f360894a13ba1a3210667c828492db98dca3e2076cc3735a920a3ca505d382bbc817fffffffffffffffffffffffff00000000000000000000000000000000000000008254161790557fbc7cd75a20ee27fd9adebab32041f755214dbc6bffa90cc0225b39da2e5c2d3b600080a2805115615051576141db91615513565b50503461505a57565b60046040517fb398979f000000000000000000000000000000000000000000000000000000008152fd5b6024826001600160a01b03604051917f4c9c8ce3000000000000000000000000000000000000000000000000000000008352166004820152fd5b60ff7ff0c57e16840df040f15088dc2f81fe391c3923bec73e23a9662efc9c229c6a005460401c16156150ed57565b60046040517fd7e6bcf8000000000000000000000000000000000000000000000000000000008152fd5b90815167ffffffffffffffff81116113ef577f80bb2b638cc20bc4d0a60d66940f3ab4a00c1d7b313497ca82fb0b4ab00793019061515e816151598454612b09565b614c9d565b602080601f83116001146151b2575081906151ae9394956000926137c05750507fffffffffffffffffffffffffffffffffffffffffffffffffffffffffffffffff8260011b9260031b1c19161790565b9055565b907fffffffffffffffffffffffffffffffffffffffffffffffffffffffffffffffe08316956152227f80bb2b638cc20bc4d0a60d66940f3ab4a00c1d7b313497ca82fb0b4ab00793016000527ff4bad0a69248f59680a4f2b3000328cec71a413447c96781cfe5996daa8c456e90565b926000905b88821061527d57505083600195969710615246575b505050811b019055565b01517fffffffffffffffffffffffffffffffffffffffffffffffffffffffffffffffff60f88460031b161c1916905538808061523c565b80600185968294968601518155019501930190615227565b9061529f8261313d565b6000928284526001600160a01b036020917f645e039705490088daad89bae25049a34f4a9072d398537b1ab2425f24cbed0183528561531660409687832054878103615349575b506000527f645e039705490088daad89bae25049a34f4a9072d398537b1ab2425f24cbed01602052604060002090565b551684527f645e039705490088daad89bae25049a34f4a9072d398537b1ab2425f24cbed00815282842091845252812055565b6153c38686168086527f645e039705490088daad89bae25049a34f4a9072d398537b1ab2425f24cbed00808a528b87208b88528a528b87205491875289528a86208387528952808b8720556000527f645e039705490088daad89bae25049a34f4a9072d398537b1ab2425f24cbed01602052604060002090565b55386152e6565b7f645e039705490088daad89bae25049a34f4a9072d398537b1ab2425f24cbed028054826000527f645e039705490088daad89bae25049a34f4a9072d398537b1ab2425f24cbed0360205280604060002055680100000000000000008110156113ef5761543c9160018201905561308e565b7fffffffffffffffffffffffffffffffffffffffffffffffffffffffffffffffff829392549160031b92831b921b1916179055565b9061547b8261313d565b917fffffffffffffffffffffffffffffffffffffffffffffffffffffffffffffffff83019283116119c8576040916001600160a01b036000921682527f645e039705490088daad89bae25049a34f4a9072d398537b1ab2425f24cbed00602052828220848352602052808383205581527f645e039705490088daad89bae25049a34f4a9072d398537b1ab2425f24cbed016020522055565b6000806105df93602081519101845af461552b614877565b9161566f565b6001600160a01b039081831680151590816155ce575b50156155535750505050565b1661558a576040517f7e27328900000000000000000000000000000000000000000000000000000000815260048101839052602490fd5b6040517f177e802f0000000000000000000000000000000000000000000000000000000081526001600160a01b039190911660048201526024810191909152604490fd5b828416811491508115615623575b81156155ea575b5038615547565b9050846000527f80bb2b638cc20bc4d0a60d66940f3ab4a00c1d7b313497ca82fb0b4ab0079304602052826040600020541614386155e3565b905060ff615667856108a4856001600160a01b03166000527f80bb2b638cc20bc4d0a60d66940f3ab4a00c1d7b313497ca82fb0b4ab0079305602052604060002090565b5416906155dc565b906156ae575080511561568457805190602001fd5b60046040517f1425ea42000000000000000000000000000000000000000000000000000000008152fd5b815115806156f9575b6156bf575090565b6024906001600160a01b03604051917f9996b315000000000000000000000000000000000000000000000000000000008352166004820152fd5b50803b156156b756fea2646970667358221220765480b0af3ed73782e524068c96ea28f8056950c56c6dfe31660129f79d598664736f6c63430008180033","linkReferences":{}},"methodIdentifiers":{"DEFAULT_ADMIN_ROLE()":"a217fddf","UPGRADE_INTERFACE_VERSION()":"ad3cb1cc","approve(address,uint256)":"095ea7b3","balanceOf(address)":"70a08231","delegateRights(address,uint256)":"19741bf8","disburse(uint256)":"bd77ac2c","disburse(uint256,address)":"1c61f62b","getApproved(uint256)":"081812fc","getCustodial(uint256)":"8e5ae4b9","getFees(address)":"9af608c9","getGovernance()":"289b3c0d","getLedgerEntry(address,address)":"8f132f87","getRoleAdmin(bytes32)":"248a9ca3","getSecuredContent(uint256)":"11e09d32","getTreasuryAddress()":"e0024604","grantAccess(uint256,address[],((address,uint256),(address,uint256)[]))":"005de3ac","grantCustodial(uint256,address,bytes)":"ed40f722","grantRole(bytes32,address)":"2f2ff15d","hasRole(bytes32,address)":"91d14854","initialize(address,uint256)":"cd6dc687","isAccessGranted(address,uint256)":"d455dda9","isApprovedForAll(address,address)":"e985e9c5","isCurrencySupported(address)":"70dfaeca","isEligibleForDistribution(uint256)":"34534e2e","mint(address,uint256)":"40c10f19","name()":"06fdde03","ownerOf(uint256)":"6352211e","proxiableUUID()":"52d1902d","renounceRole(bytes32,address)":"36568abe","revokeEmergencyAdmin(address)":"4c622006","revokeRights(address,uint256)":"9fcfd407","revokeRole(bytes32,address)":"d547741f","royaltyInfo(uint256,uint256)":"2a55205a","safeTransferFrom(address,address,uint256)":"42842e0e","safeTransferFrom(address,address,uint256,bytes)":"b88d4fde","setApprovalForAll(address,bool)":"a22cb465","setEmergencyAdmin(address)":"35da3394","setFees(uint256)":"3d18678e","setFees(uint256,address)":"3d162cdc","setGovernance(address)":"ab033ea9","setTreasuryAddress(address)":"6605bfda","supportedCurrencies()":"2c58824c","supportsInterface(bytes4)":"01ffc9a7","symbol()":"95d89b41","tokenByIndex(uint256)":"4f6ccce7","tokenOfOwnerByIndex(address,uint256)":"2f745c59","tokenURI(uint256)":"c87b56dd","totalSupply()":"18160ddd","transferFrom(address,address,uint256)":"23b872dd","upgradeToAndCall(address,bytes)":"4f1ef286","withdraw(address,uint256,address)":"69328dec"},"id":3}