{"abi":[{"type":"constructor","inputs":[{"name":"implementation","type":"address","internalType":"address"}],"stateMutability":"nonpayable"},{"type":"function","name":"contracts","inputs":[{"name":"","type":"uint256","internalType":"uint256"}],"outputs":[{"name":"","type":"address","internalType":"address"}],"stateMutability":"view"},{"type":"function","name":"implementation","inputs":[],"outputs":[{"name":"","type":"address","internalType":"address"}],"stateMutability":"view"},{"type":"function","name":"owner","inputs":[],"outputs":[{"name":"","type":"address","internalType":"address"}],"stateMutability":"view"},{"type":"function","name":"pause","inputs":[],"outputs":[],"stateMutability":"nonpayable"},{"type":"function","name":"paused","inputs":[],"outputs":[{"name":"","type":"bool","internalType":"bool"}],"stateMutability":"view"},{"type":"function","name":"register","inputs":[{"name":"_endpoint","type":"string","internalType":"string"}],"outputs":[],"stateMutability":"nonpayable"},{"type":"function","name":"registry","inputs":[{"name":"","type":"string","internalType":"string"}],"outputs":[{"name":"","type":"address","internalType":"address"}],"stateMutability":"view"},{"type":"function","name":"renounceOwnership","inputs":[],"outputs":[],"stateMutability":"nonpayable"},{"type":"function","name":"transferOwnership","inputs":[{"name":"newOwner","type":"address","internalType":"address"}],"outputs":[],"stateMutability":"nonpayable"},{"type":"function","name":"unpause","inputs":[],"outputs":[],"stateMutability":"nonpayable"},{"type":"function","name":"upgradeTo","inputs":[{"name":"newImplementation","type":"address","internalType":"address"}],"outputs":[],"stateMutability":"nonpayable"},{"type":"event","name":"DistributorCreated","inputs":[{"name":"distributor","type":"address","indexed":false,"internalType":"address"}],"anonymous":false},{"type":"event","name":"OwnershipTransferred","inputs":[{"name":"previousOwner","type":"address","indexed":true,"internalType":"address"},{"name":"newOwner","type":"address","indexed":true,"internalType":"address"}],"anonymous":false},{"type":"event","name":"Paused","inputs":[{"name":"account","type":"address","indexed":false,"internalType":"address"}],"anonymous":false},{"type":"event","name":"Unpaused","inputs":[{"name":"account","type":"address","indexed":false,"internalType":"address"}],"anonymous":false},{"type":"event","name":"Upgraded","inputs":[{"name":"implementation","type":"address","indexed":true,"internalType":"address"}],"anonymous":false},{"type":"error","name":"BeaconInvalidImplementation","inputs":[{"name":"implementation","type":"address","internalType":"address"}]},{"type":"error","name":"DistributorAlreadyRegistered","inputs":[]},{"type":"error","name":"EnforcedPause","inputs":[]},{"type":"error","name":"ExpectedPause","inputs":[]},{"type":"error","name":"OwnableInvalidOwner","inputs":[{"name":"owner","type":"address","internalType":"address"}]},{"type":"error","name":"OwnableUnauthorizedAccount","inputs":[{"name":"account","type":"address","internalType":"address"}]}],"bytecode":{"object":"0x60803461011357601f6110c338819003918201601f19168301916001600160401b038311848410176101185780849260209460405283398101031261011357516001600160a01b03808216908183036101135733156100fa5760008054336001600160a01b0319821681178355604051929592939091167f8be0079c531659141344cd1fd0a4f28419497f9722a3daafe3b4186f6b6457e08680a33b156100e65750600154817fbc7cd75a20ee27fd9adebab32041f755214dbc6bffa90cc0225b39da2e5c2d3b6040519480a26001600160a81b03191617600155610f94908161012f8239f35b60249163211eb15960e21b82526004820152fd5b604051631e4fbdf760e01b815260006004820152602490fd5b600080fd5b634e487b7160e01b600052604160045260246000fdfe6040608081526004803610156200001557600080fd5b600091823560e01c80633659cfe614620007d05780633f4ba83a1462000727578063474da79a14620006d35780635c60da1b146200069c5780635c975abb1462000673578063715018a614620005f15780638456cb59146200055e5780638da5cb5b146200052957806392a296c9146200041d578063f2c298be14620001775763f2fde38b14620000a557600080fd5b3462000173576020600319360112620001735781359173ffffffffffffffffffffffffffffffffffffffff918284168094036200016f57620000e662000997565b8315620001405750508254827fffffffffffffffffffffffff00000000000000000000000000000000000000008216178455167f8be0079c531659141344cd1fd0a4f28419497f9722a3daafe3b4186f6b6457e08380a380f35b908460249251917f1e4fbdf7000000000000000000000000000000000000000000000000000000008352820152fd5b8480fd5b8280fd5b50829034620004195760209081600319360112620001735783359067ffffffffffffffff8083116200016f57366023840112156200016f57828601358181116200041557602484019360248236920101116200041557620001d7620009e9565b8251918185843781830160038152838773ffffffffffffffffffffffffffffffffffffffff958693030190205416620003ed578351908682017f7ab4339d0000000000000000000000000000000000000000000000000000000081528560248401528360648401528387608485013788608485850101527fffffffffffffffffffffffffffffffffffffffffffffffffffffffffffffffe0903360448501526200029460848584601f890116810103606481018752018562000901565b86519361053b80860194851186861017620003c15760609492620002d78795938b8e601f9562000a248a39308852870152518092818d8801528887019062000972565b01160103019087f08015620003b7578286911694828551938492833781016003815203019020337fffffffffffffffffffffffff0000000000000000000000000000000000000000825416179055600254680100000000000000008110156200038b577f3b62b47c481e4ad60de3b59d2b9f3bc6594ac0921f891ad799bb1b75efbb53829596508060016200037092016002556200089a565b819291549060031b9185831b921b191617905551908152a180f35b6024866041897f4e487b7100000000000000000000000000000000000000000000000000000000835252fd5b83513d88823e3d90fd5b60248c60418f7f4e487b7100000000000000000000000000000000000000000000000000000000835252fd5b8784517f8c1ed8dd000000000000000000000000000000000000000000000000000000008152fd5b8580fd5b5080fd5b508234620005265760209283600319360112620004195780359167ffffffffffffffff91828411620004195736602385011215620004195783810135928311620004fa575083519162000498867fffffffffffffffffffffffffffffffffffffffffffffffffffffffffffffffe0601f840116018462000901565b8083528583019336602483830101116200017357928692838373ffffffffffffffffffffffffffffffffffffffff97946024620004e79801863783010152855193849283925192839162000972565b8101600381520301902054169051908152f35b9060416024927f4e487b7100000000000000000000000000000000000000000000000000000000835252fd5b80fd5b838234620004195781600319360112620004195773ffffffffffffffffffffffffffffffffffffffff60209254169051908152f35b838234620004195781600319360112620004195760207f62e78cea01bee320cd4e420270b5ea74000d11b0c9f74754ebdbfc544b05a25891620005a062000997565b620005aa620009e9565b740100000000000000000000000000000000000000007fffffffffffffffffffffff00ffffffffffffffffffffffffffffffffffffffff600154161760015551338152a180f35b833462000526578060031936011262000526576200060e62000997565b8073ffffffffffffffffffffffffffffffffffffffff81547fffffffffffffffffffffffff000000000000000000000000000000000000000081168355167f8be0079c531659141344cd1fd0a4f28419497f9722a3daafe3b4186f6b6457e08280a380f35b838234620004195781600319360112620004195760209060ff60015460a01c1690519015158152f35b838234620004195781600319360112620004195760209073ffffffffffffffffffffffffffffffffffffffff600154169051908152f35b509034620001735760206003193601126200017357359160025483101562000526575073ffffffffffffffffffffffffffffffffffffffff620007186020936200089a565b92905490519260031b1c168152f35b50903462000173578260031936011262000173576200074562000997565b6001549060ff8260a01c1615620007a957507f5db9ee0a495bf2e6ff9c91a7834c1ba4fdd244a5e8aa4e537bd38aeae4b073aa917fffffffffffffffffffffff00ffffffffffffffffffffffffffffffffffffffff6020921660015551338152a180f35b82517f8dfc202b000000000000000000000000000000000000000000000000000000008152fd5b50903462000173576020600319360112620001735780359173ffffffffffffffffffffffffffffffffffffffff8316928381036200016f576200081262000997565b3b156200086c575050807fffffffffffffffffffffffff000000000000000000000000000000000000000060015416176001557fbc7cd75a20ee27fd9adebab32041f755214dbc6bffa90cc0225b39da2e5c2d3b8280a280f35b9160249251917f847ac564000000000000000000000000000000000000000000000000000000008352820152fd5b600254811015620008d25760026000527f405787fa12a823e0f2b7631cc41b3ba8828b3321ca811111fa75cd3aa3bb5ace0190600090565b7f4e487b7100000000000000000000000000000000000000000000000000000000600052603260045260246000fd5b90601f7fffffffffffffffffffffffffffffffffffffffffffffffffffffffffffffffe0910116810190811067ffffffffffffffff8211176200094357604052565b7f4e487b7100000000000000000000000000000000000000000000000000000000600052604160045260246000fd5b60005b838110620009865750506000910152565b818101518382015260200162000975565b73ffffffffffffffffffffffffffffffffffffffff600054163303620009b957565b60246040517f118cdaa7000000000000000000000000000000000000000000000000000000008152336004820152fd5b60ff60015460a01c16620009f957565b60046040517fd93c0665000000000000000000000000000000000000000000000000000000008152fdfe60a060409080825261053b803803809161001982856102ae565b8339810182828203126101e95761002f826102e7565b60208084015191939091906001600160401b0382116101e9570182601f820112156101e957805190610060826102fb565b9361006d875195866102ae565b8285528383830101116101e957829060005b83811061029a57505060009184010152823b1561027a577fa3f0ad74e5423aebfd80d3ef4346578335a9a72aeaee59ff6cb3582b35133d5080546001600160a01b0319166001600160a01b038581169182179092558551635c60da1b60e01b8082529194928482600481895afa91821561026f57600092610238575b50813b1561021f5750508551847f1cf3b03a6cf19fa2baba4df148e9dcabedea7f8a5c07840e207e5c089be95d3e600080a282511561020057508290600487518096819382525afa9283156101f5576000936101b3575b5091600080848461019096519101845af4903d156101aa573d610174816102fb565b90610181885192836102ae565b8152600081943d92013e610316565b505b608052516101c1908161037a82396080518160450152f35b60609250610316565b92508183813d83116101ee575b6101ca81836102ae565b810103126101e9576000806101e1610190956102e7565b945050610152565b600080fd5b503d6101c0565b85513d6000823e3d90fd5b9350505050346102105750610192565b63b398979f60e01b8152600490fd5b8751634c9c8ce360e01b81529116600482015260249150fd5b9091508481813d8311610268575b61025081836102ae565b810103126101e957610261906102e7565b90386100fb565b503d610246565b88513d6000823e3d90fd5b8351631933b43b60e21b81526001600160a01b0384166004820152602490fd5b81810183015186820184015284920161007f565b601f909101601f19168101906001600160401b038211908210176102d157604052565b634e487b7160e01b600052604160045260246000fd5b51906001600160a01b03821682036101e957565b6001600160401b0381116102d157601f01601f191660200190565b9061033d575080511561032b57805190602001fd5b604051630a12f52160e11b8152600490fd5b81511580610370575b61034e575090565b604051639996b31560e01b81526001600160a01b039091166004820152602490fd5b50803b1561034656fe6080806040527f5c60da1b00000000000000000000000000000000000000000000000000000000815260208160048173ffffffffffffffffffffffffffffffffffffffff7f0000000000000000000000000000000000000000000000000000000000000000165afa90811561010e5760009161007c575b5061016c565b905060203d602011610107575b7fffffffffffffffffffffffffffffffffffffffffffffffffffffffffffffffe0601f82011682019180831067ffffffffffffffff8411176100d8576100d2926040520161011a565b38610076565b7f4e487b7100000000000000000000000000000000000000000000000000000000600052604160045260246000fd5b503d610089565b6040513d6000823e3d90fd5b7fffffffffffffffffffffffffffffffffffffffffffffffffffffffffffffff8060209101126101675760805173ffffffffffffffffffffffffffffffffffffffff811681036101675790565b600080fd5b6000808092368280378136915af43d82803e15610187573d90f35b3d90fdfea264697066735822122073d9f321f00eb28e64bcfcd8c1849d50fbe9ba6d4a057673fb0bd051788e423264736f6c63430008180033a2646970667358221220b8f1203c9e706f8306817b6e49ebd133c5725cd474083be212d2fa0597f336d964736f6c63430008180033","linkReferences":{}},"methodIdentifiers":{"contracts(uint256)":"474da79a","implementation()":"5c60da1b","owner()":"8da5cb5b","pause()":"8456cb59","paused()":"5c975abb","register(string)":"f2c298be","registry(string)":"92a296c9","renounceOwnership()":"715018a6","transferOwnership(address)":"f2fde38b","unpause()":"3f4ba83a","upgradeTo(address)":"3659cfe6"},"id":1}