{"abi":[{"type":"constructor","inputs":[{"name":"_wvc","type":"address","internalType":"contract ERC20Votes"},{"name":"_timelock","type":"address","internalType":"contract TimelockController"}],"stateMutability":"nonpayable"},{"type":"receive","stateMutability":"payable"},{"type":"function","name":"BALLOT_TYPEHASH","inputs":[],"outputs":[{"name":"","type":"bytes32","internalType":"bytes32"}],"stateMutability":"view"},{"type":"function","name":"CLOCK_MODE","inputs":[],"outputs":[{"name":"","type":"string","internalType":"string"}],"stateMutability":"view"},{"type":"function","name":"COUNTING_MODE","inputs":[],"outputs":[{"name":"","type":"string","internalType":"string"}],"stateMutability":"pure"},{"type":"function","name":"EXTENDED_BALLOT_TYPEHASH","inputs":[],"outputs":[{"name":"","type":"bytes32","internalType":"bytes32"}],"stateMutability":"view"},{"type":"function","name":"cancel","inputs":[{"name":"targets","type":"address[]","internalType":"address[]"},{"name":"values","type":"uint256[]","internalType":"uint256[]"},{"name":"calldatas","type":"bytes[]","internalType":"bytes[]"},{"name":"descriptionHash","type":"bytes32","internalType":"bytes32"}],"outputs":[{"name":"","type":"uint256","internalType":"uint256"}],"stateMutability":"nonpayable"},{"type":"function","name":"castVote","inputs":[{"name":"proposalId","type":"uint256","internalType":"uint256"},{"name":"support","type":"uint8","internalType":"uint8"}],"outputs":[{"name":"","type":"uint256","internalType":"uint256"}],"stateMutability":"nonpayable"},{"type":"function","name":"castVoteBySig","inputs":[{"name":"proposalId","type":"uint256","internalType":"uint256"},{"name":"support","type":"uint8","internalType":"uint8"},{"name":"voter","type":"address","internalType":"address"},{"name":"signature","type":"bytes","internalType":"bytes"}],"outputs":[{"name":"","type":"uint256","internalType":"uint256"}],"stateMutability":"nonpayable"},{"type":"function","name":"castVoteWithReason","inputs":[{"name":"proposalId","type":"uint256","internalType":"uint256"},{"name":"support","type":"uint8","internalType":"uint8"},{"name":"reason","type":"string","internalType":"string"}],"outputs":[{"name":"","type":"uint256","internalType":"uint256"}],"stateMutability":"nonpayable"},{"type":"function","name":"castVoteWithReasonAndParams","inputs":[{"name":"proposalId","type":"uint256","internalType":"uint256"},{"name":"support","type":"uint8","internalType":"uint8"},{"name":"reason","type":"string","internalType":"string"},{"name":"params","type":"bytes","internalType":"bytes"}],"outputs":[{"name":"","type":"uint256","internalType":"uint256"}],"stateMutability":"nonpayable"},{"type":"function","name":"castVoteWithReasonAndParamsBySig","inputs":[{"name":"proposalId","type":"uint256","internalType":"uint256"},{"name":"support","type":"uint8","internalType":"uint8"},{"name":"voter","type":"address","internalType":"address"},{"name":"reason","type":"string","internalType":"string"},{"name":"params","type":"bytes","internalType":"bytes"},{"name":"signature","type":"bytes","internalType":"bytes"}],"outputs":[{"name":"","type":"uint256","internalType":"uint256"}],"stateMutability":"nonpayable"},{"type":"function","name":"clock","inputs":[],"outputs":[{"name":"","type":"uint48","internalType":"uint48"}],"stateMutability":"view"},{"type":"function","name":"eip712Domain","inputs":[],"outputs":[{"name":"fields","type":"bytes1","internalType":"bytes1"},{"name":"name","type":"string","internalType":"string"},{"name":"version","type":"string","internalType":"string"},{"name":"chainId","type":"uint256","internalType":"uint256"},{"name":"verifyingContract","type":"address","internalType":"address"},{"name":"salt","type":"bytes32","internalType":"bytes32"},{"name":"extensions","type":"uint256[]","internalType":"uint256[]"}],"stateMutability":"view"},{"type":"function","name":"execute","inputs":[{"name":"targets","type":"address[]","internalType":"address[]"},{"name":"values","type":"uint256[]","internalType":"uint256[]"},{"name":"calldatas","type":"bytes[]","internalType":"bytes[]"},{"name":"descriptionHash","type":"bytes32","internalType":"bytes32"}],"outputs":[{"name":"","type":"uint256","internalType":"uint256"}],"stateMutability":"payable"},{"type":"function","name":"getVotes","inputs":[{"name":"account","type":"address","internalType":"address"},{"name":"timepoint","type":"uint256","internalType":"uint256"}],"outputs":[{"name":"","type":"uint256","internalType":"uint256"}],"stateMutability":"view"},{"type":"function","name":"getVotesWithParams","inputs":[{"name":"account","type":"address","internalType":"address"},{"name":"timepoint","type":"uint256","internalType":"uint256"},{"name":"params","type":"bytes","internalType":"bytes"}],"outputs":[{"name":"","type":"uint256","internalType":"uint256"}],"stateMutability":"view"},{"type":"function","name":"hasVoted","inputs":[{"name":"proposalId","type":"uint256","internalType":"uint256"},{"name":"account","type":"address","internalType":"address"}],"outputs":[{"name":"","type":"bool","internalType":"bool"}],"stateMutability":"view"},{"type":"function","name":"hashProposal","inputs":[{"name":"targets","type":"address[]","internalType":"address[]"},{"name":"values","type":"uint256[]","internalType":"uint256[]"},{"name":"calldatas","type":"bytes[]","internalType":"bytes[]"},{"name":"descriptionHash","type":"bytes32","internalType":"bytes32"}],"outputs":[{"name":"","type":"uint256","internalType":"uint256"}],"stateMutability":"pure"},{"type":"function","name":"name","inputs":[],"outputs":[{"name":"","type":"string","internalType":"string"}],"stateMutability":"view"},{"type":"function","name":"nonces","inputs":[{"name":"owner","type":"address","internalType":"address"}],"outputs":[{"name":"","type":"uint256","internalType":"uint256"}],"stateMutability":"view"},{"type":"function","name":"onERC1155BatchReceived","inputs":[{"name":"","type":"address","internalType":"address"},{"name":"","type":"address","internalType":"address"},{"name":"","type":"uint256[]","internalType":"uint256[]"},{"name":"","type":"uint256[]","internalType":"uint256[]"},{"name":"","type":"bytes","internalType":"bytes"}],"outputs":[{"name":"","type":"bytes4","internalType":"bytes4"}],"stateMutability":"nonpayable"},{"type":"function","name":"onERC1155Received","inputs":[{"name":"","type":"address","internalType":"address"},{"name":"","type":"address","internalType":"address"},{"name":"","type":"uint256","internalType":"uint256"},{"name":"","type":"uint256","internalType":"uint256"},{"name":"","type":"bytes","internalType":"bytes"}],"outputs":[{"name":"","type":"bytes4","internalType":"bytes4"}],"stateMutability":"nonpayable"},{"type":"function","name":"onERC721Received","inputs":[{"name":"","type":"address","internalType":"address"},{"name":"","type":"address","internalType":"address"},{"name":"","type":"uint256","internalType":"uint256"},{"name":"","type":"bytes","internalType":"bytes"}],"outputs":[{"name":"","type":"bytes4","internalType":"bytes4"}],"stateMutability":"nonpayable"},{"type":"function","name":"proposalDeadline","inputs":[{"name":"proposalId","type":"uint256","internalType":"uint256"}],"outputs":[{"name":"","type":"uint256","internalType":"uint256"}],"stateMutability":"view"},{"type":"function","name":"proposalEta","inputs":[{"name":"proposalId","type":"uint256","internalType":"uint256"}],"outputs":[{"name":"","type":"uint256","internalType":"uint256"}],"stateMutability":"view"},{"type":"function","name":"proposalNeedsQueuing","inputs":[{"name":"proposalId","type":"uint256","internalType":"uint256"}],"outputs":[{"name":"","type":"bool","internalType":"bool"}],"stateMutability":"view"},{"type":"function","name":"proposalProposer","inputs":[{"name":"proposalId","type":"uint256","internalType":"uint256"}],"outputs":[{"name":"","type":"address","internalType":"address"}],"stateMutability":"view"},{"type":"function","name":"proposalSnapshot","inputs":[{"name":"proposalId","type":"uint256","internalType":"uint256"}],"outputs":[{"name":"","type":"uint256","internalType":"uint256"}],"stateMutability":"view"},{"type":"function","name":"proposalThreshold","inputs":[],"outputs":[{"name":"","type":"uint256","internalType":"uint256"}],"stateMutability":"view"},{"type":"function","name":"proposalVotes","inputs":[{"name":"proposalId","type":"uint256","internalType":"uint256"}],"outputs":[{"name":"againstVotes","type":"uint256","internalType":"uint256"},{"name":"forVotes","type":"uint256","internalType":"uint256"},{"name":"abstainVotes","type":"uint256","internalType":"uint256"}],"stateMutability":"view"},{"type":"function","name":"propose","inputs":[{"name":"targets","type":"address[]","internalType":"address[]"},{"name":"values","type":"uint256[]","internalType":"uint256[]"},{"name":"calldatas","type":"bytes[]","internalType":"bytes[]"},{"name":"description","type":"string","internalType":"string"}],"outputs":[{"name":"","type":"uint256","internalType":"uint256"}],"stateMutability":"nonpayable"},{"type":"function","name":"queue","inputs":[{"name":"targets","type":"address[]","internalType":"address[]"},{"name":"values","type":"uint256[]","internalType":"uint256[]"},{"name":"calldatas","type":"bytes[]","internalType":"bytes[]"},{"name":"descriptionHash","type":"bytes32","internalType":"bytes32"}],"outputs":[{"name":"","type":"uint256","internalType":"uint256"}],"stateMutability":"nonpayable"},{"type":"function","name":"quorum","inputs":[{"name":"timepoint","type":"uint256","internalType":"uint256"}],"outputs":[{"name":"","type":"uint256","internalType":"uint256"}],"stateMutability":"view"},{"type":"function","name":"quorumDenominator","inputs":[],"outputs":[{"name":"","type":"uint256","internalType":"uint256"}],"stateMutability":"view"},{"type":"function","name":"quorumNumerator","inputs":[{"name":"timepoint","type":"uint256","internalType":"uint256"}],"outputs":[{"name":"","type":"uint256","internalType":"uint256"}],"stateMutability":"view"},{"type":"function","name":"quorumNumerator","inputs":[],"outputs":[{"name":"","type":"uint256","internalType":"uint256"}],"stateMutability":"view"},{"type":"function","name":"relay","inputs":[{"name":"target","type":"address","internalType":"address"},{"name":"value","type":"uint256","internalType":"uint256"},{"name":"data","type":"bytes","internalType":"bytes"}],"outputs":[],"stateMutability":"payable"},{"type":"function","name":"setProposalThreshold","inputs":[{"name":"newProposalThreshold","type":"uint256","internalType":"uint256"}],"outputs":[],"stateMutability":"nonpayable"},{"type":"function","name":"setVotingDelay","inputs":[{"name":"newVotingDelay","type":"uint48","internalType":"uint48"}],"outputs":[],"stateMutability":"nonpayable"},{"type":"function","name":"setVotingPeriod","inputs":[{"name":"newVotingPeriod","type":"uint32","internalType":"uint32"}],"outputs":[],"stateMutability":"nonpayable"},{"type":"function","name":"state","inputs":[{"name":"proposalId","type":"uint256","internalType":"uint256"}],"outputs":[{"name":"","type":"uint8","internalType":"enum IGovernor.ProposalState"}],"stateMutability":"view"},{"type":"function","name":"supportsInterface","inputs":[{"name":"interfaceId","type":"bytes4","internalType":"bytes4"}],"outputs":[{"name":"","type":"bool","internalType":"bool"}],"stateMutability":"view"},{"type":"function","name":"timelock","inputs":[],"outputs":[{"name":"","type":"address","internalType":"address"}],"stateMutability":"view"},{"type":"function","name":"token","inputs":[],"outputs":[{"name":"","type":"address","internalType":"contract IERC5805"}],"stateMutability":"view"},{"type":"function","name":"updateQuorumNumerator","inputs":[{"name":"newQuorumNumerator","type":"uint256","internalType":"uint256"}],"outputs":[],"stateMutability":"nonpayable"},{"type":"function","name":"updateTimelock","inputs":[{"name":"newTimelock","type":"address","internalType":"contract TimelockController"}],"outputs":[],"stateMutability":"nonpayable"},{"type":"function","name":"version","inputs":[],"outputs":[{"name":"","type":"string","internalType":"string"}],"stateMutability":"view"},{"type":"function","name":"votingDelay","inputs":[],"outputs":[{"name":"","type":"uint256","internalType":"uint256"}],"stateMutability":"view"},{"type":"function","name":"votingPeriod","inputs":[],"outputs":[{"name":"","type":"uint256","internalType":"uint256"}],"stateMutability":"view"},{"type":"event","name":"EIP712DomainChanged","inputs":[],"anonymous":false},{"type":"event","name":"ProposalCanceled","inputs":[{"name":"proposalId","type":"uint256","indexed":false,"internalType":"uint256"}],"anonymous":false},{"type":"event","name":"ProposalCreated","inputs":[{"name":"proposalId","type":"uint256","indexed":false,"internalType":"uint256"},{"name":"proposer","type":"address","indexed":false,"internalType":"address"},{"name":"targets","type":"address[]","indexed":false,"internalType":"address[]"},{"name":"values","type":"uint256[]","indexed":false,"internalType":"uint256[]"},{"name":"signatures","type":"string[]","indexed":false,"internalType":"string[]"},{"name":"calldatas","type":"bytes[]","indexed":false,"internalType":"bytes[]"},{"name":"voteStart","type":"uint256","indexed":false,"internalType":"uint256"},{"name":"voteEnd","type":"uint256","indexed":false,"internalType":"uint256"},{"name":"description","type":"string","indexed":false,"internalType":"string"}],"anonymous":false},{"type":"event","name":"ProposalExecuted","inputs":[{"name":"proposalId","type":"uint256","indexed":false,"internalType":"uint256"}],"anonymous":false},{"type":"event","name":"ProposalQueued","inputs":[{"name":"proposalId","type":"uint256","indexed":false,"internalType":"uint256"},{"name":"etaSeconds","type":"uint256","indexed":false,"internalType":"uint256"}],"anonymous":false},{"type":"event","name":"ProposalThresholdSet","inputs":[{"name":"oldProposalThreshold","type":"uint256","indexed":false,"internalType":"uint256"},{"name":"newProposalThreshold","type":"uint256","indexed":false,"internalType":"uint256"}],"anonymous":false},{"type":"event","name":"QuorumNumeratorUpdated","inputs":[{"name":"oldQuorumNumerator","type":"uint256","indexed":false,"internalType":"uint256"},{"name":"newQuorumNumerator","type":"uint256","indexed":false,"internalType":"uint256"}],"anonymous":false},{"type":"event","name":"TimelockChange","inputs":[{"name":"oldTimelock","type":"address","indexed":false,"internalType":"address"},{"name":"newTimelock","type":"address","indexed":false,"internalType":"address"}],"anonymous":false},{"type":"event","name":"VoteCast","inputs":[{"name":"voter","type":"address","indexed":true,"internalType":"address"},{"name":"proposalId","type":"uint256","indexed":false,"internalType":"uint256"},{"name":"support","type":"uint8","indexed":false,"internalType":"uint8"},{"name":"weight","type":"uint256","indexed":false,"internalType":"uint256"},{"name":"reason","type":"string","indexed":false,"internalType":"string"}],"anonymous":false},{"type":"event","name":"VoteCastWithParams","inputs":[{"name":"voter","type":"address","indexed":true,"internalType":"address"},{"name":"proposalId","type":"uint256","indexed":false,"internalType":"uint256"},{"name":"support","type":"uint8","indexed":false,"internalType":"uint8"},{"name":"weight","type":"uint256","indexed":false,"internalType":"uint256"},{"name":"reason","type":"string","indexed":false,"internalType":"string"},{"name":"params","type":"bytes","indexed":false,"internalType":"bytes"}],"anonymous":false},{"type":"event","name":"VotingDelaySet","inputs":[{"name":"oldVotingDelay","type":"uint256","indexed":false,"internalType":"uint256"},{"name":"newVotingDelay","type":"uint256","indexed":false,"internalType":"uint256"}],"anonymous":false},{"type":"event","name":"VotingPeriodSet","inputs":[{"name":"oldVotingPeriod","type":"uint256","indexed":false,"internalType":"uint256"},{"name":"newVotingPeriod","type":"uint256","indexed":false,"internalType":"uint256"}],"anonymous":false},{"type":"error","name":"CheckpointUnorderedInsertion","inputs":[]},{"type":"error","name":"FailedInnerCall","inputs":[]},{"type":"error","name":"GovernorAlreadyCastVote","inputs":[{"name":"voter","type":"address","internalType":"address"}]},{"type":"error","name":"GovernorAlreadyQueuedProposal","inputs":[{"name":"proposalId","type":"uint256","internalType":"uint256"}]},{"type":"error","name":"GovernorDisabledDeposit","inputs":[]},{"type":"error","name":"GovernorInsufficientProposerVotes","inputs":[{"name":"proposer","type":"address","internalType":"address"},{"name":"votes","type":"uint256","internalType":"uint256"},{"name":"threshold","type":"uint256","internalType":"uint256"}]},{"type":"error","name":"GovernorInvalidProposalLength","inputs":[{"name":"targets","type":"uint256","internalType":"uint256"},{"name":"calldatas","type":"uint256","internalType":"uint256"},{"name":"values","type":"uint256","internalType":"uint256"}]},{"type":"error","name":"GovernorInvalidQuorumFraction","inputs":[{"name":"quorumNumerator","type":"uint256","internalType":"uint256"},{"name":"quorumDenominator","type":"uint256","internalType":"uint256"}]},{"type":"error","name":"GovernorInvalidSignature","inputs":[{"name":"voter","type":"address","internalType":"address"}]},{"type":"error","name":"GovernorInvalidVoteType","inputs":[]},{"type":"error","name":"GovernorInvalidVotingPeriod","inputs":[{"name":"votingPeriod","type":"uint256","internalType":"uint256"}]},{"type":"error","name":"GovernorNonexistentProposal","inputs":[{"name":"proposalId","type":"uint256","internalType":"uint256"}]},{"type":"error","name":"GovernorNotQueuedProposal","inputs":[{"name":"proposalId","type":"uint256","internalType":"uint256"}]},{"type":"error","name":"GovernorOnlyExecutor","inputs":[{"name":"account","type":"address","internalType":"address"}]},{"type":"error","name":"GovernorOnlyProposer","inputs":[{"name":"account","type":"address","internalType":"address"}]},{"type":"error","name":"GovernorQueueNotImplemented","inputs":[]},{"type":"error","name":"GovernorRestrictedProposer","inputs":[{"name":"proposer","type":"address","internalType":"address"}]},{"type":"error","name":"GovernorUnexpectedProposalState","inputs":[{"name":"proposalId","type":"uint256","internalType":"uint256"},{"name":"current","type":"uint8","internalType":"enum IGovernor.ProposalState"},{"name":"expectedStates","type":"bytes32","internalType":"bytes32"}]},{"type":"error","name":"InvalidAccountNonce","inputs":[{"name":"account","type":"address","internalType":"address"},{"name":"currentNonce","type":"uint256","internalType":"uint256"}]},{"type":"error","name":"InvalidShortString","inputs":[]},{"type":"error","name":"QueueEmpty","inputs":[]},{"type":"error","name":"QueueFull","inputs":[]},{"type":"error","name":"SafeCastOverflowedUintDowncast","inputs":[{"name":"bits","type":"uint8","internalType":"uint8"},{"name":"value","type":"uint256","internalType":"uint256"}]},{"type":"error","name":"StringTooLong","inputs":[{"name":"str","type":"string","internalType":"string"}]}],"bytecode":{"object":"0x61018060405234620000ad5762000020620000196200014d565b90620001c1565b604051614952908162000c64823960805181613e57015260a05181613f0c015260c05181613e28015260e05181613ea601526101005181613ecc015261012051816117230152610140518161174f015261016051818181611a2f01528181611f9001528181612109015281816122640152818161270c0152818161282b01528181612b23015261384d0152f35b600080fd5b634e487b7160e01b600052604160045260246000fd5b604081019081106001600160401b03821117620000e457604052565b620000b2565b60c081019081106001600160401b03821117620000e457604052565b601f909101601f19168101906001600160401b03821190821017620000e457604052565b604051906200013982620000c8565b565b6001600160a01b03811603620000ad57565b620055f6906040823803928382519485926200016a828562000106565b833981010312620000ad57602082519262000185846200013b565b01519162000193836200013b565b9190565b60405190620001a682620000c8565b60118252565b60405190620001bb82620000c8565b60018252565b9062000139916200029b620001d562000197565b602081017057617463686974476f7665726e616e636560781b8152620001fa620001ac565b906020820190603160f81b825262000212846200070d565b6101205262000221836200081c565b6101405283519020918260e05251902080610100524660a0526040519060208201927f8b73c3c69bb8fe3d512ecc4cf759cc79239f7b179b0ffacaa9a75d522b39400f8452604083015260608201524660808201523060a082015260a081526200028b81620000ea565b5190206080523060c05262000427565b6001600160a01b031661016052620002b262000665565b620002bc6200058a565b620002c6620005d5565b620002d06200062b565b62000522565b90600182811c9216801562000308575b6020831014620002f257565b634e487b7160e01b600052602260045260246000fd5b91607f1691620002e6565b601f811162000320575050565b60009060036000526020600020906020601f850160051c8301941062000363575b601f0160051c01915b8281106200035757505050565b8181556001016200034a565b909250829062000341565b601f81116200037b575050565b600090600080526020600020906020601f850160051c83019410620003bd575b601f0160051c01915b828110620003b157505050565b818155600101620003a4565b90925082906200039b565b90601f8211620003d6575050565b60019160009060016000526020600020906020601f850160051c830194106200041c575b601f0160051c01915b828110620004115750505050565b818155830162000403565b9092508290620003fa565b80519091906001600160401b038111620000e45762000453816200044d600354620002d6565b62000313565b602080601f83116001146200049a575081906200048993946000926200048e575b50508160011b916000199060031b1c19161790565b600355565b01519050388062000474565b6003600052601f198316949091907fc2575a0e9e593c00f959f8c92f12db2869c3395a3b0502d05e2516446f71f85b926000905b87821062000509575050836001959610620004ef575b505050811b01600355565b015160001960f88460031b161c19169055388080620004e4565b80600185968294968601518155019501930190620004ce565b600a54907f08f74ea46ef7894f65eabfb5e6e695de773a000b47c529ab559178069b226401604060018060a01b03815190808660501c16825284166020820152a1600160501b600160f01b031990911660509190911b600160501b600160f01b031617600a55565b6001600a547fc565b045403dc03c2eea82b81a0465edad9e2e7fc4d97e11421c209da93d7a936040805165ffffffffffff84168152846020820152a165ffffffffffff191617600a55565b67b2fa000000000000600a547f7e3f7f0708a84de9203036abaa450dccc85ad5ff52f78c170f3edb55cf5e88286040805163ffffffff8460301c16815261b2fa6020820152a163ffffffff60301b191617600a55565b7fccb45da8d5717e6c4544694297c4ba5cf151d455c9bb0ed4fc7a38411bc054616040600954815190815260006020820152a16000600955565b60085460009080620006b7575050600080516020620055d6833981519152604060005b6200069c6200069662000908565b62000b02565b505081516001600160d01b03909116815260046020820152a1565b600019918183810111620006f9576008905201600080516020620055b68339815191520154600080516020620055d68339815191529060409060301c62000688565b634e487b7160e01b81526011600452602490fd5b9081516020906020811060001462000730575050906200072d90620009c0565b90565b6001600160401b038111620000e4576000916200075982620007538554620002d6565b6200036e565b602090601f831160011462000795575081908394956200078e94926200048e5750508160011b916000199060031b1c19161790565b905560ff90565b60008052601f198316957f290decd9548b62a8d60345a988386fc84ba6bc95484008f6362f93160ef3e563929185905b8882106200080357505083600195969710620007e9575b505050811b01905560ff90565b015160001960f88460031b161c19169055388080620007dc565b80600185968294968601518155019501930190620007c5565b908151602090602081106000146200083c575050906200072d90620009c0565b6001600160401b038111620000e45760019162000865826200085f8554620002d6565b620003c8565b602090601f83116001146200089b575081906200078e9394956000926200048e5750508160011b916000199060031b1c19161790565b6001600052601f198316959091907fb10e2d527612073b26eecdfd717e6a320cf44b4afac2b0732d9fcbe2b7fa0cf6926000905b888210620008f05750508385969710620007e957505050811b01905560ff90565b808785968294968601518155019501930190620008cf565b610160516040516324776b7d60e21b815290602090829060049082906001600160a01b03165afa80916000916200094d575b50906200072d57506200072d4362000c30565b6020813d60201162000993575b81620009696020938362000106565b810103126200098f57519065ffffffffffff821682036200098c5750386200093a565b80fd5b5080fd5b3d91506200095a565b602081519101519060208110620009b1575090565b6000199060200360031b1b1690565b601f815111620009db57620009d5816200099c565b90511790565b6040519063305a27a960e01b82528160208060048301528251908160248401526000935b82851062000a23575050604492506000838284010152601f80199101168101030190fd5b8481018201518686016044015293810193859350620009ff565b60001981019190821162000a4d57565b634e487b7160e01b600052601160045260246000fd5b60085468010000000000000000811015620000e457600181018060085581101562000ab55760086000526020600020019065ffffffffffff81511690602065ffffffffffff1991015160301b16179055565b634e487b7160e01b600052603260045260246000fd5b604080519192919081016001600160401b03811182821017620000e457604052915465ffffffffffff8116835260301c6020830152565b600854801562000c075762000b3e62000b3862000b1f8362000a3d565b6008600052600080516020620055b68339815191520190565b62000acb565b805165ffffffffffff848116939116831062000bf55762000bbb9360209362000b7c62000b71855165ffffffffffff1690565b65ffffffffffff1690565b0362000bc1575062000b9662000b1f62000bad9262000a3d565b660400000000000065ffffffffffff825416179055565b01516001600160d01b031690565b90600490565b62000bef915062000be362000bd56200012a565b65ffffffffffff9092168252565b60048185015262000a63565b62000bad565b604051632520601d60e01b8152600490fd5b5062000c289062000c1b62000bd56200012a565b6004602082015262000a63565b600090600490565b65ffffffffffff9081811162000c44571690565b604490604051906306dfcc6560e41b8252603060048301526024820152fdfe60806040526004361015610023575b361561001957600080fd5b610021612b9b565b005b60003560e01c806301ffc9a71461032357806302a251a31461031e57806306f3f9e61461031957806306fdde0314610314578063143489d01461030f578063150b7a021461030a578063160cbed7146103055780632656227d146103005780632d63f693146102fb5780632fe3e261146102f65780633932abb1146102f15780633e4f49e6146102ec57806343859632146102e7578063452115d6146102e25780634bf5d7e9146102dd578063544ffc9c146102d857806354fd4d50146102d357806356781388146102ce5780635b8d0e0d146102c95780635f398a14146102c457806360c4247f146102bf57806379051887146102ba5780637b3c71d3146102b55780637d5e81e2146102b05780637ecebe00146102ab57806384b0196e146102a65780638ff262e3146102a157806391ddadf41461029c57806397c3d334146102975780639a802a6d14610292578063a7713a701461028d578063a890c91014610288578063a9a9529414610283578063ab58fb8e1461027e578063b58131b014610279578063bc197c8114610274578063c01f9e371461026f578063c28bc2fa1461026a578063c59057e414610265578063d33219b414610260578063dd4e2ba51461025b578063deaaa7cc14610256578063e540d01d14610251578063eb9019d41461024c578063ece40cc114610247578063f23a6e6114610242578063f8ce560a1461023d5763fc0c546a0361000e576120dc565b6120be565b612029565b611fd4565b611f0d565b611e36565b611dfb565b611d9d565b611d66565b611d4a565b611cdd565b611cbf565b611c06565b611be8565b611bb1565b611b95565b611ad2565b611a93565b611999565b61197d565b611952565b6117f0565b61170a565b61168b565b6115f1565b61159b565b611510565b6114e2565b611472565b6113e9565b61136b565b6112fd565b6112b0565b611280565b611185565b61111e565b6110f1565b611080565b611045565b61100e565b610e38565b610b32565b6108ae565b6106b9565b6105b2565b61042c565b610405565b346103f55760206003193601126103f5576004357fffffffff0000000000000000000000000000000000000000000000000000000081168091036103f557807f65455a8600000000000000000000000000000000000000000000000000000000602092149081156103cb575b81156103a1575b506040519015158152f35b7f01ffc9a70000000000000000000000000000000000000000000000000000000091501438610396565b7f4e2312e0000000000000000000000000000000000000000000000000000000008114915061038f565b600080fd5b60009103126103f557565b346103f55760006003193601126103f557602063ffffffff600a5460301c16604051908152f35b346103f55760206003193601126103f557600435610448612bbf565b606481116105005779ffffffffffffffffffffffffffffffffffffffffffffffffffff908161047561389a565b1661047e6127e8565b928083116104c8577f0553476bf02ef2726e8ce5ced78d63e26e602e4a2257b1f559418e24b4633997936104b4918416906146c2565b5050604080519182526020820192909252a1005b604483604051907f6dfcc65000000000000000000000000000000000000000000000000000000000825260d060048301526024820152fd5b604490604051907f243e5445000000000000000000000000000000000000000000000000000000008252600482015260646024820152fd5b60005b83811061054b5750506000910152565b818101518382015260200161053b565b907fffffffffffffffffffffffffffffffffffffffffffffffffffffffffffffffe0601f60209361059781518092818752878088019101610538565b0116010190565b9060206105af92818152019061055b565b90565b346103f5576000806003193601126106b6576040519080600354906105d68261212d565b8085529160209160019182811690811561066b5750600114610613575b61060f86610603818803826107d2565b6040519182918261059e565b0390f35b9350600384527fc2575a0e9e593c00f959f8c92f12db2869c3395a3b0502d05e2516446f71f85b5b838510610658575050505081016020016106038261060f386105f3565b805486860184015293820193810161063b565b87965061060f979450602093506106039592507fffffffffffffffffffffffffffffffffffffffffffffffffffffffffffffff0091501682840152151560051b8201019293386105f3565b80fd5b346103f55760206003193601126103f5576004356000526004602052602073ffffffffffffffffffffffffffffffffffffffff60406000205416604051908152f35b73ffffffffffffffffffffffffffffffffffffffff8116036103f557565b7f4e487b7100000000000000000000000000000000000000000000000000000000600052604160045260246000fd5b67ffffffffffffffff811161075c57604052565b610719565b6040810190811067ffffffffffffffff82111761075c57604052565b6020810190811067ffffffffffffffff82111761075c57604052565b60c0810190811067ffffffffffffffff82111761075c57604052565b610100810190811067ffffffffffffffff82111761075c57604052565b90601f7fffffffffffffffffffffffffffffffffffffffffffffffffffffffffffffffe0910116810190811067ffffffffffffffff82111761075c57604052565b6040519061082082610761565b565b67ffffffffffffffff811161075c57601f017fffffffffffffffffffffffffffffffffffffffffffffffffffffffffffffffe01660200190565b92919261086882610822565b9161087660405193846107d2565b8294818452818301116103f5578281602093846000960137010152565b9080601f830112156103f5578160206105af9335910161085c565b346103f55760806003193601126103f5576108ca6004356106fb565b6108d56024356106fb565b60643567ffffffffffffffff81116103f5576108f5903690600401610893565b5073ffffffffffffffffffffffffffffffffffffffff600a5460501c163003610943576040517f150b7a02000000000000000000000000000000000000000000000000000000008152602090f35b60046040517fe90a651e000000000000000000000000000000000000000000000000000000008152fd5b67ffffffffffffffff811161075c5760051b60200190565b9080601f830112156103f557602090823561099f8161096d565b936109ad60405195866107d2565b81855260208086019260051b8201019283116103f557602001905b8282106109d6575050505090565b83809183356109e4816106fb565b8152019101906109c8565b9080601f830112156103f5576020908235610a098161096d565b93610a1760405195866107d2565b81855260208086019260051b8201019283116103f557602001905b828210610a40575050505090565b81358152908301908301610a32565b81601f820112156103f557803591602091610a698461096d565b93610a7760405195866107d2565b808552838086019160051b830101928084116103f557848301915b848310610aa25750505050505090565b823567ffffffffffffffff81116103f5578691610ac484848094890101610893565b815201920191610a92565b60806003198201126103f55767ffffffffffffffff916004358381116103f55782610afc91600401610985565b926024358181116103f55783610b14916004016109ef565b926044359182116103f557610b2b91600401610a4f565b9060643590565b346103f557610b4036610acf565b610b4e818385879697612a0f565b92610b5884612c7b565b50600a54610b939060501c73ffffffffffffffffffffffffffffffffffffffff165b73ffffffffffffffffffffffffffffffffffffffff1690565b926040958651937ff27a0c9200000000000000000000000000000000000000000000000000000000855260209081866004818a5afa958615610de757600096610e19575b507fffffffffffffffffffffffffffffffffffffffff0000000000000000000000003060601b16189581895180927fb1c5f4270000000000000000000000000000000000000000000000000000000082528180610c3a8c8a8a8d600486016139d0565b03915afa918215610de757600092610dec575b5050610c6387600052600b602052604060002090565b55600a54610c899060501c73ffffffffffffffffffffffffffffffffffffffff16610b7a565b90813b156103f55760008094610cce878b51998a97889687957f8f2a0bb000000000000000000000000000000000000000000000000000000000875260048701613a16565b03925af1908115610de757610cf292610ced92610dce575b50426132d7565b61327e565b65ffffffffffff811615610da557917f9a2e42fd6722813d69113e7d0079d3d940171428df7373df9c7f7617cfda2892610d9484610d7661060f966001610d43886000526004602052604060002090565b019065ffffffffffff167fffffffffffffffffffffffffffffffffffffffffffffffffffff000000000000825416179055565b835185815265ffffffffffff90911660208201529081906040820190565b0390a1519081529081906020820190565b600483517f90884a46000000000000000000000000000000000000000000000000000000008152fd5b80610ddb610de192610748565b806103fa565b38610ce6565b6121c8565b610e0b9250803d10610e12575b610e0381836107d2565b810190612a91565b3880610c4d565b503d610df9565b610e31919650823d8411610e1257610e0381836107d2565b9438610bd7565b610e4136610acf565b610e4f818385879597612a0f565b92610e5984612ce6565b50610eba610e71856000526004602052604060002090565b7e010000000000000000000000000000000000000000000000000000000000007fff00ffffffffffffffffffffffffffffffffffffffffffffffffffffffffffff825416179055565b73ffffffffffffffffffffffffffffffffffffffff92600a5484309160501c1603610f9b575b94610ef0929161060f9686613a64565b610f153091600a5460501c1673ffffffffffffffffffffffffffffffffffffffff1690565b141580610f6d575b610f5e575b6040518181527f712ae1383f79ac853f8d882153778e0260ef8f03b504e2866e0593e04d2b291f90602090a16040519081529081906020820190565b610f686000600555565b610f22565b50610f96610f926005546fffffffffffffffffffffffffffffffff81169060801c1490565b1590565b610f1d565b9290939160005b84518110156110045760019030610fd9610b7a610fbf848a6121af565b5173ffffffffffffffffffffffffffffffffffffffff1690565b14610fe5575b01610fa2565b610fff610ff2828a6121af565b5160208151910120612d51565b610fdf565b5091939092610ee0565b346103f55760206003193601126103f5576004356000526004602052602065ffffffffffff60406000205460a01c16604051908152f35b346103f55760006003193601126103f55760206040517f3e83946653575f9a39005e1545185629e92736b7528ab20ca3816f315424a8118152f35b346103f55760006003193601126103f557602065ffffffffffff600a5416604051908152f35b7f4e487b7100000000000000000000000000000000000000000000000000000000600052602160045260246000fd5b600811156110df57565b6110a6565b9060088210156110df5752565b346103f55760206003193601126103f557602061110f600435612dfb565b61111c60405180926110e4565bf35b346103f55760406003193601126103f557602060ff611179602435611142816106fb565b6004356000526007845260036040600020019073ffffffffffffffffffffffffffffffffffffffff16600052602052604060002090565b54166040519015158152f35b346103f55761119336610acf565b906111a2828285879697612a0f565b6111ab81612dfb565b60088110156110df5760018060ff83161b161561123a5750600052600460205273ffffffffffffffffffffffffffffffffffffffff60406000205416330361120a5761060f936111fa93613c5a565b6040519081529081906020820190565b60246040517f233d98e3000000000000000000000000000000000000000000000000000000008152336004820152fd5b90611277606492604051927f31b75e4d000000000000000000000000000000000000000000000000000000008452600484015260248301906110e4565b60016044820152fd5b346103f55760006003193601126103f55761060f61129c612220565b60405191829160208352602083019061055b565b346103f55760206003193601126103f55760043560005260076020526040600020805461060f60026001840154930154604051938493846040919493926060820195825260208201520152565b346103f55760006003193601126103f55761060f60405161131d81610761565b600181527f3100000000000000000000000000000000000000000000000000000000000000602082015260405191829160208352602083019061055b565b6024359060ff821682036103f557565b346103f55760406003193601126103f55760206113b361138961135b565b6040516113958161077d565b60008152604051916113a68361077d565b6000835233600435613128565b604051908152f35b9181601f840112156103f55782359167ffffffffffffffff83116103f557602083818601950101116103f557565b346103f55760c06003193601126103f55761140261135b565b6044359061140f826106fb565b67ffffffffffffffff906064358281116103f5576114319036906004016113bb565b6084358481116103f557611449903690600401610893565b9160a4359485116103f55761060f956114696111fa963690600401610893565b94600435612326565b346103f55760806003193601126103f55761148b61135b565b67ffffffffffffffff906044358281116103f5576114ad9036906004016113bb565b90916064359384116103f5576114d86113b3936114d06020963690600401610893565b93369161085c565b9033600435613128565b346103f55760206003193601126103f55760206113b36004356124ee565b65ffffffffffff8116036103f557565b346103f55760206003193601126103f55760043561152d81611500565b611535612bbf565b7fffffffffffffffffffffffffffffffffffffffffffffffffffff000000000000600a547fc565b045403dc03c2eea82b81a0465edad9e2e7fc4d97e11421c209da93d7a93604065ffffffffffff81519581851687521694856020820152a11617600a55005b346103f55760606003193601126103f5576115b461135b565b60443567ffffffffffffffff81116103f5576020916115e46115dd6113b39336906004016113bb565b369161085c565b604051916113a68361077d565b346103f55760806003193601126103f55767ffffffffffffffff6004358181116103f557611623903690600401610985565b906024358181116103f55761163c9036906004016109ef565b916044358281116103f557611655903690600401610a4f565b6064359283116103f557366023840112156103f55761060f936116856111fa94369060248160040135910161085c565b9261265d565b346103f55760206003193601126103f55773ffffffffffffffffffffffffffffffffffffffff6004356116bd816106fb565b1660005260026020526020604060002054604051908152f35b90815180825260208080930193019160005b8281106116f6575050505090565b8351855293810193928101926001016116e8565b346103f55760006003193601126103f5576117c16117477f00000000000000000000000000000000000000000000000000000000000000006143af565b61060f6117737f00000000000000000000000000000000000000000000000000000000000000006144e7565b6117cf604051916117838361077d565b600083526040519586957f0f00000000000000000000000000000000000000000000000000000000000000875260e0602088015260e087019061055b565b90858203604087015261055b565b90466060850152306080850152600060a085015283820360c08501526116d6565b346103f55760806003193601126103f55760043561180c61135b565b906044359161181a836106fb565b60643567ffffffffffffffff81116103f557610f926118406118ec923690600401610893565b6118e66118768773ffffffffffffffffffffffffffffffffffffffff166000526002602052604060002080549060018201905590565b60405160208101917ff2aad550cf55f045cb27e9c559f9889fdfb6e6cdaa032301d6ea397784ae51d7835288604083015260ff8816606083015273ffffffffffffffffffffffffffffffffffffffff8a16608083015260a082015260a081526118de81610799565b519020612f6b565b86612fac565b61190757906111fa9161060f936119016121d4565b92612f4f565b6040517f94ab6c0700000000000000000000000000000000000000000000000000000000815273ffffffffffffffffffffffffffffffffffffffff84166004820152602490fd5b0390fd5b346103f55760006003193601126103f557602061196d6127e8565b65ffffffffffff60405191168152f35b346103f55760006003193601126103f557602060405160648152f35b346103f55760606003193601126103f5576004356119b6816106fb565b60443567ffffffffffffffff81116103f5576044916119db6020923690600401610893565b5073ffffffffffffffffffffffffffffffffffffffff92839160405194859384927f3a46b1a800000000000000000000000000000000000000000000000000000000845216600483015260243560248301527f0000000000000000000000000000000000000000000000000000000000000000165afa8015610de75761060f91600091611a74575b506040519081529081906020820190565b611a8d915060203d602011610e1257610e0381836107d2565b38611a63565b346103f55760006003193601126103f557602079ffffffffffffffffffffffffffffffffffffffffffffffffffff611ac961389a565b16604051908152f35b346103f55760206003193601126103f557600435611aef816106fb565b611af7612bbf565b7fffff0000000000000000000000000000000000000000ffffffffffffffffffff7dffffffffffffffffffffffffffffffffffffffff00000000000000000000600a54927f08f74ea46ef7894f65eabfb5e6e695de773a000b47c529ab559178069b226401604073ffffffffffffffffffffffffffffffffffffffff815190808860501c16825284166020820152a160501b16911617600a55600080f35b346103f55760206003193601126103f557602060405160018152f35b346103f55760206003193601126103f5576004356000526004602052602065ffffffffffff60016040600020015416604051908152f35b346103f55760006003193601126103f5576020600954604051908152f35b346103f55760a06003193601126103f557611c226004356106fb565b611c2d6024356106fb565b67ffffffffffffffff6044358181116103f557611c4e9036906004016109ef565b506064358181116103f557611c679036906004016109ef565b506084359081116103f557611c80903690600401610893565b5061060f611c8c6128a2565b6040517fffffffff0000000000000000000000000000000000000000000000000000000090911681529081906020820190565b346103f55760206003193601126103f55760206113b36004356128e8565b60606003193601126103f557600435611cf5816106fb565b6044359067ffffffffffffffff82116103f55760008091611d1d6100219436906004016113bb565b90611d26612bbf565b81604051928392833781018481520391602435905af1611d4461291a565b906138ff565b346103f55760206113b3611d5d36610acf565b92919091612a0f565b346103f55760006003193601126103f557602073ffffffffffffffffffffffffffffffffffffffff600a5460501c16604051908152f35b346103f55760006003193601126103f55761060f604051611dbd81610761565b602081527f737570706f72743d627261766f2671756f72756d3d666f722c6162737461696e602082015260405191829160208352602083019061055b565b346103f55760006003193601126103f55760206040517ff2aad550cf55f045cb27e9c559f9889fdfb6e6cdaa032301d6ea397784ae51d78152f35b346103f55760206003193601126103f55763ffffffff600435818116918282036103f557611e62612bbf565b8215611edc577fffffffffffffffffffffffffffffffffffffffffffff00000000ffffffffffff917f7e3f7f0708a84de9203036abaa450dccc85ad5ff52f78c170f3edb55cf5e8828604069ffffffff00000000000093600a54968251918860301c1682526020820152a160301b16911617600a55600080f35b60246040517ff1cfbf0500000000000000000000000000000000000000000000000000000000815260006004820152fd5b346103f55760406003193601126103f55760446020600435611f2e816106fb565b6000604051611f3c8161077d565b5273ffffffffffffffffffffffffffffffffffffffff92839160405194859384927f3a46b1a800000000000000000000000000000000000000000000000000000000845216600483015260243560248301527f0000000000000000000000000000000000000000000000000000000000000000165afa8015610de75761060f91600091611a7457506040519081529081906020820190565b346103f55760206003193601126103f557600435611ff0612bbf565b60095460408051918252602082018390527fccb45da8d5717e6c4544694297c4ba5cf151d455c9bb0ed4fc7a38411bc0546191a1600955005b346103f55760a06003193601126103f5576120456004356106fb565b6120506024356106fb565b60843567ffffffffffffffff81116103f557612070903690600401610893565b5073ffffffffffffffffffffffffffffffffffffffff600a5460501c163003610943576040517ff23a6e61000000000000000000000000000000000000000000000000000000008152602090f35b346103f55760206003193601126103f55760206113b3600435612ad9565b346103f55760006003193601126103f557602060405173ffffffffffffffffffffffffffffffffffffffff7f0000000000000000000000000000000000000000000000000000000000000000168152f35b90600182811c92168015612176575b602083101461214757565b7f4e487b7100000000000000000000000000000000000000000000000000000000600052602260045260246000fd5b91607f169161213c565b7f4e487b7100000000000000000000000000000000000000000000000000000000600052603260045260246000fd5b80518210156121c35760209160051b010190565b612180565b6040513d6000823e3d90fd5b604051906121e18261077d565b60008252565b604051906121f482610761565b601d82527f6d6f64653d626c6f636b6e756d6265722666726f6d3d64656661756c740000006020830152565b6040517f4bf5d7e90000000000000000000000000000000000000000000000000000000081526000808260048173ffffffffffffffffffffffffffffffffffffffff7f0000000000000000000000000000000000000000000000000000000000000000165afa9091828261229e575b50506105af57506105af6121e7565b909192503d8082843e6122b181846107d2565b82019160208184031261231e5780519067ffffffffffffffff8211612322570182601f8201121561231e578051916122e883610822565b936122f660405195866107d2565b838552602084840101116106b65750906123169160208085019101610538565b90388061228f565b5080fd5b8280fd5b939092919695610f926123fe916123f887878c8b61236d8273ffffffffffffffffffffffffffffffffffffffff166000526002602052604060002080549060018201905590565b73ffffffffffffffffffffffffffffffffffffffff61238d368c8e61085c565b6020815191012092602081519101209360ff6040519660208801987f3e83946653575f9a39005e1545185629e92736b7528ab20ca3816f315424a8118a52604089015216606087015216608085015260a084015260c083015260e082015260e081526118de816107b5565b8a612fac565b612419576105af95969161241391369161085c565b92613128565b6040517f94ab6c0700000000000000000000000000000000000000000000000000000000815273ffffffffffffffffffffffffffffffffffffffff88166004820152602490fd5b7f4e487b7100000000000000000000000000000000000000000000000000000000600052601160045260246000fd5b907fffffffffffffffffffffffffffffffffffffffffffffffffffffffffffffffff82019182116124bc57565b612460565b907fffffffffffffffffffffffffffffffffffffffffffffffffffffffffffffffd882019182116124bc57565b6008547fffffffffffffffffffffffffffffffffffffffffffffffffffffffffffffffff81018181116124bc578111156121c35760086000527ff3f7a9fe364faab93b216da50a3214154f22a0a2b415b23a84c8169e8b636ee28101549165ffffffffffff9281848216111561265357506125689061327e565b60009082600581116125ea575b506125809350614213565b8061258b5750600090565b6125e66125df6125b579ffffffffffffffffffffffffffffffffffffffffffffffffffff9361248f565b60086000527ff3f7a9fe364faab93b216da50a3214154f22a0a2b415b23a84c8169e8b636ee30190565b5460301c90565b1690565b90926125f5826140d3565b82039182116124bc5761258094600860005280837ff3f7a9fe364faab93b216da50a3214154f22a0a2b415b23a84c8169e8b636ee3015416908516106000146126415750915b38612575565b92915061264d906132c9565b9061263b565b9250505060301c90565b919392909361266c82336132f5565b156127b85765ffffffffffff947fffffffffffffffffffffffffffffffffffffffffffffffffffffffffffffffff866126a36127e8565b1601958087116124bc5760006040516126bb8161077d565b52604051967f3a46b1a800000000000000000000000000000000000000000000000000000000885233600489015216602487015260208660448173ffffffffffffffffffffffffffffffffffffffff7f0000000000000000000000000000000000000000000000000000000000000000165afa958615610de757600096612797575b506009549586811061275757506105af9495503393613587565b6040517fc242ee16000000000000000000000000000000000000000000000000000000008152336004820152602481019190915260448101879052606490fd5b6127b191965060203d602011610e1257610e0381836107d2565b943861273d565b60246040517fd9b39557000000000000000000000000000000000000000000000000000000008152336004820152fd5b6040517f91ddadf400000000000000000000000000000000000000000000000000000000815260208160048173ffffffffffffffffffffffffffffffffffffffff7f0000000000000000000000000000000000000000000000000000000000000000165afa60009181612865575b506105af57506105af4361327e565b9091506020813d60201161289a575b81612881602093836107d2565b810103126103f5575161289381611500565b9038612856565b3d9150612874565b73ffffffffffffffffffffffffffffffffffffffff600a5460501c163003610943577fbc197c810000000000000000000000000000000000000000000000000000000090565b600052600460205260406000205465ffffffffffff908163ffffffff8260d01c169160a01c16018181116124bc571690565b3d15612945573d9061292b82610822565b9161293960405193846107d2565b82523d6000602084013e565b606090565b90815180825260208080930193019160005b82811061296a575050505090565b835173ffffffffffffffffffffffffffffffffffffffff168552938101939281019260010161295c565b90808251908181526020809101926020808460051b8301019501936000915b8483106129c35750505050505090565b90919293949584806129ff837fffffffffffffffffffffffffffffffffffffffffffffffffffffffffffffffe086600196030187528a5161055b565b98019301930191949392906129b3565b9290612a7992612a8b92604051948592612a69612a38602086019960808b5260a087019061294a565b7fffffffffffffffffffffffffffffffffffffffffffffffffffffffffffffffe096878783030160408801526116d6565b9085858303016060860152612994565b906080830152039081018352826107d2565b51902090565b908160209103126103f5575190565b8115612aaa570490565b7f4e487b7100000000000000000000000000000000000000000000000000000000600052601260045260246000fd5b604051907f8e539e8c00000000000000000000000000000000000000000000000000000000825280600483015260208260248173ffffffffffffffffffffffffffffffffffffffff7f0000000000000000000000000000000000000000000000000000000000000000165afa918215610de757600092612b76575b50612b5e906124ee565b908181029181830414901517156124bc576064900490565b612b5e919250612b949060203d602011610e1257610e0381836107d2565b9190612b54565b73ffffffffffffffffffffffffffffffffffffffff600a5460501c16300361094357565b73ffffffffffffffffffffffffffffffffffffffff600a5460501c16338103612c2b573003612bea57565b612bf336610822565b612c0060405191826107d2565b368152602081019036600083376000602036830101525190205b80612c23613940565b03612c1a5750565b60246040517f47096e47000000000000000000000000000000000000000000000000000000008152336004820152fd5b604090612c7760009395946060830196835260208301906110e4565b0152565b612c8481612dfb565b9060088210156110df576010600160ff84161b1615612ca1575090565b612cdd606492604051927f31b75e4d000000000000000000000000000000000000000000000000000000008452600484015260248301906110e4565b60106044820152fd5b612cef81612dfb565b9060088210156110df576030600160ff84161b1615612d0c575090565b612d48606492604051927f31b75e4d000000000000000000000000000000000000000000000000000000008452600484015260248301906110e4565b60306044820152fd5b6005548060801c9160018301926fffffffffffffffffffffffffffffffff80931683851614612db95760005260066020526040600020557fffffffffffffffffffffffffffffffff000000000000000000000000000000006005549260801b16911617600555565b60046040517f8acb5f27000000000000000000000000000000000000000000000000000000008152fd5b908160209103126103f5575180151581036103f55790565b612e0481613b2c565b90612e0e826110d5565b60058203612f4b57612e2b9150600052600b602052604060002090565b54600a54612e519060501c73ffffffffffffffffffffffffffffffffffffffff16610b7a565b6040517f584b153e0000000000000000000000000000000000000000000000000000000081526004810183905260209291908381602481855afa908115610de757600091612f2e575b5015612ea857505050600590565b6040517f2ab0f52900000000000000000000000000000000000000000000000000000000815260048101929092528290829060249082905afa918215610de757600092612f01575b505015612efc57600790565b600290565b612f209250803d10612f27575b612f1881836107d2565b810190612de3565b3880612ef0565b503d612f0e565b612f459150843d8611612f2757612f1881836107d2565b38612e9a565b5090565b916105af939160405193612f628561077d565b60008552613128565b604290612f76613e11565b90604051917f19010000000000000000000000000000000000000000000000000000000000008352600283015260228201522090565b612fb68383613f32565b5060048195929510156110df571593846130a5575b508315612fd9575b50505090565b60009293509082916040516130578161302b60208201947f1626ba7e00000000000000000000000000000000000000000000000000000000998a8752602484015260406044840152606483019061055b565b037fffffffffffffffffffffffffffffffffffffffffffffffffffffffffffffffe081018352826107d2565b51915afa9061306461291a565b82613097575b8261307a575b5050388080612fd3565b61308f91925060208082518301019101612a91565b143880613070565b91506020825110159161306a565b73ffffffffffffffffffffffffffffffffffffffff838116911614935038612fcb565b93909260ff6130f4936105af97958752166020860152604085015260a0606085015260a084019061055b565b91608081840391015261055b565b909260ff6080936105af969584521660208301526040820152816060820152019061055b565b9290919361313584612dfb565b60088110156110df576002600160ff83161b16156132385750836000526004602052613186613180613175604060002065ffffffffffff905460a01c1690565b65ffffffffffff1690565b846137f9565b94859161319583838789613f6e565b80516131ed575073ffffffffffffffffffffffffffffffffffffffff927fb8e138887d0aa13bab447e82de9d5c1777041ecd21ca36ba824ff1e6c07ddda494926131e792604051958695169785613102565b0390a290565b73ffffffffffffffffffffffffffffffffffffffff937fe2babfbac5889a709b63bb7f598b324e08bc5a4fb9ec647fb3cbc9ec07eb871295936131e7936040519687961698866130c8565b84613275606492604051927f31b75e4d000000000000000000000000000000000000000000000000000000008452600484015260248301906110e4565b60026044820152fd5b65ffffffffffff90818111613291571690565b604490604051907f6dfcc650000000000000000000000000000000000000000000000000000000008252603060048301526024820152fd5b90600182018092116124bc57565b919082018092116124bc57565b9081518110156121c3570160200190565b81516034811061341e577f2370726f706f7365723d307800000000000000000000000000000000000000007fffffffffffffffffffffffff00000000000000000000000000000000000000007fffffffffffffffffffffffffffffffffffffffffffffffffffffffffffffffec8386010151160361341e579160009261337a816124c1565b915b8183106133a45750505073ffffffffffffffffffffffffffffffffffffffff80911691161490565b9091936133e26133dd6133b787856132e4565b517fff000000000000000000000000000000000000000000000000000000000000001690565b61428e565b9190156134135773fffffffffffffffffffffffffffffffffffffff060ff600193169160041b16179401919061337c565b505050505050600190565b505050600190565b906134308261096d565b61343d60405191826107d2565b8281527fffffffffffffffffffffffffffffffffffffffffffffffffffffffffffffffe061346b829461096d565b019060005b82811061347c57505050565b806060602080938501015201613470565b95926134cf906134dd939b9a989996959261012090895273ffffffffffffffffffffffffffffffffffffffff60209d168d8a01528060408a015288019061294a565b9086820360608801526116d6565b9784890360808601528251808a52818a019180808360051b8d01019501926000905b83821061353c5750505050506105af969750906135239184820360a0860152612994565b9360c083015260e082015261010081840391015261055b565b909192939583806135788f937fffffffffffffffffffffffffffffffffffffffffffffffffffffffffffffffe060019582030186528a5161055b565b980192019201909392916134ff565b91949390929461359f86516020880120828686612a0f565b9583518551908181148015906137ee575b80156137e6575b6137a457505065ffffffffffff94856135ec6135dd8a6000526004602052604060002090565b5460a01c65ffffffffffff1690565b16613764577f7d84a6263ae0d98d3329bd7b46bb4e8d6f98cd35a7adb45c274c8b7fd5ebd5e09561375f9363ffffffff6136356136276127e8565b600a549480861691166132d7565b9260301c1661373d6136518c6000526004602052604060002090565b80547fffffffffffffffffffffffff00000000000000000000000000000000000000001673ffffffffffffffffffffffffffffffffffffffff8a161781556136e661369b8661327e565b82547fffffffffffff000000000000ffffffffffffffffffffffffffffffffffffffff1660a09190911b79ffffffffffff000000000000000000000000000000000000000016178255565b6136ef83614366565b7fffff00000000ffffffffffffffffffffffffffffffffffffffffffffffffffff7dffffffff000000000000000000000000000000000000000000000000000083549260d01b169116179055565b61375161374a8951613426565b91846132d7565b936040519889988d8a61348d565b0390a1565b8761376e81612dfb565b9061194e6040519283927f31b75e4d00000000000000000000000000000000000000000000000000000000845260048401612c5b565b83516040517f447b05d0000000000000000000000000000000000000000000000000000000008152600481019290925260248201526044810191909152606490fd5b5080156135b7565b5083518114156135b0565b602090604473ffffffffffffffffffffffffffffffffffffffff918260405195869485937f3a46b1a800000000000000000000000000000000000000000000000000000000855216600484015260248301527f0000000000000000000000000000000000000000000000000000000000000000165afa908115610de757600091613881575090565b6105af915060203d602011610e1257610e0381836107d2565b600854806138a85750600090565b807fffffffffffffffffffffffffffffffffffffffffffffffffffffffffffffffff8101116124bc5760086000527ff3f7a9fe364faab93b216da50a3214154f22a0a2b415b23a84c8169e8b636ee2015460301c90565b909190610820575080511561391657805190602001fd5b60046040517f1425ea42000000000000000000000000000000000000000000000000000000008152fd5b600554906fffffffffffffffffffffffffffffffff8083169260801c83146139a657826000526006602052600160406000209360008554955501167fffffffffffffffffffffffffffffffff000000000000000000000000000000006005541617600555565b60046040517f75e52f4f000000000000000000000000000000000000000000000000000000008152fd5b9493926139fc6080936139ee613a0a9460a08a5260a08a019061294a565b9088820360208a01526116d6565b908682036040880152612994565b93600060608201520152565b9192613a4560a094613a37613a53949998979960c0875260c087019061294a565b9085820360208701526116d6565b908382036040850152612994565b946000606083015260808201520152565b9290939173ffffffffffffffffffffffffffffffffffffffff600a5460501c1690813b156103f557600093613af0604051978895869485947fe38335e50000000000000000000000000000000000000000000000000000000086527fffffffffffffffffffffffffffffffffffffffff0000000000000000000000003060601b161892600486016139d0565b039134905af1908115610de757600092613b1a92613b1d575b50600052600b602052604060002090565b55565b613b2690610748565b38613b09565b613b40816000526004602052604060002090565b5460ff8160f01c16613c535760f81c613c4d57613b6d6131756135dd836000526004602052604060002090565b8015613c1b57613b7e6131756127e8565b80911015613c1457613b8f826128e8565b10613b9a5750600190565b613ba6610f9282614836565b8015613bef575b15613bb85750600390565b6131756001613bd4613be1936000526004602052604060002090565b015465ffffffffffff1690565b613bea57600490565b600590565b50613c0f610f928260005260076020526040600020600181015490541090565b613bad565b5050600090565b6040517f6ad0607500000000000000000000000000000000000000000000000000000000815260048101839052602490fd5b50600290565b5050600790565b90613c66939291612a0f565b613c6f81612dfb565b60088110156110df57603b600160ff83161b1615613dcb5750613ce8613c9f826000526004602052604060002090565b7f01000000000000000000000000000000000000000000000000000000000000007effffffffffffffffffffffffffffffffffffffffffffffffffffffffffffff825416179055565b6040518181527f789cf55be980739dad1d0699b93b58e806b51c9d96619bfa8fe0a28abaa7b30c90602090a1613d2881600052600b602052604060002090565b5480613d32575090565b600a54613d579060501c73ffffffffffffffffffffffffffffffffffffffff16610b7a565b803b156103f5576040517fc4d252f500000000000000000000000000000000000000000000000000000000815260048101929092526000908290602490829084905af18015610de757613db8575b506000818152600b602052604081205590565b80610ddb613dc592610748565b38613da5565b90613e08606492604051927f31b75e4d000000000000000000000000000000000000000000000000000000008452600484015260248301906110e4565b603b6044820152fd5b73ffffffffffffffffffffffffffffffffffffffff7f000000000000000000000000000000000000000000000000000000000000000016301480613f09575b15613e79577f000000000000000000000000000000000000000000000000000000000000000090565b60405160208101907f8b73c3c69bb8fe3d512ecc4cf759cc79239f7b179b0ffacaa9a75d522b39400f82527f000000000000000000000000000000000000000000000000000000000000000060408201527f000000000000000000000000000000000000000000000000000000000000000060608201524660808201523060a082015260a08152612a8b81610799565b507f00000000000000000000000000000000000000000000000000000000000000004614613e50565b8151919060418303613f6357613f5c92506020820151906060604084015193015160001a90614879565b9192909190565b505060009160029190565b613f85909291926000526007602052604060002090565b9160038301613fbe613fb783839073ffffffffffffffffffffffffffffffffffffffff16600052602052604060002090565b5460ff1690565b61408c57613ff260ff939261401d929073ffffffffffffffffffffffffffffffffffffffff16600052602052604060002090565b60017fffffffffffffffffffffffffffffffffffffffffffffffffffffffffffffff00825416179055565b16806140345750906140309082546132d7565b9055565b6001810361404c5750600161403091019182546132d7565b60020361406257600261403091019182546132d7565b60046040517f06b337c2000000000000000000000000000000000000000000000000000000008152fd5b6040517f71c6af4900000000000000000000000000000000000000000000000000000000815273ffffffffffffffffffffffffffffffffffffffff83166004820152602490fd5b801561420d57806141a661419f61419561418b61418161417761416d61416360016105af9a6000908b60801c80614201575b508060401c806141f4575b508060201c806141e7575b508060101c806141da575b508060081c806141cd575b508060041c806141c0575b508060021c806141b3575b50821c6141ac575b811c1b61415c818b612aa0565b0160011c90565b61415c818a612aa0565b61415c8189612aa0565b61415c8188612aa0565b61415c8187612aa0565b61415c8186612aa0565b61415c8185612aa0565b8092612aa0565b9061490a565b810161414f565b6002915091019038614147565b600491509101903861413c565b6008915091019038614131565b6010915091019038614126565b602091509101903861411b565b6040915091019038614110565b91505060809038614105565b50600090565b905b82811061422157505090565b90918082169080831860011c82018092116124bc57600860005265ffffffffffff80837ff3f7a9fe364faab93b216da50a3214154f22a0a2b415b23a84c8169e8b636ee30154169085161060001461427c5750915b90614215565b929150614288906132c9565b90614276565b60f81c9081602f108061435c575b156142cc5760ff7fffffffffffffffffffffffffffffffffffffffffffffffffffffffffffffffd0600193011690565b8160401080614352575b156143065760ff7fffffffffffffffffffffffffffffffffffffffffffffffffffffffffffffffc9600193011690565b8160601080614348575b156143405760ff7fffffffffffffffffffffffffffffffffffffffffffffffffffffffffffffffa9600193011690565b600091508190565b5060678210614310565b50604782106142d6565b50603a821061429c565b63ffffffff90818111614377571690565b604490604051907f6dfcc650000000000000000000000000000000000000000000000000000000008252602060048301526024820152fd5b60ff81146144055760ff811690601f82116143db57604051916143d183610761565b8252602082015290565b60046040517fb3512b0c000000000000000000000000000000000000000000000000000000008152fd5b50604051600081600054916144198361212d565b808352926020906001908181169081156144a45750600114614444575b50506105af925003826107d2565b915092600080527f290decd9548b62a8d60345a988386fc84ba6bc95484008f6362f93160ef3e563936000925b82841061448c57506105af9450505081016020013880614436565b85548785018301529485019486945092810192614471565b9050602093506105af9592507fffffffffffffffffffffffffffffffffffffffffffffffffffffffffffffff0091501682840152151560051b8201013880614436565b60ff81146145095760ff811690601f82116143db57604051916143d183610761565b5060405160008160019160015461451f8161212d565b80845293602091600181169081156144a457506001146145475750506105af925003826107d2565b91509260016000527fb10e2d527612073b26eecdfd717e6a320cf44b4afac2b0732d9fcbe2b7fa0cf6936000925b82841061459057506105af9450505081016020013880614436565b85548785018301529485019486945092810192614575565b600854906801000000000000000082101561075c5760018201806008558210156121c35779ffffffffffffffffffffffffffffffffffffffffffffffffffff60206108209360086000527ff3f7a9fe364faab93b216da50a3214154f22a0a2b415b23a84c8169e8b636ee3019261465565ffffffffffff825116859065ffffffffffff167fffffffffffffffffffffffffffffffffffffffffffffffffffff000000000000825416179055565b0151825465ffffffffffff16911660301b7fffffffffffffffffffffffffffffffffffffffffffffffffffff00000000000016179055565b906040516040810181811067ffffffffffffffff82111761075c57604052915465ffffffffffff8116835260301c6020830152565b6008549192919081156147f9576146e36146de6125b58461248f565b61468d565b805165ffffffffffff83811694911684106147cf578560209361478095614713613175865165ffffffffffff1690565b0361478457506147286125b561475f9361248f565b9065ffffffffffff7fffffffffffffffffffffffffffffffffffffffffffffffffffff00000000000083549260301b169116179055565b015179ffffffffffffffffffffffffffffffffffffffffffffffffffff1690565b9190565b90506147ca91506147a4614796610813565b65ffffffffffff9092168252565b79ffffffffffffffffffffffffffffffffffffffffffffffffffff8716818501526145a8565b61475f565b60046040517f2520601d000000000000000000000000000000000000000000000000000000008152fd5b6148309150614809614796610813565b79ffffffffffffffffffffffffffffffffffffffffffffffffffff841660208201526145a8565b60009190565b60005260076020526040600020600460205261486165ffffffffffff60406000205460a01c16612ad9565b6002600183015492015482018092116124bc57111590565b91907f7fffffffffffffffffffffffffffffff5d576e7357a4501ddfe92f46681b20a084116148fe57926020929160ff608095604051948552168484015260408301526060820152600092839182805260015afa15610de757805173ffffffffffffffffffffffffffffffffffffffff8116156148f557918190565b50809160019190565b50505060009160039190565b9080821015614917575090565b90509056fea2646970667358221220d295ba99a39cee80b8d37f81f1a5456208de94274643e620352d03d9c7041f8064736f6c63430008180033f3f7a9fe364faab93b216da50a3214154f22a0a2b415b23a84c8169e8b636ee30553476bf02ef2726e8ce5ced78d63e26e602e4a2257b1f559418e24b4633997","linkReferences":{}},"methodIdentifiers":{"BALLOT_TYPEHASH()":"deaaa7cc","CLOCK_MODE()":"4bf5d7e9","COUNTING_MODE()":"dd4e2ba5","EXTENDED_BALLOT_TYPEHASH()":"2fe3e261","cancel(address[],uint256[],bytes[],bytes32)":"452115d6","castVote(uint256,uint8)":"56781388","castVoteBySig(uint256,uint8,address,bytes)":"8ff262e3","castVoteWithReason(uint256,uint8,string)":"7b3c71d3","castVoteWithReasonAndParams(uint256,uint8,string,bytes)":"5f398a14","castVoteWithReasonAndParamsBySig(uint256,uint8,address,string,bytes,bytes)":"5b8d0e0d","clock()":"91ddadf4","eip712Domain()":"84b0196e","execute(address[],uint256[],bytes[],bytes32)":"2656227d","getVotes(address,uint256)":"eb9019d4","getVotesWithParams(address,uint256,bytes)":"9a802a6d","hasVoted(uint256,address)":"43859632","hashProposal(address[],uint256[],bytes[],bytes32)":"c59057e4","name()":"06fdde03","nonces(address)":"7ecebe00","onERC1155BatchReceived(address,address,uint256[],uint256[],bytes)":"bc197c81","onERC1155Received(address,address,uint256,uint256,bytes)":"f23a6e61","onERC721Received(address,address,uint256,bytes)":"150b7a02","proposalDeadline(uint256)":"c01f9e37","proposalEta(uint256)":"ab58fb8e","proposalNeedsQueuing(uint256)":"a9a95294","proposalProposer(uint256)":"143489d0","proposalSnapshot(uint256)":"2d63f693","proposalThreshold()":"b58131b0","proposalVotes(uint256)":"544ffc9c","propose(address[],uint256[],bytes[],string)":"7d5e81e2","queue(address[],uint256[],bytes[],bytes32)":"160cbed7","quorum(uint256)":"f8ce560a","quorumDenominator()":"97c3d334","quorumNumerator()":"a7713a70","quorumNumerator(uint256)":"60c4247f","relay(address,uint256,bytes)":"c28bc2fa","setProposalThreshold(uint256)":"ece40cc1","setVotingDelay(uint48)":"79051887","setVotingPeriod(uint32)":"e540d01d","state(uint256)":"3e4f49e6","supportsInterface(bytes4)":"01ffc9a7","timelock()":"d33219b4","token()":"fc0c546a","updateQuorumNumerator(uint256)":"06f3f9e6","updateTimelock(address)":"a890c910","version()":"54fd4d50","votingDelay()":"3932abb1","votingPeriod()":"02a251a3"},"id":2}