{"abi":[{"type":"function","name":"BPS_MAX","inputs":[],"outputs":[{"name":"","type":"uint16","internalType":"uint16"}],"stateMutability":"view"},{"type":"function","name":"SCALE_FACTOR","inputs":[],"outputs":[{"name":"","type":"uint8","internalType":"uint8"}],"stateMutability":"view"}],"bytecode":{"object":"0x608080604052346100195760d8908161001f823930815050f35b600080fdfe6080806040526004361015601257600080fd5b600090813560e01c9081633eb6e84614606a575063ce4b5bbe14603457600080fd5b807ffffffffffffffffffffffffffffffffffffffffffffffffffffffffffffffffc360112606757602060405160648152f35b80fd5b9050817ffffffffffffffffffffffffffffffffffffffffffffffffffffffffffffffffc360112609e578061271060209252f35b5080fdfea2646970667358221220567cb372f95c931c8d85a05beb1a444d98c25473b32e4f039011297fe1587ade64736f6c63430008180033","linkReferences":{}},"methodIdentifiers":{"BPS_MAX()":"3eb6e846","SCALE_FACTOR()":"ce4b5bbe"},"id":49}