{"abi":[{"type":"receive","stateMutability":"payable"},{"type":"function","name":"getEndpoint","inputs":[],"outputs":[{"name":"","type":"string","internalType":"string"}],"stateMutability":"view"},{"type":"function","name":"getFees","inputs":[{"name":"token","type":"address","internalType":"address"}],"outputs":[{"name":"","type":"uint256","internalType":"uint256"}],"stateMutability":"view"},{"type":"function","name":"getManager","inputs":[],"outputs":[{"name":"","type":"address","internalType":"address"}],"stateMutability":"view"},{"type":"function","name":"initialize","inputs":[{"name":"_endpoint","type":"string","internalType":"string"},{"name":"_owner","type":"address","internalType":"address"}],"outputs":[],"stateMutability":"nonpayable"},{"type":"function","name":"isCurrencySupported","inputs":[{"name":"currency","type":"address","internalType":"address"}],"outputs":[{"name":"","type":"bool","internalType":"bool"}],"stateMutability":"view"},{"type":"function","name":"negotiate","inputs":[{"name":"fees","type":"uint256","internalType":"uint256"},{"name":"currency","type":"address","internalType":"address"}],"outputs":[{"name":"","type":"uint256","internalType":"uint256"}],"stateMutability":"view"},{"type":"function","name":"owner","inputs":[],"outputs":[{"name":"","type":"address","internalType":"address"}],"stateMutability":"view"},{"type":"function","name":"renounceOwnership","inputs":[],"outputs":[],"stateMutability":"nonpayable"},{"type":"function","name":"setFees","inputs":[{"name":"newTreasuryFee","type":"uint256","internalType":"uint256"},{"name":"token","type":"address","internalType":"address"}],"outputs":[],"stateMutability":"nonpayable"},{"type":"function","name":"setFees","inputs":[{"name":"newTreasuryFee","type":"uint256","internalType":"uint256"}],"outputs":[],"stateMutability":"nonpayable"},{"type":"function","name":"setFloor","inputs":[{"name":"currency","type":"address","internalType":"address"},{"name":"minimum","type":"uint256","internalType":"uint256"}],"outputs":[],"stateMutability":"nonpayable"},{"type":"function","name":"supportedCurrencies","inputs":[],"outputs":[{"name":"","type":"address[]","internalType":"address[]"}],"stateMutability":"view"},{"type":"function","name":"supportsInterface","inputs":[{"name":"interfaceId","type":"bytes4","internalType":"bytes4"}],"outputs":[{"name":"","type":"bool","internalType":"bool"}],"stateMutability":"view"},{"type":"function","name":"transferOwnership","inputs":[{"name":"newOwner","type":"address","internalType":"address"}],"outputs":[],"stateMutability":"nonpayable"},{"type":"function","name":"updateEndpoint","inputs":[{"name":"_endpoint","type":"string","internalType":"string"}],"outputs":[],"stateMutability":"nonpayable"},{"type":"event","name":"EndpointUpdated","inputs":[{"name":"oldEndpoint","type":"string","indexed":false,"internalType":"string"},{"name":"newEndpoint","type":"string","indexed":false,"internalType":"string"}],"anonymous":false},{"type":"event","name":"Initialized","inputs":[{"name":"version","type":"uint64","indexed":false,"internalType":"uint64"}],"anonymous":false},{"type":"event","name":"OwnershipTransferred","inputs":[{"name":"previousOwner","type":"address","indexed":true,"internalType":"address"},{"name":"newOwner","type":"address","indexed":true,"internalType":"address"}],"anonymous":false},{"type":"error","name":"InvalidBasisPointRange","inputs":[]},{"type":"error","name":"InvalidEndpoint","inputs":[]},{"type":"error","name":"InvalidInitialization","inputs":[]},{"type":"error","name":"InvalidNominalRange","inputs":[]},{"type":"error","name":"InvalidUnsupportedCurrency","inputs":[{"name":"currency","type":"address","internalType":"address"}]},{"type":"error","name":"InvalidUnsupportedToken","inputs":[{"name":"token","type":"address","internalType":"address"}]},{"type":"error","name":"NotInitializing","inputs":[]},{"type":"error","name":"OwnableInvalidOwner","inputs":[{"name":"owner","type":"address","internalType":"address"}]},{"type":"error","name":"OwnableUnauthorizedAccount","inputs":[{"name":"account","type":"address","internalType":"address"}]}],"bytecode":{"object":"0x6080806040523461001657611721908161001c8239f35b600080fdfe608060409080825260049182361015610023575b505050361561002157600080fd5b005b600092833560e01c92836301ffc9a714610e3b575082632c58824c14610d3d5782633d162cdc14610c195782633d18678e14610b365782635c019d2e146108b657826370dfaeca14610844578263715018a6146107a45782637ab4339d1461036c5782638da5cb5b146103185782639af608c9146102eb578263aed8e967146102b6578263c99c7d93146101d4578263d4ceb4181461016157508163d500958414610109575063f2fde38b146100da578080610013565b34610106576020600319360112610106576101036100f6610f01565b6100fe61133c565b611279565b80f35b80fd5b90503461015d578160031936011261015d5760209073ffffffffffffffffffffffffffffffffffffffff7f9016d09d72d40fdae2fd8ceac6b6234c7706214fd39c1cd1e609a0528c19930054169051908152f35b5080fd5b909150346101d057816003193601126101d0579160209273ffffffffffffffffffffffffffffffffffffffff6101a9610198610ed9565b926101a28461119a565b9035611631565b9116825260018452908290205490818110156101c85750905b51908152f35b9050906101c2565b8280fd5b909150346101d057816003193601126101d0576101ef610f01565b906101f861133c565b60ff6102438373ffffffffffffffffffffffffffffffffffffffff166000527f87da7b105ee6d8640c69f620aa1ac0a4cea27ca8bc07f4213d3776b156a65a01602052604060002090565b541615610272575073ffffffffffffffffffffffffffffffffffffffff16825260016020526024359082205580f35b73ffffffffffffffffffffffffffffffffffffffff60249351927ffd0f4c130000000000000000000000000000000000000000000000000000000084521690820152fd5b83823461015d578160031936011261015d576102e7906102d4611045565b9051918291602083526020830190610f94565b0390f35b83823461015d57602060031936011261015d5760209061031161030c610f01565b61119a565b9051908152f35b83823461015d578160031936011261015d5760209073ffffffffffffffffffffffffffffffffffffffff7f9016d09d72d40fdae2fd8ceac6b6234c7706214fd39c1cd1e609a0528c19930054169051908152f35b9150346101d057806003193601126101d05781359167ffffffffffffffff918284116107a057366023850112156107a057838201359280841161077457602093867fffffffffffffffffffffffffffffffffffffffffffffffffffffffffffffffe0968451926103e3888a601f8401160185610f24565b80845236602482840101116101d0578060248993018386013783010152610408610ed9565b917ff0c57e16840df040f15088dc2f81fe391c3923bec73e23a9662efc9c229c6a009687549560ff87871c1615948388169788158061076d575b6001809a149081610763575b15908161075a575b50610732579081878a7fffffffffffffffffffffffffffffffffffffffffffffffff00000000000000006104a69516178d556106fd575b50610496611692565b61049e611692565b6100fe611692565b6104ae611692565b6104b6611692565b6104be611692565b8980527f87da7b105ee6d8640c69f620aa1ac0a4cea27ca8bc07f4213d3776b156a65a00885286868b20557f87da7b105ee6d8640c69f620aa1ac0a4cea27ca8bc07f4213d3776b156a65a018852858a20877fffffffffffffffffffffffffffffffffffffffffffffffffffffffffffffff008254161790558351156106d65783519283116106aa575061055b826105568b54610ff2565b611129565b8690601f8311600114610613575081906105a8938a92610608575b50507fffffffffffffffffffffffffffffffffffffffffffffffffffffffffffffffff8260011b9260031b1c19161790565b86555b6105b3578480f35b837fffffffffffffffffffffffffffffffffffffffffffffff00ffffffffffffffff7fc7f505b2f371ae2175ee4913f4499e1f2633a7b5936321eed1cdaeb6115181d2955416905551908152a1388080808480f35b015190503880610576565b89805286937f290decd9548b62a8d60345a988386fc84ba6bc95484008f6362f93160ef3e563929184168b5b8a828210610694575050841161065d575b505050811b0186556105ab565b01517fffffffffffffffffffffffffffffffffffffffffffffffffffffffffffffffff60f88460031b161c19169055388080610650565b8385015186558a9790950194938401930161063f565b8960416024927f4e487b7100000000000000000000000000000000000000000000000000000000835252fd5b85517ff1cbb567000000000000000000000000000000000000000000000000000000008152fd5b7fffffffffffffffffffffffffffffffffffffffffffffff0000000000000000001668010000000000000001178b553861048d565b8288517ff92ee8a9000000000000000000000000000000000000000000000000000000008152fd5b90501538610456565b303b15915061044e565b5086610442565b6024866041857f4e487b7100000000000000000000000000000000000000000000000000000000835252fd5b8480fd5b83346101065780600319360112610106576107bd61133c565b8073ffffffffffffffffffffffffffffffffffffffff7f9016d09d72d40fdae2fd8ceac6b6234c7706214fd39c1cd1e609a0528c1993008054907fffffffffffffffffffffffff000000000000000000000000000000000000000082169055167f8be0079c531659141344cd1fd0a4f28419497f9722a3daafe3b4186f6b6457e08280a380f35b83823461015d57602060031936011261015d576020906108ad610865610f01565b73ffffffffffffffffffffffffffffffffffffffff166000527feef4c6e07c8c48aa12ec4689202072497f770ef14b71c2b38f8bc57ade760c00602052604060002054151590565b90519015158152f35b83823461015d576020806003193601126101d05767ffffffffffffffff9184358381116107a057366023820112156107a057808601359384116107a0576024953660248684010111610b325761090a61133c565b8415610b0b5750610919611045565b93610928816105568854610ff2565b8596601f8211600114610a025750601f816109ba817fffffffffffffffffffffffffffffffffffffffffffffffffffffffffffffffe0948a9b7f3637b1a87ffc6dabdf175b907cd32884c48171e1e06b4a0964df380aaa1326aa9b916109f4575b507fffffffffffffffffffffffffffffffffffffffffffffffffffffffffffffffff8260011b9260031b1c19161790565b89555b8060246109d3875199888b998a52890190610f94565b9587870389890152828752018786013788868286010152011601030190a180f35b60249150870101358c610989565b7fffffffffffffffffffffffffffffffffffffffffffffffffffffffffffffffe082168780527f290decd9548b62a8d60345a988386fc84ba6bc95484008f6362f93160ef3e5639188905b828210610af057505091601f917f3637b1a87ffc6dabdf175b907cd32884c48171e1e06b4a0964df380aaa1326aa9899827fffffffffffffffffffffffffffffffffffffffffffffffffffffffffffffffe09510610ab5575b5050600181811b0189556109bd565b60247fffffffffffffffffffffffffffffffffffffffffffffffffffffffffffffffff60f88560031b161c1991870101351690558980610aa6565b858b0181013584559987019960019093019290870190610a4d565b82517ff1cbb567000000000000000000000000000000000000000000000000000000008152fd5b8580fd5b909150346101d05760206003193601126101d057803590610b5561133c565b600182108015610c0e575b610be757508280527f87da7b105ee6d8640c69f620aa1ac0a4cea27ca8bc07f4213d3776b156a65a00602052818320557f87da7b105ee6d8640c69f620aa1ac0a4cea27ca8bc07f4213d3776b156a65a01602052812060017fffffffffffffffffffffffffffffffffffffffffffffffffffffffffffffff008254161790556101036113ac565b82517f07c0803f000000000000000000000000000000000000000000000000000000008152fd5b506127108211610b60565b83823461015d578060031936011261015d578235610c35610ed9565b91610c3e61133c565b600182108015610d32575b610d0a5761010393945073ffffffffffffffffffffffffffffffffffffffff831685527f87da7b105ee6d8640c69f620aa1ac0a4cea27ca8bc07f4213d3776b156a65a00602052842055610cdc8173ffffffffffffffffffffffffffffffffffffffff166000527f87da7b105ee6d8640c69f620aa1ac0a4cea27ca8bc07f4213d3776b156a65a01602052604060002090565b60017fffffffffffffffffffffffffffffffffffffffffffffffffffffffffffffff008254161790556114d9565b8490517f07c0803f000000000000000000000000000000000000000000000000000000008152fd5b506127108211610c49565b5082346101065780600319360112610106579080519182907feef4c6e07c8c48aa12ec4689202072497f770ef14b71c2b38f8bc57ade760c01918254808652602080960190819484527ff7cca01d1363b6dac67dc0202bc6deff8b8b913c55e00992833183b066b61e2290845b818110610e115750505081610dc0910382610f24565b83519485948186019282875251809352850193925b828110610de457505050500390f35b835173ffffffffffffffffffffffffffffffffffffffff1685528695509381019392810192600101610dd5565b825473ffffffffffffffffffffffffffffffffffffffff1684529288019260019283019201610daa565b8491346101d05760206003193601126101d057357fffffffff0000000000000000000000000000000000000000000000000000000081168091036101d057602092507f3a8b2846000000000000000000000000000000000000000000000000000000008114908115610eaf575b5015158152f35b7f01ffc9a70000000000000000000000000000000000000000000000000000000091501483610ea8565b6024359073ffffffffffffffffffffffffffffffffffffffff82168203610efc57565b600080fd5b6004359073ffffffffffffffffffffffffffffffffffffffff82168203610efc57565b90601f7fffffffffffffffffffffffffffffffffffffffffffffffffffffffffffffffe0910116810190811067ffffffffffffffff821117610f6557604052565b7f4e487b7100000000000000000000000000000000000000000000000000000000600052604160045260246000fd5b919082519283825260005b848110610fde5750507fffffffffffffffffffffffffffffffffffffffffffffffffffffffffffffffe0601f8460006020809697860101520116010190565b602081830181015184830182015201610f9f565b90600182811c9216801561103b575b602083101461100c57565b7f4e487b7100000000000000000000000000000000000000000000000000000000600052602260045260246000fd5b91607f1691611001565b604051906000826000549161105983610ff2565b808352926020906001908181169081156110e65750600114611086575b505061108492500383610f24565b565b915092600080527f290decd9548b62a8d60345a988386fc84ba6bc95484008f6362f93160ef3e563936000925b8284106110ce57506110849450505081016020013880611076565b855488850183015294850194879450928101926110b3565b9050602093506110849592507fffffffffffffffffffffffffffffffffffffffffffffffffffffffffffffff0091501682840152151560051b8201013880611076565b601f8111611135575050565b600090600080527f290decd9548b62a8d60345a988386fc84ba6bc95484008f6362f93160ef3e563906020601f850160051c83019410611190575b601f0160051c01915b82811061118557505050565b818155600101611179565b9092508290611170565b60ff6111e58273ffffffffffffffffffffffffffffffffffffffff166000527f87da7b105ee6d8640c69f620aa1ac0a4cea27ca8bc07f4213d3776b156a65a01602052604060002090565b5416156112325773ffffffffffffffffffffffffffffffffffffffff166000527f87da7b105ee6d8640c69f620aa1ac0a4cea27ca8bc07f4213d3776b156a65a0060205260406000205490565b60249073ffffffffffffffffffffffffffffffffffffffff604051917ffd0f4c13000000000000000000000000000000000000000000000000000000008352166004820152fd5b73ffffffffffffffffffffffffffffffffffffffff80911690811561130b577f9016d09d72d40fdae2fd8ceac6b6234c7706214fd39c1cd1e609a0528c199300805490837fffffffffffffffffffffffff00000000000000000000000000000000000000008316179055167f8be0079c531659141344cd1fd0a4f28419497f9722a3daafe3b4186f6b6457e0600080a3565b60246040517f1e4fbdf700000000000000000000000000000000000000000000000000000000815260006004820152fd5b73ffffffffffffffffffffffffffffffffffffffff7f9016d09d72d40fdae2fd8ceac6b6234c7706214fd39c1cd1e609a0528c1993005416330361137c57565b60246040517f118cdaa7000000000000000000000000000000000000000000000000000000008152336004820152fd5b60008080527feef4c6e07c8c48aa12ec4689202072497f770ef14b71c2b38f8bc57ade760c00908160205260408120546114d5577feef4c6e07c8c48aa12ec4689202072497f770ef14b71c2b38f8bc57ade760c018054680100000000000000008110156114a8576001810180835581101561147b5790604092917ff7cca01d1363b6dac67dc0202bc6deff8b8b913c55e00992833183b066b61e22017fffffffffffffffffffffffff0000000000000000000000000000000000000000815416905554928180526020522055565b6024837f4e487b710000000000000000000000000000000000000000000000000000000081526032600452fd5b6024837f4e487b710000000000000000000000000000000000000000000000000000000081526041600452fd5b5050565b6115258173ffffffffffffffffffffffffffffffffffffffff166000527feef4c6e07c8c48aa12ec4689202072497f770ef14b71c2b38f8bc57ade760c00602052604060002054151590565b61162e577feef4c6e07c8c48aa12ec4689202072497f770ef14b71c2b38f8bc57ade760c01805468010000000000000000811015610f6557600181018083558110156115ff5773ffffffffffffffffffffffffffffffffffffffff907ff7cca01d1363b6dac67dc0202bc6deff8b8b913c55e00992833183b066b61e2201921691827fffffffffffffffffffffffff000000000000000000000000000000000000000082541617905554906000527feef4c6e07c8c48aa12ec4689202072497f770ef14b71c2b38f8bc57ade760c00602052604060002055565b7f4e487b7100000000000000000000000000000000000000000000000000000000600052603260045260246000fd5b50565b9081159081801561168a575b6116855780830292830414171561165657612710900490565b7f4e487b7100000000000000000000000000000000000000000000000000000000600052601160045260246000fd5b505090565b50801561163d565b60ff7ff0c57e16840df040f15088dc2f81fe391c3923bec73e23a9662efc9c229c6a005460401c16156116c157565b60046040517fd7e6bcf8000000000000000000000000000000000000000000000000000000008152fdfea2646970667358221220fe4c3868a95bcf16abb04ce18df86b58c7bbb191dd8feb532cac9d4b7121c0c964736f6c63430008180033","linkReferences":{}},"methodIdentifiers":{"getEndpoint()":"aed8e967","getFees(address)":"9af608c9","getManager()":"d5009584","initialize(string,address)":"7ab4339d","isCurrencySupported(address)":"70dfaeca","negotiate(uint256,address)":"d4ceb418","owner()":"8da5cb5b","renounceOwnership()":"715018a6","setFees(uint256)":"3d18678e","setFees(uint256,address)":"3d162cdc","setFloor(address,uint256)":"c99c7d93","supportedCurrencies()":"2c58824c","supportsInterface(bytes4)":"01ffc9a7","transferOwnership(address)":"f2fde38b","updateEndpoint(string)":"5c019d2e"},"id":0}