{"abi":[{"type":"receive","stateMutability":"payable"},{"type":"function","name":"getEndpoint","inputs":[],"outputs":[{"name":"","type":"string","internalType":"string"}],"stateMutability":"view"},{"type":"function","name":"getFees","inputs":[{"name":"currency","type":"address","internalType":"address"}],"outputs":[{"name":"","type":"uint256","internalType":"uint256"}],"stateMutability":"view"},{"type":"function","name":"getManager","inputs":[],"outputs":[{"name":"","type":"address","internalType":"address"}],"stateMutability":"view"},{"type":"function","name":"initialize","inputs":[{"name":"_endpoint","type":"string","internalType":"string"},{"name":"_owner","type":"address","internalType":"address"}],"outputs":[],"stateMutability":"nonpayable"},{"type":"function","name":"isCurrencySupported","inputs":[{"name":"currency","type":"address","internalType":"address"}],"outputs":[{"name":"","type":"bool","internalType":"bool"}],"stateMutability":"view"},{"type":"function","name":"negotiate","inputs":[{"name":"fees","type":"uint256","internalType":"uint256"},{"name":"currency","type":"address","internalType":"address"}],"outputs":[{"name":"","type":"uint256","internalType":"uint256"}],"stateMutability":"view"},{"type":"function","name":"owner","inputs":[],"outputs":[{"name":"","type":"address","internalType":"address"}],"stateMutability":"view"},{"type":"function","name":"renounceOwnership","inputs":[],"outputs":[],"stateMutability":"nonpayable"},{"type":"function","name":"setFees","inputs":[{"name":"newTreasuryFee","type":"uint256","internalType":"uint256"},{"name":"currency","type":"address","internalType":"address"}],"outputs":[],"stateMutability":"nonpayable"},{"type":"function","name":"setFees","inputs":[{"name":"newTreasuryFee","type":"uint256","internalType":"uint256"}],"outputs":[],"stateMutability":"nonpayable"},{"type":"function","name":"setFloor","inputs":[{"name":"currency","type":"address","internalType":"address"},{"name":"minimum","type":"uint256","internalType":"uint256"}],"outputs":[],"stateMutability":"nonpayable"},{"type":"function","name":"supportedCurrencies","inputs":[],"outputs":[{"name":"","type":"address[]","internalType":"address[]"}],"stateMutability":"view"},{"type":"function","name":"supportsInterface","inputs":[{"name":"interfaceId","type":"bytes4","internalType":"bytes4"}],"outputs":[{"name":"","type":"bool","internalType":"bool"}],"stateMutability":"view"},{"type":"function","name":"transferOwnership","inputs":[{"name":"newOwner","type":"address","internalType":"address"}],"outputs":[],"stateMutability":"nonpayable"},{"type":"function","name":"updateEndpoint","inputs":[{"name":"_endpoint","type":"string","internalType":"string"}],"outputs":[],"stateMutability":"nonpayable"},{"type":"event","name":"EndpointUpdated","inputs":[{"name":"oldEndpoint","type":"string","indexed":false,"internalType":"string"},{"name":"newEndpoint","type":"string","indexed":false,"internalType":"string"}],"anonymous":false},{"type":"event","name":"Initialized","inputs":[{"name":"version","type":"uint64","indexed":false,"internalType":"uint64"}],"anonymous":false},{"type":"event","name":"OwnershipTransferred","inputs":[{"name":"previousOwner","type":"address","indexed":true,"internalType":"address"},{"name":"newOwner","type":"address","indexed":true,"internalType":"address"}],"anonymous":false},{"type":"error","name":"InvalidBasisPointRange","inputs":[]},{"type":"error","name":"InvalidCurrency","inputs":[{"name":"currency","type":"address","internalType":"address"}]},{"type":"error","name":"InvalidEndpoint","inputs":[]},{"type":"error","name":"InvalidInitialization","inputs":[]},{"type":"error","name":"InvalidNominalRange","inputs":[]},{"type":"error","name":"InvalidUnsupportedCurrency","inputs":[{"name":"currency","type":"address","internalType":"address"}]},{"type":"error","name":"NotInitializing","inputs":[]},{"type":"error","name":"OwnableInvalidOwner","inputs":[{"name":"owner","type":"address","internalType":"address"}]},{"type":"error","name":"OwnableUnauthorizedAccount","inputs":[{"name":"account","type":"address","internalType":"address"}]}],"bytecode":{"object":"0x608080604052346100165761189e908161001c8239f35b600080fdfe6080604052600436101561001b575b361561001957600080fd5b005b60003560e01c806301ffc9a7146101065780632c58824c146101015780633d162cdc146100fc5780633d18678e146100f75780635c019d2e146100f257806370dfaeca146100ed578063715018a6146100e85780637ab4339d146100e35780638da5cb5b146100ca5780639af608c9146100de578063aed8e967146100d9578063c99c7d93146100d4578063d4ceb418146100cf578063d5009584146100ca5763f2fde38b0361000e57610be0565b61097c565b610b72565b610a8c565b610a58565b6109cf565b6108d9565b6107a7565b610737565b61050b565b610419565b6102f5565b6101ac565b346101a75760206003193601126101a7576004357fffffffff0000000000000000000000000000000000000000000000000000000081168091036101a757807f3a8b2846000000000000000000000000000000000000000000000000000000006020921490811561017d575b506040519015158152f35b7f01ffc9a70000000000000000000000000000000000000000000000000000000091501438610172565b600080fd5b346101a7576000806003193601126102ac5760405180917f56b3138e9d26d4b1bbb7eb44261bf9a02d56af8c0799b6892290ca1ba7b2e701908154808452602080940190819383527f2c26ac34bdc0b134daa17d5a775f5fb701dc79b188a2651fe2a368e2f195db6d90835b818110610282575050508461022e910385610898565b60405193838594850191818652518092526040850193925b82811061025557505050500390f35b835173ffffffffffffffffffffffffffffffffffffffff1685528695509381019392810192600101610246565b825473ffffffffffffffffffffffffffffffffffffffff1684529286019260019283019201610218565b80fd5b6024359073ffffffffffffffffffffffffffffffffffffffff821682036101a757565b6004359073ffffffffffffffffffffffffffffffffffffffff821682036101a757565b346101a75760406003193601126101a75761030e6102af565b6103166113f5565b73ffffffffffffffffffffffffffffffffffffffff811680151580610377575b6103465761001982600435610c09565b602490604051907feae435bd0000000000000000000000000000000000000000000000000000000082526004820152fd5b5060206000604051828101907f01ffc9a7000000000000000000000000000000000000000000000000000000008083526024820152602481526103b981610877565b519085617530fa6000513d8261040d575b5081610403575b50806103f3575b806103e4575b15610336565b506103ee826117ad565b6103de565b506103fd8261171e565b156103d8565b90501515386103d1565b602011159150386103ca565b346101a75760206003193601126101a7576004356104356113f5565b61271081116104e15760008080527f2347f6e3e071d2c1531975e1fe894e6482b7b17e6e7c833ebff80a46ce05861a919091557f5575547e2bbff3f801051e8dc7ed5ba1cab8b335003bad8f456347ac015ff6016020527f23d865eec4993fd938a54a9019ab8616711837d31a2fe3fa6e376decde2262f880547fffffffffffffffffffffffffffffffffffffffffffffffffffffffffffffff001660011790556104de611465565b80f35b60046040517f07c0803f000000000000000000000000000000000000000000000000000000008152fd5b346101a7576020806003193601126101a75767ffffffffffffffff6004358181116101a757366023820112156101a75780600401359182116101a75760249136602482840101116101a75761055e6113f5565b801561070d5761056c610d27565b6000936105828361057d8754610cd4565b610e09565b8495601f841160011461061d5750508161060a916105f9826024969588997f3637b1a87ffc6dabdf175b907cd32884c48171e1e06b4a0964df380aaa1326aa9991610610575b507fffffffffffffffffffffffffffffffffffffffffffffffffffffffffffffffff8260011b9260031b1c19161790565b87555b604051948594019084610e7a565b0390a180f35b88915087010135386105c8565b600080527f290decd9548b62a8d60345a988386fc84ba6bc95484008f6362f93160ef3e56396917fffffffffffffffffffffffffffffffffffffffffffffffffffffffffffffffe085169187915b8383106106f257505050917f3637b1a87ffc6dabdf175b907cd32884c48171e1e06b4a0964df380aaa1326aa959684926024969561060a95106106b8575b5050600182811b0187556105fc565b867fffffffffffffffffffffffffffffffffffffffffffffffffffffffffffffffff60f88660031b161c19918701013516905538806106a9565b8488018101358a55600190990198938101939181019161066b565b60046040517ff1cbb567000000000000000000000000000000000000000000000000000000008152fd5b346101a75760206003193601126101a757602061079d6107556102d2565b73ffffffffffffffffffffffffffffffffffffffff166000527f56b3138e9d26d4b1bbb7eb44261bf9a02d56af8c0799b6892290ca1ba7b2e700602052604060002054151590565b6040519015158152f35b346101a7576000806003193601126102ac576107c16113f5565b8073ffffffffffffffffffffffffffffffffffffffff7f9016d09d72d40fdae2fd8ceac6b6234c7706214fd39c1cd1e609a0528c1993008054907fffffffffffffffffffffffff000000000000000000000000000000000000000082169055167f8be0079c531659141344cd1fd0a4f28419497f9722a3daafe3b4186f6b6457e08280a380f35b7f4e487b7100000000000000000000000000000000000000000000000000000000600052604160045260246000fd5b6060810190811067ffffffffffffffff82111761089357604052565b610848565b90601f7fffffffffffffffffffffffffffffffffffffffffffffffffffffffffffffffe0910116810190811067ffffffffffffffff82111761089357604052565b346101a75760406003193601126101a75760043567ffffffffffffffff8082116101a757366023830112156101a7578160040135908111610893576040519061094a60207fffffffffffffffffffffffffffffffffffffffffffffffffffffffffffffffe0601f8401160183610898565b80825236602482850101116101a7576020816000926024610019960183860137830101526109766102af565b90610ed3565b346101a75760006003193601126101a757602073ffffffffffffffffffffffffffffffffffffffff7f9016d09d72d40fdae2fd8ceac6b6234c7706214fd39c1cd1e609a0528c1993005416604051908152f35b346101a75760206003193601126101a75760206109f26109ed6102d2565b61129a565b604051908152f35b919082519283825260005b848110610a445750507fffffffffffffffffffffffffffffffffffffffffffffffffffffffffffffffe0601f8460006020809697860101520116010190565b602081830181015184830182015201610a05565b346101a75760006003193601126101a757610a88610a74610d27565b6040519182916020835260208301906109fa565b0390f35b346101a75760406003193601126101a757610aa56102d2565b610aad6113f5565b60ff610af88273ffffffffffffffffffffffffffffffffffffffff166000527f5575547e2bbff3f801051e8dc7ed5ba1cab8b335003bad8f456347ac015ff601602052604060002090565b541615610b2b5773ffffffffffffffffffffffffffffffffffffffff166000526001602052602435604060002055600080f35b60249073ffffffffffffffffffffffffffffffffffffffff604051917ff2789bbb000000000000000000000000000000000000000000000000000000008352166004820152fd5b346101a75760406003193601126101a7576020610b8d6102af565b73ffffffffffffffffffffffffffffffffffffffff610bb6610bae8361129a565b6004356116bd565b91166000526001825260406000205490818110600014610bd95750604051908152f35b90506109f2565b346101a75760206003193601126101a757610019610bfc6102d2565b610c046113f5565b611332565b9061271082116104e157610cd29173ffffffffffffffffffffffffffffffffffffffff82166000527f5575547e2bbff3f801051e8dc7ed5ba1cab8b335003bad8f456347ac015ff600602052604060002055610ca48173ffffffffffffffffffffffffffffffffffffffff166000527f5575547e2bbff3f801051e8dc7ed5ba1cab8b335003bad8f456347ac015ff601602052604060002090565b60017fffffffffffffffffffffffffffffffffffffffffffffffffffffffffffffff00825416179055611565565b565b90600182811c92168015610d1d575b6020831014610cee57565b7f4e487b7100000000000000000000000000000000000000000000000000000000600052602260045260246000fd5b91607f1691610ce3565b6040519060008260005491610d3b83610cd4565b80835292602090600190818116908115610dc65750600114610d66575b5050610cd292500383610898565b915092600080527f290decd9548b62a8d60345a988386fc84ba6bc95484008f6362f93160ef3e563936000925b828410610dae5750610cd29450505081016020013880610d58565b85548885018301529485019487945092810192610d93565b905060209350610cd29592507fffffffffffffffffffffffffffffffffffffffffffffffffffffffffffffff0091501682840152151560051b8201013880610d58565b601f8111610e15575050565b600090600080527f290decd9548b62a8d60345a988386fc84ba6bc95484008f6362f93160ef3e563906020601f850160051c83019410610e70575b601f0160051c01915b828110610e6557505050565b818155600101610e59565b9092508290610e50565b9183602094601f92610eb57fffffffffffffffffffffffffffffffffffffffffffffffffffffffffffffffe0956040885260408801906109fa565b95878188039101528186528686013760008582860101520116010190565b907ff0c57e16840df040f15088dc2f81fe391c3923bec73e23a9662efc9c229c6a009081549260ff8460401c16159367ffffffffffffffff81168015908161107d575b6001149081611073575b15908161106a575b5061104057610f639360017fffffffffffffffffffffffffffffffffffffffffffffffff0000000000000000879316179055610fe457611085565b610f6957565b610fb57ff0c57e16840df040f15088dc2f81fe391c3923bec73e23a9662efc9c229c6a007fffffffffffffffffffffffffffffffffffffffffffffff00ffffffffffffffff8154169055565b604051600181527fc7f505b2f371ae2175ee4913f4499e1f2633a7b5936321eed1cdaeb6115181d290602090a1565b61103b7ff0c57e16840df040f15088dc2f81fe391c3923bec73e23a9662efc9c229c6a00680100000000000000007fffffffffffffffffffffffffffffffffffffffffffffff00ffffffffffffffff825416179055565b611085565b60046040517ff92ee8a9000000000000000000000000000000000000000000000000000000008152fd5b90501538610f28565b303b159150610f20565b869150610f16565b91906110a39061109361180f565b61109b61180f565b610c0461180f565b6110ab61180f565b6110b361180f565b6110bb61180f565b60008080527f2347f6e3e071d2c1531975e1fe894e6482b7b17e6e7c833ebff80a46ce05861a557f5575547e2bbff3f801051e8dc7ed5ba1cab8b335003bad8f456347ac015ff6016020527f23d865eec4993fd938a54a9019ab8616711837d31a2fe3fa6e376decde2262f880547fffffffffffffffffffffffffffffffffffffffffffffffffffffffffffffff0016600117905581511561070d57815167ffffffffffffffff8111610893576000906111798161057d8454610cd4565b602080601f83116001146111d8575081908394956111c994926111cd575b50507fffffffffffffffffffffffffffffffffffffffffffffffffffffffffffffffff8260011b9260031b1c19161790565b9055565b015190503880611197565b907fffffffffffffffffffffffffffffffffffffffffffffffffffffffffffffffe0831695611228600080527f290decd9548b62a8d60345a988386fc84ba6bc95484008f6362f93160ef3e56390565b9285905b8882106112825750508360019596971061124b575b505050811b019055565b01517fffffffffffffffffffffffffffffffffffffffffffffffffffffffffffffffff60f88460031b161c19169055388080611241565b8060018596829496860151815501950193019061122c565b60ff6112e58273ffffffffffffffffffffffffffffffffffffffff166000527f5575547e2bbff3f801051e8dc7ed5ba1cab8b335003bad8f456347ac015ff601602052604060002090565b541615610b2b5773ffffffffffffffffffffffffffffffffffffffff166000527f5575547e2bbff3f801051e8dc7ed5ba1cab8b335003bad8f456347ac015ff60060205260406000205490565b73ffffffffffffffffffffffffffffffffffffffff8091169081156113c4577f9016d09d72d40fdae2fd8ceac6b6234c7706214fd39c1cd1e609a0528c199300805490837fffffffffffffffffffffffff00000000000000000000000000000000000000008316179055167f8be0079c531659141344cd1fd0a4f28419497f9722a3daafe3b4186f6b6457e0600080a3565b60246040517f1e4fbdf700000000000000000000000000000000000000000000000000000000815260006004820152fd5b73ffffffffffffffffffffffffffffffffffffffff7f9016d09d72d40fdae2fd8ceac6b6234c7706214fd39c1cd1e609a0528c1993005416330361143557565b60246040517f118cdaa7000000000000000000000000000000000000000000000000000000008152336004820152fd5b60008080527f56b3138e9d26d4b1bbb7eb44261bf9a02d56af8c0799b6892290ca1ba7b2e70090816020526040812054611561577f56b3138e9d26d4b1bbb7eb44261bf9a02d56af8c0799b6892290ca1ba7b2e70180546801000000000000000081101561089357600181018083558110156115345790604092917f2c26ac34bdc0b134daa17d5a775f5fb701dc79b188a2651fe2a368e2f195db6d017fffffffffffffffffffffffff0000000000000000000000000000000000000000815416905554928180526020522055565b6024837f4e487b710000000000000000000000000000000000000000000000000000000081526032600452fd5b5050565b6115b18173ffffffffffffffffffffffffffffffffffffffff166000527f56b3138e9d26d4b1bbb7eb44261bf9a02d56af8c0799b6892290ca1ba7b2e700602052604060002054151590565b6116ba577f56b3138e9d26d4b1bbb7eb44261bf9a02d56af8c0799b6892290ca1ba7b2e701805468010000000000000000811015610893576001810180835581101561168b5773ffffffffffffffffffffffffffffffffffffffff907f2c26ac34bdc0b134daa17d5a775f5fb701dc79b188a2651fe2a368e2f195db6d01921691827fffffffffffffffffffffffff000000000000000000000000000000000000000082541617905554906000527f56b3138e9d26d4b1bbb7eb44261bf9a02d56af8c0799b6892290ca1ba7b2e700602052604060002055565b7f4e487b7100000000000000000000000000000000000000000000000000000000600052603260045260246000fd5b50565b90811590818015611716575b611711578083029283041417156116e257612710900490565b7f4e487b7100000000000000000000000000000000000000000000000000000000600052601160045260246000fd5b505090565b5080156116c9565b6000602091604051838101907f01ffc9a70000000000000000000000000000000000000000000000000000000082527fffffffff0000000000000000000000000000000000000000000000000000000060248201526024815261178081610877565b5191617530fa6000513d826117a1575b508161179a575090565b9050151590565b60201115915038611790565b6000602091604051838101907f01ffc9a70000000000000000000000000000000000000000000000000000000082527f36372b070000000000000000000000000000000000000000000000000000000060248201526024815261178081610877565b60ff7ff0c57e16840df040f15088dc2f81fe391c3923bec73e23a9662efc9c229c6a005460401c161561183e57565b60046040517fd7e6bcf8000000000000000000000000000000000000000000000000000000008152fdfea2646970667358221220ef938b13a1c6b9d1501c3c2c7bdedaf932c39a5f51d87073806b2a06b5c0303564736f6c63430008180033","linkReferences":{}},"methodIdentifiers":{"getEndpoint()":"aed8e967","getFees(address)":"9af608c9","getManager()":"d5009584","initialize(string,address)":"7ab4339d","isCurrencySupported(address)":"70dfaeca","negotiate(uint256,address)":"d4ceb418","owner()":"8da5cb5b","renounceOwnership()":"715018a6","setFees(uint256)":"3d18678e","setFees(uint256,address)":"3d162cdc","setFloor(address,uint256)":"c99c7d93","supportedCurrencies()":"2c58824c","supportsInterface(bytes4)":"01ffc9a7","transferOwnership(address)":"f2fde38b","updateEndpoint(string)":"5c019d2e"},"id":0}