{"abi":[{"type":"function","name":"getEndpoint","inputs":[],"outputs":[{"name":"","type":"string","internalType":"string"}],"stateMutability":"view"},{"type":"function","name":"getFees","inputs":[{"name":"token","type":"address","internalType":"address"}],"outputs":[{"name":"","type":"uint256","internalType":"uint256"}],"stateMutability":"view"},{"type":"function","name":"getManager","inputs":[],"outputs":[{"name":"","type":"address","internalType":"address"}],"stateMutability":"view"},{"type":"function","name":"initialize","inputs":[{"name":"_endpoint","type":"string","internalType":"string"},{"name":"_owner","type":"address","internalType":"address"}],"outputs":[],"stateMutability":"nonpayable"},{"type":"function","name":"isCurrencySupported","inputs":[{"name":"currency","type":"address","internalType":"address"}],"outputs":[{"name":"","type":"bool","internalType":"bool"}],"stateMutability":"view"},{"type":"function","name":"owner","inputs":[],"outputs":[{"name":"","type":"address","internalType":"address"}],"stateMutability":"view"},{"type":"function","name":"renounceOwnership","inputs":[],"outputs":[],"stateMutability":"nonpayable"},{"type":"function","name":"setFees","inputs":[{"name":"newTreasuryFee","type":"uint256","internalType":"uint256"},{"name":"token","type":"address","internalType":"address"}],"outputs":[],"stateMutability":"nonpayable"},{"type":"function","name":"setFees","inputs":[{"name":"newTreasuryFee","type":"uint256","internalType":"uint256"}],"outputs":[],"stateMutability":"nonpayable"},{"type":"function","name":"supportedCurrencies","inputs":[],"outputs":[{"name":"","type":"address[]","internalType":"address[]"}],"stateMutability":"view"},{"type":"function","name":"supportsInterface","inputs":[{"name":"interfaceId","type":"bytes4","internalType":"bytes4"}],"outputs":[{"name":"","type":"bool","internalType":"bool"}],"stateMutability":"view"},{"type":"function","name":"transferOwnership","inputs":[{"name":"newOwner","type":"address","internalType":"address"}],"outputs":[],"stateMutability":"nonpayable"},{"type":"function","name":"updateEndpoint","inputs":[{"name":"_endpoint","type":"string","internalType":"string"}],"outputs":[],"stateMutability":"nonpayable"},{"type":"function","name":"withdraw","inputs":[{"name":"amount","type":"uint256","internalType":"uint256"},{"name":"token","type":"address","internalType":"address"}],"outputs":[],"stateMutability":"nonpayable"},{"type":"function","name":"withdraw","inputs":[{"name":"amount","type":"uint256","internalType":"uint256"}],"outputs":[],"stateMutability":"nonpayable"},{"type":"event","name":"EndpointUpdated","inputs":[{"name":"oldEndpoint","type":"string","indexed":false,"internalType":"string"},{"name":"newEndpoint","type":"string","indexed":false,"internalType":"string"}],"anonymous":false},{"type":"event","name":"Initialized","inputs":[{"name":"version","type":"uint64","indexed":false,"internalType":"uint64"}],"anonymous":false},{"type":"event","name":"OwnershipTransferred","inputs":[{"name":"previousOwner","type":"address","indexed":true,"internalType":"address"},{"name":"newOwner","type":"address","indexed":true,"internalType":"address"}],"anonymous":false},{"type":"error","name":"FailDuringTransfer","inputs":[{"name":"reason","type":"string","internalType":"string"}]},{"type":"error","name":"InvalidBasisPointRange","inputs":[]},{"type":"error","name":"InvalidEndpoint","inputs":[]},{"type":"error","name":"InvalidInitialization","inputs":[]},{"type":"error","name":"InvalidNominalRange","inputs":[]},{"type":"error","name":"InvalidUnsupportedCurrency","inputs":[{"name":"currency","type":"address","internalType":"address"}]},{"type":"error","name":"InvalidUnsupportedToken","inputs":[{"name":"token","type":"address","internalType":"address"}]},{"type":"error","name":"NotInitializing","inputs":[]},{"type":"error","name":"OwnableInvalidOwner","inputs":[{"name":"owner","type":"address","internalType":"address"}]},{"type":"error","name":"OwnableUnauthorizedAccount","inputs":[{"name":"account","type":"address","internalType":"address"}]}],"bytecode":{"object":"0x6080806040523461001657611893908161001c8239f35b600080fdfe60406080815260048036101561001457600080fd5b600091823560e01c918262f714ce14610f7757826301ffc9a714610ed55782632c58824c14610dd75782632e1a7d4d14610c775782633d162cdc14610b535782633d18678e14610a705782635c019d2e146107f057826370dfaeca1461077e578263715018a6146106de5782637ab4339d146102d55782638da5cb5b146102815782639af608c91461018357508163aed8e9671461014e578163d5009584146100f6575063f2fde38b146100c757600080fd5b346100f35760206003193601126100f3576100f06100e3611179565b6100eb61150f565b61144c565b80f35b80fd5b90503461014a578160031936011261014a5760209073ffffffffffffffffffffffffffffffffffffffff7f9016d09d72d40fdae2fd8ceac6b6234c7706214fd39c1cd1e609a0528c19930054169051908152f35b5080fd5b90503461014a578160031936011261014a5761017f9061016c6112f7565b9051918291602083526020830190611246565b0390f35b9083346100f35760206003193601126100f35761019e611179565b9260ff6101ea8573ffffffffffffffffffffffffffffffffffffffff166000527f87da7b105ee6d8640c69f620aa1ac0a4cea27ca8bc07f4213d3776b156a65a01602052604060002090565b54161561023b5750819073ffffffffffffffffffffffffffffffffffffffff6020941681527f87da7b105ee6d8640c69f620aa1ac0a4cea27ca8bc07f4213d3776b156a65a00845220549051908152f35b8360249173ffffffffffffffffffffffffffffffffffffffff8551927ffd0f4c130000000000000000000000000000000000000000000000000000000084521690820152fd5b83823461014a578160031936011261014a5760209073ffffffffffffffffffffffffffffffffffffffff7f9016d09d72d40fdae2fd8ceac6b6234c7706214fd39c1cd1e609a0528c19930054169051908152f35b9150346106d657806003193601126106d65781359167ffffffffffffffff918284116106da57366023850112156106da578382013592856103158561120c565b956103228451978861119c565b85875260209536602482840101116106d657806024889301838a01378701015261034a611151565b907ff0c57e16840df040f15088dc2f81fe391c3923bec73e23a9662efc9c229c6a009586549460ff86861c161593838716968715806106cf575b600180991490816106c5575b1590816106bc575b5061069457908186897fffffffffffffffffffffffffffffffffffffffffffffffff00000000000000006103e89516178c5561065f575b506103d8611804565b6103e0611804565b6100eb611804565b6103f0611804565b6103f8611804565b610400611804565b8880527f87da7b105ee6d8640c69f620aa1ac0a4cea27ca8bc07f4213d3776b156a65a00875285858a20557f87da7b105ee6d8640c69f620aa1ac0a4cea27ca8bc07f4213d3776b156a65a018752848920867fffffffffffffffffffffffffffffffffffffffffffffffffffffffffffffff0082541617905581511561063857815192831161060c575061049d826104988a546112a4565b6113db565b8590601f8311600114610554576104e99291899183610549575b50507fffffffffffffffffffffffffffffffffffffffffffffffffffffffffffffffff8260011b9260031b1c19161790565b86555b6104f4578480f35b837fffffffffffffffffffffffffffffffffffffffffffffff00ffffffffffffffff7fc7f505b2f371ae2175ee4913f4499e1f2633a7b5936321eed1cdaeb6115181d2955416905551908152a1388080808480f35b0151905038806104b7565b8880528592917f290decd9548b62a8d60345a988386fc84ba6bc95484008f6362f93160ef3e563917fffffffffffffffffffffffffffffffffffffffffffffffffffffffffffffffe084168b5b8a8282106105f657505084116105bf575b505050811b0186556104ec565b01517fffffffffffffffffffffffffffffffffffffffffffffffffffffffffffffffff60f88460031b161c191690553880806105b2565b8385015186558a979095019493840193016105a1565b8860416024927f4e487b7100000000000000000000000000000000000000000000000000000000835252fd5b84517ff1cbb567000000000000000000000000000000000000000000000000000000008152fd5b7fffffffffffffffffffffffffffffffffffffffffffffff0000000000000000001668010000000000000001178a55386103cf565b8287517ff92ee8a9000000000000000000000000000000000000000000000000000000008152fd5b90501538610398565b303b159150610390565b5085610384565b8280fd5b8480fd5b83346100f357806003193601126100f3576106f761150f565b8073ffffffffffffffffffffffffffffffffffffffff7f9016d09d72d40fdae2fd8ceac6b6234c7706214fd39c1cd1e609a0528c1993008054907fffffffffffffffffffffffff000000000000000000000000000000000000000082169055167f8be0079c531659141344cd1fd0a4f28419497f9722a3daafe3b4186f6b6457e08280a380f35b83823461014a57602060031936011261014a576020906107e761079f611179565b73ffffffffffffffffffffffffffffffffffffffff166000527feef4c6e07c8c48aa12ec4689202072497f770ef14b71c2b38f8bc57ade760c00602052604060002054151590565b90519015158152f35b83823461014a576020806003193601126106d65767ffffffffffffffff9184358381116106da57366023820112156106da57808601359384116106da576024953660248684010111610a6c5761084461150f565b8415610a4557506108536112f7565b936108628161049888546112a4565b8596601f821160011461093c5750601f816108f4817fffffffffffffffffffffffffffffffffffffffffffffffffffffffffffffffe0948a9b7f3637b1a87ffc6dabdf175b907cd32884c48171e1e06b4a0964df380aaa1326aa9b9161092e575b507fffffffffffffffffffffffffffffffffffffffffffffffffffffffffffffffff8260011b9260031b1c19161790565b89555b80602461090d875199888b998a52890190611246565b9587870389890152828752018786013788868286010152011601030190a180f35b60249150870101358c6108c3565b7fffffffffffffffffffffffffffffffffffffffffffffffffffffffffffffffe082168780527f290decd9548b62a8d60345a988386fc84ba6bc95484008f6362f93160ef3e5639188905b828210610a2a57505091601f917f3637b1a87ffc6dabdf175b907cd32884c48171e1e06b4a0964df380aaa1326aa9899827fffffffffffffffffffffffffffffffffffffffffffffffffffffffffffffffe095106109ef575b5050600181811b0189556108f7565b60247fffffffffffffffffffffffffffffffffffffffffffffffffffffffffffffffff60f88560031b161c19918701013516905589806109e0565b858b0181013584559987019960019093019290870190610987565b82517ff1cbb567000000000000000000000000000000000000000000000000000000008152fd5b8580fd5b909150346106d65760206003193601126106d657803590610a8f61150f565b600182108015610b48575b610b2157508280527f87da7b105ee6d8640c69f620aa1ac0a4cea27ca8bc07f4213d3776b156a65a00602052818320557f87da7b105ee6d8640c69f620aa1ac0a4cea27ca8bc07f4213d3776b156a65a01602052812060017fffffffffffffffffffffffffffffffffffffffffffffffffffffffffffffff008254161790556100f061157f565b82517f07c0803f000000000000000000000000000000000000000000000000000000008152fd5b506127108211610a9a565b83823461014a578060031936011261014a578235610b6f611151565b91610b7861150f565b600182108015610c6c575b610c44576100f093945073ffffffffffffffffffffffffffffffffffffffff831685527f87da7b105ee6d8640c69f620aa1ac0a4cea27ca8bc07f4213d3776b156a65a00602052842055610c168173ffffffffffffffffffffffffffffffffffffffff166000527f87da7b105ee6d8640c69f620aa1ac0a4cea27ca8bc07f4213d3776b156a65a01602052604060002090565b60017fffffffffffffffffffffffffffffffffffffffffffffffffffffffffffffff008254161790556116ac565b8490517f07c0803f000000000000000000000000000000000000000000000000000000008152fd5b506127108211610b83565b9150346106d65760206003193601126106d6578135610c9461150f565b73ffffffffffffffffffffffffffffffffffffffff7f9016d09d72d40fdae2fd8ceac6b6234c7706214fd39c1cd1e609a0528c1993005416814710610d6d578480809381935af13d15610d68573d610ceb8161120c565b90610cf88451928361119c565b81528460203d92013e5b15610d0b578280f35b90602060649251917f9cf1483d000000000000000000000000000000000000000000000000000000008352820152600f60248201527f5472616e73666572206661696c656400000000000000000000000000000000006044820152fd5b610d02565b610dd38484519182917f9cf1483d000000000000000000000000000000000000000000000000000000008352820160609060208152601460208201527f496e73756666696369656e742062616c616e636500000000000000000000000060408201520190565b0390fd5b5082346100f357806003193601126100f3579080519182907feef4c6e07c8c48aa12ec4689202072497f770ef14b71c2b38f8bc57ade760c01918254808652602080960190819484527ff7cca01d1363b6dac67dc0202bc6deff8b8b913c55e00992833183b066b61e2290845b818110610eab5750505081610e5a91038261119c565b83519485948186019282875251809352850193925b828110610e7e57505050500390f35b835173ffffffffffffffffffffffffffffffffffffffff1685528695509381019392810192600101610e6f565b825473ffffffffffffffffffffffffffffffffffffffff1684529288019260019283019201610e44565b909150346106d65760206003193601126106d65735907fffffffff0000000000000000000000000000000000000000000000000000000082168092036106d657602092507f27d9e1cd000000000000000000000000000000000000000000000000000000008214918215610f4d575b50519015158152f35b7f01ffc9a70000000000000000000000000000000000000000000000000000000014915038610f44565b909150346106d657816003193601126106d657803591610f95611151565b610f9d61150f565b73ffffffffffffffffffffffffffffffffffffffff807f9016d09d72d40fdae2fd8ceac6b6234c7706214fd39c1cd1e609a0528c19930054169116928251937f70a0823100000000000000000000000000000000000000000000000000000000855230828601526020948581602481855afa908115611147579087918991611112575b50106110ac5784929187604492865198899586947fa9059cbb00000000000000000000000000000000000000000000000000000000865285015260248401525af19081156110a35750611071578280f35b81813d831161109c575b611085818361119c565b8101031261014a5751801515036100f35738808280f35b503d61107b565b513d85823e3d90fd5b610dd38285519182917f9cf1483d000000000000000000000000000000000000000000000000000000008352820160609060208152601460208201527f496e73756666696369656e742062616c616e636500000000000000000000000060408201520190565b809250878092503d8311611140575b61112b818361119c565b8101031261113c5786905138611020565b8780fd5b503d611121565b85513d8a823e3d90fd5b6024359073ffffffffffffffffffffffffffffffffffffffff8216820361117457565b600080fd5b6004359073ffffffffffffffffffffffffffffffffffffffff8216820361117457565b90601f7fffffffffffffffffffffffffffffffffffffffffffffffffffffffffffffffe0910116810190811067ffffffffffffffff8211176111dd57604052565b7f4e487b7100000000000000000000000000000000000000000000000000000000600052604160045260246000fd5b67ffffffffffffffff81116111dd57601f017fffffffffffffffffffffffffffffffffffffffffffffffffffffffffffffffe01660200190565b919082519283825260005b8481106112905750507fffffffffffffffffffffffffffffffffffffffffffffffffffffffffffffffe0601f8460006020809697860101520116010190565b602081830181015184830182015201611251565b90600182811c921680156112ed575b60208310146112be57565b7f4e487b7100000000000000000000000000000000000000000000000000000000600052602260045260246000fd5b91607f16916112b3565b604051906000826000549161130b836112a4565b808352926020906001908181169081156113985750600114611338575b50506113369250038361119c565b565b915092600080527f290decd9548b62a8d60345a988386fc84ba6bc95484008f6362f93160ef3e563936000925b82841061138057506113369450505081016020013880611328565b85548885018301529485019487945092810192611365565b9050602093506113369592507fffffffffffffffffffffffffffffffffffffffffffffffffffffffffffffff0091501682840152151560051b8201013880611328565b601f81116113e7575050565b600090600080527f290decd9548b62a8d60345a988386fc84ba6bc95484008f6362f93160ef3e563906020601f850160051c83019410611442575b601f0160051c01915b82811061143757505050565b81815560010161142b565b9092508290611422565b73ffffffffffffffffffffffffffffffffffffffff8091169081156114de577f9016d09d72d40fdae2fd8ceac6b6234c7706214fd39c1cd1e609a0528c199300805490837fffffffffffffffffffffffff00000000000000000000000000000000000000008316179055167f8be0079c531659141344cd1fd0a4f28419497f9722a3daafe3b4186f6b6457e0600080a3565b60246040517f1e4fbdf700000000000000000000000000000000000000000000000000000000815260006004820152fd5b73ffffffffffffffffffffffffffffffffffffffff7f9016d09d72d40fdae2fd8ceac6b6234c7706214fd39c1cd1e609a0528c1993005416330361154f57565b60246040517f118cdaa7000000000000000000000000000000000000000000000000000000008152336004820152fd5b60008080527feef4c6e07c8c48aa12ec4689202072497f770ef14b71c2b38f8bc57ade760c00908160205260408120546116a8577feef4c6e07c8c48aa12ec4689202072497f770ef14b71c2b38f8bc57ade760c0180546801000000000000000081101561167b576001810180835581101561164e5790604092917ff7cca01d1363b6dac67dc0202bc6deff8b8b913c55e00992833183b066b61e22017fffffffffffffffffffffffff0000000000000000000000000000000000000000815416905554928180526020522055565b6024837f4e487b710000000000000000000000000000000000000000000000000000000081526032600452fd5b6024837f4e487b710000000000000000000000000000000000000000000000000000000081526041600452fd5b5050565b6116f88173ffffffffffffffffffffffffffffffffffffffff166000527feef4c6e07c8c48aa12ec4689202072497f770ef14b71c2b38f8bc57ade760c00602052604060002054151590565b611801577feef4c6e07c8c48aa12ec4689202072497f770ef14b71c2b38f8bc57ade760c018054680100000000000000008110156111dd57600181018083558110156117d25773ffffffffffffffffffffffffffffffffffffffff907ff7cca01d1363b6dac67dc0202bc6deff8b8b913c55e00992833183b066b61e2201921691827fffffffffffffffffffffffff000000000000000000000000000000000000000082541617905554906000527feef4c6e07c8c48aa12ec4689202072497f770ef14b71c2b38f8bc57ade760c00602052604060002055565b7f4e487b7100000000000000000000000000000000000000000000000000000000600052603260045260246000fd5b50565b60ff7ff0c57e16840df040f15088dc2f81fe391c3923bec73e23a9662efc9c229c6a005460401c161561183357565b60046040517fd7e6bcf8000000000000000000000000000000000000000000000000000000008152fdfea2646970667358221220bd58ae925473f1b198c6b7fdaee56f4b9b87f1831e125744786e27e8b2dadd4f64736f6c63430008180033","linkReferences":{}},"methodIdentifiers":{"getEndpoint()":"aed8e967","getFees(address)":"9af608c9","getManager()":"d5009584","initialize(string,address)":"7ab4339d","isCurrencySupported(address)":"70dfaeca","owner()":"8da5cb5b","renounceOwnership()":"715018a6","setFees(uint256)":"3d18678e","setFees(uint256,address)":"3d162cdc","supportedCurrencies()":"2c58824c","supportsInterface(bytes4)":"01ffc9a7","transferOwnership(address)":"f2fde38b","updateEndpoint(string)":"5c019d2e","withdraw(uint256)":"2e1a7d4d","withdraw(uint256,address)":"00f714ce"},"id":0}