{"abi":[{"type":"constructor","inputs":[{"name":"hub","type":"address","internalType":"address"},{"name":"registrant","type":"address","internalType":"address"},{"name":"drm","type":"address","internalType":"address"}],"stateMutability":"nonpayable"},{"type":"function","name":"HUB","inputs":[],"outputs":[{"name":"","type":"address","internalType":"address"}],"stateMutability":"view"},{"type":"function","name":"MODULE_REGISTRY","inputs":[],"outputs":[{"name":"","type":"address","internalType":"contract IModuleRegistry"}],"stateMutability":"view"},{"type":"function","name":"drmAddress","inputs":[],"outputs":[{"name":"","type":"address","internalType":"address"}],"stateMutability":"view"},{"type":"function","name":"getModuleMetadataURI","inputs":[],"outputs":[{"name":"","type":"string","internalType":"string"}],"stateMutability":"view"},{"type":"function","name":"initializePublicationAction","inputs":[{"name":"","type":"uint256","internalType":"uint256"},{"name":"pubId","type":"uint256","internalType":"uint256"},{"name":"transactionExecutor","type":"address","internalType":"address"},{"name":"data","type":"bytes","internalType":"bytes"}],"outputs":[{"name":"","type":"bytes","internalType":"bytes"}],"stateMutability":"nonpayable"},{"type":"function","name":"isRegistered","inputs":[],"outputs":[{"name":"","type":"bool","internalType":"bool"}],"stateMutability":"view"},{"type":"function","name":"isRegisteredErc20","inputs":[{"name":"currencyAddress","type":"address","internalType":"address"}],"outputs":[{"name":"","type":"bool","internalType":"bool"}],"stateMutability":"view"},{"type":"function","name":"metadataURI","inputs":[],"outputs":[{"name":"","type":"string","internalType":"string"}],"stateMutability":"view"},{"type":"function","name":"owner","inputs":[],"outputs":[{"name":"","type":"address","internalType":"address"}],"stateMutability":"view"},{"type":"function","name":"processPublicationAction","inputs":[{"name":"params","type":"tuple","internalType":"struct Types.ProcessActionParams","components":[{"name":"publicationActedProfileId","type":"uint256","internalType":"uint256"},{"name":"publicationActedId","type":"uint256","internalType":"uint256"},{"name":"actorProfileId","type":"uint256","internalType":"uint256"},{"name":"actorProfileOwner","type":"address","internalType":"address"},{"name":"transactionExecutor","type":"address","internalType":"address"},{"name":"referrerProfileIds","type":"uint256[]","internalType":"uint256[]"},{"name":"referrerPubIds","type":"uint256[]","internalType":"uint256[]"},{"name":"referrerPubTypes","type":"uint8[]","internalType":"enum Types.PublicationType[]"},{"name":"actionModuleData","type":"bytes","internalType":"bytes"}]}],"outputs":[{"name":"","type":"bytes","internalType":"bytes"}],"stateMutability":"nonpayable"},{"type":"function","name":"registerCurrency","inputs":[{"name":"currencyAddress","type":"address","internalType":"address"}],"outputs":[{"name":"","type":"bool","internalType":"bool"}],"stateMutability":"nonpayable"},{"type":"function","name":"registerModule","inputs":[],"outputs":[{"name":"","type":"bool","internalType":"bool"}],"stateMutability":"nonpayable"},{"type":"function","name":"renounceOwnership","inputs":[],"outputs":[],"stateMutability":"nonpayable"},{"type":"function","name":"setModuleMetadataURI","inputs":[{"name":"_metadataURI","type":"string","internalType":"string"}],"outputs":[],"stateMutability":"nonpayable"},{"type":"function","name":"supportsInterface","inputs":[{"name":"interfaceID","type":"bytes4","internalType":"bytes4"}],"outputs":[{"name":"","type":"bool","internalType":"bool"}],"stateMutability":"pure"},{"type":"function","name":"terms","inputs":[{"name":"account","type":"address","internalType":"address"},{"name":"contentId","type":"uint256","internalType":"uint256"}],"outputs":[{"name":"","type":"bool","internalType":"bool"}],"stateMutability":"view"},{"type":"function","name":"transferOwnership","inputs":[{"name":"newOwner","type":"address","internalType":"address"}],"outputs":[],"stateMutability":"nonpayable"},{"type":"event","name":"ModuleRegistered","inputs":[],"anonymous":false},{"type":"event","name":"OwnershipTransferred","inputs":[{"name":"previousOwner","type":"address","indexed":true,"internalType":"address"},{"name":"newOwner","type":"address","indexed":true,"internalType":"address"}],"anonymous":false},{"type":"error","name":"AddressEmptyCode","inputs":[{"name":"target","type":"address","internalType":"address"}]},{"type":"error","name":"AddressInsufficientBalance","inputs":[{"name":"account","type":"address","internalType":"address"}]},{"type":"error","name":"FailedInnerCall","inputs":[]},{"type":"error","name":"InvalidCallOnlyDRMAllowed","inputs":[]},{"type":"error","name":"InvalidExistingContentPublication","inputs":[]},{"type":"error","name":"InvalidNotSupportedCurrency","inputs":[]},{"type":"error","name":"InvalidRentPrice","inputs":[]},{"type":"error","name":"NotHub","inputs":[]},{"type":"error","name":"OwnableInvalidOwner","inputs":[{"name":"owner","type":"address","internalType":"address"}]},{"type":"error","name":"OwnableUnauthorizedAccount","inputs":[{"name":"account","type":"address","internalType":"address"}]},{"type":"error","name":"SafeCastOverflowedUintDowncast","inputs":[{"name":"bits","type":"uint8","internalType":"uint8"},{"name":"value","type":"uint256","internalType":"uint256"}]},{"type":"error","name":"SafeERC20FailedOperation","inputs":[{"name":"token","type":"address","internalType":"address"}]}],"bytecode":{"object":"0x60e0346200013e57601f62001cb538819003918201601f19168301916001600160401b0383118484101762000143578084926060946040528339810103126200013e576200004d8162000159565b620000696040620000616020850162000159565b930162000159565b903315620001255760008054336001600160a01b0319821681178355604051956001600160a01b039390928416907f8be0079c531659141344cd1fd0a4f28419497f9722a3daafe3b4186f6b6457e09080a31660805260a05260c052611b4690816200016f82396080518181816102af015281816117630152818161180f01528181611907015261199f015260a051818181610300015281816103710152610e3a015260c05181818161025e015281816105b40152610f440152f35b604051631e4fbdf760e01b815260006004820152602490fd5b600080fd5b634e487b7160e01b600052604160045260246000fd5b51906001600160a01b03821682036200013e5756fe608080604052600436101561001357600080fd5b600090813560e01c90816301ffc9a7146113205750806303ee438c146101fd5780630b96022014610ddb5780632236684414610dc0578063681591c114610bc55780637023d8cc14610ba1578063715018a614610b22578063744c334e14610abb5780638da5cb5b14610a8857806390ce6e0814610324578063a4c52b86146102d3578063b95ddb5214610282578063bd1710ca14610231578063ce90d52e146101fd578063d97a0343146101d1578063e0f0da85146101a45763f2fde38b146100dc57600080fd5b346101a15760206003193601126101a1576100f561161a565b6100fd611857565b73ffffffffffffffffffffffffffffffffffffffff80911690811561017057600054827fffffffffffffffffffffffff0000000000000000000000000000000000000000821617600055167f8be0079c531659141344cd1fd0a4f28419497f9722a3daafe3b4186f6b6457e0600080a380f35b602483604051907f1e4fbdf70000000000000000000000000000000000000000000000000000000082526004820152fd5b80fd5b50346101a157806003193601126101a1576101bd611857565b60206101c7611941565b6040519015158152f35b50346101a15760206003193601126101a15760206101c76101f061161a565b6101f8611857565b6118a8565b50346101a157806003193601126101a15761022d6102196114d7565b6040519182916020835260208301906115bc565b0390f35b50346101a157806003193601126101a157602060405173ffffffffffffffffffffffffffffffffffffffff7f0000000000000000000000000000000000000000000000000000000000000000168152f35b50346101a157806003193601126101a157602060405173ffffffffffffffffffffffffffffffffffffffff7f0000000000000000000000000000000000000000000000000000000000000000168152f35b50346101a157806003193601126101a157602060405173ffffffffffffffffffffffffffffffffffffffff7f0000000000000000000000000000000000000000000000000000000000000000168152f35b50346101a15760206003193601126101a15767ffffffffffffffff9060043582811161085657803603610120600319820112610a5a5773ffffffffffffffffffffffffffffffffffffffff7f0000000000000000000000000000000000000000000000000000000000000000163303610a5e577fffffffffffffffffffffffffffffffffffffffffffffffffffffffffffffffdd6101048301359101811215610a5a5781019160048301358481116108565760248401908036038213610a5a57846040918101031261085657359273ffffffffffffffffffffffffffffffffffffffff8416809403610856576044013591602481013580835260046020526040832085600052602052604060002054908115610a30578482029182048503610a015783526002602052608460408420549201359373ffffffffffffffffffffffffffffffffffffffff851685036109fd5761047e42611a25565b62015180918281029281840414901517156109d05765ffffffffffff169081018091116109a35782845260036020526040842073ffffffffffffffffffffffffffffffffffffffff861660005260205260406000205560405160208101907f23b872dd00000000000000000000000000000000000000000000000000000000825273ffffffffffffffffffffffffffffffffffffffff861660248201523060448201528260648201526064815260a081018181108982111761081357604052516105799185918291828a5af13d1561099b573d9061055b82611691565b916105696040519384611496565b82523d86602084013e5b87611a70565b8051908115159182610980575b505061094f576040517f095ea7b30000000000000000000000000000000000000000000000000000000081527f000000000000000000000000000000000000000000000000000000000000000073ffffffffffffffffffffffffffffffffffffffff811660048301526024820183905290602081604481888b5af1801561094457610915575b506040519161061a83611466565b86835260208301526040516020810181811089821117610813576040528481526040519261064784611466565b835260208301526040519161065b83611466565b60018352602083019060203683378351156108e65773ffffffffffffffffffffffffffffffffffffffff8716825273ffffffffffffffffffffffffffffffffffffffff83163b156108e25792909185926040519485937e5de3ac00000000000000000000000000000000000000000000000000000000855260648501908860048701526060602487015251809152608485019290865b8181106108b0575050506003198483030160448501526020608081606085019361073c8682516020809173ffffffffffffffffffffffffffffffffffffffff81511684520151910152565b01519360606040820152845180945201920190855b818110610865575050508373ffffffffffffffffffffffffffffffffffffffff8480930393165af1801561085a57610842575b508160409173ffffffffffffffffffffffffffffffffffffffff9352600360205220911660005260205260406000205490604051916020830152604082015260408152606081019181831090831117610813577fffffffffffffffffffffffffffffffffffffffffffffffffffffffffffffffa090826040526020835261080e60808201826115bc565b030190f35b7f4e487b7100000000000000000000000000000000000000000000000000000000600052604160045260246000fd5b61084c8391611482565b6108565738610784565b5080fd5b6040513d85823e3d90fd5b926020919496508295508061089f604092600195516020809173ffffffffffffffffffffffffffffffffffffffff81511684520151910152565b019401910190879492869492610751565b825173ffffffffffffffffffffffffffffffffffffffff1685528a9750889650602094850194909201916001016106f1565b8580fd5b7f4e487b7100000000000000000000000000000000000000000000000000000000600052603260045260246000fd5b6109369060203d60201161093d575b61092e8183611496565b810190611702565b503861060c565b503d610924565b6040513d87823e3d90fd5b602485604051907f5274afe70000000000000000000000000000000000000000000000000000000082526004820152fd5b6109939250602080918301019101611702565b153880610586565b606090610573565b6024847f4e487b710000000000000000000000000000000000000000000000000000000081526011600452fd5b6024857f4e487b710000000000000000000000000000000000000000000000000000000081526011600452fd5b8380fd5b7f4e487b7100000000000000000000000000000000000000000000000000000000600052601160045260246000fd5b60046040517f93b83e48000000000000000000000000000000000000000000000000000000008152fd5b8280fd5b60046040517f9de97418000000000000000000000000000000000000000000000000000000008152fd5b50346101a157806003193601126101a15773ffffffffffffffffffffffffffffffffffffffff6020915416604051908152f35b50346101a15760406003193601126101a15773ffffffffffffffffffffffffffffffffffffffff6040610aec61161a565b9260243581526003602052209116600052602052602060406000205465ffffffffffff610b1842611a25565b1611604051908152f35b50346101a157806003193601126101a157610b3b611857565b600073ffffffffffffffffffffffffffffffffffffffff81547fffffffffffffffffffffffff000000000000000000000000000000000000000081168355167f8be0079c531659141344cd1fd0a4f28419497f9722a3daafe3b4186f6b6457e08280a380f35b50346101a15760206003193601126101a15760206101c7610bc061161a565b6117bf565b50346101a15760209060206003193601126101a15767ffffffffffffffff600435818111610a5a57610bfb903690600401611663565b9091610c05611857565b8111610d9357600191610c188354611413565b601f8111610d31575b508394601f8311600114610c7a575093839482939492610c6f575b50507fffffffffffffffffffffffffffffffffffffffffffffffffffffffffffffffff82841b9260031b1c191617905580f35b013590503880610c3c565b907fffffffffffffffffffffffffffffffffffffffffffffffffffffffffffffffe08316957fb10e2d527612073b26eecdfd717e6a320cf44b4afac2b0732d9fcbe2b7fa0cf69286905b888210610d1a5750508385969710610ce2575b505050811b01905580f35b7fffffffffffffffffffffffffffffffffffffffffffffffffffffffffffffffff60f88560031b161c19910135169055388080610cd7565b808784968294958701358155019501920190610cc4565b7fb10e2d527612073b26eecdfd717e6a320cf44b4afac2b0732d9fcbe2b7fa0cf6601f840160051c81019160208510610d89575b601f0160051c019084905b828110610d7e575050610c21565b868155018490610d70565b9091508190610d65565b6024837f4e487b710000000000000000000000000000000000000000000000000000000081526041600452fd5b50346101a157806003193601126101a15760206101c761171a565b50346101a15760806003193601126101a1576024359073ffffffffffffffffffffffffffffffffffffffff6044358181168103610a5a5767ffffffffffffffff9360643585811161131c57610e34903690600401611663565b959093807f0000000000000000000000000000000000000000000000000000000000000000163303610a5e578685019360209283878703126111c85786358181116113185787016080818803126113185760405160808101818110848211176112eb5760405281358381116111eb57820188601f820112156111eb57888188610ebf933591016116cb565b815285810192868301358452610ed760408401611642565b92604083019384526060810135908282116112e757019089601f8301121561120d5781359081116112ba5760405199610f15898360051b018c611496565b818b5288808c019260061b840101928184116112b6578901915b83831061127f575050505060608101978852847f000000000000000000000000000000000000000000000000000000000000000016938351604051907f6352211e00000000000000000000000000000000000000000000000000000000825260048201528781602481895afa908115611274579087918d9161123a575b5016611211578351888c526002885260408c2055835190853b1561120d576040517f40c10f1900000000000000000000000000000000000000000000000000000000815273ffffffffffffffffffffffffffffffffffffffff91909116600482015260248101919091528a8160448183895af18015611202576111ef575b50848351925116905191843b156111eb57908a9161108760405194859384937fed40f722000000000000000000000000000000000000000000000000000000008552600485015260248401526060604484015260648301906115bc565b038183875af180156111e0579089916111cc575b505051813b156111c8576040517f19741bf800000000000000000000000000000000000000000000000000000000815230600482015260248101919091529087908290604490829084905af180156111bd579087916111a9575b505b84519081519060ff9283821692831015611188576111258661111a858894611843565b510151938951611843565b51511691801561115e57611138836117bf565b15610a3057600192878b526004875260408b2090600052865260406000205501166110f7565b60046040517f52773687000000000000000000000000000000000000000000000000000000008152fd5b85611194368d8c6116cb565b9061022d6040519282849384528301906115bc565b6111b290611482565b6108e25785386110f5565b6040513d89823e3d90fd5b8780fd5b6111d590611482565b6111c857873861109b565b6040513d8b823e3d90fd5b8a80fd5b6111fb909a919a611482565b983861102a565b6040513d8d823e3d90fd5b8b80fd5b60046040517ec7b91b000000000000000000000000000000000000000000000000000000008152fd5b809250898092503d831161126d575b6112538183611496565b8101031261120d5751868116810361120d57869038610fac565b503d611249565b6040513d8e823e3d90fd5b6040838303126112b65789604091825161129881611466565b6112a186611642565b81528286013583820152815201920191610f2f565b8d80fd5b60248c7f4e487b710000000000000000000000000000000000000000000000000000000081526041600452fd5b8c80fd5b60248b7f4e487b710000000000000000000000000000000000000000000000000000000081526041600452fd5b8880fd5b8480fd5b905034610856576020600319360112610856576004357fffffffff000000000000000000000000000000000000000000000000000000008082168092036109fd57602093507f9b586c280000000000000000000000000000000000000000000000000000000082149283156113e9575b83156113a4575b5050506040519015158152f35b90919250838101907f4c454e535f4d4f44554c450000000000000000000000000000000000000000008252600b81526113dc81611466565b5190201614388080611397565b7f744c334e0000000000000000000000000000000000000000000000000000000083149350611390565b90600182811c9216801561145c575b602083101461142d57565b7f4e487b7100000000000000000000000000000000000000000000000000000000600052602260045260246000fd5b91607f1691611422565b6040810190811067ffffffffffffffff82111761081357604052565b67ffffffffffffffff811161081357604052565b90601f7fffffffffffffffffffffffffffffffffffffffffffffffffffffffffffffffe0910116810190811067ffffffffffffffff82111761081357604052565b604051906000826001916001546114ed81611413565b80845293602091600181169081156115795750600114611518575b505061151692500383611496565b565b91509260016000527fb10e2d527612073b26eecdfd717e6a320cf44b4afac2b0732d9fcbe2b7fa0cf6936000925b82841061156157506115169450505081016020013880611508565b85548885018301529485019487945092810192611546565b9050602093506115169592507fffffffffffffffffffffffffffffffffffffffffffffffffffffffffffffff0091501682840152151560051b8201013880611508565b919082519283825260005b8481106116065750507fffffffffffffffffffffffffffffffffffffffffffffffffffffffffffffffe0601f8460006020809697860101520116010190565b6020818301810151848301820152016115c7565b6004359073ffffffffffffffffffffffffffffffffffffffff8216820361163d57565b600080fd5b359073ffffffffffffffffffffffffffffffffffffffff8216820361163d57565b9181601f8401121561163d5782359167ffffffffffffffff831161163d576020838186019501011161163d57565b67ffffffffffffffff811161081357601f017fffffffffffffffffffffffffffffffffffffffffffffffffffffffffffffffe01660200190565b9291926116d782611691565b916116e56040519384611496565b82948184528183011161163d578281602093846000960137010152565b9081602091031261163d5751801515810361163d5790565b6040517f1c5ebe2f00000000000000000000000000000000000000000000000000000000815230600482015260208160248173ffffffffffffffffffffffffffffffffffffffff7f0000000000000000000000000000000000000000000000000000000000000000165afa9081156117b357600091611797575090565b6117b0915060203d60201161093d5761092e8183611496565b90565b6040513d6000823e3d90fd5b602060249173ffffffffffffffffffffffffffffffffffffffff92839160405194859384927ff21b24d70000000000000000000000000000000000000000000000000000000084521660048301527f0000000000000000000000000000000000000000000000000000000000000000165afa9081156117b357600091611797575090565b80518210156108e65760209160051b010190565b73ffffffffffffffffffffffffffffffffffffffff60005416330361187857565b60246040517f118cdaa7000000000000000000000000000000000000000000000000000000008152336004820152fd5b6118b1816117bf565b61193b57602060249173ffffffffffffffffffffffffffffffffffffffff928391600060405195869485937facc331550000000000000000000000000000000000000000000000000000000085521660048401527f0000000000000000000000000000000000000000000000000000000000000000165af19081156117b357600091611797575090565b50600190565b61194961171a565b611a20576040517f41ab44ee00000000000000000000000000000000000000000000000000000000815230600482015260016024820152602081604481600073ffffffffffffffffffffffffffffffffffffffff7f0000000000000000000000000000000000000000000000000000000000000000165af19081156117b357600091611a01575b50806119d95790565b7fb24617d9cac8b35b25b3bcaf3eb7e8e8e1cbed6ee116121e4e1c08a977431062600080a190565b611a1a915060203d60201161093d5761092e8183611496565b386119d0565b600190565b65ffffffffffff90818111611a38571690565b604490604051907f6dfcc650000000000000000000000000000000000000000000000000000000008252603060048301526024820152fd5b90611aaf5750805115611a8557805190602001fd5b60046040517f1425ea42000000000000000000000000000000000000000000000000000000008152fd5b81511580611b07575b611ac0575090565b60249073ffffffffffffffffffffffffffffffffffffffff604051917f9996b315000000000000000000000000000000000000000000000000000000008352166004820152fd5b50803b15611ab856fea2646970667358221220fa18d808349e59bc3663324ebf089c9d70e6554f53aa72db4447daa7d2ad6c1464736f6c63430008180033","linkReferences":{}},"methodIdentifiers":{"HUB()":"a4c52b86","MODULE_REGISTRY()":"b95ddb52","drmAddress()":"bd1710ca","getModuleMetadataURI()":"ce90d52e","initializePublicationAction(uint256,uint256,address,bytes)":"0b960220","isRegistered()":"22366844","isRegisteredErc20(address)":"7023d8cc","metadataURI()":"03ee438c","owner()":"8da5cb5b","processPublicationAction((uint256,uint256,uint256,address,address,uint256[],uint256[],uint8[],bytes))":"90ce6e08","registerCurrency(address)":"d97a0343","registerModule()":"e0f0da85","renounceOwnership()":"715018a6","setModuleMetadataURI(string)":"681591c1","supportsInterface(bytes4)":"01ffc9a7","terms(address,uint256)":"744c334e","transferOwnership(address)":"f2fde38b"},"id":47}