{"abi":[{"type":"constructor","inputs":[{"name":"hub","type":"address","internalType":"address"},{"name":"registrant","type":"address","internalType":"address"},{"name":"drm","type":"address","internalType":"address"}],"stateMutability":"nonpayable"},{"type":"function","name":"HUB","inputs":[],"outputs":[{"name":"","type":"address","internalType":"address"}],"stateMutability":"view"},{"type":"function","name":"MODULE_REGISTRY","inputs":[],"outputs":[{"name":"","type":"address","internalType":"contract IModuleRegistry"}],"stateMutability":"view"},{"type":"function","name":"access","inputs":[{"name":"account","type":"address","internalType":"address"},{"name":"contentId","type":"uint256","internalType":"uint256"}],"outputs":[{"name":"","type":"bool","internalType":"bool"}],"stateMutability":"view"},{"type":"function","name":"allocation","inputs":[{"name":"account","type":"address","internalType":"address"},{"name":"contentId","type":"uint256","internalType":"uint256"}],"outputs":[{"name":"","type":"tuple","internalType":"struct T.Allocation","components":[{"name":"t9n","type":"tuple","internalType":"struct T.Transaction","components":[{"name":"currency","type":"address","internalType":"address"},{"name":"amount","type":"uint256","internalType":"uint256"}]},{"name":"d10n","type":"tuple[]","internalType":"struct T.Distribution[]","components":[{"name":"target","type":"address","internalType":"address"},{"name":"bps","type":"uint256","internalType":"uint256"}]}]}],"stateMutability":"nonpayable"},{"type":"function","name":"drmAddress","inputs":[],"outputs":[{"name":"","type":"address","internalType":"address"}],"stateMutability":"view"},{"type":"function","name":"getModuleMetadataURI","inputs":[],"outputs":[{"name":"","type":"string","internalType":"string"}],"stateMutability":"view"},{"type":"function","name":"initializePublicationAction","inputs":[{"name":"","type":"uint256","internalType":"uint256"},{"name":"pubId","type":"uint256","internalType":"uint256"},{"name":"transactionExecutor","type":"address","internalType":"address"},{"name":"data","type":"bytes","internalType":"bytes"}],"outputs":[{"name":"","type":"bytes","internalType":"bytes"}],"stateMutability":"nonpayable"},{"type":"function","name":"isRegistered","inputs":[],"outputs":[{"name":"","type":"bool","internalType":"bool"}],"stateMutability":"view"},{"type":"function","name":"isRegisteredErc20","inputs":[{"name":"currencyAddress","type":"address","internalType":"address"}],"outputs":[{"name":"","type":"bool","internalType":"bool"}],"stateMutability":"view"},{"type":"function","name":"metadataURI","inputs":[],"outputs":[{"name":"","type":"string","internalType":"string"}],"stateMutability":"view"},{"type":"function","name":"owner","inputs":[],"outputs":[{"name":"","type":"address","internalType":"address"}],"stateMutability":"view"},{"type":"function","name":"processPublicationAction","inputs":[{"name":"params","type":"tuple","internalType":"struct Types.ProcessActionParams","components":[{"name":"publicationActedProfileId","type":"uint256","internalType":"uint256"},{"name":"publicationActedId","type":"uint256","internalType":"uint256"},{"name":"actorProfileId","type":"uint256","internalType":"uint256"},{"name":"actorProfileOwner","type":"address","internalType":"address"},{"name":"transactionExecutor","type":"address","internalType":"address"},{"name":"referrerProfileIds","type":"uint256[]","internalType":"uint256[]"},{"name":"referrerPubIds","type":"uint256[]","internalType":"uint256[]"},{"name":"referrerPubTypes","type":"uint8[]","internalType":"enum Types.PublicationType[]"},{"name":"actionModuleData","type":"bytes","internalType":"bytes"}]}],"outputs":[{"name":"","type":"bytes","internalType":"bytes"}],"stateMutability":"nonpayable"},{"type":"function","name":"registerCurrency","inputs":[{"name":"currencyAddress","type":"address","internalType":"address"}],"outputs":[{"name":"","type":"bool","internalType":"bool"}],"stateMutability":"nonpayable"},{"type":"function","name":"registerModule","inputs":[],"outputs":[{"name":"","type":"bool","internalType":"bool"}],"stateMutability":"nonpayable"},{"type":"function","name":"renounceOwnership","inputs":[],"outputs":[],"stateMutability":"nonpayable"},{"type":"function","name":"setModuleMetadataURI","inputs":[{"name":"_metadataURI","type":"string","internalType":"string"}],"outputs":[],"stateMutability":"nonpayable"},{"type":"function","name":"supportsInterface","inputs":[{"name":"interfaceID","type":"bytes4","internalType":"bytes4"}],"outputs":[{"name":"","type":"bool","internalType":"bool"}],"stateMutability":"pure"},{"type":"function","name":"transferOwnership","inputs":[{"name":"newOwner","type":"address","internalType":"address"}],"outputs":[],"stateMutability":"nonpayable"},{"type":"event","name":"ModuleRegistered","inputs":[],"anonymous":false},{"type":"event","name":"OwnershipTransferred","inputs":[{"name":"previousOwner","type":"address","indexed":true,"internalType":"address"},{"name":"newOwner","type":"address","indexed":true,"internalType":"address"}],"anonymous":false},{"type":"error","name":"AddressEmptyCode","inputs":[{"name":"target","type":"address","internalType":"address"}]},{"type":"error","name":"AddressInsufficientBalance","inputs":[{"name":"account","type":"address","internalType":"address"}]},{"type":"error","name":"FailedInnerCall","inputs":[]},{"type":"error","name":"InvalidCallOnlyDRMAllowed","inputs":[]},{"type":"error","name":"InvalidExistingContentPublication","inputs":[]},{"type":"error","name":"InvalidNotSupportedCurrency","inputs":[]},{"type":"error","name":"InvalidRentPrice","inputs":[]},{"type":"error","name":"NotHub","inputs":[]},{"type":"error","name":"OwnableInvalidOwner","inputs":[{"name":"owner","type":"address","internalType":"address"}]},{"type":"error","name":"OwnableUnauthorizedAccount","inputs":[{"name":"account","type":"address","internalType":"address"}]},{"type":"error","name":"SafeCastOverflowedUintDowncast","inputs":[{"name":"bits","type":"uint8","internalType":"uint8"},{"name":"value","type":"uint256","internalType":"uint256"}]},{"type":"error","name":"SafeERC20FailedOperation","inputs":[{"name":"token","type":"address","internalType":"address"}]}],"bytecode":{"object":"0x60e0346200014557601f62001db038819003918201601f19168301916001600160401b038311848410176200014a5780849260609460405283398101031262000145576200004d8162000160565b620000696040620000616020850162000160565b930162000160565b9033156200012c5760008054336001600160a01b0319821681178355604051956001600160a01b039390928416907f8be0079c531659141344cd1fd0a4f28419497f9722a3daafe3b4186f6b6457e09080a31660805260a05260c052611c3a908162000176823960805181818161032e01528181611828015281816118d4015281816119fb0152611a93015260a05181818161037f015281816103f40152610e7f015260c0518181816102dd015281816105750152818161080e0152610f8e0152f35b604051631e4fbdf760e01b815260006004820152602490fd5b600080fd5b634e487b7160e01b600052604160045260246000fd5b51906001600160a01b0382168203620001455756fe608060408181526004918236101561001657600080fd5b600092833560e01c91826301ffc9a71461139b5750816303ee438c1461027b5781630b96022014610e1f5781632236684414610e02578163681591c114610c035781637023d8cc14610bdd578163715018a614610b5e5781637be7e96e146107c35781638da5cb5b1461079057816390ce6e08146103a3578163a4c52b8614610352578163b95ddb5214610301578163bd1710ca146102b0578163ce90d52e1461027b578163d97a03431461024d578163e0f0da851461021f578163f2fde38b14610153575063f581fb68146100eb57600080fd5b3461014f578060031936011261014f5760209173ffffffffffffffffffffffffffffffffffffffff8261011c6116df565b926024358152600386522091166000528252600281600020015465ffffffffffff61014642611b19565b16119051908152f35b5080fd5b90503461021b57602060031936011261021b5761016e6116df565b9061017761194b565b73ffffffffffffffffffffffffffffffffffffffff8092169283156101ec575050600054827fffffffffffffffffffffffff0000000000000000000000000000000000000000821617600055167f8be0079c531659141344cd1fd0a4f28419497f9722a3daafe3b4186f6b6457e0600080a380f35b908460249251917f1e4fbdf7000000000000000000000000000000000000000000000000000000008352820152fd5b8280fd5b50503461014f578160031936011261014f5760209061023c61194b565b610244611a35565b90519015158152f35b50503461014f57602060031936011261014f5760209061024461026e6116df565b61027661194b565b61199c565b50503461014f578160031936011261014f576102ac9061029961159c565b9051918291602083526020830190611681565b0390f35b50503461014f578160031936011261014f576020905173ffffffffffffffffffffffffffffffffffffffff7f0000000000000000000000000000000000000000000000000000000000000000168152f35b50503461014f578160031936011261014f576020905173ffffffffffffffffffffffffffffffffffffffff7f0000000000000000000000000000000000000000000000000000000000000000168152f35b50503461014f578160031936011261014f576020905173ffffffffffffffffffffffffffffffffffffffff7f0000000000000000000000000000000000000000000000000000000000000000168152f35b9190503461021b5760209060031992828436011261078c5767ffffffffffffffff813581811161066b576101208136039687011261066b5773ffffffffffffffffffffffffffffffffffffffff95867f0000000000000000000000000000000000000000000000000000000000000000163303610764577fffffffffffffffffffffffffffffffffffffffffffffffffffffffffffffffdd610104830135910181121561076057810192808401359083821161075c5760249182860190803603821361075857868891810103126107545735948886168096036107545760440135918084013592838b52828952878b20876000528952876000205493841561072c5781850294850482036106ff578b52600289526084888c2054950135938a8516968786036106fb576104d542611b19565b62015180938481029481860414901517156106d05765ffffffffffff169283018093116106a55789519360608501918211858310176106795750916002918d9594938b5283528a83018981528a840191825287865260038c528a8620896000528c528a600020935184558c600185019151167fffffffffffffffffffffffff000000000000000000000000000000000000000082541617905551910155887f000000000000000000000000000000000000000000000000000000000000000016803b1561021b5787517f9df8925600000000000000000000000000000000000000000000000000000000815273ffffffffffffffffffffffffffffffffffffffff90941691840191825260208201859052839182908490829060400103925af1801561066f57610657575b508684916102ac96979852600387522090600052845260028260002083519681548789015260018201541684880152015460608601526080850152608084526106488461153f565b51928284938452830190611681565b610661889161152b565b61066b5738610600565b8680fd5b85513d8a823e3d90fd5b6041867f4e487b7100000000000000000000000000000000000000000000000000000000600052526000fd5b838d6011877f4e487b7100000000000000000000000000000000000000000000000000000000835252fd5b848e6011887f4e487b7100000000000000000000000000000000000000000000000000000000835252fd5b8c80fd5b826011857f4e487b7100000000000000000000000000000000000000000000000000000000600052526000fd5b8389517f93b83e48000000000000000000000000000000000000000000000000000000008152fd5b8980fd5b8a80fd5b8880fd5b8780fd5b8385517f9de97418000000000000000000000000000000000000000000000000000000008152fd5b8480fd5b50503461014f578160031936011261014f5773ffffffffffffffffffffffffffffffffffffffff60209254169051908152f35b828434610b5b5781600319360112610b5b576107dd6116df565b8251602435926107ec826114e0565b606085516107f9816114e0565b600081526020938160008680940152815201527f00000000000000000000000000000000000000000000000000000000000000009373ffffffffffffffffffffffffffffffffffffffff948581163303610b335781835260038452858784209516948560005284528660002054918352600384528683208560005284526001956001886000200154169483866109ad575b505050855193610899856114e0565b8452828401528451958287019087821067ffffffffffffffff83111761097f575093869386939584528285528351906108d1826114e0565b81528581019485528351958695818752610913608088019383890190516020809173ffffffffffffffffffffffffffffffffffffffff81511684520151910152565b519460608088015285518093528160a08801960194905b8382106109375787870388f35b91859750828761096d87998498959799516020809173ffffffffffffffffffffffffffffffffffffffff81511684520151910152565b0197019201879695939194929461092a565b6041907f4e487b71000000000000000000000000000000000000000000000000000000006000525260246000fd5b80610a2c928a51888101917f23b872dd0000000000000000000000000000000000000000000000000000000083526024820152306044820152866064820152606481526109f98161153f565b5190828a5af13d15610b2b573d90610a1082611756565b91610a1d8b51938461155b565b82523d868884013e5b87611b64565b805190858215159283610b12575b505050610ae35786517f095ea7b300000000000000000000000000000000000000000000000000000000815273ffffffffffffffffffffffffffffffffffffffff90911688820190815260208101839052849082908190604001038186895af18015610ad957610aac575b808361088a565b610acb90843d8611610ad2575b610ac3818361155b565b8101906117c7565b5087610aa5565b503d610ab9565b87513d85823e3d90fd5b602488868951917f5274afe7000000000000000000000000000000000000000000000000000000008352820152fd5b610b2293508201810191016117c7565b15898581610a3a565b606090610a26565b8787517fa73f32ef000000000000000000000000000000000000000000000000000000008152fd5b80fd5b8334610b5b5780600319360112610b5b57610b7761194b565b600073ffffffffffffffffffffffffffffffffffffffff81547fffffffffffffffffffffffff000000000000000000000000000000000000000081168355167f8be0079c531659141344cd1fd0a4f28419497f9722a3daafe3b4186f6b6457e08280a380f35b50503461014f57602060031936011261014f57602090610244610bfe6116df565b611884565b8334610b5b57602091602060031936011261014f5767ffffffffffffffff908035828111610dfe57610c389036908301611728565b919092610c4361194b565b8211610dd25750600191610c57835461148d565b601f8111610d70575b508394601f8311600114610cb9575093839482939492610cae575b50507fffffffffffffffffffffffffffffffffffffffffffffffffffffffffffffffff82841b9260031b1c191617905580f35b013590508480610c7b565b907fffffffffffffffffffffffffffffffffffffffffffffffffffffffffffffffe08316957fb10e2d527612073b26eecdfd717e6a320cf44b4afac2b0732d9fcbe2b7fa0cf69286905b888210610d595750508385969710610d21575b505050811b01905580f35b7fffffffffffffffffffffffffffffffffffffffffffffffffffffffffffffffff60f88560031b161c19910135169055848080610d16565b808784968294958701358155019501920190610d03565b7fb10e2d527612073b26eecdfd717e6a320cf44b4afac2b0732d9fcbe2b7fa0cf6601f840160051c81019160208510610dc8575b601f0160051c019084905b828110610dbd575050610c60565b868155018490610daf565b9091508190610da4565b8360416024927f4e487b7100000000000000000000000000000000000000000000000000000000835252fd5b8380fd5b50503461014f578160031936011261014f576020906102446117df565b83833461014f57608060031936011261014f5773ffffffffffffffffffffffffffffffffffffffff9160443591602435848416840361021b5767ffffffffffffffff9260643584811161014f57610e799036908901611728565b969095817f00000000000000000000000000000000000000000000000000000000000000001633036113735787870195602096878982031261078c57883582811161136f57890160808183031261136f578751916080830183811085821117611342578952813584811161076057820181601f820112156107605781818c610f0393359101611790565b8352898301938a8301358552610f1a8a8401611707565b928a850193845260608101359082821161075457019180601f8401121561075c57823591821161131657908b9897969594939291898c519d8e610f62828660051b018261155b565b848152019260061b84010192818411610754578a01915b8383106112e1575050505060608201998a52847f000000000000000000000000000000000000000000000000000000000000000016938d84518b51917f6352211e0000000000000000000000000000000000000000000000000000000083528201528881602481895afa9081156112d757908791899161129d575b5016611276578351898852600289528a882055835190853b156107605787908f61106b8d5194859384937f40c10f1900000000000000000000000000000000000000000000000000000000855284016020909392919373ffffffffffffffffffffffffffffffffffffffff60408201951681520152565b038183895af1801561126c57611259575b508483519151169151843b1561066b57908d6110d688938c5195869485947fed40f7220000000000000000000000000000000000000000000000000000000086528501526024840152606060448401526064830190611681565b038183875af1801561124f5790859161123b575b50505190803b15610dfe5786517f869eaf1a00000000000000000000000000000000000000000000000000000000815230818d019081526020810193909352918491839182908490829060400103925af180156112315790839161121d575b505b865190815160ff92838316918210156111fc576111788761116d848894611908565b510151928b51611908565b51511681156111d45761118a81611884565b156111ac578786528c875288862060009182528752889020556001011661114b565b8c89517f93b83e48000000000000000000000000000000000000000000000000000000008152fd5b8c89517f52773687000000000000000000000000000000000000000000000000000000008152fd5b5087866102ac61120d368f8f611790565b9251928284938452830190611681565b6112269061152b565b61014f57818a611149565b86513d85823e3d90fd5b6112449061152b565b610dfe57838c6110ea565b88513d87823e3d90fd5b6112659096919661152b565b948d61107c565b8a513d89823e3d90fd5b8d8a517ec7b91b000000000000000000000000000000000000000000000000000000008152fd5b8092508a8092503d83116112d0575b6112b6818361155b565b810103126107605751868116810361076057869038610ff4565b503d6112ac565b8b513d8a823e3d90fd5b8c83830312610754578a8d9182516112f8816114e0565b61130186611707565b81528286013583820152815201920191610f79565b7f4e487b7100000000000000000000000000000000000000000000000000000000895260418f52602489fd5b5060248760418f7f4e487b7100000000000000000000000000000000000000000000000000000000835252fd5b8580fd5b8885517f9de97418000000000000000000000000000000000000000000000000000000008152fd5b92915034610dfe576020600319360112610dfe57357fffffffff0000000000000000000000000000000000000000000000000000000080821680920361078c57602094507f9b586c28000000000000000000000000000000000000000000000000000000008214938415611463575b841561141c575b505050519015158152f35b9091929350848101907f4c454e535f4d4f44554c450000000000000000000000000000000000000000008252600b8152611455816114e0565b519020161490388080611411565b7f8e661206000000000000000000000000000000000000000000000000000000008314945061140a565b90600182811c921680156114d6575b60208310146114a757565b7f4e487b7100000000000000000000000000000000000000000000000000000000600052602260045260246000fd5b91607f169161149c565b6040810190811067ffffffffffffffff8211176114fc57604052565b7f4e487b7100000000000000000000000000000000000000000000000000000000600052604160045260246000fd5b67ffffffffffffffff81116114fc57604052565b60a0810190811067ffffffffffffffff8211176114fc57604052565b90601f7fffffffffffffffffffffffffffffffffffffffffffffffffffffffffffffffe0910116810190811067ffffffffffffffff8211176114fc57604052565b604051906000826001916001546115b28161148d565b808452936020916001811690811561163e57506001146115dd575b50506115db9250038361155b565b565b91509260016000527fb10e2d527612073b26eecdfd717e6a320cf44b4afac2b0732d9fcbe2b7fa0cf6936000925b82841061162657506115db94505050810160200138806115cd565b8554888501830152948501948794509281019261160b565b9050602093506115db9592507fffffffffffffffffffffffffffffffffffffffffffffffffffffffffffffff0091501682840152151560051b82010138806115cd565b919082519283825260005b8481106116cb5750507fffffffffffffffffffffffffffffffffffffffffffffffffffffffffffffffe0601f8460006020809697860101520116010190565b60208183018101518483018201520161168c565b6004359073ffffffffffffffffffffffffffffffffffffffff8216820361170257565b600080fd5b359073ffffffffffffffffffffffffffffffffffffffff8216820361170257565b9181601f840112156117025782359167ffffffffffffffff8311611702576020838186019501011161170257565b67ffffffffffffffff81116114fc57601f017fffffffffffffffffffffffffffffffffffffffffffffffffffffffffffffffe01660200190565b92919261179c82611756565b916117aa604051938461155b565b829481845281830111611702578281602093846000960137010152565b90816020910312611702575180151581036117025790565b6040517f1c5ebe2f00000000000000000000000000000000000000000000000000000000815230600482015260208160248173ffffffffffffffffffffffffffffffffffffffff7f0000000000000000000000000000000000000000000000000000000000000000165afa9081156118785760009161185c575090565b611875915060203d602011610ad257610ac3818361155b565b90565b6040513d6000823e3d90fd5b602060249173ffffffffffffffffffffffffffffffffffffffff92839160405194859384927ff21b24d70000000000000000000000000000000000000000000000000000000084521660048301527f0000000000000000000000000000000000000000000000000000000000000000165afa9081156118785760009161185c575090565b805182101561191c5760209160051b010190565b7f4e487b7100000000000000000000000000000000000000000000000000000000600052603260045260246000fd5b73ffffffffffffffffffffffffffffffffffffffff60005416330361196c57565b60246040517f118cdaa7000000000000000000000000000000000000000000000000000000008152336004820152fd5b6119a581611884565b611a2f57602060249173ffffffffffffffffffffffffffffffffffffffff928391600060405195869485937facc331550000000000000000000000000000000000000000000000000000000085521660048401527f0000000000000000000000000000000000000000000000000000000000000000165af19081156118785760009161185c575090565b50600190565b611a3d6117df565b611b14576040517f41ab44ee00000000000000000000000000000000000000000000000000000000815230600482015260016024820152602081604481600073ffffffffffffffffffffffffffffffffffffffff7f0000000000000000000000000000000000000000000000000000000000000000165af190811561187857600091611af5575b5080611acd5790565b7fb24617d9cac8b35b25b3bcaf3eb7e8e8e1cbed6ee116121e4e1c08a977431062600080a190565b611b0e915060203d602011610ad257610ac3818361155b565b38611ac4565b600190565b65ffffffffffff90818111611b2c571690565b604490604051907f6dfcc650000000000000000000000000000000000000000000000000000000008252603060048301526024820152fd5b90611ba35750805115611b7957805190602001fd5b60046040517f1425ea42000000000000000000000000000000000000000000000000000000008152fd5b81511580611bfb575b611bb4575090565b60249073ffffffffffffffffffffffffffffffffffffffff604051917f9996b315000000000000000000000000000000000000000000000000000000008352166004820152fd5b50803b15611bac56fea2646970667358221220c0d3af726d264dc49c1ca423a92bcc6867dd65fafb2ab29c68f77987dde421a464736f6c63430008180033","linkReferences":{}},"methodIdentifiers":{"HUB()":"a4c52b86","MODULE_REGISTRY()":"b95ddb52","access(address,uint256)":"f581fb68","allocation(address,uint256)":"7be7e96e","drmAddress()":"bd1710ca","getModuleMetadataURI()":"ce90d52e","initializePublicationAction(uint256,uint256,address,bytes)":"0b960220","isRegistered()":"22366844","isRegisteredErc20(address)":"7023d8cc","metadataURI()":"03ee438c","owner()":"8da5cb5b","processPublicationAction((uint256,uint256,uint256,address,address,uint256[],uint256[],uint8[],bytes))":"90ce6e08","registerCurrency(address)":"d97a0343","registerModule()":"e0f0da85","renounceOwnership()":"715018a6","setModuleMetadataURI(string)":"681591c1","supportsInterface(bytes4)":"01ffc9a7","transferOwnership(address)":"f2fde38b"},"id":45}