{"abi":[{"type":"constructor","inputs":[{"name":"hub","type":"address","internalType":"address"},{"name":"registrant","type":"address","internalType":"address"},{"name":"repository","type":"address","internalType":"address"}],"stateMutability":"nonpayable"},{"type":"function","name":"HUB","inputs":[],"outputs":[{"name":"","type":"address","internalType":"address"}],"stateMutability":"view"},{"type":"function","name":"MODULE_REGISTRY","inputs":[],"outputs":[{"name":"","type":"address","internalType":"contract IModuleRegistry"}],"stateMutability":"view"},{"type":"function","name":"approve","inputs":[{"name":"account","type":"address","internalType":"address"},{"name":"contentId","type":"uint256","internalType":"uint256"}],"outputs":[{"name":"","type":"bool","internalType":"bool"}],"stateMutability":"view"},{"type":"function","name":"getModuleMetadataURI","inputs":[],"outputs":[{"name":"","type":"string","internalType":"string"}],"stateMutability":"view"},{"type":"function","name":"initializePublicationAction","inputs":[{"name":"","type":"uint256","internalType":"uint256"},{"name":"pubId","type":"uint256","internalType":"uint256"},{"name":"transactionExecutor","type":"address","internalType":"address"},{"name":"data","type":"bytes","internalType":"bytes"}],"outputs":[{"name":"","type":"bytes","internalType":"bytes"}],"stateMutability":"nonpayable"},{"type":"function","name":"isRegistered","inputs":[],"outputs":[{"name":"","type":"bool","internalType":"bool"}],"stateMutability":"view"},{"type":"function","name":"isRegisteredErc20","inputs":[{"name":"currencyAddress","type":"address","internalType":"address"}],"outputs":[{"name":"","type":"bool","internalType":"bool"}],"stateMutability":"view"},{"type":"function","name":"metadataURI","inputs":[],"outputs":[{"name":"","type":"string","internalType":"string"}],"stateMutability":"view"},{"type":"function","name":"owner","inputs":[],"outputs":[{"name":"","type":"address","internalType":"address"}],"stateMutability":"view"},{"type":"function","name":"processPublicationAction","inputs":[{"name":"params","type":"tuple","internalType":"struct Types.ProcessActionParams","components":[{"name":"publicationActedProfileId","type":"uint256","internalType":"uint256"},{"name":"publicationActedId","type":"uint256","internalType":"uint256"},{"name":"actorProfileId","type":"uint256","internalType":"uint256"},{"name":"actorProfileOwner","type":"address","internalType":"address"},{"name":"transactionExecutor","type":"address","internalType":"address"},{"name":"referrerProfileIds","type":"uint256[]","internalType":"uint256[]"},{"name":"referrerPubIds","type":"uint256[]","internalType":"uint256[]"},{"name":"referrerPubTypes","type":"uint8[]","internalType":"enum Types.PublicationType[]"},{"name":"actionModuleData","type":"bytes","internalType":"bytes"}]}],"outputs":[{"name":"","type":"bytes","internalType":"bytes"}],"stateMutability":"nonpayable"},{"type":"function","name":"registerCurrency","inputs":[{"name":"currencyAddress","type":"address","internalType":"address"}],"outputs":[{"name":"","type":"bool","internalType":"bool"}],"stateMutability":"nonpayable"},{"type":"function","name":"registerModule","inputs":[],"outputs":[{"name":"","type":"bool","internalType":"bool"}],"stateMutability":"nonpayable"},{"type":"function","name":"renounceOwnership","inputs":[],"outputs":[],"stateMutability":"nonpayable"},{"type":"function","name":"setModuleMetadataURI","inputs":[{"name":"_metadataURI","type":"string","internalType":"string"}],"outputs":[],"stateMutability":"nonpayable"},{"type":"function","name":"supportsInterface","inputs":[{"name":"interfaceID","type":"bytes4","internalType":"bytes4"}],"outputs":[{"name":"","type":"bool","internalType":"bool"}],"stateMutability":"pure"},{"type":"function","name":"transferOwnership","inputs":[{"name":"newOwner","type":"address","internalType":"address"}],"outputs":[],"stateMutability":"nonpayable"},{"type":"event","name":"ModuleRegistered","inputs":[],"anonymous":false},{"type":"event","name":"OwnershipTransferred","inputs":[{"name":"previousOwner","type":"address","indexed":true,"internalType":"address"},{"name":"newOwner","type":"address","indexed":true,"internalType":"address"}],"anonymous":false},{"type":"error","name":"InvalidExistingContentPublication","inputs":[]},{"type":"error","name":"InvalidNotSupportedCurrency","inputs":[]},{"type":"error","name":"InvalidRentPrice","inputs":[]},{"type":"error","name":"NotHub","inputs":[]},{"type":"error","name":"OwnableInvalidOwner","inputs":[{"name":"owner","type":"address","internalType":"address"}]},{"type":"error","name":"OwnableUnauthorizedAccount","inputs":[{"name":"account","type":"address","internalType":"address"}]},{"type":"error","name":"SafeCastOverflowedUintDowncast","inputs":[{"name":"bits","type":"uint8","internalType":"uint8"},{"name":"value","type":"uint256","internalType":"uint256"}]}],"bytecode":{"object":"0x60e060409080825234620001ac5760608162001a878038038091620000258285620001b1565b833981010312620001ac576200003b81620001eb565b9062000057836200004f60208401620001eb565b9201620001eb565b903315620001945760008054336001600160a01b0319821681178355865192959294602094869460249486946001600160a01b039493859290919083167f8be0079c531659141344cd1fd0a4f28419497f9722a3daafe3b4186f6b6457e08d80a31660805260a05263de981f1b60e01b8352600480840152165afa9182156200018957809262000141575b505060c05251611886908162000201823960805181818161025301528181611514015281816115c0015281816116e7015261177f015260a0518181816102a40152818161031a0152610a3f015260c0518181816104850152610b910152f35b9091506020823d60201162000180575b816200016060209383620001b1565b810103126200017d57506200017590620001eb565b3880620000e2565b80fd5b3d915062000151565b8351903d90823e3d90fd5b8351631e4fbdf760e01b815260006004820152602490fd5b600080fd5b601f909101601f19168101906001600160401b03821190821017620001d557604052565b634e487b7160e01b600052604160045260246000fd5b51906001600160a01b0382168203620001ac5756fe608080604052600436101561001357600080fd5b600090813560e01c90816301ffc9a71461106f5750806303ee438c146101f2578063095ea7b31461100b5780630b960220146109d457806322366844146109b9578063681591c1146107be5780637023d8cc1461079a578063715018a61461071b5780638da5cb5b146106e857806390ce6e08146102c8578063a4c52b8614610277578063b95ddb5214610226578063ce90d52e146101f2578063d97a0343146101c6578063e0f0da85146101995763f2fde38b146100d157600080fd5b34610196576020600319360112610196576100ea6113d7565b6100f2611637565b73ffffffffffffffffffffffffffffffffffffffff80911690811561016557600054827fffffffffffffffffffffffff0000000000000000000000000000000000000000821617600055167f8be0079c531659141344cd1fd0a4f28419497f9722a3daafe3b4186f6b6457e0600080a380f35b602483604051907f1e4fbdf70000000000000000000000000000000000000000000000000000000082526004820152fd5b80fd5b50346101965780600319360112610196576101b2611637565b60206101bc611721565b6040519015158152f35b50346101965760206003193601126101965760206101bc6101e56113d7565b6101ed611637565b611688565b503461019657806003193601126101965761022261020e611294565b604051918291602083526020830190611379565b0390f35b5034610196578060031936011261019657602060405173ffffffffffffffffffffffffffffffffffffffff7f0000000000000000000000000000000000000000000000000000000000000000168152f35b5034610196578060031936011261019657602060405173ffffffffffffffffffffffffffffffffffffffff7f0000000000000000000000000000000000000000000000000000000000000000168152f35b503461019657602090600319908282360112610196576004359267ffffffffffffffff928385116106b657610120853603918201126106b65773ffffffffffffffffffffffffffffffffffffffff90817f00000000000000000000000000000000000000000000000000000000000000001633036106be577fffffffffffffffffffffffffffffffffffffffffffffffffffffffffffffffdd61010487013591018112156106ba578501926004840135958587116105ef576024968786019080360382136106ba5786604091810103126106b65735948386168096036106b657604401359287820135808452600486526040842087600052865260406000205490811561068c57858202918204860361065e57845260028652608460408520549301359482861680960361065a576103ff42611805565b620151809182810292818404149015171561062e5765ffffffffffff169081018091116106025783855260038752604085208660005287526040600020556040519161044a836111f4565b3083528683017f095ea7b3000000000000000000000000000000000000000000000000000000008152604084019089825260608501938452827f00000000000000000000000000000000000000000000000000000000000000001694853b156105fe5786958895858f96957fffffffff000000000000000000000000000000000000000000000000000000008d9660c4988b976040519d8e9c8d9b7fa1633107000000000000000000000000000000000000000000000000000000008d5260048d01528b01525116604489015251166064870152511660848501525160a48401525af180156105f3576105db575b5090604091815260038452209060005281526040600020549160405192828401526040830152604082526060820192828410908411176105ad57907fffffffffffffffffffffffffffffffffffffffffffffffffffffffffffffffa0918360405283526105a86080820182611379565b030190f35b837f4e487b710000000000000000000000000000000000000000000000000000000060005260416004526000fd5b6105e5839161123f565b6105ef5738610538565b5080fd5b6040513d85823e3d90fd5b8780fd5b89857f4e487b710000000000000000000000000000000000000000000000000000000081526011600452fd5b8a867f4e487b710000000000000000000000000000000000000000000000000000000081526011600452fd5b8480fd5b897f4e487b710000000000000000000000000000000000000000000000000000000060005260116004526000fd5b60046040517f93b83e48000000000000000000000000000000000000000000000000000000008152fd5b8280fd5b8380fd5b60046040517f9de97418000000000000000000000000000000000000000000000000000000008152fd5b503461019657806003193601126101965773ffffffffffffffffffffffffffffffffffffffff6020915416604051908152f35b5034610196578060031936011261019657610734611637565b600073ffffffffffffffffffffffffffffffffffffffff81547fffffffffffffffffffffffff000000000000000000000000000000000000000081168355167f8be0079c531659141344cd1fd0a4f28419497f9722a3daafe3b4186f6b6457e08280a380f35b50346101965760206003193601126101965760206101bc6107b96113d7565b611570565b50346101965760209060206003193601126101965767ffffffffffffffff6004358181116106b6576107f4903690600401611420565b90916107fe611637565b811161098c5760019161081183546111a1565b601f811161092a575b508394601f8311600114610873575093839482939492610868575b50507fffffffffffffffffffffffffffffffffffffffffffffffffffffffffffffffff82841b9260031b1c191617905580f35b013590503880610835565b907fffffffffffffffffffffffffffffffffffffffffffffffffffffffffffffffe08316957fb10e2d527612073b26eecdfd717e6a320cf44b4afac2b0732d9fcbe2b7fa0cf69286905b88821061091357505083859697106108db575b505050811b01905580f35b7fffffffffffffffffffffffffffffffffffffffffffffffffffffffffffffffff60f88560031b161c199101351690553880806108d0565b8087849682949587013581550195019201906108bd565b7fb10e2d527612073b26eecdfd717e6a320cf44b4afac2b0732d9fcbe2b7fa0cf6601f840160051c81019160208510610982575b601f0160051c019084905b82811061097757505061081a565b868155018490610969565b909150819061095e565b6024837f4e487b710000000000000000000000000000000000000000000000000000000081526041600452fd5b503461019657806003193601126101965760206101bc6114cb565b50346101965760806003193601126101965760443573ffffffffffffffffffffffffffffffffffffffff811681036105ef5760643567ffffffffffffffff81116106b657610a26903690600401611420565b909173ffffffffffffffffffffffffffffffffffffffff7f00000000000000000000000000000000000000000000000000000000000000001633036106be5760208383810103126106ba57823567ffffffffffffffff811161065a57830191608083828601031261065a5760405191610a9e836111f4565b833567ffffffffffffffff8111611007578401828601601f8201121561100757610ad1908387019060208135910161144e565b835260208401356020840152610ae9604085016113ff565b604084015260608401359367ffffffffffffffff851161100757828601601f868301011215611007578481013567ffffffffffffffff8111610fda5760405195610b3960208360051b0188611253565b818752602087019285890160208460061b848401010111610fd65790602081830101935b60208460061b83850101018510610f4d5750505050506060830193845273ffffffffffffffffffffffffffffffffffffffff7f000000000000000000000000000000000000000000000000000000000000000016906020840151604051907f6352211e0000000000000000000000000000000000000000000000000000000082526004820152602081602481865afa8015610f42578890610edf575b73ffffffffffffffffffffffffffffffffffffffff915016610eb65760208401516024358852600260205260408820556020840151823b156105fe5773ffffffffffffffffffffffffffffffffffffffff604051927f40c10f190000000000000000000000000000000000000000000000000000000084521660048301526024820152868160448183865af18015610eab57610e98575b508590602084015173ffffffffffffffffffffffffffffffffffffffff60408601511691855190803b1561065a57610d0d93858094604051968795869485937fed40f72200000000000000000000000000000000000000000000000000000000855260048501526024840152606060448401526064830190611379565b03925af18015610e8d57610e79575b505b83518051821015610e6b57610d35826020926115f4565b5101519073ffffffffffffffffffffffffffffffffffffffff610d598287516115f4565b515116918015610e41576024602073ffffffffffffffffffffffffffffffffffffffff604088015116604051928380927f70dfaeca0000000000000000000000000000000000000000000000000000000082528860048301525afa908115610e36578991610e07575b50610dcc84611570565b15908115610dfe575b5061068c5760019260243589526004602052604089209060005260205260406000205501610d1e565b90501538610dd5565b610e29915060203d602011610e2f575b610e218183611253565b8101906114b3565b38610dc2565b503d610e17565b6040513d8b823e3d90fd5b60046040517f52773687000000000000000000000000000000000000000000000000000000008152fd5b61022261020e36858961144e565b610e829061123f565b61065a578438610d1c565b6040513d84823e3d90fd5b610ea49096919661123f565b9438610c90565b6040513d89823e3d90fd5b60046040517ec7b91b000000000000000000000000000000000000000000000000000000008152fd5b506020813d602011610f3a575b81610ef960209383611253565b810103126105fe575173ffffffffffffffffffffffffffffffffffffffff811681036105fe5773ffffffffffffffffffffffffffffffffffffffff90610bf9565b3d9150610eec565b6040513d8a823e3d90fd5b604085888c010312610fd25760405180604081011067ffffffffffffffff604083011117610fa5576020809493928260408094018452610f8c896113ff565b8152828901358382015281520195019490919250610b5d565b60248c7f4e487b710000000000000000000000000000000000000000000000000000000081526041600452fd5b8a80fd5b8980fd5b6024887f4e487b710000000000000000000000000000000000000000000000000000000081526041600452fd5b8680fd5b503461019657604060031936011261019657602090604061102a6113d7565b9161103442611805565b9260243582526003855273ffffffffffffffffffffffffffffffffffffffff838320911682528452205465ffffffffffff6040519216118152f35b9050346105ef5760206003193601126105ef576004357fffffffff000000000000000000000000000000000000000000000000000000008082168092036106ba577f9b586c28000000000000000000000000000000000000000000000000000000008214928315611177575b83156110ef575b6020846040519015158152f35b9091925060208101907f4c454e535f4d4f44554c450000000000000000000000000000000000000000008252600b81526040810181811067ffffffffffffffff82111761114a576020955060405251902016143880806110e2565b6024867f4e487b710000000000000000000000000000000000000000000000000000000081526041600452fd5b7f095ea7b300000000000000000000000000000000000000000000000000000000831493506110db565b90600182811c921680156111ea575b60208310146111bb57565b7f4e487b7100000000000000000000000000000000000000000000000000000000600052602260045260246000fd5b91607f16916111b0565b6080810190811067ffffffffffffffff82111761121057604052565b7f4e487b7100000000000000000000000000000000000000000000000000000000600052604160045260246000fd5b67ffffffffffffffff811161121057604052565b90601f7fffffffffffffffffffffffffffffffffffffffffffffffffffffffffffffffe0910116810190811067ffffffffffffffff82111761121057604052565b604051906000826001916001546112aa816111a1565b808452936020916001811690811561133657506001146112d5575b50506112d392500383611253565b565b91509260016000527fb10e2d527612073b26eecdfd717e6a320cf44b4afac2b0732d9fcbe2b7fa0cf6936000925b82841061131e57506112d394505050810160200138806112c5565b85548885018301529485019487945092810192611303565b9050602093506112d39592507fffffffffffffffffffffffffffffffffffffffffffffffffffffffffffffff0091501682840152151560051b82010138806112c5565b919082519283825260005b8481106113c35750507fffffffffffffffffffffffffffffffffffffffffffffffffffffffffffffffe0601f8460006020809697860101520116010190565b602081830181015184830182015201611384565b6004359073ffffffffffffffffffffffffffffffffffffffff821682036113fa57565b600080fd5b359073ffffffffffffffffffffffffffffffffffffffff821682036113fa57565b9181601f840112156113fa5782359167ffffffffffffffff83116113fa57602083818601950101116113fa57565b92919267ffffffffffffffff8211611210576040519161149660207fffffffffffffffffffffffffffffffffffffffffffffffffffffffffffffffe0601f8401160184611253565b8294818452818301116113fa578281602093846000960137010152565b908160209103126113fa575180151581036113fa5790565b6040517f1c5ebe2f00000000000000000000000000000000000000000000000000000000815230600482015260208160248173ffffffffffffffffffffffffffffffffffffffff7f0000000000000000000000000000000000000000000000000000000000000000165afa90811561156457600091611548575090565b611561915060203d602011610e2f57610e218183611253565b90565b6040513d6000823e3d90fd5b602060249173ffffffffffffffffffffffffffffffffffffffff92839160405194859384927ff21b24d70000000000000000000000000000000000000000000000000000000084521660048301527f0000000000000000000000000000000000000000000000000000000000000000165afa90811561156457600091611548575090565b80518210156116085760209160051b010190565b7f4e487b7100000000000000000000000000000000000000000000000000000000600052603260045260246000fd5b73ffffffffffffffffffffffffffffffffffffffff60005416330361165857565b60246040517f118cdaa7000000000000000000000000000000000000000000000000000000008152336004820152fd5b61169181611570565b61171b57602060249173ffffffffffffffffffffffffffffffffffffffff928391600060405195869485937facc331550000000000000000000000000000000000000000000000000000000085521660048401527f0000000000000000000000000000000000000000000000000000000000000000165af190811561156457600091611548575090565b50600190565b6117296114cb565b611800576040517f41ab44ee00000000000000000000000000000000000000000000000000000000815230600482015260016024820152602081604481600073ffffffffffffffffffffffffffffffffffffffff7f0000000000000000000000000000000000000000000000000000000000000000165af1908115611564576000916117e1575b50806117b95790565b7fb24617d9cac8b35b25b3bcaf3eb7e8e8e1cbed6ee116121e4e1c08a977431062600080a190565b6117fa915060203d602011610e2f57610e218183611253565b386117b0565b600190565b65ffffffffffff90818111611818571690565b604490604051907f6dfcc650000000000000000000000000000000000000000000000000000000008252603060048301526024820152fdfea26469706673582212207172822842a5f2b823eda08ccebeb4c4864f8d91159cb0c4d98910884f31c70964736f6c63430008180033","linkReferences":{}},"methodIdentifiers":{"HUB()":"a4c52b86","MODULE_REGISTRY()":"b95ddb52","approve(address,uint256)":"095ea7b3","getModuleMetadataURI()":"ce90d52e","initializePublicationAction(uint256,uint256,address,bytes)":"0b960220","isRegistered()":"22366844","isRegisteredErc20(address)":"7023d8cc","metadataURI()":"03ee438c","owner()":"8da5cb5b","processPublicationAction((uint256,uint256,uint256,address,address,uint256[],uint256[],uint8[],bytes))":"90ce6e08","registerCurrency(address)":"d97a0343","registerModule()":"e0f0da85","renounceOwnership()":"715018a6","setModuleMetadataURI(string)":"681591c1","supportsInterface(bytes4)":"01ffc9a7","transferOwnership(address)":"f2fde38b"},"id":47}