{"abi":[{"type":"constructor","inputs":[],"stateMutability":"nonpayable"},{"type":"function","name":"DEFAULT_ADMIN_ROLE","inputs":[],"outputs":[{"name":"","type":"bytes32","internalType":"bytes32"}],"stateMutability":"view"},{"type":"function","name":"UPGRADE_INTERFACE_VERSION","inputs":[],"outputs":[{"name":"","type":"string","internalType":"string"}],"stateMutability":"view"},{"type":"function","name":"contracts","inputs":[{"name":"","type":"uint8","internalType":"enum T.ContractTypes"}],"outputs":[{"name":"","type":"address","internalType":"address"}],"stateMutability":"view"},{"type":"function","name":"getContract","inputs":[{"name":"key","type":"uint8","internalType":"enum T.ContractTypes"}],"outputs":[{"name":"","type":"address","internalType":"address"}],"stateMutability":"view"},{"type":"function","name":"getRoleAdmin","inputs":[{"name":"role","type":"bytes32","internalType":"bytes32"}],"outputs":[{"name":"","type":"bytes32","internalType":"bytes32"}],"stateMutability":"view"},{"type":"function","name":"grantRole","inputs":[{"name":"role","type":"bytes32","internalType":"bytes32"},{"name":"account","type":"address","internalType":"address"}],"outputs":[],"stateMutability":"nonpayable"},{"type":"function","name":"hasRole","inputs":[{"name":"role","type":"bytes32","internalType":"bytes32"},{"name":"account","type":"address","internalType":"address"}],"outputs":[{"name":"","type":"bool","internalType":"bool"}],"stateMutability":"view"},{"type":"function","name":"initialize","inputs":[],"outputs":[],"stateMutability":"nonpayable"},{"type":"function","name":"populate","inputs":[{"name":"key","type":"uint8[]","internalType":"enum T.ContractTypes[]"},{"name":"contractAddress","type":"address[]","internalType":"address[]"}],"outputs":[],"stateMutability":"nonpayable"},{"type":"function","name":"proxiableUUID","inputs":[],"outputs":[{"name":"","type":"bytes32","internalType":"bytes32"}],"stateMutability":"view"},{"type":"function","name":"renounceRole","inputs":[{"name":"role","type":"bytes32","internalType":"bytes32"},{"name":"callerConfirmation","type":"address","internalType":"address"}],"outputs":[],"stateMutability":"nonpayable"},{"type":"function","name":"revokeRole","inputs":[{"name":"role","type":"bytes32","internalType":"bytes32"},{"name":"account","type":"address","internalType":"address"}],"outputs":[],"stateMutability":"nonpayable"},{"type":"function","name":"setContract","inputs":[{"name":"key","type":"uint8","internalType":"enum T.ContractTypes"},{"name":"contractAddress","type":"address","internalType":"address"}],"outputs":[],"stateMutability":"nonpayable"},{"type":"function","name":"supportsInterface","inputs":[{"name":"interfaceId","type":"bytes4","internalType":"bytes4"}],"outputs":[{"name":"","type":"bool","internalType":"bool"}],"stateMutability":"view"},{"type":"function","name":"upgradeToAndCall","inputs":[{"name":"newImplementation","type":"address","internalType":"address"},{"name":"data","type":"bytes","internalType":"bytes"}],"outputs":[],"stateMutability":"payable"},{"type":"function","name":"versions","inputs":[{"name":"","type":"uint8","internalType":"enum T.ContractTypes"}],"outputs":[{"name":"","type":"uint256","internalType":"uint256"}],"stateMutability":"view"},{"type":"event","name":"Initialized","inputs":[{"name":"version","type":"uint64","indexed":false,"internalType":"uint64"}],"anonymous":false},{"type":"event","name":"RoleAdminChanged","inputs":[{"name":"role","type":"bytes32","indexed":true,"internalType":"bytes32"},{"name":"previousAdminRole","type":"bytes32","indexed":true,"internalType":"bytes32"},{"name":"newAdminRole","type":"bytes32","indexed":true,"internalType":"bytes32"}],"anonymous":false},{"type":"event","name":"RoleGranted","inputs":[{"name":"role","type":"bytes32","indexed":true,"internalType":"bytes32"},{"name":"account","type":"address","indexed":true,"internalType":"address"},{"name":"sender","type":"address","indexed":true,"internalType":"address"}],"anonymous":false},{"type":"event","name":"RoleRevoked","inputs":[{"name":"role","type":"bytes32","indexed":true,"internalType":"bytes32"},{"name":"account","type":"address","indexed":true,"internalType":"address"},{"name":"sender","type":"address","indexed":true,"internalType":"address"}],"anonymous":false},{"type":"event","name":"Upgraded","inputs":[{"name":"implementation","type":"address","indexed":true,"internalType":"address"}],"anonymous":false},{"type":"error","name":"AccessControlBadConfirmation","inputs":[]},{"type":"error","name":"AccessControlUnauthorizedAccount","inputs":[{"name":"account","type":"address","internalType":"address"},{"name":"neededRole","type":"bytes32","internalType":"bytes32"}]},{"type":"error","name":"AddressEmptyCode","inputs":[{"name":"target","type":"address","internalType":"address"}]},{"type":"error","name":"ContractIsNotRegistered","inputs":[]},{"type":"error","name":"ERC1967InvalidImplementation","inputs":[{"name":"implementation","type":"address","internalType":"address"}]},{"type":"error","name":"ERC1967NonPayable","inputs":[]},{"type":"error","name":"FailedInnerCall","inputs":[]},{"type":"error","name":"InvalidInitialization","inputs":[]},{"type":"error","name":"InvalidPopulationParams","inputs":[{"name":"","type":"string","internalType":"string"}]},{"type":"error","name":"NotInitializing","inputs":[]},{"type":"error","name":"UUPSUnauthorizedCallContext","inputs":[]},{"type":"error","name":"UUPSUnsupportedProxiableUUID","inputs":[{"name":"slot","type":"bytes32","internalType":"bytes32"}]}],"bytecode":{"object":"0x60a080604052346100cc57306080527ff0c57e16840df040f15088dc2f81fe391c3923bec73e23a9662efc9c229c6a009081549060ff8260401c166100bd57506001600160401b036002600160401b031982821601610078575b60405161135390816100d2823960805181818161084a01526109500152f35b6001600160401b031990911681179091556040519081527fc7f505b2f371ae2175ee4913f4499e1f2633a7b5936321eed1cdaeb6115181d290602090a1388080610059565b63f92ee8a960e01b8152600490fd5b600080fdfe6080604081815260048036101561001557600080fd5b600092833560e01c90816301ffc9a714610cc357508063248a9ca314610c7a5780632f2ff15d14610c5157806336568abe14610be45780634f1ef286146108bf57806352d1902d146108205780638129fc1c14610698578063865e6fd3146105bc57806391d148541461054b578063a217fddf1461052c578063a22dc790146104fb578063ad3cb1cc1461040e578063d547741f146103b0578063de981f1b14610337578063e1255a08146101205763fc3eced0146100d357600080fd5b3461011c57602060031936011261011c5735916006831015610119575073ffffffffffffffffffffffffffffffffffffffff610110602093610e34565b54169051908152f35b80fd5b8280fd5b50913461011957816003193601126101195767ffffffffffffffff92803584811161011c576101529036908301610e95565b93906024956024359081116103335761016e9036908501610e95565b9092610178610f05565b8187036102b15750845b60ff8116878110156102ad57610199818986610ec6565b359060068210156102a9576101af908487610ec6565b3573ffffffffffffffffffffffffffffffffffffffff81168091036102a95790610211916101db610f05565b6101e482610e34565b907fffffffffffffffffffffffff0000000000000000000000000000000000000000825416179055610e7c565b80547fffffffffffffffffffffffffffffffffffffffffffffffffffffffffffffffff811461027e57600101905560ff80911690811461025357600101610182565b87866011877f4e487b7100000000000000000000000000000000000000000000000000000000835252fd5b89886011897f4e487b7100000000000000000000000000000000000000000000000000000000835252fd5b8780fd5b8680f35b517ff976f2dc000000000000000000000000000000000000000000000000000000008152602081860152602660248201527f496e70757420617272617973206d7573742068617665207468652073616d652060448201527f6c656e67746800000000000000000000000000000000000000000000000000006064820152608490fd5b8480fd5b503461011c57602060031936011261011c578035926006841015610119575073ffffffffffffffffffffffffffffffffffffffff908161037685610e34565b5416156103895750610110602093610e34565b82517f81472578000000000000000000000000000000000000000000000000000000008152fd5b50903461011c578060031936011261011c5761040a913561040560016103d4610d62565b938387527f02dd7bc7dec4dceedda775e58dd541e08a116c6c53815c0bd028192f7b62680060205286200154610f76565b611163565b5080f35b503461011c578260031936011261011c578151908282019082821067ffffffffffffffff8311176104cf57508252600581526020907f352e302e300000000000000000000000000000000000000000000000000000006020820152825193849260208452825192836020860152825b8481106104b957505050828201840152601f017fffffffffffffffffffffffffffffffffffffffffffffffffffffffffffffffe0168101030190f35b818101830151888201880152879550820161047d565b8460416024927f4e487b7100000000000000000000000000000000000000000000000000000000835252fd5b503461011c57602060031936011261011c57359160068310156101195750610524602092610e7c565b549051908152f35b50503461054757816003193601126105475751908152602090f35b5080fd5b503461011c578160031936011261011c578160209360ff9261056b610d62565b903582527f02dd7bc7dec4dceedda775e58dd541e08a116c6c53815c0bd028192f7b626800865273ffffffffffffffffffffffffffffffffffffffff83832091168252855220541690519015158152f35b50903461011c57600319360112610547578035600681101561011c57610638906105e4610d62565b6105ec610f05565b73ffffffffffffffffffffffffffffffffffffffff61060a83610e34565b91167fffffffffffffffffffffffff0000000000000000000000000000000000000000825416179055610e7c565b908154907fffffffffffffffffffffffffffffffffffffffffffffffffffffffffffffffff821461066c5750600101905580f35b8360116024927f4e487b7100000000000000000000000000000000000000000000000000000000835252fd5b503461011c578260031936011261011c577ff0c57e16840df040f15088dc2f81fe391c3923bec73e23a9662efc9c229c6a0090815460ff81851c16159167ffffffffffffffff821680159081610818575b600114908161080e575b159081610805575b506107de57508160017fffffffffffffffffffffffffffffffffffffffffffffffff000000000000000083161784556107a9575b50610738611224565b610740611224565b61074933610fbb565b50610752578280f35b7fc7f505b2f371ae2175ee4913f4499e1f2633a7b5936321eed1cdaeb6115181d291817fffffffffffffffffffffffffffffffffffffffffffffff00ffffffffffffffff602093541690555160018152a138808280f35b7fffffffffffffffffffffffffffffffffffffffffffffff00000000000000000016680100000000000000011782553861072f565b84517ff92ee8a9000000000000000000000000000000000000000000000000000000008152fd5b905015386106fb565b303b1591506106f3565b8491506106e9565b5091346101195780600319360112610119575073ffffffffffffffffffffffffffffffffffffffff7f000000000000000000000000000000000000000000000000000000000000000016300361089957602090517f360894a13ba1a3210667c828492db98dca3e2076cc3735a920a3ca505d382bbc8152f35b517fe07c8dba000000000000000000000000000000000000000000000000000000008152fd5b50908060031936011261011c5781359073ffffffffffffffffffffffffffffffffffffffff93848316928381036105475760249586359167ffffffffffffffff8311610be05736602384011215610be057828701359161091e83610dfa565b9061092b87519283610d8a565b83825260209384830195368c83830101116102a9578188928d889301893784010152807f000000000000000000000000000000000000000000000000000000000000000016803014918215610bb2575b5050610b8a57610989610f05565b85517f52d1902d00000000000000000000000000000000000000000000000000000000815283818a818b5afa869181610b57575b506109f25750505050505051917f4c9c8ce3000000000000000000000000000000000000000000000000000000008352820152fd5b9088888894938c7f360894a13ba1a3210667c828492db98dca3e2076cc3735a920a3ca505d382bbc91828103610b2a5750853b15610afd575080547fffffffffffffffffffffffff000000000000000000000000000000000000000016821790558451889392917fbc7cd75a20ee27fd9adebab32041f755214dbc6bffa90cc0225b39da2e5c2d3b8580a2825115610ac657505061040a9582915190845af4913d15610abc573d610aae610aa582610dfa565b92519283610d8a565b81528581943d92013e61127d565b506060925061127d565b955095505050505034610ad857505080f35b7fb398979f000000000000000000000000000000000000000000000000000000008152fd5b83838851917f4c9c8ce3000000000000000000000000000000000000000000000000000000008352820152fd5b84908851917faa1d49a4000000000000000000000000000000000000000000000000000000008352820152fd5b9091508481813d8311610b83575b610b6f8183610d8a565b81010312610b7f575190386109bd565b8680fd5b503d610b65565b8786517fe07c8dba000000000000000000000000000000000000000000000000000000008152fd5b7f360894a13ba1a3210667c828492db98dca3e2076cc3735a920a3ca505d382bbc541614159050388061097b565b8380fd5b50919034610547578060031936011261054757610bff610d62565b903373ffffffffffffffffffffffffffffffffffffffff831603610c29575061040a919235611163565b8390517f6697b232000000000000000000000000000000000000000000000000000000008152fd5b50903461011c578060031936011261011c5761040a9135610c7560016103d4610d62565b611098565b503461011c57602060031936011261011c57816020936001923581527f02dd7bc7dec4dceedda775e58dd541e08a116c6c53815c0bd028192f7b62680085522001549051908152f35b9250503461011c57602060031936011261011c57357fffffffff00000000000000000000000000000000000000000000000000000000811680910361011c57602092507f7965db0b000000000000000000000000000000000000000000000000000000008114908115610d38575b5015158152f35b7f01ffc9a70000000000000000000000000000000000000000000000000000000091501438610d31565b6024359073ffffffffffffffffffffffffffffffffffffffff82168203610d8557565b600080fd5b90601f7fffffffffffffffffffffffffffffffffffffffffffffffffffffffffffffffe0910116810190811067ffffffffffffffff821117610dcb57604052565b7f4e487b7100000000000000000000000000000000000000000000000000000000600052604160045260246000fd5b67ffffffffffffffff8111610dcb57601f017fffffffffffffffffffffffffffffffffffffffffffffffffffffffffffffffe01660200190565b6006811015610e4d576000526000602052604060002090565b7f4e487b7100000000000000000000000000000000000000000000000000000000600052602160045260246000fd5b6006811015610e4d576000526001602052604060002090565b9181601f84011215610d855782359167ffffffffffffffff8311610d85576020808501948460051b010111610d8557565b9190811015610ed65760051b0190565b7f4e487b7100000000000000000000000000000000000000000000000000000000600052603260045260246000fd5b3360009081527fb7db2dd08fcb62d0c9e08c51941cae53c267786a0b75803fb7960902fc8ef97d602052604081205460ff1615610f3f5750565b604490604051907fe2517d3f0000000000000000000000000000000000000000000000000000000082523360048301526024820152fd5b806000527f02dd7bc7dec4dceedda775e58dd541e08a116c6c53815c0bd028192f7b62680060205260406000203360005260205260ff6040600020541615610f3f5750565b73ffffffffffffffffffffffffffffffffffffffff1660008181527fb7db2dd08fcb62d0c9e08c51941cae53c267786a0b75803fb7960902fc8ef97d60205260408120549091907f02dd7bc7dec4dceedda775e58dd541e08a116c6c53815c0bd028192f7b6268009060ff1661109357828052602052604082208183526020526040822060017fffffffffffffffffffffffffffffffffffffffffffffffffffffffffffffff0082541617905533917f2f8788117e7eff1d82e926ec794901d17c78024a50270940304540a733656f0d8180a4600190565b505090565b906000918083527f02dd7bc7dec4dceedda775e58dd541e08a116c6c53815c0bd028192f7b6268008060205273ffffffffffffffffffffffffffffffffffffffff6040852093169283855260205260ff6040852054161560001461115d57818452602052604083208284526020526040832060017fffffffffffffffffffffffffffffffffffffffffffffffffffffffffffffff008254161790557f2f8788117e7eff1d82e926ec794901d17c78024a50270940304540a733656f0d339380a4600190565b50505090565b906000918083527f02dd7bc7dec4dceedda775e58dd541e08a116c6c53815c0bd028192f7b6268008060205273ffffffffffffffffffffffffffffffffffffffff6040852093169283855260205260ff60408520541660001461115d5781845260205260408320828452602052604083207fffffffffffffffffffffffffffffffffffffffffffffffffffffffffffffff0081541690557ff6391f5c32d9c69d2a47ea670b442974b53935d1edc7fd64eb21e047a839171b339380a4600190565b60ff7ff0c57e16840df040f15088dc2f81fe391c3923bec73e23a9662efc9c229c6a005460401c161561125357565b60046040517fd7e6bcf8000000000000000000000000000000000000000000000000000000008152fd5b906112bc575080511561129257805190602001fd5b60046040517f1425ea42000000000000000000000000000000000000000000000000000000008152fd5b81511580611314575b6112cd575090565b60249073ffffffffffffffffffffffffffffffffffffffff604051917f9996b315000000000000000000000000000000000000000000000000000000008352166004820152fd5b50803b156112c556fea2646970667358221220876f1a3e78bdb59356db2b594a054dfa9e814af9a0d223d4a3670091e7b9f40f64736f6c63430008180033","linkReferences":{}},"methodIdentifiers":{"DEFAULT_ADMIN_ROLE()":"a217fddf","UPGRADE_INTERFACE_VERSION()":"ad3cb1cc","contracts(uint8)":"fc3eced0","getContract(uint8)":"de981f1b","getRoleAdmin(bytes32)":"248a9ca3","grantRole(bytes32,address)":"2f2ff15d","hasRole(bytes32,address)":"91d14854","initialize()":"8129fc1c","populate(uint8[],address[])":"e1255a08","proxiableUUID()":"52d1902d","renounceRole(bytes32,address)":"36568abe","revokeRole(bytes32,address)":"d547741f","setContract(uint8,address)":"865e6fd3","supportsInterface(bytes4)":"01ffc9a7","upgradeToAndCall(address,bytes)":"4f1ef286","versions(uint8)":"a22dc790"},"id":4}